:020000040800F2
:100000000004002047010008510C00089704000874
:100010004D0C0008F30100083D1600080000000028
:10002000000000000000000000000000391300087C
:100030002D03000800000000010D00083F14000817
:1000400067010008670100086701000867010008F0
:1000500067010008670100086701000867010008E0
:1000600067010008670100086701000867010008D0
:1000700067010008670100086701000867010008C0
:1000800067010008670100086701000867010008B0
:1000900067010008670100086701000867010008A0
:1000A0006701000867010008670100086701000890
:1000B0006701000867010008670100086701000880
:1000C0006701000867010008670100086701000870
:1000D0006701000867010008670100086701000860
:1000E0006701000867010008670100086701000850
:1000F0006701000867010008670100086701000840
:10010000670100085D0F000867010008670100082B
:10011000670100086701000867010008670100081F
:10012000670100086701000867010008670100080F
:10013000DFF80CD000F01EF800480047A1160008B8
:10014000C8100020704708488047084981F3088894
:1001500007480047FEE7FEE7FEE7FEE7FEE7FEE7AB
:10016000FEE7FEE7FEE7FEE745010008C8100020B5
:1001700031010008064C074D06E0E06840F001033D
:1001800094E8070098471034AC42F6D3FFF7D4FF49
:10019000ACC90408CCC904082DE9F04104460D4659
:1001A00016461F462A2001F04BFAC4F30F2001F037
:1001B00057FAA0B201F054FAC5F30F2001F050FA3B
:1001C000A8B201F04DFA2B2001F03AFAC6F30F2045
:1001D00001F046FAB0B201F043FAC7F30F2001F084
:1001E0003FFAB8B201F03CFA2C2001F029FABDE840
:1001F000F08100BFFEE700002DE9F04106462A2706
:100200004848456B01E04748456B05F0450000282C
:10021000F9D005F0040030B10327042000F06CFE93
:100220003846BDE8F08105F0010028B10127012022
:1002300000F062FE3846F4E700F06AFEB04202D0F9
:1002400010273846EDE740F2FF5000F055FE002041
:1002500000F07CFE04463448204008B93846E0E708
:1002600004F0004008B11C20DBE704F0804008B136
:100270000920D6E704F0005008B10A20D1E704F0C5
:10028000805008B10B20CCE704F0006008B10C20CE
:10029000C7E704F0806008B10D20C2E704F0807069
:1002A00008B10E20BDE704F4000008B10F20B8E744
:1002B00004F4800008B11020B3E704F4001008B182
:1002C0001120AEE704F4801008B11220A9E704F46D
:1002D000002008B11320A4E704F4802008B1142002
:1002E0009FE704F4003008B115209AE704F4803049
:1002F00008B1162095E704F4004008B1172090E7F4
:1003000004F4804008B118208BE704F4005008B1D1
:10031000192086E704F0080008B11A2081E7384662
:100320007FE700000080014008E0FFFD704701B555
:1003300081B00020009009E002E00198401E019089
:1003400001980028F9D10098401C00900098B0F561
:10035000347FF1DB0CBD70B506460C4615462346CE
:10036000224631463046FFF717FF281201F078F990
:10037000284601F075F970BD2DE9F04102460025CF
:100380000026002000230024002791F803C00CF071
:100390000F0591F803C00CF0100CBCF1000F03D056
:1003A00091F802C04CEA050591F800C0BCF1000FBD
:1003B00031D0146800202BE04FF0010C0CFA00F350
:1003C000B1F800C00CEA03069E4220D183004FF032
:1003D0000F0C0CFA03F7BC4305FA03FC4CEA0404C7
:1003E00091F803C0BCF1280F06D14FF0010C0CFAB4
:1003F00000FCC2F814C00AE091F803C0BCF1480F39
:1004000005D14FF0010C0CFA00FCC2F810C0401CE2
:100410000828D1D31460B1F800C0BCF1FF0F34DD5F
:10042000546800202EE000F1080C4FF0010808FA93
:100430000CF3B1F800C00CEA03069E4221D1830000
:100440004FF00F0C0CFA03F7BC4305FA03FC4CEA1F
:10045000040491F803C0BCF1280F05D100F1080C89
:1004600008FA0CF8C2F8148091F803C0BCF1480FE8
:1004700007D100F1080C4FF0010808FA0CF8C2F897
:100480001080401C0828CED35460BDE8F081416143
:1004900070470161704700BFFEE710B500F0FEFF36
:1004A00001F036F800F0D5FB10BD00002DE9F04753
:1004B00080460C4615461E46DDF82090A019431EC6
:1004C00008EB0500411E22464046FFF765FE002767
:1004D00009E008210748FFF7DCFF19F80710064874
:1004E00000F00AFF7F1C05FB06F0B7EB400FF0D3CE
:1004F000BDE8F087000801400030014008B5012147
:10050000080200F06FFC01217C2000F07BFC102031
:100510008DF8030003208DF802004FF40050ADF871
:10052000000069463D48FFF727FF42F22000ADF882
:10053000000069463A48FFF71FFF03208DF80200CC
:1005400018208DF803004CF20370ADF800006946E6
:100550003248FFF711FF4FF68070ADF80000694692
:100560003048FFF709FF1020ADF8000069462B481E
:10057000FFF702FF2020ADF8000069462748FFF78B
:10058000FBFE8020ADF8000069462448FFF7F4FE2A
:100590004FF40060ADF8000069462048FFF7ECFE1C
:1005A0004FF400511D48FFF774FF20211C48FFF74E
:1005B00070FF10211948FFF76CFF20211748FFF743
:1005C00068FF80211548FFF764FF1C20ADF800008C
:1005D00010208DF8030003208DF8020069461248B0
:1005E000FFF7CAFE10211048FFF751FF4FF40051EA
:1005F0000B48FFF74EFF4FF40A60ADF800001020E3
:100600008DF8030003208DF8020069460348FFF7C8
:10061000B3FE80210148FFF73AFF08BD00140140F6
:100620000010014000180140000801402DE9FC477E
:1006300006460F4614469846DDE90A9A00250CE066
:1006400006EBC50188B2434622463946CDE9009AF9
:1006500000F058FBA41CA81CC5B220780028EFD1DC
:10066000BDE8FC872DE9F04707460C4615461E46B7
:10067000DDF82080A019431E7819411E2246384615
:10068000FFF78AFD4FF0000908E04FEA282000F04C
:10069000E7FF404600F0E4FF09F1010905FB06F021
:1006A0004845F2D8BDE8F08738B51021FE48FFF77D
:1006B000F0FE0A20FFF73BFE1021FB48FFF7E7FEA4
:1006C0000A20FFF734FEF02000F0BAFF5A2000F0B5
:1006D000C7FF5A2000F0C4FFF12000F0B1FF5A20FC
:1006E00000F0BEFF5A2000F0BBFFF22000F0A8FF90
:1006F0003B2000F0B5FF332000F0B2FF032000F0F4
:10070000AFFF0C2000F0ACFF082000F0A9FF08208C
:1007100000F0A6FF082000F0A3FF002000F0A0FFDB
:10072000082000F09DFF082000F09AFF002000F054
:1007300097FF002000F094FF002000F091FF0020C0
:1007400000F08EFF332000F08BFF0C2000F088FFBC
:10075000082000F085FF0C2000F082FF082000F048
:100760007FFFF42000F06CFF072000F079FF0020ED
:1007700000F076FF002000F073FF002000F070FF13
:10078000002000F06DFF002000F06AFF002000F064
:1007900067FF002000F064FF042000F061FF70207C
:1007A00000F05EFF032000F05BFF042000F058FF24
:1007B000702000F055FF032000F052FFF52000F0FC
:1007C0003FFF002000F04CFF462000F049FF702062
:1007D00000F046FF002000F043FF002000F040FF43
:1007E000022000F03DFF002000F03AFF002000F062
:1007F00037FF002000F034FF002000F031FF4620DA
:1008000000F02EFF702000F02BFFF62000F018FF04
:10081000032000F025FF002000F022FF082000F058
:100820001FFF032000F01CFF032000F019FF002031
:1008300000F016FF032000F013FF002000F010FF6F
:10084000F72000F0FDFE482000F00AFF802000F0B5
:1008500007FF102000F004FF022000F001FF00203D
:1008600000F0FEFEF82000F0EBFE112000F0F8FE94
:10087000002000F0F5FEF92000F0E2FE142000F068
:10088000EFFEFA2000F0DCFE332000F0E9FE072046
:1008900000F0E6FE042000F0E3FE1A2000F0E0FE87
:1008A000182000F0DDFE1C2000F0DAFE242000F00D
:1008B000D7FE1D2000F0D4FE262000F0D1FE282017
:1008C00000F0CEFE2F2000F0CBFE2E2000F0C8FE60
:1008D000002000F0C5FE002000F0C2FE002000F065
:1008E000BFFE002000F0BCFEFB2000F0A9FE33207C
:1008F00000F0B6FE032000F0B3FE002000F0B0FED2
:100900002E2000F0ADFE2F2000F0AAFE282000F0DF
:10091000A7FE262000F0A4FE1D2000F0A1FE24204A
:1009200000F09EFE1C2000F09BFE182000F098FEB8
:100930001A2000F095FE042000F092FE002000F046
:100940008FFE002000F08CFE002000F089FEF920D0
:1009500000F076FE122000F083FEFA2000F070FE18
:10096000362000F07DFE072000F07AFE042000F023
:1009700077FE1C2000F074FE1C2000F071FE232086
:1009800000F06EFE282000F06BFE1C2000F068FED8
:10099000252000F065FE262000F062FE2E2000F0EB
:1009A0005FFE2B2000F05CFE002000F059FE0020CE
:1009B00000F056FE002000F053FE002000F050FE34
:1009C000FB2000F03DFE332000F04AFE062000F040
:1009D00047FE002000F044FE2B2000F041FE2E20B8
:1009E00000F03EFE262000F03BFE252000F038FE01
:1009F0001C2000F035FE282000F032FE232000F0FD
:100A00002FFE1C2000F02CFE1C2000F029FE0420EC
:100A100000F026FE002000F023FE002000F020FE63
:100A2000002000F01DFEF92000F00AFE112000F069
:100A300017FEFA2000F004FE332000F011FE07201C
:100A400000F00EFE042000F00BFE302000F008FE47
:100A5000322000F005FE342000F002FE352000F0C8
:100A6000FFFD112000F0FCFD1D2000F0F9FD20200D
:100A700000F0F6FD282000F0F3FD202000F0F0FD4E
:100A8000002000F0EDFD002000F0EAFD002000F065
:100A9000E7FD002000F0E4FDFB2000F0D1FD332055
:100AA00000F0DEFD032001E00008014000F0D8FD69
:100AB000002000F0D5FD202000F0D2FD282000F01D
:100AC000CFFD202000F0CCFD1D2000F0C9FD11203D
:100AD00000F0C6FD352000F0C3FD342000F0C0FD5D
:100AE000322000F0BDFD302000F0BAFD042000F0FF
:100AF000B7FD002000F0B4FD002000F0B1FD0020A3
:100B000000F0AEFD442000F09BFD002000F0A8FDA9
:100B1000012000F0A5FD2A2000F092FD002000F049
:100B20009FFD002000F09CFD012000F099FD3F207A
:100B300000F096FD2B2000F083FD002000F090FDDA
:100B4000002000F08DFD012000F08AFDDF2000F084
:100B500087FD362000F074FD002000F081FD3A2072
:100B600000F06EFD552000F07BFD112000F068FDC7
:100B70007820FFF7DCFB292000F062FD2C2000F03C
:100B80005FFD0A20FFF7D3FB362000F059FD6020FF
:100B900000F066FD00F0DAFD0420294908603620E7
:100BA00000F04EFD402000F05BFD40F2DF1300221C
:100BB00040F23F111046FFF7EFFA002412E008213F
:100BC0001F481038FFF765FC00211E4800F094FB19
:100BD00008211B481038FFF75CFC1F21194800F062
:100BE0008BFB641CB4F5163FE9DB002413E00821FD
:100BF00013481038FFF74DFCFF21124800F07CFB32
:100C000008210F481038FFF744FC4FF6E0710D48FB
:100C100000F072FB641CB4F5163FE8DB362000F0F0
:100C20000FFD602000F01CFD07484FF4A0734FF447
:100C3000F072002100900846FFF738FC38BD000034
:100C40001008014000300140AA19000800BFFEE76B
:100C5000704708B54FF4C06000F048F831208DF8B7
:100C6000000000208DF801008DF8020001208DF8B1
:100C70000300684600F002F808BD000070B50021CE
:100C800000230F22C47804B3154C246804F4E064F4
:100C9000C4F5E064210AC1F10403CA40447804FAAF
:100CA00003F184781440214309010E4C0678A155C4
:100CB000047804F01F050124AC4005786D11AD00E7
:100CC00005F1E025C5F8004109E0047804F01F05AE
:100CD0000124AC40044D0678761145F8264070BDDD
:100CE0000CED00E000E400E080E100E00249014397
:100CF000024A1160704700000000FA050CED00E0A8
:100D0000704700002DE9F05F0446884691469B46F7
:100D1000C5EBC50000EB800031490844C01C10F849
:100D200006A008F10F03424604F10F012046FFF729
:100D300033FA00254FE0C5EBC50000EB80002849E1
:100D4000085C99F80010884244D1C5EBC50000EB5F
:100D5000800023490844407899F80110884239D12D
:100D6000002635E0C5EBC50000EB80001C490844B7
:100D7000C01C10F806A0002719E00AF080008028A7
:100D800007D11FFA8BF2E11988B24146FFF7E3FA67
:100D900008E00B9830B10A998AB2E11988B241464D
:100DA000FFF7D9FA4FF6FF7000EA4A0A7F1C082FB6
:100DB000E3D306F0010038B108F101001FFA80F812
:100DC000A4F1080084B202E004F1080084B2761CA9
:100DD000202EC7D36D1C402DADD3BDE8F09F000081
:100DE0002918000829B1064A52690243044B5A6186
:100DF00004E0034A52698243014B5A617047000084
:100E00000010024029B1064A92690243044B9A61DC
:100E100004E0034A92698243014B9A6170470000E3
:100E20000010024030B500210022002400232D4D87
:100E30006D6805F00C0121B1042905D0082923D1E2
:100E400005E0294D056022E0274D05601FE0254D96
:100E50006D6805F47012234D6D6805F48034022529
:100E600005EB92421CB9214D554305600BE01D4D29
:100E70006D6805F400351DB11C4D5543056002E059
:100E8000194D5543056002E0174D056000BF00BFD6
:100E9000144D6D6805F0F0010909154D6B5C05688E
:100EA000DD4045600F4D6D6805F4E061090A104DA5
:100EB0006B5C4568DD4085600A4D6D6805F46051E6
:100EC000C90A0B4D6B5C4568DD40C560054D6D681A
:100ED00005F44041890B074D6B5CC568B5FBF3F524
:100EE000056130BD0010024000127A0000093D008B
:100EF0002D0000203D00002001498863704700005C
:100F00000080014001498863704700000080014073
:100F100001480069C0B270470080014001460020CE
:100F2000034A526B0A400AB1012000E000207047DA
:100F30000080014001460020034A526B0A400AB17A
:100F4000012000E000207047008001400146024877
:100F500008444069704700000080014010B500F06F
:100F600033F810BD29B1064AD26B0243044BDA6351
:100F700004E0034AD26B8243014BDA6370470000FE
:100F800000800140014800687047000080800140F7
:100F90000021094B02689A601A46D1686FF30A0172
:100FA000D0E901231A43C3681A4303691A43114362
:100FB000014AD1607047000000800140014908608B
:100FC000704700008080014070B5002400258848EB
:100FD0000068012867D1C003FFF7ACFFA8B100BFCC
:100FE00006E0FFF7CFFF8349096841F82400641C3D
:100FF000082CF6D37F48006820307E4908607E4880
:10100000006820307C4908604DE04FF48040FFF7D5
:1010100091FF002847D07948006877490968401A4D
:1010200020282BD27548007873490968401A00F0CF
:10103000030030B9714800686F490968401A800898
:1010400006E06E4800686C490968401A8008401C38
:10105000054600240FE06A4909680868FFF7AEFFFB
:10106000641C67480068001D6549086062480068A4
:10107000001D61490860AC42EDD314E0002406E095
:101080005F49096851F82400FFF798FF641C082C99
:10109000F6D35B480068203059490860564800681C
:1010A0002030554908604FF48070FFF743FFD8B3F4
:1010B0004F480068D0B10EE0FFF764FF4D49096862
:1010C00008604C480068001D4A4908604A480068AA
:1010D000001D494908604FF40010FFF71FFF28B1B9
:1010E00045480068454909688842E5D34548006895
:1010F000012804D100F08CF84349087002E02A204E
:10110000414908704FF48070FFF7FCFE00214CF25B
:101110003A30FFF727FF01203C490860002036499C
:1011200008603948007870BDFFE70220FFF702FF32
:1011300070B10220FFF7E6FE00214CF23A30FFF7D3
:1011400011FF00202C49086002202F490870EAE7AF
:101150000820FFF7EFFE70B10820FFF7D3FE002153
:101160004CF23A30FFF7FEFE0020234908600420CD
:1011700025490870D7E72020FFF7DCFE70B120205A
:10118000FFF7C0FE00214CF23A30FFF7EBFE0020E3
:101190001949086006201C490870C4E71020FFF7B1
:1011A000C9FE70B11020FFF7ADFE00214CF23A30BD
:1011B000FFF7D8FE0020104908600520124908708A
:1011C000B1E74FF40070FFF7B5FE78B14FF400704F
:1011D000FFF798FE00214CF23A30FFF7C3FE0020E3
:1011E000054908600720084908709CE72A209AE70B
:1011F0000800002018000020240000200C0000201F
:1012000014000020100000201C00002020000020FE
:1012100010B52A2400200A4908600C2048604020AC
:1012200088600020C8604FF4806008610846FFF7BE
:10123000AFFE0C20FEF7E0FF0446204610BD000084
:101240007C00002000B587B0012141F20500FFF7C6
:10125000D9FDA020ADF8040018208DF80700032068
:101260008DF8060001A91C48FFF786F81020ADF89C
:1012700004008DF8070003208DF8060001A9164828
:10128000FFF77AF810211448FFF701F90020ADF8B4
:1012900008004FF48270ADF80A000020ADF80C0091
:1012A0000220ADF80E000120ADF810004002ADF8AC
:1012B00012000820ADF814000020ADF81600072039
:1012C000ADF8180002A9054800F018F801210348FC
:1012D00000F006F807B000BD0008014000300140F2
:1012E00021B1028842F04002028004E002884FF6F9
:1012F000BF731A40028070478181704710B5002289
:10130000028802F441520B884C8823438C88234383
:10131000CC8823430C8923434C8923438C89234362
:10132000CC8923431A430280838B4FF2FF742340FE
:1013300083830B8A038210BD704710B500F002F85A
:1013400010BD00000CB500200190009034480068EA
:1013500040F480303249086000BF3148006800F432
:10136000003000900198401C0190009818B9019835
:10137000B0F5A06FF1D12A48006800F4003010B138
:101380000120009001E0002000900098012844D145
:101390002448006840F010002249086008460068B0
:1013A00020F0030008600846006840F00200086072
:1013B0001B4840681A49486008464068486008462B
:1013C000406840F4806048600846406820F47C1023
:1013D00048600846406840F4641048600846006869
:1013E00040F08070086000BF0D48006800F0007099
:1013F0000028F9D00A48406820F0030008494860F6
:101400000846406840F00200486000BF0448406859
:1014100000F00C000828F9D101E000BFFEE70CBD88
:101420000010024000200240017939B9016829B159
:101430000168491E016009B901210171704710B5A9
:1014400000F002F810BD000010B5002406E01049BD
:1014500001EBC400FFF7E8FF601CC4B2042CF6DB0C
:101460000C480078401CC0B20A4908700A280DDBFD
:101470000020087008480068401C074908600846BA
:101480000068B0F1004F01D10020086010BD0000DD
:10149000A80000202C0000202800002010B51148D2
:1014A000006840F001000F490860084640680E4996
:1014B00008400C494860084600680C490840094942
:1014C00008600846006820F48020086008464068EC
:1014D00020F4FE0048604FF41F008860FFF72DFFE6
:1014E00010BD0000001002400000FFF8FFFFF6FEF4
:1014F000CA430280704721B1828942F4005282813E
:1015000004E082894DF6FF731A4082817047000023
:1015100000B585B001210520FFF774FC0121880387
:10152000FFF770FC4FF40070ADF8100018208DF834
:10153000130003208DF8120004A91748FEF71CFFC2
:101540004FF48060ADF8100004208DF8130004A95A
:101550001148FEF711FF04A90F48FEF70DFF4FF4E5
:10156000E13000900020ADF80400ADF80600ADF8C1
:101570000800ADF80C000C20ADF80A0069460748D9
:1015800000F00EF801210548FFF7B5FF40210348A0
:10159000FFF7AEFF05B000BD000801400038014074
:1015A0002DE9F04786B005460E460024A24600BF4E
:1015B00000BF00272F462C8A4CF6FF700440F088AD
:1015C00004432C82AC894EF6F3100440B088318974
:1015D0000843718908430443AC81AC8A4FF6FF404D
:1015E0000440B0890443AC8201A8FFF71BFC1248F9
:1015F000874202D1DDF810A001E0DDF80CA00AEB73
:10160000CA0000EB0A1031688900B0FBF1F86420D1
:10161000B8FBF0F004012009642101FB108932209D
:1016200000EB0910B0FBF1F000F00F0004432C8137
:1016300006B0BDE8F08700000038014000BFFEE7BB
:1016400010B5044608210448FEF721FF214603484F
:10165000FFF752FE10BD00000008014000300140BD
:1016600010B5044608210448FEF713FF214603483D
:10167000FFF742FE10BD00000008014000300140AD
:1016800002E008C8121F08C1002AFAD1704770474B
:10169000002001E001C1121F002AFBD170470000A9
:1016A0001CB500BF00BFFEF7F8FEFEF727FFFFF7EF
:1016B000C9FDFEF7F9FF3620FFF7C2FF1020FFF744
:1016C000CFFF00204FF478414FF6E07316A2CDE92A
:1016D00000101E210846FEF7A9FF3620FFF7B0FFD5
:1016E0006020FFF7BDFF01204FF478414FF6E07313
:1016F00010A2CDE9001014215020FEF797FF4FF6FD
:10170000E07014231A46642100900846FEF7AAFFF1
:101710004FF6E07014231A46462100908C20FEF705
:10172000A1FF00BFFEE70000D6A7B3D6BAE1CAFA10
:10173000C6C10000A3B1A3B8A3B6A3B1A3B7A3B019
:10174000A3B5A3B6A3B0A3B6A3B6000070B540F28C
:10175000DF13002240F23F111046FEF71DFD002569
:1017600057E0002450E0282C06DA0020FFF778FF2D
:101770000020FFF775FF45E0502C06DA0020FFF748
:101780006FFF1F20FFF76CFF3CE0782C07DAF82092
:10179000FFF766FF4FF61F00FFF762FF32E0A02C55
:1017A00007DAFF20FFF75CFF4FF6E070FFF758FF06
:1017B00028E0C82C07DAF820FFF752FF4FF47840F2
:1017C000FFF74EFF1EE0F02C07DA0720FFF748FF77
:1017D0004FF4FC60FFF744FF14E0B4F58C7F07DAA8
:1017E000FF20FFF73DFF4FF6E070FFF739FF09E0FC
:1017F000B4F5A07F06DABC20FFF732FF4BF640407D
:10180000FFF72EFF601C84B2B4F5A07FABDB681C31
:1018100085B2B5F5F07FA4DB70BD0C101000000E92
:101820001111111111110E0000D6A70001000100C5
:101830000104FFFE010001003FF0082008200440E1
:101840000280010002800C60301EC004B3D600107C
:10185000401040105013F8FC40104817FC1810308E
:1018600014D7FE121011101110101050502020BA71
:10187000E1001110111017FC1110FD1417FE304873
:101880003BFC564853F8924813F810001110130C03
:101890001404CAFA00040025FC25042488245024DA
:1018A000202450248E070401103FF808200820044B
:1018B00044FFFE0000C6C10000083FFC20082008CD
:1018C0003FF8222021482FFC222022243FFE222004
:1018D0002220422084200820A3B100000000000044
:1018E00080038001800180018001800180018001EE
:1018F000800180018003C000000000A3B800000048
:10190000000003C006600C300C30066003C00660A7
:101910000C300C300C30066003C000000000A3B691
:10192000000000000003C006600C300C000DC00E6B
:10193000600C300C300C300C30066003C00000002E
:1019400000A3B700000000000FF00FF008300060A7
:1019500000C000C0018001800300030003000300F9
:1019600000000000A3B0000000000003E006300CFF
:10197000180C180C180C180C180C180C180C18064D
:101980003003E000000000A3B500000000000FF0ED
:101990000C000C000C000FC00E6000300030003056
:1019A0000C30066003C0000000003DBD3DBD3DBDE4
:1019B0003DBD3DBD3DBD3DBD3DBD3DBD3DBD3DBD57
:1019C0003DBD3DBD3DBD3DBD3DBD3DBD3DBD3DBD47
:1019D0003DBD3DBD3DBD3DBD3DBD3DBD3DBD3DDD17
:1019E0003DDD3DDD3DDD3DDC3DDC35BD35BD35BDA1
:1019F00035BD35BE35BE2DBF2DBF2DBE2D9D359BB2
:101A00003DBB459A459A459B3D7B3D7B3DBD35BDE4
:101A10002DDD35FE35FE3DDD35DD35BC35DC35BC37
:101A2000359C3D9C45DD45DE35DD2DDD2DDC35DD90
:101A30003DFD3DDD3DBC359B359B3D9C3D9C459C26
:101A400045BD45BD3DBD35BD35BD3DBD3DBD35DDAE
:101A500035DD35DC35BC35BC35BC2D5B2D7C2DBC76
:101A600035DD35DE35BD3D9D357D35DD2DFC35DC87
:101A700035FC35DD3DDD3DDD3DDD3D9D3D9D3DBD27
:101A80003DBD3DBD35BD35DE3DDD3DDD45BD45BD25
:101A900045BD45BD45BD45BD45BD4DDD4DDD4DDDBE
:101AA0004DDD4DDD4DDD4DDD4DDD4DDD4DDD4DDDE6
:101AB0004DDD4DDD4DDD4DFD4DFD4DFD4DFD4DFD36
:101AC0004DFD4DFD4DFC4DFC4DFD4E1D4E1D4E1D65
:101AD0004E1D4DFD4DFD4DFD4DFD4DFD4DFD55FD8D
:101AE00055FD55FD55FD561D561D561D561D561DC1
:101AF000561D561D561D5E1D5E1D5DFC5DFC5DFC8C
:101B00005DFC5DFC5DFC5DFB5DFB5DFC5DFC5DFC0F
:101B10005DFC661C661C661C661C65FC65FC65FC41
:101B200065FC661B661C661C661B6E1C6E1B6E3B92
:101B30006E3B6E3C6E3C6E3C6E3C765C765C765CDE
:101B4000765C765C765C765C765C763D7E3D7E3D52
:101B50007E3D7E3D7E3D7E3D7E3D7E3C7E3C863DA7
:101B6000863D865D863D7E3D7E3D7E7F761D865E22
:101B70008E7F85DC8DFB965C8E3B8E5C7E1C7E5D55
:101B80007E7F763E7E5E7E7E7E3D865E865D865D67
:101B9000865D865D865D865D865D865D865D865D2D
:101BA000865D865D865D865D865D865D865D865D1D
:101BB000865D865D865D865D865D863D863D865D4D
:101BC000865D865D865D865D865D8E7E867E867E92
:101BD000867E867E867E867E867E869E869E869E85
:101BE000869E869E869E869E8E7E969E969E969EBD
:101BF000969E969E969E969E969E96BE96BE96BEE5
:101C000096BE96BE96BE96BE96BE96BE96BE9EBE2C
:101C10009EBE9EBE9EBE9EBE9EDD9EDD9EDD9EBC89
:101C20009EBC9EBCA6DCA71DAF3ED7DFC75FB6DE5D
:101C3000AEBDAEBFAEDFA6DF9EBE9EDE9EDD9EDDEC
:101C40009EDD9EDD9EDE9EDE9EDE9EDE9EDEA6DEAE
:101C5000A6DEA6DDA6DDA6BEA6BEA6BEA6DFAEDFBC
:101C6000AEDFAEFEB6FEB71DB71EAF1DAF1EAF1E78
:101C7000AF1EB6FDB6FDB6FDB6FDB6FEB6FEB6FEAF
:101C8000B6FEB6FEB6FEB6FEB6FEB6FEB6FEB6FEB4
:101C9000B6FEB6FEB6FEB6FEAEFEAEFEAEFEB6FEBC
:101CA000B6FEB6FEB6FEB6DFB6FEB71EB71EB71E50
:101CB000B71EB71FB71FB71FB71FAEFFAEFFB6FFE8
:101CC000B6FEB6FEB6FEB6FEB6FEB6FEB6FEB6FE74
:101CD000B6FEB6FEB6FEB6FEB6FEAEFEAEFEAEFE7C
:101CE000AEFEAEFEAEFEAEFEAEFEAEFEAEFEAEFE94
:101CF000AEFEAEFEA6DEA6DEA6DEA6DEA6DEA6DE74
:101D0000A6DEAEFEAEFEAEFEA6FEA71FA71FAF1F4D
:101D1000AF1FAF1FAF1FB71FB6FFB6FFBEFFBEDFBF
:101D2000BEDFBEDFBEDFBEBFBEBEC6DEC6DDC6FDD9
:101D3000C6FEC71ECF3ECF3ECF3ED75ED75ED75E34
:101D4000D75FD77FD77FD77FDF9FDF9FDF9FDF9F63
:101D5000DF9FDF9FDF9FDF9FDF9FDF9FDF9FDF9F93
:101D6000DF9FDF9FDF9FDF9FDF9F3DBD3DBD3DBD0F
:101D70003DBD3DBD3DBD3DBD3DBD3DBD3DBD3DBD93
:101D80003DBD3DBD3DBD3DBD3DBD3DBD3DBD3DBD83
:101D90003DBD3DBD3DBD3DBD3DBD3DBD3DBD3DDD53
:101DA0003DDD3DDD3DDD3DDC3DDC35BC35BC35BDDF
:101DB00035BD35BD35BE2DBE2DBE3E1F3DDD45DCDE
:101DC00055DB5DDB661C65FB4D7A457B3DBC3DDD2F
:101DD00035FD35FE35DD3DDD3DDC35DC3DFC3DDCF6
:101DE0003DBC3DBD45DE3DDE35DD2DDD2DDD35DD8A
:101DF0003DDC45BC45BC45DC4DFD4DFD45DC459C11
:101E00003D7C3D7C359C35BD35DD3DDD3DBD35BC86
:101E100035BC35DC35DC35BC35BC3DDD35DD35DD8F
:101E200035FE35FE3DDE3DDE3DDE35DD35DC35DCC7
:101E300035DC35DC3DDD3DBD3DBD3D9D3DBD3DBDA4
:101E40003DBD3DBD3DDD35DD3DDD3DDD45DD45DDFA
:101E500045DD45BD45BD45BD45BD45BD45BC45BC54
:101E600045BD45BD45DD4DDD4DDD4DDD4DDD4DDD7A
:101E70004DDD4DDD4DDD4DDD4DFD4DFD4DFD4DFD92
:101E80004DFD4DFD4DFC4DFC4DFD4DFD4DFD4DFD04
:101E90004DFD4DFD4DFD55FD55FD55FD55FD55FDCA
:101EA00055FC55FC55FD55FD55FC55FD561D561D63
:101EB000561D561D5E1D5E1C5E1C5E1C661C661C4F
:101EC00065FC65FC661C661C661C661C661D661D42
:101ED0006E3D6E3D6E3D6E3D6E5D765D765D765D12
:101EE000765D765D765D765D765D7E7D7E7D7E7DE2
:101EF0007E7D7E7D7E7D7E7D7E9D7E9D7E9D7E9D8A
:101F00007E9D7E9D7E9D7E9D869E869E867E867E15
:101F1000869E8E7E8E9E8E9E8E9E8E7E8E7E8E9EC9
:101F20008E9E8E9E8E9E8E7E8E9E8EDF867E863DC1
:101F30009E9EA69E859A7D378DF99EBC8E7C8EBE18
:101F40008EBF869F869F8EBF8E9E8E9E8E7E8E7E3D
:101F50008E7E8E7E8E7E8E7E8E7E8E9E8E9E8E9EC1
:101F60008E9E8E9E8E9E8E9E8E9E8E9E8E7E8E7E51
:101F70008E7E8E7E8E7E8E7E8E7E969E969E969E89
:101F8000969E969E969E96BF96BE96BF96BF96BF0D
:101F900096BF96BF96BF96BF96BF969E969E969EFC
:101FA000969E969E969E969E969E96BE96BE9EBE29
:101FB00096BE9EBE96BE9EBE96BE9EBE96BE9EBE61
:101FC00096BE9EBE96BE9EBE9EBE9EBE9EBE9EBE41
:101FD0009EDE9EDEA6DEA6DEA6DEA6FEA6DDA6DDD3
:101FE000A6DDA6DDA71DAF1DB73EC77FBF3EB6FE6F
:101FF000AEDEB6FFAF1FA6FF9EDEA6FEA71E9F1E8B
:102000009F1EA71EA6FEA6FEA6FFA6FFA6FFA6FE73
:10201000A6FEA6FEA6FEAEFEAEFEAEFFAEFFB6FF6D
:10202000B6FFB71FB71EB73EB73EB73EB73EB71EA7
:10203000B71EB71EB71EB71EB71EBF1EBF1EBF1EE0
:10204000BF1EB71EB71EB71EBF1EBF1EBF1EBF1EC0
:10205000B71EB71EB71EB71EB71EB71EB71EB71FD7
:10206000B71FBF1FBF1FBEFFBF1EBF1EBF3EBF3E6D
:10207000BF1FB71FB71FB71FB73FB71FB71FB71F88
:10208000B71FBF1FBF1EBF1EBF1EB71EB71EB71F85
:10209000B71EB71FB71EB71FB71EB71FB71EB71F94
:1020A000B71EB71FB71EB71FB71FAEFEAEFEAEFE00
:1020B000AEFEAEFEAEFEAEFEAEFEAEFEAEFEAEFEC0
:1020C000AEFEAEFEAEFEAEFEAF1EAF1FAF3FAF1F09
:1020D000B73FB73FB73FB71FBF3FBEFFBEFFBEFF13
:1020E000C6FFC6FFC6FFC6FFCEFFCF3FCF3FCF5FC5
:1020F000D75FD75FD77FD77FD77FD77FD77FD77F70
:10210000DF9FDF9FDF9FDF9FDF9FDF9FDF9FE79FD7
:10211000DF9FE79FDF9FE79FDF9FDF9FDF9FDF9FBF
:10212000DF9FDF9FDF9FDF9FDF9F3DBD3DBD3DBD4B
:102130003DBD3DBD3DBD3DBD3DBD3DBD3DBD3DBDCF
:102140003DBD3DBD3DBD3DBD3DBD3DBD3DBD3DBDBF
:102150003DBD3DBD3DBD3DBD3DBD3DBD3DBD3DDD8F
:102160003DDD3DDD3DDD3DDC3DDC35BC35BC35BC1C
:1021700035BC35BD35BD35BD35BD3D9C457A5DFBB6
:102180007E7C96BDA6FE9EBD7DFB559B45BC3DDD80
:102190003DFE35DE35BD3DBC3DDC3DDC3DFC3DFD61
:1021A0003DDD3DBD3DDE3DDE35DD2DDD35FD3DDC7E
:1021B000459B4D7A559B55DB55FC76FF669F4DFE42
:1021C0003DBC3D9C35BC35BD35DD3DDD35BC2DBC54
:1021D0002DBC2DDC2DFD35DD35DD35DD35DD35DD89
:1021E0002DBD2DBD2DBD35BD35BD2DDC2DDC35DC2A
:1021F00035DC35DC3DBC3DBC3DBC3DBD3DBD3DBDE4
:102200003DBD3DBD3DBD3DBD3DDD3DDD3DDD3DDD7E
:102210003DDD45DD45DD45DD45DD45BD45BC45BD17
:1022200045DC45DD45DD4DFD4DFD4DDD4DDD4DDD37
:102230004DDD4DDD4DDD4DDD4DFD4DFD4DFD4DFDCE
:102240004DFD4DFD4DFD4DFD4DDD4DDD55DD55DDAE
:1022500055DC55DC55DC55DC55DC55DC55DC55DCF6
:1022600055DC5DDC5DFC5DFC5DFC5E1C5E1C5E1D8A
:102270005E1D661C661C661C661C6E3C6E1C6E3CFD
:10228000763D763C763D763D763D765D765D765D57
:102290007E7E7E7D7E7E7E7E7E7E7E7E7E7E867D58
:1022A000869D869E869E869D869E8E9E8E9E8E9EF8
:1022B0008E9E8E9E8EBE8EBE96BE96BE96BE96BEDE
:1022C00096BE96BE96BE96BE96BE96BE96BE96BE6E
:1022D00096BE96BE96BE96BE9EDE9EDE9EBE9EBEFE
:1022E0009EBE9EBE9EBE9EBE9EDE9EDE965C9E7D79
:1022F000AEBEA61B959895978D97AEBCA6BCA6DEE4
:102300009EDF96BF96BF9EFF9EDE96BE96BE96BE91
:1023100096BE96BE96BE96BE96BE9EDF9EDF9EDFA2
:102320009EDF9EDF9EDF9EDF9EDF9EBE9EBE9EBE28
:102330009EBE9EBE9EBE9EBE9EBE9EDF9EDF9EDF5A
:102340009EDFA6DFA6DFA6FFA6FFA6DFA6FFA6DF0D
:10235000A6FFA6DFA6FFA6DFA6FF9EBF9EDE9EBF4E
:102360009EDE9EBF9EDE9EBF9EDEA6DEA6DEA6DEB3
:10237000A6DEA6DEA6DEA6DEA6DEA6DFA6DFA6DF3A
:10238000A6DFA6DFA6DFA6DFA6DFA6DFA6DFA6DF25
:10239000A6FFAEFEAEFEAEFEAEFEAF1EB71EAF1E79
:1023A000AF1DB71EB71EB73EB73EBF3EBF1EBEFE37
:1023B000B71EB71FB73FAF1FAF1FAF3FAF3EAF3E18
:1023C000AF3EAF3EAF3FAF3FAF3FB73FB73FB73E88
:1023D000B73EB73EB73EB73EB73FBF3FBF3FBF3F39
:1023E000BF3FBF3FBF3FBF3EBF5FBF3FBF3FBF3FDE
:1023F000BF3EBF3EBF3EC73EC73EC73EC73EC73ECD
:10240000C73EBF3EBF3EBF3EBF3EC73FC73EBF3FCA
:10241000BF3FBF3FBF3FBF3FBF3FBF3FBF3FBF3FCC
:10242000BF3FC73FC73FC73FC73EC73FC73FC73F85
:10243000C73FC73FC73FC73FBF3FC73FC73FC73F74
:10244000C73FC73FC73FC73FC73FBF3FBF3FBF3F74
:10245000BF3FBF3FBF3FBF3FBF3FBF3FBF3FBF3F8C
:10246000BF3FBF3FBF3FBF3FBF3FB73FB73FB73F94
:10247000B73FB73FB73FB73FB73FB71EB71FB71F0D
:10248000B71FB71FB71FB71FB73FB71EB73EB73F3E
:10249000B73EBF3FBF3FC73FC73FC71FC71FC71F8D
:1024A000CF3FD73FD73FD75FD75FDF7FDF9FDF9F2C
:1024B000DF9FDF9FDF9FDF9FDF9FDFBFDFBFDFBFCC
:1024C000DFBFDFBFDFBFE7BFE7BFE79FE7BFE79F34
:1024D000E7BFE79FE7BFE79FE7BFE7BFE7BFE7BF0C
:1024E000E7BFE7BFE7BFE7BFE7BF3DBD3DBD3DBDC0
:1024F0003DBD3DBD3DBD3DBD3DBD3DBD3DBD3DBD0C
:102500003DBD3DBD3DBD3DBD3DBD3DBD3DBD3DBDFB
:102510003DBD3DBD3DBD3DBD3DBD3DBD3DBD3DDDCB
:102520003DDD3DDD3DDD3DDC3DDC35BC35BC35BC58
:1025300035BC35BC35BD35BD3DBC459B559A869DEA
:10254000BFDFD7FFDFFFDFDFBF5F761D4DBC3DBCC8
:102550003DFD35DD35BD3DDC3DBC3DBB3DDC3DFDE0
:102560003DDD3DDE3DDE3DDD35DD35FD3DDD459BC3
:102570004D7A659B6DFB6DDB559A7F1F66BF4E1EC6
:102580003DDD3DBD3DBD35DC35DC3DDD35BC2DBC27
:102590002DDC2DFD2DFD2DDC2DBC35BC35BC2D9C41
:1025A0002DBC2DBC2DBD2DBD2DBD2DDC2DDC2DDC80
:1025B00035DC35BC3DBC3DBC3DBC3DBD3DBD3DBD40
:1025C0003DBD3DBD3DDD3DDD3DDD3DDD3DDD45DD73
:1025D00045DD45DD45DD45DD45DD45DD45DD45FDCB
:1025E00045FD4DFD4DFD4DFD4DFD45BD4DBD4DBD6B
:1025F0004DDD4DDD4DDD4DDD4DDD4DDD4DDD4DDD8B
:102600004DDD55DD55DD55DD55DC55DC55DC55DC46
:102610005DDC5DDC5DDC5DDC5DDC5DFD5DFC5DFC91
:102620005DFC65FD661C661C661C6E3D6E3D6E3D68
:102630006E3D763D763D763D763D7E3D7E5D7E5DB2
:102640007E5D865D867D867D867D867D867E867EB8
:10265000869E8E9E8E9E8E9E8EBE8E9E8E9D8E9D04
:102660008E9E8E9E8E9D8E9D969D969E9E9E9E9EDD
:102670009EBE9EBE9EBE9EBE9EBE9EBE9EBE9EBE7A
:102680009EBE9EBE9EBE9EBE9EBE9EBE9EBE9EBE6A
:102690009EBE9EBE9EBE9EBEA6DEA6DEA6DEA6BEDA
:1026A0009EBD9EBDA6BEA6DEA6DEA6BDAE9CB6DDC8
:1026B000AE3A9D77B619BE7A9555B67AB6BBAEFDE1
:1026C000A6DE9EBEA6BEA6DEA6DEA6DEA6DEA6DF31
:1026D000A6DEA6DFA6DEA6DFA6DEA6DFA6FEA6DFB6
:1026E000A6FEA6DFA6FEA6DFA6FEA6FFAEFEAEFEF7
:1026F000AEFEAEFEAEFEAEFEAEFEA6DEA6DEAEDEEA
:10270000AEDEAEFEAEFEAEFFAEFFAEFEAEDEAEDEC7
:10271000AEDEAEDEAEDEAEDEAEDEAEFFAEFFAEFFF6
:10272000AEFFAEFFAEFFAEFFAEFFAEFFAEFFAEFF41
:10273000AEFFAEFFAEFFAEFFAEFFAF1FAF1FAF1FCE
:10274000AF1FAF1FAF1FAF1FAF1FB6FFB6FFB6FF64
:10275000B6FFB71FB71FB71FB71FBF1FBF3EBF1EB4
:10276000BF3EBF3EBF3EBF1EBF1DBF1DBF1DBF1E24
:10277000BF3EBF3FBF3FB73FB73FB75FB75EB75E34
:10278000B75EB75EB75EB75FB75FBF5FBF5FBF5E85
:10279000BF5EBF5EBF5EBF5FBF5FC77FC75FC75F14
:1027A000C75FC75FC75FC75FC75FC73FC73FC73F59
:1027B000C73FC73FC73EC73EC73EC73EC75EC75EAF
:1027C000C75EC75EC75EC75EC75EC75FC75FC73FFE
:1027D000C75FC75FC75FC75FC75FC75FC75FC75FC9
:1027E000C75EC73EC73EC73EC73ECF5FCF5FCF5F26
:1027F000C75FCF5FC75FCF3FC75FCF3FC75FCF5FC9
:10280000C75FCF5FCF5FCF5FCF5FC73FC75FC75F98
:10281000C75FC75FC75FC75FC75FC75FC75FC75F88
:10282000C75FC75FC75FC75FC75FC75FC75FBF5F80
:10283000BF5FBF3FBF3FBF3FBF3FBF1EBF1EBF1EEB
:10284000BF3FBF3FBF3FBF3FBF3FBF1EBF1EBF1EFB
:10285000BF3EC73EC73EC73FC73FCF5FCF5FD75FD3
:10286000D75FDF7FDF7FDF7FDF9FDF9FDF9FDF9F20
:10287000DF9FDF9FDF9FDF9FDF9FE7BFE7BFE7BFF0
:10288000E7BFE7BFE7BFE7BFE7BFE7BFE7BFE79F38
:10289000E7BFE79FE7BFE79FE7BFE7BFE7BFE7BF48
:1028A000E7BFE7BFE7BFE7BFE7BF3DBD3DBD3DBDFC
:1028B0003DBD3DBD3DBD3DBD3DBD3DBD3DBD3DBD48
:1028C0003DBD3DBD3DBD3DBD3DBD3DBD3DBD3DBD38
:1028D0003DBD3DBD3DBD3DBD3DBD3DBD3DBD3DDD08
:1028E0003DDD3DDD3DDD3DDC3DDC35BC35BC35BC95
:1028F00035BC35BC35BC3DBC3DBB4DDB559996BDAB
:10290000DFFFE7FFEFFFF7FFE7FF96FF55FC3D9B7B
:102910003DDD35BD35BD45BC45BC3DBB3DDB3DDC8E
:102920003DDD3DDD3DBD3DDD3DDD35DD3DDC4D9B32
:1029300065DB969EAF3F96DE6DFB5DFC4DBC359C26
:10294000359C35BD3DDD3DDD35DC3DDC35DC35DC44
:102950002DFC2E1D2DFC2DBC2D9C35BC35BC35BD54
:1029600035DD35FD35FD2DDD2DDD2DDC2DDC2DDCC2
:1029700035BC35BC3DBD3DBC3DBC3DBC3DBC3DBC9E
:1029800045BD3DBD3DBD3DBD45DD45DD45DD45DDCF
:1029900045DD45DD45DD45DD45DC45FD45FD45FDC8
:1029A00045FC45FD45FC45FD4DDD45BC4DBC4DBDE3
:1029B0004DDD4DDD4DDD55DD55DD55DD55DD55DD9F
:1029C00055DD55DD55FD55FD5DDD65FD65FC65FCA1
:1029D00065FD65FD65FC6E1D6E1D6E3D763D763DAB
:1029E000763D763D763D763D763D7E7D867D865D87
:1029F000867D867D867D867D867D8E7D8E7D8E7DA7
:102A00008E7D969D969E969E969E969E969E969E50
:102A100096BE96BE96BE96BE9EBE969E969D969D70
:102A20009EBE9EBE9EBD9EBD9EBEA6BEA6BEA6BEB0
:102A3000A6BEA6BEA6BEAEBEAEBEA6BEA6BEA6BE66
:102A4000A6BEA6BEA6BEA6BEA6BEA6BEA6BEA6BE66
:102A5000AEBEAEBEAEDEAEDEAEDEAEDEAEDEAEBD77
:102A6000AEBDAEBDAEBDAEDDB6DDBEDCC6FDB65A9A
:102A7000ADD8C65ADEFBC638A574B638BEBBBEFD9F
:102A8000B6DDAEBEAEDEB6DEB6DEAEFEAEFEAEFE8F
:102A9000AEFEAEFEAEFEAEFEAEFEAEFEAEFEAEFED6
:102AA000AEFEAEFEAEFEAEFEAEFEB6FEB6FEB6FEAE
:102AB000B6FEB6FEB6FEB6FEB6FEAEFEAEFEAEFE8E
:102AC000B6FEB6FEB6FEB6FEB71EB6FEB6FEB6FE45
:102AD000B6FEB6FEB6FEB6FEB6FEBF1FBF1FBF1FD8
:102AE000BF1FBF1FBF1FBF1FBF1FBF1FBF1FBF1FF6
:102AF000BF1FBF1FBF1FBF1FBF1FBF1FBF1FBF1FE6
:102B0000BF1FBF1FBF1FBF1FBF1FBF1FBF1FBF1FD5
:102B1000BF1FBF1FBF3FBF3FBF3FBF3EBF3EC73E00
:102B2000C73EC73EC73EC71EC71DC73DC73EC73EBF
:102B3000C73EBF3FBF3FBF5FBF5FBF5FBF5EBF5E00
:102B4000BF5EBF5EBF5EC75EBF5EBF5EBF5EBF5E95
:102B5000C75EC77EC75EC77EC75FCF7FCF7FCF5FB1
:102B6000C75FCF5FC75FC75FC73FCF3ECF3ECF3E98
:102B7000CF3ECF3ECF3ECF3ECF3ECF3ECF5ECF5EAD
:102B8000CF5ECF5ECF5ECF5ECF5EC75EC75FC75FF3
:102B9000C75FC75FC75EC75ECF5ECF5ECF3ECF5E0B
:102BA000CF5ECF5ECF5ECF5ECF5ECF5ECF5FCF5FBB
:102BB000CF5FCF5FCF5FCF3FCF5FCF3FCF5FCF3F05
:102BC000CF5FCF5FCF5FCF5FCF5FCF3FCF3FCF3FF5
:102BD000CF3FCF3FCF3FCF3FCF3FCF5FCF5FCF5F25
:102BE000CF5FCF5FCF5FCF5FCF5FCF7FCF7FC75F3D
:102BF000C75FC73EC73EC73EBF1EC73EC73EC73EB4
:102C0000C73EC73EC73EC73EC73FCF5ECF5ECF5E23
:102C1000CF5ECF5FD77FD77FD75FDF7FDF9FDF7F3D
:102C2000DF9FDF7FDF9FDF9FDF9FDF9FDF9FDF9FD4
:102C3000DF9FDF9FDF9FDF7FDF9FE7BFE7BFE7BF4C
:102C4000E7BFE79FE7BFE79FE79FE7BFE7BFE7BFB4
:102C5000E7BFE7BFE7BFE7BFE7BFE79FE7BFE79F84
:102C6000E7BFE79FE7BFE79FE7BF3DBD3DBD3DBD78
:102C70003DBD3DBD3DBD3DBD3DBD3DBD3DBD3DBD84
:102C80003DBD3DBD3DBD3DBD3DBD3DBD3DBD3DBD74
:102C90003DBD3DBD3DBD3DBD3DBD3DBD3DBD3DDD44
:102CA0003DDD3DDD3DDD3DDC3DDC35BC35DC35BCB1
:102CB00035BC35BD35BC35BC3DBB459A4D58867BD2
:102CC000CFFFE7FFEFFFF7FFEFFFA75F5E3D3D9B05
:102CD0003DDD359C359C45DD4DFD45FC3DDB35BC82
:102CE0003DBC3DDD3DBD3DBC3DDC35DD3DDC55BB8A
:102CF000763CB77FD7FFBFFF8EBE4D7A3D7B359CBC
:102D000035BD35DD3DFD35DD35BC3DDC35DC35FC27
:102D10002E1C2DFC35DC35BB3D9B459B459B3DBCAE
:102D20003DBC35DC35DD2DDD2DDD2DDD35DC35DD46
:102D300035DD35BD3DBD3DBC3DBC3DBC45BC45BCA8
:102D400045BC45BC45BC45BD45DC45DD45DD45DDF7
:102D500045DD45DD45DD45DC45DC45DC45DC45DC68
:102D600045DC45DC45BC45BC45BC4DDC55DD55DD91
:102D700055DD55FD55FD5DFD5DFD5DFD5DFD5DFDBB
:102D800065FD661D661D661D6E1D6E3D761D763DDC
:102D9000763D763D763D7E3D7E5D7E7E7E7E7E7E90
:102DA000867E867E867E867E867D8E9E8E9D969E85
:102DB000969E969E969D969E969E9E9E9E9E9E9E5C
:102DC0009E9E9E9E9EBEA6BEA6BE9E9E9EBE9EBE73
:102DD0009EBEA6BEA6DEA6DEA6DEA6DEA6DEA6DE1B
:102DE000AEDEAEDEAEDEAEDEAEFEAEDEB6DEB6FE33
:102DF000B6FEB6FEB6FEB6FEB6FEB6FEB6FEB6FE33
:102E0000B6FEB6FEB6FEB6FEB6DEB6DEB6DEB6FE82
:102E1000B6FEB6FEB6FEB6FEB6FEB71EB6FEB6FEF1
:102E2000B6FEB6FDBEFDBEFEBEFDCF1CB618B5D8C3
:102E3000DEDCFFBFF79DD679B595B5F7C6DBC73E9B
:102E4000BF1EB71EBF1FBEFEBF1EB6FEB6FEB6FE3D
:102E5000B6FEB6FEB6FEB6FEB6FEBF1FBF1FBF1F54
:102E6000BF1FBF1FBF1FBF1FBF1FB71EB71EB71E8D
:102E7000B71EB71EB71EB71EB71EBF1EBF1EBF1E92
:102E8000BF3EBF3EBF3EBF3EBF3EBF1EBF1EBF1EBA
:102E9000BF1EBF1EBF1EBF1EBF1EBF3EBF3EBF3EEA
:102EA000BF3EBF3EBF3EBF3EBF3EBF1FBF1FBF1F97
:102EB000BF1FBF1FBF1FBF1FBF1FC73FC73FC73FAA
:102EC000C73FC73FC73FC73FC73FC71FC71FC73F12
:102ED000C73FC73FC73FC73FC73FC73FC73ECF3EBC
:102EE000CF3ECF3EC73EC71EC73DCF7ECF5ECF5E33
:102EF000C75EC73FC73FC75FC75FC75FC75EC75EE5
:102F0000C75EC75EC75ECF5EC75EC75EC75EC75E91
:102F1000C75ECF5ECF7ECF7ECF7ECF7FCF7FCF5FAE
:102F2000CF5FCF5FCF5FCF5FCF3FD73ED73ED73E9C
:102F3000D73ED73ECF5ECF5ECF5ECF5ECF5ECF5E59
:102F4000CF5ECF5ECF5ECF5ECF5ECF5FCF5FCF5F16
:102F5000CF5FCF5FCF5ECF5ECF5ECF5ECF5ECF5E07
:102F6000CF5ECF5ECF5ECF5ECF5ECF5ECF5FCF5FF7
:102F7000CF5FD75FD73FD73FD73FD75FD75FD75F09
:102F8000D75FD75FD75FD75FCF5FCF5FCF5FCF5FB1
:102F9000CF5FCF5FCF5FCF5FCF5FCF5FCF5FCF5FC1
:102FA000CF5FCF5FCF5FCF5FCF5FD77FD77FD77F39
:102FB000CF5FCF5ECF3ECF3EC73ECF5ECF5ECF5E10
:102FC000CF5ECF5FCF5FCF5FCF5FDF9FDF9FDF9FA2
:102FD000DF9FDF9FDF9FDF9FE7BFE79FE79FE79FC1
:102FE000DF9FE79FDF7FDF7FDF7FE79FDFBFDFBF01
:102FF000DF9FDF9FDF9FDF9FDF9FDF9FE79FE79FD1
:10300000E79FE79FE79FE79FE79FEFBFEFBFEFBF18
:10301000EFBFEFBFEFBFEFBFEFBFEF9FE7BFEF9F88
:10302000E7BFEF9FE7BFEF9FE7BF3DBD3DBD3DBDA4
:103030003DBD3DBD3DBD3DBD3DBD3DBD3DBD3DBDC0
:103040003DBD3DBD3DBD3DBD3DBD3DBD3DBD3DBDB0
:103050003DBD3DBD3DBD3DBD3DBD3DBD3DBD3DDD80
:103060003DDD3DDD3DDD3DDC3DDC35BC35BC35BD0C
:1030700035BD35BD35BD35BD3DBC45BB4D79763B18
:10308000AF5FD7FFE7FFEFFFD7FF96FF55DC45BCEB
:10309000461D3D9C3D9C565E66DF565E45FC3DBB35
:1030A00045BC45DD45DC45BC3DDC3DFC45FC55BB38
:1030B0006DFCAF5FD7FFB7FF7E9E55BB45DC3DDDA6
:1030C00035FE35FE35FD35DC35DC35DD35DD35FDF0
:1030D0002DFC2DDB35DB45DB55FB559B559A4D9A79
:1030E000459B3D9B35BB2DBC2DBC35DD35DD35DD30
:1030F00035DD35DD3DDD3DDD3DBD45BC45BC45BC7B
:1031000045BC45BC45BC45BC45DC45DC45DC4DDC2F
:103110004DDC4DDC4DDC4DDC4DDC4DDC4DDC4DDC67
:103120004DDC4DDC4DDC4DDC55DC5DFD5DFD5E1D9B
:10313000661D661D663D6E3E6E3E6E3E6E3E6E3E8A
:10314000763E763E765E765E7E5E7E5E865D865EF0
:10315000867E867E8E7E8E7E8E7E8E9E8E9E8E9EBF
:103160008E9E969E969E969E969E9EBE9EBD9EBE50
:103170009EBE9EBE9EBDA6BEA6BEA6BEA6BEA6BE48
:10318000A6BEAEBEAEBEAEBEAEBEA6BEA6DEA6DEBF
:10319000A6DEAEDEAEFEAEFEAEFEAEFEAEFEAEFE17
:1031A000B6FEB6FEB6FEB6FEB6FEB6FEB6FEB6FE7F
:1031B000B71EB71EBF1EBF1EBF1EB71EB71EB71E4F
:1031C000B71EB71EB71EB71EBEFEBEFEBEFEBEFEBB
:1031D000BEFEBEFEBF1EBF1FBF1EBF1EBF1EBF1E48
:1031E000BF1EC71EC71DC71DC6FDC69AAD96CE9A87
:1031F000FFFFFFFFFFBEEF1BBDD6B5B6CEBBCF3E78
:10320000C71EBF3FBF3FBF1FC71FBF1FBF1EBF1F80
:10321000BF1EBF1FBF1EBF1FBF1EBF3FBF3FBF3F61
:10322000BF3FBF3FBF3FBF3FBF3FBF1EBF1EBF1E11
:10323000BF1EBF1EBF1EBF1EBF1EC73EC73EC73E2E
:10324000C73EC73EC73EC73EC73EC73EC73EC73E56
:10325000C73EC73EC73EC73EC73EBF3EBF3EBF3E5E
:10326000BF3EBF3EBF3EBF3EC73EC73EC73EC73E56
:10327000C73EC73EC73EC73EC73EC73FC73FC73F23
:10328000C73FC73FC73FC73FC73FC73FC73FC73F0E
:10329000C73FC73FCF3FCF3FCF3FCF3FCF3FCF3FCE
:1032A000CF3ECF3ECF3ECF3ECF5ED77FCF7ECF5EED
:1032B000CF5FCF5FCF5FCF5FCF5FCF5FCF5FCF5F9E
:1032C000CF5ECF5ECF5ECF5ECF5ECF5ECF5ECF5E96
:1032D000CF7ED77ED77ED77ED77FD77FD77FD77F4A
:1032E000D75FD75FD75FD75FD75FD75FD75ED75E30
:1032F000D75FD75FD75FD75FD75FD75FD75FD75F1E
:10330000D77ED77ED77ED75ED77ECF7FCF7FCF7F4A
:10331000D75FD75FD75FD75FD75ED75ED75ED75E01
:10332000D75ED77ED77ED77ED77ED77FD77FD75F32
:10333000D75FD75FD75FD75FD75FD75FD75FD75FDD
:10334000D77FD77FD77FD77FD77FD75FD75FD75F2D
:10335000D75FD75FD75FD75FD75FD75FD75FD75FBD
:10336000D75FD75FD75FD75FD75FD77FD75FD75F8D
:10337000D75FD75FD75FD75FD75ED77FD77FD77F3E
:10338000D77FDF7FDF7FDF7FDF7FE7BFE7BFE7BF7D
:10339000E7BFE7BFE79FE79FE79FE79FDF9FDF9FCD
:1033A000DF9FDF7FDF7FDF7FDF7FDF9FDF9FDF9FAD
:1033B000DF9FDF9FDF9FE79FE79FDF9FDF9FE79F05
:1033C000E79FE79FE79FE79FEF9FEFBFEFBFEFBF4D
:1033D000EFBFEFBFEFBFEFBFEFBFEFBFEFBFEFBF7D
:1033E000EFBFEFBFEFBFEFBFEFBF3DBD3DBD3DBD89
:1033F0003DBD3DBD3DBD3DBD3DBD3DBD3DBD3DBDFD
:103400003DBD3DBD3DBD3DBD3DBD3DBD3DBD3DBDEC
:103410003DBD3DBD3DBD3DBD3DBD3DBD3DBD3DDDBC
:103420003DDD3DDD3DDD3DDC3DDC35BC35BC35BD48
:1034300035BD35BD35BD35BD35BC3DBC3D7A4D795D
:1034400065FA96DEB79FBF7FA71F763D457A459BFD
:103450004E3E3DBC45BC66BF879F66BF563D45BBE3
:103460004DBB55DC4DBB45BB3DBB3DFC461C4D9AA1
:103470005D9A8E9EAFBF973F65DB459B3DBC35BDDA
:1034800035BD35BD35BD35DC35FD35BD35DD35FDED
:103490002DDB359A3DBA5DDA761B7E1B7DDA6DDA5F
:1034A0005DBA4DBA45DB3DDC35FD35DD35DD3DBD75
:1034B0003DDD3DDD3DDD3DDD3DDC45BC45BC45BC88
:1034C00045BC45BC45BC4DBC4DBC4DBC4DBC4DBCCC
:1034D0004DBC4DBC4DBB4DBB4DBB55DC55FC5DFCE7
:1034E0005DFC5E1C5E1D661D661D661D6E1D6E3DCF
:1034F0006E3D6E3D765D765D765D7E5E7E5E7E5E69
:10350000867E867E867E8E7E8E7E8E7E8E7E8E7E73
:10351000969E969E969E969E96BE969E969E969EEB
:10352000969E969E9E9E9E9E9EBD9EBDA6BDA6BD3F
:10353000A6BDA6BDA6BDA6BDA6BDAEDEAEDEAEDEF8
:10354000AEDEAEDEAEDEAEBDAEBDAEDEAEDEAEDE5D
:10355000AEFEAEFEB6FEB6FEB6FEB6DEB6FDB6FEFC
:10356000B6FDB6FDB6FDB6FEB6FDB6FDB6FDB6FDC2
:10357000B6FDB6FEB71EB6FEB71EB6FEB6FDB6FE6B
:10358000B6FDB6FEB6FDB6FEB6FEBEDEBEFEBEFEA5
:10359000BEFEBEFEBEFEBEFEBEFEBEFEBEFEBF1D2B
:1035A000C71DC71DC6FDC6FDC6DCADB6DEDBFFDF31
:1035B000FFFFFFDFFFBEEEDAC5F7AD55C69ACF3E7F
:1035C000BF1EBF3FBF3FBEFFC71FC71FBF1FBF1FDD
:1035D000BF1FBF1FBF1FBF1FBF1FBF1EBF1EBF1EFE
:1035E000BF1EBF1EBF1EBF1EBF1EC73EC71EC71EBB
:1035F000C71EC71EC71EC71EC71EC71EC71EC71EA3
:10360000C71EC71EC71EC73EC73EC73EBF3EBF3E02
:10361000BF3EBF3EBF3EBF3EBF3EBF3EBF3EBF3EC2
:10362000BF3EBF3EBF3EBF3EC73EC73EC73EC73E92
:10363000C73EC73EC73EC73EC73EC73EC73EC73E62
:10364000C73EC73EC73EC73EC73EC73FC73FCF3F47
:10365000CF3FCF3FCF3FCF3FCF3FD75FD75FCF5F8A
:10366000CF5ED75ED75ED75FD77FCF7FCF5ECF5E8F
:10367000CF7FD77FD77FCF5FCF3FD77FD77FD75F32
:10368000D75FD75FD75ED75ED75ED75ED75FD75F8E
:10369000D75FD77FD77FDF9FDF9FD77FD77FD77F4A
:1036A000D77FD75FD77FD75FD75FDF5FDF5EDF5E14
:1036B000DF5FD77FD77FD77FD77FD77FD77FD77F72
:1036C000D77FD77FD77FD77FD77FD77FD77FD77F4A
:1036D000D77FDF5FDF5FDF5EDF5EDF5EDF5EDF5EE7
:1036E000DF7ED77FD77FD77FD77FD79FD79FD79FC3
:1036F000D77FDF7FDF7FDF7FDF7FDF7FDF7FDF7FE2
:10370000DF7FDF9FD79FD79FD79FD77FDF5FDF5FA9
:10371000DF5FDF5FDF5FDF5FDF5FDF7FDF7FDF7F59
:10372000DF7FDF7FDF7FDF7FDF7FD75FD75EDF5F1A
:10373000DF7FDF7FDF7FDF7FDF9FDF9FDF9FDF9F19
:10374000DF9FE79FE7BFE79FE79FE79FE79FE79F31
:10375000DF9FDF7FDF7FDF7FDF7EDF7FDF7FDF7F5A
:10376000DF7FDF7FDF7FDF7FDF7FD77FD77FD77F81
:10377000DF7FDF7FDF7FDF7FDF7FDF9FE79FE79FE9
:10378000E79FE79FEF9FEFBFEFBFEFBFEFBFEFBF39
:10379000EFBFEFBFEFBFEFBFEFBFEFDFEFDFEFDF59
:1037A000EFDFEFDFEFDFEFDFEFDF3DBD3DBD3DBD25
:1037B0003DBD3DBD3DBD3DBD3DBD3DBD3DBD3DBD39
:1037C0003DBD3DBD3DBD3DBD3DBD3DBD3DBD3DBD29
:1037D0003DBD3DBD3DBD3DBD3DBD3DDD35BC35BC0B
:1037E0003DDD3DDD359C35BC461D359B3DBC35BCC6
:1037F00035BD35FE35DE2D9D35BD3DDD3DBC3D9AEB
:103800004579559A65FB6DDB5DBA4D9B4DBC45BC5A
:103810003DBB3D9C45BC4DFD563E4DFC4DDB4DBA80
:103820005E1B6E7D661C4D9A4DDB3DFB3DFC4DDB0A
:1038300055BB5DBA5DBB55BB55DC3D5A3DBD3DBD7D
:10384000359D3DDD3DFD35DC3DDD3DDE359D35BC49
:103850003DDB45BA5DFA96FEC7FFD7FFD7DFBF7FD6
:103860008E7C5579457945FC3DDC3DBC3DDD3DBD5B
:103870003D9C3D9C45DD45DD3D9C45BC45BC4DBC6E
:103880004DDC4DDC4DDC55DC55DC5DFD5DFC65FD46
:1038900065FC65FD661D661D661D6E3D6E3D6E3DDB
:1038A0006E5D765E767E767E7E7E7E7E7E7E7E7DA2
:1038B000867E869E869E8E9E8E9E8E9E8E9E969ED8
:1038C000969E96BE96BE9EBE9EBF9EBE9EBE9EBE4F
:1038D0009EBE9EBE9EDEA6BEA6BEA6DFA6DFA6DE5E
:1038E000A6DEA6DEA6DEA6DEA6DEAEFEAEFDAEFD42
:1038F000AEFDAEFDAEFDAEFDAEFDB6FEB6FEB6FE55
:10390000B6FEB6FEB6FEB6FEB6FEB6FEB6FEB6FE17
:10391000B6FEB6FEB6FEB6FEB6FEB6FEB6FDB71EE7
:10392000BEFEBF1EBF1DBF1EBF1EB71DB71DB71EEB
:10393000B71DB71EB71DB71EB71DB71EB71DB71EE3
:10394000B71DB71EB71DB71EBF1EBEFEBEFEBEFE14
:10395000BEFEBEFEBEFEBEFEBEFEC71EBEDDBEDDA0
:10396000C6FDCF1DCF3DB67A9D35EF9EFFDFFFDF51
:10397000FFDFFFDFFFDFF71BD637AD75C67ACF3E1F
:10398000C73FBEFFBF1FC71FBEFEBF1FBF1FBF1F5A
:10399000BF1FBF1FBF1FBF1FBF1FBF1FBF1FBF1F37
:1039A000BF1FBF1FBF1FBF1FBF1FC73EC73EC73EB2
:1039B000C73EC73EC73EC73EC73EC73EC73EC73EDF
:1039C000C73EC73EC73EC73EC73EC73EC73EC73ECF
:1039D000C73EC73EC73EC73EC73EC73EC73EC73EBF
:1039E000C73EC73EC73EC73EC73EC73EC73EC73EAF
:1039F000C73EC73EC73EC73EC73EC73EC73EC73E9F
:103A0000C73EC73EC73EC73EC73EC73EC73EC73E8E
:103A1000C73EC73EC73ECF3ECF3ECF5ECF5ECF5EF6
:103A2000CF5ECF5ECF5ECF5ECF5ECF7FCF7FCF5FEB
:103A3000CF7FD77FD77FD75FD73FD73FD75FDF7F96
:103A4000DF9FDF7FDF5ED73DD71DD71ED73ED73E36
:103A5000DF5FDF7FDF7FD75FDF7FD75FD75FD75F36
:103A6000D75FD75FD75FD75FD75FDF5EDF5EDF5E91
:103A7000D75FD75FD77FD77FD77FD75FD75FCF5F3E
:103A8000CF3FD75FD75FD75FCF3EDF7FD75FD73ED0
:103A9000E7DFD6FDCEBBF7FFDF5DEF9FF7FFD71D5A
:103AA000D73EDF7FCF3EDFBFCF3ECF3ED79FD77E13
:103AB000CF3DD75EDF7FD75EDF5EEFDFCF1DDF7FDD
:103AC000DF9FD77FD77ECF5ED79FD75EDF7FDF5F59
:103AD000D73ED73EDF7FDF5FD73ED73ED73ED73ECC
:103AE000DF5FDF5FDF7FDF7FDF7FDF7FDF7FDF7F26
:103AF000DF9FE79FE79FE79FE79FE79FDF9FE79FA6
:103B0000DF9FE79FDF9FE79FDF9FDF9FDF7FDF7FF5
:103B1000DF7FDF7FDF7FDF7FDF7FDF7FDF7FDF7FB5
:103B2000DF7FDF7FDF7FDF9FDF9FD77FD77FD77F7D
:103B3000DF9FDF7FDF9FDF7FDF7FDF7EE77EE79F27
:103B4000E79FEF9FEFBFEFBFEFBFEFBFEFBFEFBF4D
:103B5000EFBFEFBFEFBFEFBFEFBFEFBFEFBFEFBFF5
:103B6000EFBFEFBFEFBFEFBFEFBF3DBD3DBD3DBD01
:103B70003DBD3DBD3DBD3DBD3DBD3DBD3DBD3DBD75
:103B80003DBD3DBD3DBD3DBD3DBD3DBD3DBD3DBD65
:103B90003DBD3DBD3DBD3DBD3DBD3DDD35BC359C67
:103BA00035BD3DDD35BD35BC3DBC3DDB45FC3DBCDB
:103BB00035BC35DE35DE35BD35FE35DD3DDC3DBCA5
:103BC0003D9B45BB4DFC55DB4DBB4DDC45DC45DC31
:103BD00045DC45BC45BC45BD4DDD45BC4DBB55DA5E
:103BE000765C86DE765C559945993DBA3DBB45BB12
:103BF000459A4D9B4D9B4DBB45BC45DD4DFD459DBF
:103C00003D7C459C3D9C359B3DDC3DBD3DBD3DDD4A
:103C100045DC4DBA6E1AA73EE7FFEFFFE7FFDFFF77
:103C2000BF7F867C5DDA4DDB45BC45BC4DFD55FD57
:103C30004DDD4DFD561E561D4DDD55FD55FD55FD09
:103C40005DFD5DFD5E1D5DFD65FD6E1D6E1D6E1DE8
:103C5000761D761D763D763D763D7E3D7E3D7E5DD4
:103C60007E5D867E867D867E867E867D8E7D8E7D51
:103C70008E9D8E9E969D969E969D969E9E9D9E9EA8
:103C80009E9E9E9EA6BEA6BEA6BEA6BEA6BEA6BE64
:103C9000A6BEA6BEA6DEA6BEA6BEAEDEAEDEAEDE6C
:103CA000AEDEAEDEAEDEAEDEAEDEAEFDAEFDB6FD4F
:103CB000AEFDB6FDB6FDB6FDB6FDB6FEB6FEB6FE71
:103CC000B6FEB6FEB6FEB6FEB6FEB6FEB6FEB6FE54
:103CD000B6FEB6FEB6FEB6FEB6FEB6FDB6FDBEFD3F
:103CE000BEFDBF1DBF1DBF1DBF1DBF1DBF1DBF1D15
:103CF000BF1DBF1DBF1DBF1DBF1DBF1DBF1DBF1DE4
:103D0000BF1DBF1DBF1DBF1DBEFEBEFEBEFEBEFE53
:103D1000BEFEBEFEBEFEBEFEBEFEBF1EBEDDBEBC05
:103D2000CF3ED73EB639ADD8D6DBF7BEFFDFFFFFBB
:103D3000FFDFFFDFFFDEF6FBD617B575C679CF3E96
:103D4000C73FBEFFBF1FC6FFC6FEBF1FBF1FBF1FAF
:103D5000BF1FBF1FBF1FBF1FBF1FBF1FBF1FBF1F73
:103D6000BF1FBF1FBF1FBF1FBF1FC73EC73EC73EEE
:103D7000C73EC73EC73EC73EC73EC73EC73EC73E1B
:103D8000C73EC73EC73EC73EC73EC73FC73EC73F09
:103D9000C73EC73FC73EC73FC73EC73FC73EC73FF7
:103DA000C73EC73FC73EC73FC73EC73EC73EC73EE9
:103DB000C73EC73EC73EC73EC73EC73EC73EC73EDB
:103DC000C73EC73EC73EC73EC73EC73EC73EC73ECB
:103DD000C73ECF5ECF5ECF5ECF5ECF5ECF5ECF5EA3
:103DE000CF5ECF5ECF5ECF5ECF5ECF3ECF5FCF7F69
:103DF000D75FD75FD75FD75FDF5FD73FD75FE79FDB
:103E0000EFDFEFDFDF7ED75DDF5EDF7EDF7FDF7F2F
:103E1000DF9FDF7FDF7FDF5FD71EDF5FDF5FDF5F7B
:103E2000DF5FDF5FDF5FDF5FDF5FDF7EDF7EDF7E45
:103E3000D77FD77FD77FD77FD77FD77FCF3FD75F3A
:103E4000DF9FDF7FCF1ED73FE7BFDF7FE79FDF5ECC
:103E5000E77EE75DF7BFEF7D8C718430DF1CFFFFED
:103E6000DF5EDF7FD77FCF5FD79FD77FD79FCF7EA4
:103E7000CF3DD79EDF9FDF7EDF9EE7BFD73DDF9F31
:103E8000DF9FD77ED79ECF5ED79FDF5FDF7FDF7F4D
:103E9000D73ED73EDF7FDF7FDF5FDF5EDF5EDF5F46
:103EA000DF5FDF7FDF7FDF7FDF7FDF7FDF9FDF9F02
:103EB000E79FE79FE79FE79FE79FE79FE79FE79FD2
:103EC000E79FE79FE79FE79FDF9FDF7FDF7FDF7F42
:103ED000DF7FDF7FDF7FD77FD77FDF7FD77FD77F12
:103EE000D77FD77FD77FD77FD79FD77FD77FD77F02
:103EF000D77FD77FDF7FDF7FDF7FDF7EDF7EE77FDC
:103F0000E79FEF9FEF9FEF9FEF9FEFBFEFBFEFBFE9
:103F1000EFBFEFBFEFBFEFBFEFBFEFBFEFBFEFBF31
:103F2000EFBFEFBFEFBFEFBFEFBF3DBD3DBD3DBD3D
:103F30003DBD3DBD3DBD3DBD3DBD3DBD3DBD3DBDB1
:103F40003DBD3DBD3DBD3DBD3DBD3DBD3DBD3DBDA1
:103F50003DBD3DBD3DBD3DBD3DBD3DDD35BD359CA2
:103F600035BC3DDD3DDD35BC3DBB45BA4DDA3DBA26
:103F7000359B3DBC35DD35BD3DFE35BC35DD35DD24
:103F800035BC3DBC45DC45BC459B3D9B3DBB3DBB7D
:103F90003DBB45BC45BC459C459C45BB55DB6E5C6B
:103FA000973FAFBF96FE65DA559945BA3DDA45BBF6
:103FB00045BB45BB45BB45DC45DC4DFD4DDD4D9B63
:103FC000559B55BC559B4DBB561D4DBD4DFD561DBE
:103FD000561C5DDA761AB73EEFFFF7FFF7FFEFFFEB
:103FE000DFFFAF3F7E5C661C5E3D5DFD661E663E8C
:103FF000661D663D665E665E665E663D663D663D66
:104000006E3E6E5E6E5E6E5E763D7E5D7E3D865D74
:10401000865D865E865D867E867D865D867D8E7DFE
:104020008E7E8E9E8E9E969E969E969D969D969D2B
:104030009E9D9EBE9EBE9EBE9EBDA6BDA6BDA6BDAD
:10404000A6BDAEBEAEBDAEDEAEDEAEDEAEDEAEDE7A
:10405000AEDEAEDEAEDEAEDEAEDEAEDEAEDEB6DEF8
:10406000B6DEB6DEB6DEB6DEB6DEB6FDB6FDB6FD53
:10407000B6FDB6FDB6FDB6FDB6FDB6FEB6FEB6FEA5
:10408000B6FEB6FEB6FEB6FEB6FEB6FEB71EB71E4E
:10409000B71EB71EB71EB6FDB6FDB6FDB6FDB71D01
:1040A000B71DBF1DBF1DBF1DBF1DBEFDBEFEBEFE99
:1040B000BEFEBEFEBEFEBEFEBEFEBEFEBEFEBEFE20
:1040C000BEFEBEFEBEFEBEFEBEFEBEFEBF1EBF1ECE
:1040D000BF1EBF1EBF1EBF1EBEFEBEFEBEDDC6FD96
:1040E000D73EC69BA5B7BE5AFFFFFFDFFFFFFFFF0E
:1040F000FFDFFFDEFFBDF6FAD617B554C659D73D30
:10410000C73EBEFEBEFEC6FEC6FEBF1EBF1FBF1F11
:10411000BF1FBF1FBF1FBF1FBF1FBF3FBF3FBF3F4F
:10412000BF3FBF3FBF3FBF3FBF1FC73FC73EC73FA8
:10413000C73EC73FC73EC73FC73EC73FC73FC73F52
:10414000C73FC73FC73FC73FC73FC73FC73FC73F3F
:10415000C73FC73FC73FC73FC73FC73FC73FC73F2F
:10416000C73FC73FC73FC73FC73FC75EC75EC75EC2
:10417000C75EC75EC75EC75EC75EC75EC75EC75E17
:10418000C75EC75EC75EC75EC75EC75EC75EC75E07
:10419000C75ECF5ECF5ECF5ECF5ECF5ECF5ECF5EBF
:1041A000CF5ECF5ECF5ECF5ECF5EC71EC73ECF5F16
:1041B000CF5ECF1ECF1ED73EDF5FD75FD73FE79FD3
:1041C000EFFFEFFFDF9ED75DDF7DDF5DD73DDF5E79
:1041D000DF5ED73EDF5FDF7FD71EDF5FDF5FDF5F42
:1041E000DF5FD77FD77FD75FD77FD77ED77ED77E5A
:1041F000D77FD77FD77FCF7FCF7FCF7FCF5FD75F6F
:10420000D73FDF7FDF7FDF5FD71DD6FCEFBFF7BF74
:10421000F7BEFFBDFFFEF75B8C2F5268A513FFDFD3
:10422000EF9ED71DDF7FCF3FCF5FD79FD79FCF7E3A
:10423000CF5EDF9EDF7EDF7EDF7ED71DD71DDF7E78
:10424000D75DCF5ED79ECF5ECF7EDF7FDF7FDF7F04
:10425000DF5FD75EDF7FDF7FDF7FDF5FDF7FDF7FD7
:10426000DF7FDF7FDF9FDF9FDF9FE79FE79FE79F86
:10427000E79FE79FDF9FDF9FDF9FDF9FDF9FDF9F3E
:10428000DF9FDF9FDF9FDF9FDF9FDF7FDF7FDF7F9E
:10429000DF7FD77FD77FD77FD77FD77FD77FD77F66
:1042A000D77FD77FD77FD77FD77FD77FD77FD77F5E
:1042B000D77FD77FD77FD77FDF7EDF7EDF7EE77F29
:1042C000E79FE79FEF9FEF9FEF9FEFBFEFBFEFBF2E
:1042D000EFBFEFBFEFBFEFBFEFBFEFBFEFBFEFBF6E
:1042E000EFBFEFBFEFBFEFBFEFBF3DBD3DBD3DBD7A
:1042F0003DBD3DBD3DBD3DBD3DBD3DBD3DBD3DBDEE
:104300003DBD3DBD3DBD3DBD3DBD3DBD3DBD3DBDDD
:104310003DBD3DBD3DBD3DBD3DBD3DDD35BD35BCBE
:1043200035BC35BC35BC3DFD461D4DD955FA4DBAA1
:104330003D7A3DBC3DBC35BC35DD35BC35DD35FD9C
:1043400035DD35BD3DBC3DDC45DC563E461D45DB1F
:104350003DBB45BC45BC459C459C4DDC661C86BEB2
:10436000B7DFCFFFB79F7E7C661B55FB4E1C4E1CF4
:10437000561C4E1C4E1C4E1D561C5E1D661C6E1D92
:104380007E3D7E5E763D6E3C663C663D663E665E8C
:10439000665D6DFB7E1AAEDCD79FF7FFF7FFEFFF80
:1043A000D7DFAF1E865C765D767E765E7E5E7E5E55
:1043B000763D763D763D767E7E9E767E767E7E7EF0
:1043C0007E7E7E7E7E7E867E867E8E7E8E7E8E7ECD
:1043D000967E967E969E969E969E969E969D9E9E76
:1043E0009EBE9EBE9EBE9EBE9EBEA6BEA6BEA6BED5
:1043F000A6BEA6DEA6DEAEDEAEDEAEBDAEBDAEDDD8
:10440000AEDEAEDEAEDDB6DEB6DEAEDEAEDEAEDE3D
:10441000AEDEB6FEB6FEB6DEB6FEB6FEB6DEB6DE84
:10442000B6DEB6DEB6DEB6DEB6DEB6FDB6FDB6FD8F
:10443000B6FDB6FDB6FDB6FDB6FDB6FEB6FEB6FEE1
:10444000B6FEB6FEB6FEB6FEB6FEB6FEB71EB71E8A
:10445000B71EB6FEB71EB6FEB6FDB6FDB6FDB71E5C
:10446000B71DBF1DBF1DBF1DBF1EBEFEBEFEBEFED3
:10447000BEFEBEFEBEFEBEFEBEFEBEFEBEFEBEFE5C
:10448000BEFEBEFEBEFEBEFEBEFEBF1EBF1EBF1EE9
:10449000BF1EBF1EBF1EBF1EBEFEBEDEBEDDCF3EA8
:1044A000C6BCADB7C67AF7DFFFDFFFFFFFFFFFFF38
:1044B000FFDEFFDEFFBDF6D9DE17B554CE59D71D9E
:1044C000C73EBEFEC71ECEFEC6FEC71FBF1FBF1F14
:1044D000BF1FBF1FBF1FBF1FBF1FBF3FBF3FBF3F8C
:1044E000BF3FBF3FBF3FBF3FBF1FC73FC73FC73FE4
:1044F000C73FC73FC73FC73FC73FC73FC73FC73F8C
:10450000C73FC73FC73FC73FC73FC73FC73FC73F7B
:10451000C73FC73FC73FC73FC73FCF3FCF3FCF3F53
:10452000CF3FCF3FCF3FCF3FCF3FCF5EC75EC75ECE
:10453000C75EC75EC75EC75EC75EC75EC75EC75E53
:10454000C75EC75EC75EC75EC75EC75EC75EC75E43
:10455000C75ECF5ECF5ECF5ECF7FCF5ECF5ECF5EDA
:10456000CF5ECF5ECF5ECF5ECF5ECF5FCF7FD77F98
:10457000D77FD77FD77FDF7FDF9FD73ED73EDF7FD5
:10458000E7DFE7DFDF7ED77DDF9DE7BDDF5CDF7D37
:10459000DF7ECEFDD71EDF9FDF7FDF7FDF7FDF7F08
:1045A000D77FD77FD77FD77FD77FD77FD77ED77F5C
:1045B000D77FD77FD77FD77FD77FCF5FD77FD75F93
:1045C000CF1ED71EDF5EE75EDF3DFFFFFFBDD67863
:1045D000C5D4ACF09C6EA46D838A83AB7B8BDEB9B3
:1045E000FFFFDF1DDF7FDF9FD75FCF7ED77ED77EC8
:1045F000D77ED77ED77EDF5DDF7EE79EDF9EE7BF7B
:10460000D75DCF3DD79ECF7ED77ED77FDF7FDF7F41
:10461000DF5FD75EDF5FDF7FDF9FDF7FDF7FDF7FF3
:10462000DF7FDF9FDF9FDF9FDF9FE7BFE7BFE7BF42
:10463000E79FDF9FDF9FDF7FDF7FDF7FDF7FDF7F22
:10464000DF7FDF7FDF7FDF7FDF9FD77FD77FD77F72
:10465000D77FD77FD77FD77FD75FCF5FCF5FCF5F42
:10466000CF5FCF5FCF5FCF5FCF5FCF5FCF7ECF7E9C
:10467000D77ED77FD77FD77FD77EDF5EDF7EDF7F96
:10468000E77FE79FE79FEF9FEF9FEFBFEFBFEFBF92
:10469000EFBFEFBFEFBFEFBFEFBFEFBFEFBFEFBFAA
:1046A000EFBFEFBFEFBFEFBFEFBF3DBD3DBD3DBDB6
:1046B0003DBD3DBD3DBD3DBD3DBD3DBD3DBD3DBD2A
:1046C0003DBD3DBD3DBD3DBD3DBD3DBD3DBD3DBD1A
:1046D0003DBD3DBD3DBD3DBD3DBD3DDD3DBD3DDDCA
:1046E0003DDD35BC359C461D5EBF7EFE7EFD665CB5
:1046F00045BA3D9B3DBC35BC3DDD35DC35DD35DDAA
:1047000035DD35BD3DBD45DD4E1D775F66FF567D10
:1047100045FC45BB459C459C459C55BC661C869DFF
:10472000AF9FCFFFB79F8E9C765B663C663C665D15
:10473000665D5E5D5E5D5E7D665D767D8EBEA71F9D
:10474000B77FB77FAF3F96BD7E3B7E7D765D765D62
:10475000765C763C863B9E5BB6BCE7DFEFFFDFBF57
:10476000B6FC967B863B7E5D867D8E7E969E9EDE2B
:1047700096DE8E9D867D867D8E9D869D869D8E9DF8
:104780008E9E8E9E8E9E969E969E969E9E9D9E9E92
:104790009E9E9E9E9EBE9EBE9EBEA6BEA6BEA6BE61
:1047A000A6BEA6DEA6DEAEDEAEDEAEDEAEDEAEDEE1
:1047B000AEDEAEDEAEDEB6DEB6DEAEDEAEDEB6DE81
:1047C000B6DEB6DEB6DDB6DEB6DEB6FEB6FEB6DE0A
:1047D000B6FEB6FEB6FEB6FEB6FEB6FEB6FEB6FE39
:1047E000B6FEB6DEB6DEB6DEB6FDB6FDB6FDB6FD8D
:1047F000B6FDB6FDB6FDB6FDB6FDB6FEB6FEB6FE1E
:10480000B6FEB6FEB6FEB6FEB6FEB6FEB71EB6FEE7
:10481000B6FEB6FEB6FEB6FEB6FEB6FEB6FDB71ED8
:10482000B71EBF1EBF1DBF1EBF1EBEFEBEFEBEFE0C
:10483000BEFEBEFEBEFEBEFEBEFEBEFEBEFEBEFE98
:10484000BEFEBEFEBEFEBEFEBEFEBF1DBF1DBF1D28
:10485000B71EB71EBF1EBF1EBF1EBEFDC71EC6DCD5
:10486000B5F8BE18F79EFFFFF79EFFFFFFFFFFDFC3
:10487000FFFFFFFEFF9DF6DADE37B554C659D71DA0
:10488000C73EBEFEC71ECF1ECEFEC71EBF1EBF1F29
:10489000BF1EBF1FBF1EBF1FBF1EC73FC73FC73FB3
:1048A000C73FC73FC73FC73FC73FC73FC73EC73EDA
:1048B000C73EC73EC73EC73EC73EC73FC73FC73FCD
:1048C000C73FC73FC73FC73FC73FC73FC71FC71FF8
:1048D000C71FC71FC71FC71FC71FCF3FCF3FCF3F30
:1048E000CF3FCF3FCF3FCF3FCF3FCF5ECF5ECF5EFB
:1048F000CF5ECF5ECF5ECF5ECF5ECF5ECF5ECF5E50
:10490000CF5ECF5ECF5ECF5EC75EC75EC75EC75E5F
:10491000C75ECF5ECF5ECF5ECF5FCF5ECF5ECF5F35
:10492000CF5FCF5FCF5FCF5FCF5ED79FCF7FCF5EB1
:10493000CF5ECF5ED75DD73DCF1DD75ED73EDF5E62
:10494000DF9EDFBEDFBEDFDDDFDDEFFDE7BCEFFDBD
:10495000EFFFDF7ED73DDF7FDF9FDF5FD75FD77F52
:10496000D77FD77FD77FD77FD77FD77ED77ED77F99
:10497000D77FD77FCF7FCF7FCF7FCF5FD77FDF7FBF
:10498000DF7ED71DD71CEF9EFFFFCE36A4AF7B493D
:10499000836883687B068B6793A8A44B7307ACD0AE
:1049A000F75BEF7DDF1DD73FD73FCF5ED77ED77F49
:1049B000D75ED73DDF7EEFBFEFBFF7FFE7BFEFFF6B
:1049C000DF9FCF5DD77FD77FD77FD75ED75FDF7F72
:1049D000DF7FD75FD75FDF7FDF9FDF7FDF9FDF7FF7
:1049E000DF9FDF9FDF9FDF9FDF9FDFBFDFBFDF9F97
:1049F000DF9FDF9FDF7FD77FD77FD77FD77FD77FAF
:104A0000D77FD77FD77FD77FD77FD77FD77FD77FF6
:104A1000D75FD75FCF5FCF5FCF5FCF5FCF5FCF5F16
:104A2000CF5FCF5FCF5FCF5FCF5FCF5FCF7FCF5FF6
:104A3000CF7ECF5FD77FD75FD77FDF5FDF7FDF7F1F
:104A4000E79FE79FE79FE79FE79FEFBFEFBFEFBFBE
:104A5000EFBFEFBFEFBFEFBFEFBFEFBFEFBFEFBFE6
:104A6000EFBFEFBFEFBFEF9FEF9F3DBD3DBD3DBD32
:104A70003DBD3DBD3DBD3DBD3DBD3DBD3DBD3DBD66
:104A80003DBD3DBD3DBD3DBD3DBD3DBD3DBD3DBD56
:104A90003DBD3DBD3DBD3DBD3DBD3DDD35BD3DDD0E
:104AA0003DFD35BC2D7C461D66BFA7FFA7DF7EFE02
:104AB00055DB459B3DBC3DBC3DFD35DD35DD35DD84
:104AC00035DD35BD3DBD45DD561D6EFF5EBE4E3C40
:104AD0003DDB3D9B459B4D9C55BC55BB5DDB763B13
:104AE00096DEB75F9EDD863B7E3B765C765D6E5DD7
:104AF0006E7D6E7D6E7D6E7D767C8EBDA71EC7BF82
:104B0000E7FFE7FFDFFFC79F9EBD8E7C867C7E7C34
:104B10007E7D869D8E7D965CA65BB6BCC71DBEFC69
:104B2000A67B967B969C8E9D969E9E7DAEDEBF5FFD
:104B3000BF9FB73F9EDD967C969D969D969D96BDA8
:104B40009EBD9EBD9EBE9EBE9EBE9E9D9E9DA69EE1
:104B5000A6BEA6BEA6BEA6BEAEBEAEDEAEDEAEDEB5
:104B6000AEDEAEDEAEDEAEDEAEDEB6DEB6DEB6DECD
:104B7000B6DEB6DEB6DEB6DEB6DEB6DEB6DEB6DE95
:104B8000B6DEB6DEB6DDB6DDB6DEB6FEB6DEB6FE47
:104B9000B6FEB6FEB6FEB6FEB6FEB6FEB6FEB6DE95
:104BA000B6DEB6DEB6DEBEDEBEDDBEDDB6FDBEFD09
:104BB000B6FDB6FDB6FDB6FDB6FDB6FEB6FEB6FE5A
:104BC000B6FEB6FEB6FEB6FEB6FEB6FEB71EB6FE24
:104BD000B6FEB6FEB6FEB6FEB6FEB6FEB6FEB6FE35
:104BE000B71EBF1EBF1EBF1EBF1EBEFEBEFEBEFE48
:104BF000BEFEBEFEBEFEBEFEBEFEBEFEBEFEBEFED5
:104C0000BEFEBEFEBEFEBEFEBF1EBF1DBF1DB71D4B
:104C1000B71DB71EBF1EBF1EBF1EBEFDCF3EB619BD
:104C2000B5D8EF7EFFFFFFBEFFDFFFFFFFDFFFDF37
:104C3000FFFFFFFFFF9DEEDAD617B554C659CF1D13
:104C4000C73EBEFEC71ECF1FCEFEC71EBF3EBF3E25
:104C5000BF3EBF3EBF3EBF3EBF3EC73FC73EC73F52
:104C6000C73EC73FC73EC73FC73EC73EC73EC73E1A
:104C7000C73EC73EC73EC73EC73EC73FC73FC73F09
:104C8000C73FC73FC73FC73FC73FC73FC73FC73FF4
:104C9000C73FC73FC73FC73FC73FC73FC73FC73FE4
:104CA000C73FC73FC73FC73FC73FC73FC73ECF3FCD
:104CB000C73ECF3FC73ECF3FC73ECF3FC73ECF3FA8
:104CC000C73ECF3FC73ECF3FC73EC75EC75EC75E4A
:104CD000C75ECF5ECF5ECF5ECF5ECF5ECF5ECF5F73
:104CE000CF5FCF5FCF5FCF5FCF5ECF5EC75DCF3D82
:104CF000CF5DCF5DD77DD73DCF1DDF7ED75ED75D42
:104D0000D77DDFBEDFDDDFBCD7BBCF38CF17D759AC
:104D1000E7DDE7DEDF7ED73EDF7FD75FD75FD75F98
:104D2000D77FD77FD77FD77FD77FD77FD77FD75FF3
:104D3000D77FD77FCF7FCF7FD77FCF5FDF9FDF7ECC
:104D4000DF3DEF9EFFFFF7BDE6D973087B278B673A
:104D50009BC8A408A3E7A3E6A3E79BA78B877B28B0
:104D6000B552FFFEF7BFCEDDD71ED77FD77FD77EE8
:104D7000CF1DD71DE7BFEFDFDF3DBE39ADD7D71D54
:104D8000EFDFDF7ED77ECF5ECF3ECF3ED75EDF7FC9
:104D9000DF9FDF9FD75FD77FDF9FDF7FDF7FDF7FF3
:104DA000DF7FDF7FDF7FDF7FDF7FDF9FD79FD79FC3
:104DB000D79FD79FD77FD77FD77FD77FD77FD77F03
:104DC000D77FD77FD77FD77FD77FCF7FCF7FCF5F6B
:104DD000CF5FCF5FCF5FCF5FCF5FCF5FCF5FCF5F63
:104DE000CF5FCF5FCF5FCF3FCF5FCF5FCF7FCF7F33
:104DF000CF7FCF7FCF7FD77FD75FD77FDF7FDF7F2B
:104E0000E77FE79FE79FEF9FEF9FEFBFEFBFEFBF0A
:104E1000EFBFEFBFEFBFEFBFEFBFEFBFEFBFEFBF22
:104E2000EF9FEF9FE79FE79FE79F3DBD3DBD3DBDE6
:104E30003DBD3DBD3DBD3DBD3DBD3DBD3DBD3DBDA2
:104E40003DBD3DBD3DBD3DBD3DBD3DBD3DBD3DBD92
:104E50003DBD3DBD3DBD3DBD3DBD3DDD35BD35BD72
:104E60003DDD35BC35BC3DFD563D8F3F973F767DE2
:104E7000559B457B45BC3DBC3DDD35FD35DC35DD19
:104E800035DD35DD3D9C459C4DDC4DFB45FB3DDB7B
:104E90003DBB45BB4DDC55FD5E3E661D6E1C761C64
:104EA0008E9D9EDE967C7E1A865C7E7D7E7E7E7EDC
:104EB0007E9D7E9D7E9D86BC869C969BA6BCCF5F7C
:104EC000EFFFF7FFEFFFDFDFBF3E9E7B969C96BDB7
:104ED0008EBD8EBE96BE969E9E9D9E3BA69CA67B3C
:104EE0009E9BA6DD9EDD96BEA6DEA67CBEDDCF7FA8
:104EF000D7BFC77FAEDDA69CA6BCA6BCA6BCA6BD80
:104F0000A6BDA6BDA6BDAEDDAEDEA6BDA6BEA6BE36
:104F1000A6DEAEDEAEDEAEDEAEDEAEDEAEDEAEDE39
:104F2000AEDDAEDDB6DEB6DEB6DEB6DEB6DEB6DEF3
:104F3000B6DEB6DEB6DEB6DEB6DEB6DEB6DEB6DED1
:104F4000B6DEB6DEB6DEB6DEB6DEB6DEB6DEB6DEC1
:104F5000B6FEB6DEB6FEB6DEB6DEB6FEB6FEB6DE31
:104F6000B6DEBEDEBEDEBEDDBEDDBEFDBEFDBEFD0E
:104F7000BEFDBEFEBEFEBEFEBEFEBEFEBEFEBEFE52
:104F8000B6FEB6FEB6FEB6FEB6FEB6FEB6FEB6FE81
:104F9000B6FEB6FEB6FEB6FEB6FEB6FEB6FEBEFE69
:104FA000BEFEBEFEBEFEBF1EBF1EB71EB71EB71E94
:104FB000B71EB71EB71EB71EB71EB71EB71EB71E49
:104FC000B71EB71EB71EB71EB71EBF1DBF3CB73DED
:104FD000B73DB71DBF1EBF1EBF1DC6FDBE9BB61988
:104FE000D6DBFFFFFFFFFF7DFFFFFFFFFFDFFFFFC0
:104FF000FFFFFFFFFF9DE699CDF7B554C659CF3DA2
:10500000C73EBF1EBF1FCF1FC71EC71EC73EC71E3E
:10501000C73EC71EC73EC71EC73EC73FC73EC73FA6
:10502000C73EC73FC73EC73FC73EC73EC73EC71E76
:10503000C73EC71EC73EC71EC73EC71EC73EC71EC8
:10504000C73EC71EC73EC71EC73EC73EC73EC73E78
:10505000C73EC73EC73EC73EC73EC73EC73EC73E28
:10506000C73EC73EC73EC73EC73ECF3ECF3ECF3FFF
:10507000CF3ECF3FCF3ECF3FCF3ECF3FCF3ECF3FC4
:10508000CF3ECF3FCF3ECF3FCF3EC73EC73EC75EAE
:10509000C73ECF5ECF5ECF5FCF5FCF5FCF5FCF5FCB
:1050A000CF5FCF3FCF3FCF3FCF5EC73DCF7DD7BF95
:1050B000DFDFDFDFDFDEE7DFEFFFDFBED77DD75DDE
:1050C000DFBDDFDDCF7BBED8AE75A5F1A5D19DD20A
:1050D000BE97E7DDE7BED73DD75ED75ED75ED75E2A
:1050E000CF5ECF5ECF7ECF5FCF5FD75ED75ED75F1D
:1050F000CF5FCF5FCF5FCF5FCF5FD75EDF7EDF5DFC
:10510000DF3CF7BDF79CBDB57B8A6A849BC8B46958
:10511000AC07A3C5A3C4A3C4ABE5A3E6AC498347CE
:105120008BEBDEB8FFDFEF9FDF5FD75ED77ED75E0A
:10513000D71DDF5EEFDFD6FCA5357C11636EADD8E1
:10514000EFFFDF7FD73ECF5EC71DCF3ED75FDF9F2C
:10515000E7DFE7BFD77FD77FDFBFD77FD77FD77F97
:10516000D77FD77FD77FD77FD77FD77FD77FD77F8F
:10517000D77FCF7FCF7FCF5FCF5FCF5FCF5FCF5F57
:10518000CF5FCF5FCF5FCF5FCF5FCF5FCF5FCF5FAF
:10519000CF5FCF5FCF5FCF3FCF3FCF5FCF5FCF5FDF
:1051A000CF5FCF5FCF5FD73FCF5FCF7FC77FC77F57
:1051B000CF7FCF7FCF7FD77FD77FDF7FDF7FDF7F3F
:1051C000E79FE79FE79FEF9FEF9FEFBFEFBFEFBF27
:1051D000EFBFEFBFEFBFEFBFEFBFEFBFEFBFE79F87
:1051E000E79FE79FE77FE77FE77F3DBD3DBD3DBD93
:1051F0003DBD3DBD3DBD3DBD3DBD3DBD3DBD3DBDDF
:105200003DBD3DBD3DBD3DBD3DBD3DBD3DBD3DBDCE
:105210003DBD3DBD3DBD3DBD3DBD3DDD35BD359CCF
:1052200035BC3DBD3DDD3DDD45BC4D7965DB55BB48
:10523000455A459C45DD3DBC359C3DDD35BC35BC06
:105240003DDD3DBD3D9C3D5B459B45BA4DDA4E1B6A
:10525000561B5E1C663C6E5D767E7E9E7E9E867DC7
:1052600096BD9EDE967C8E3B969D8E9E8EBE8EBE9D
:105270008EBE8EBD8EBD96BD96BC9E9CA67BBEFD91
:10528000DF9FE7BFDFBFD79FBF1DA69BA6DC9F1E8A
:105290009EFE96DE96BE9EBEA6DEA6BDA6BD9E9CCA
:1052A000A6BCAF1E9EBD967CA6BDAE9CBEDDCF5FEC
:1052B000CF9FBF3EAEBCAEBCAEFDA6BCAEBDAEBDCC
:1052C000AEDDAEDDAEDDAEDDB6DEAEBDAEDDAEDD9D
:1052D000AEDDAEDDAEDEAEFDB6FEAEDDAEDDAEDD2C
:1052E000AEDDB6DDB6DDB6DEB6DEB6DEB6DEB6DE29
:1052F000B6DEB6DEB6DEB6DEB6DEB6DEB6DEB6DE0E
:10530000B6DEAEDDAEDDB6DDAEDDB6DEB6DEB6DE19
:10531000B6DEB6DEB6DEB6DEB6DEB6DEB6DEB6DEED
:10532000B6DEB6DEB6DDB6DDB6DDBEFDBEFDBEFD6B
:10533000BEFDBEFDBEFDBEFEBEFEBEFEBEFEBEFE90
:10534000BEFEB6FEB6FEB6FEB6FEB6FEB6FEB6FEB5
:10535000B6FEB6FEB6FEB6FEB6FEB6FEB6FEBEFEA5
:10536000BEFEBEFEBEFEBF1EBF1EB71EB71EB71ED0
:10537000B71EB71EB71EB71EB71EB71EB71EB71E85
:10538000B71EB71EB71EB71EB71EBF1DBF1DBF1D60
:10539000BF1DBF1EBF1EBF1DBEFDC6FDA5B8C67B7F
:1053A000FFFFFFDFFF9EFFFEFFDEFFFFFFFFF7FFB8
:1053B000FFFFFFFFF77DE678CDD6AD55BE59CF3E56
:1053C000C73FBF1EBF1FC71FC71FC71EC73EC73E61
:1053D000BF3EC73EBF3EBF3EBF3EC73FC73FC73FC2
:1053E000C73FC73FC73FC73FC73FC73EC73EC71EB0
:1053F000C73EC73EC73EC73EC73EC73EC73EC73E85
:10540000C73EC73EC73EC73EC73EC73FC73FC73F71
:10541000C73FC73FC73FC73FC73FC73FC73FC73F5C
:10542000C73FC73FC73FC73FC73FC73FC71FC71F8C
:10543000C73FC71FC71FC71FC71FC71FC73FC73FDC
:10544000C73FC73FC73FC71FC71FC73EC73EC73E6F
:10545000C73EC73FC73FCF3FCF3FCF5FCF5FCF5F95
:10546000CF5FCF5FCF5FCF5FCF5FC71DD79EDFFF1F
:10547000DFFDCF7BC719CF3AD77BE7FEDF7CD77C38
:10548000DFBDD7BCBED795D2854E9DD0958E84ED1D
:105490009DB2DF9BEFFFD75DD75ECF5ECF5FCF5F63
:1054A000CF5FCF5FCF5FCF5FCF5FCF5FD75FCF5F84
:1054B000CF5FCF5FCF5FCF5FCF5FDF9FCEFCDF3CA3
:1054C000FFFFEF5B9CD05AA749E36A839BA6AC0819
:1054D000A3A5ABE5B425ABE4ABE4A3C5A3E693A7D2
:1054E0007B2683AACE36FFBEDF1DCEFCD73DD73E3E
:1054F000D75EE79FEFBFB5D85B0D73AF4A8BA5565C
:10550000F7FFDF7ECF1DD75ECF3ED73ED77EE7BF0A
:10551000EFFFEFFFDF9FDF9FE7BFD77FD77FD77F0B
:10552000D77FD77FD77FD77FD77FCF7FCF7FCF7FE3
:10553000CF7ECF7FCF7FCF5ECF5FCF5FCF5FCF5F9D
:10554000CF5FCF5ECF5ECF5ECF5ECF5FCF5FCF5FEF
:10555000CF5FCF5FCF5FCF5FCF3ECF5FCF5ED73E16
:10556000D73ED73FD73FCF3FCF5FCF7FC77FCF7FDC
:10557000CF7FCF7FCF7FD77FD77FDF7FDF9FE79F33
:10558000E79FE79FEFBFEFBFEFBFEFBFEFBFEFBFFB
:10559000EFBFEFBFEFBFEFBFEFBFE79FE79FE79F13
:1055A000E79FE77FE77FE77FE77F3DDD3DDD3DDD8F
:1055B0003DDD3DDD3DDD3DDD3DDD3DDD3DDD3DDD1B
:1055C0003DDD3DDD3DDD3DDD3DDD3DDD3DDD3DDD0B
:1055D0003DBD3DBD3DBD3DDD3DDD359D359D35BD13
:1055E00035BD35BD35BD3DBD3DBD459C459C3D9C56
:1055F0003D9C3D9D3D9D3D9D3DBC3D9C3D9C3DBCA0
:1056000045BC45DC4DDC4DDD4DFC561C563B663B38
:10561000765B867C8E7C8E5C863C8E7C865C8E7D0A
:105620008E9D9EBDAF1EAEFD8E1A9EBD9EBD9EBDC3
:105630009EBD9EBE9EBE9EBD9EBDA6BDA6BDAEDD50
:10564000B6FEBF1EBEFDAEDCA69BA6FD9EFD9EDD8A
:105650009EDD9EDD9EDEA6DEAEDEAEBDAEBDAEBC88
:10566000AEBCAEBDA6BDA6BDAEBDAEBDAEBDAEBDF3
:10567000AEBDAEBDAEDDAEDDAEDDAEDDAEDDAEDD12
:10568000AEDDAEDDAEDDAEDDAEDDAEBDB6FDB6DDB2
:10569000AEBCB71DC77FBF5EB6DDB6DDB6DDB6DD1D
:1056A000B6DEB6DEB6DEB6BEB6DEB6DEB6FDB6FD3C
:1056B000B6FDB6FDB6FDB6FDB6FDB6DDB6DDB6DDB2
:1056C000B6DDB6DDB6DDB6DDB6DDB6DEB6DFB6DF3D
:1056D000B6DEB6DEB6DEB6DEB6DEB6DEB6DEBEDE22
:1056E000BEDDBEDDBEDDBEDDBEDDBEDDBEFDBEDDC2
:1056F000B69CB6DCC73EBF1EB6BCBEFDBEFDB6FE48
:10570000B6FEB6FEB6FEB6FEB6FEB6FDB6FDB71EDA
:10571000B71DBF1EBF1EBF1EBF1EBEFDBEFDBEFD10
:10572000BEFDBEFDBEFDBEFDB71EBF5FB71EB6FE11
:10573000B71EBF1EBEFEB6FDBEFEBF1EBF1EBF1EF5
:10574000BF1EBF1EBF1EBF1EBF1EC73EBEFDC73E43
:10575000C73FBEFEBF1EC73EC6FD9D77CE9BF79FCF
:10576000FFDFFF9FFFBFFFFFFFFFFFFFFFFFF7FF11
:10577000FFFFFFFFF75BDE77C5B5A513CEBBCF3EBE
:10578000B6DDBEFFC6FFBEDEC71FBEFEBF1EBF1E0C
:10579000BF1EBF1EBF1EBF1EBF1EBF1FBF1FBF3FFE
:1057A000BF1FBF1FBF1FBF1FBF1FBEFEBF1DBEFD50
:1057B000BF1DBF1EBF1EBF1EBF1EBEFEB71EB71E33
:1057C000B71EB71EB71EB71EB71EB6FEB6FEB6FE94
:1057D000B6FEB6FEB6FEB6FEB6FEB71EB71EB71EC6
:1057E000B71EB71EB71EB71EBF1EBEFFBEFFBF1F30
:1057F000B71FBF1FBF1FBEFFBEFFBEFFBF3FBF5FC4
:10580000BF5FBF3FBF3FC73FCF3FCF5FC73FC73F30
:10581000BF1FBF1EC71FC71FC71FCF3FC6DEBEFEAD
:10582000C73FBF1FC75FCF5FC71ECF5ED7BED7BC06
:10583000B6D69E11A672A6527CEDA5F3EFFEE7BD8B
:10584000DF9CD77A95B1856E9DEFA62FA60F958F19
:10585000B654EFFDE7BDD75DD73ECF3ECF5FCF5FFC
:10586000C77FCF7FC77FC75FCF5FCF3FCF1EC73E0A
:10587000C73EC75FC75FC73FC71FCF1EC69BFFFF9F
:10588000FFFD946F5A6662A77B0783058B259345BE
:105890009B86A3A5A3C5A3C5A3C5AC069BC5A406AB
:1058A000A42893C993EBD5D5FFDFDF3CCEDBE7BF60
:1058B000F7FFE79ED6DCAD9684728C937C32AD9771
:1058C000EF9FF7FFEFDFEFDFEFDFF7FFEFFFF7FF10
:1058D000F7FFEFDFEFFFDF7EDF5ED73DD75ECF5E06
:1058E000CF5ECF7FC77FCF9FCF9FC77EC77DC77D4E
:1058F000C77EC77EC77EC77EC77EC73ECF7FCF9F8E
:10590000C75EC75ECF7ECF5EC73DCF9FCF9FCF9F85
:10591000CF7FCF7FCF7FCF7FC73FCF3ED77FD73ED1
:10592000CEDDDF5FD73FCF3FCF5FCF7FC75FCF7F7A
:10593000CF9FCF7FD79FD79FCF3EDF9FE79FE79F28
:10594000E7BFEFBFEFBFEFBFEFBFE7BFEF9FEF9F37
:10595000EF9FEF9FEF9FEF9FEF9FEFBFEFBFEF9F97
:10596000E77FE77FE77EE77FE77E3DBD3DBD3DBD4D
:105970003DBD3DBD3DDD3DDD3DDD3DDD3DDD3DDD97
:105980003DDD3DDD35DD3DDC35DC3DDD35BD35BCAA
:1059900035BC359C359C35BC35BC3DBD3DBD3DBDA4
:1059A0003DBD35BD35BD359D359D359D3D9D3D9DEF
:1059B0003D9D3DBD45BD45BD45BD45BD4DBD4DDDD7
:1059C0004DDD55FD561D5E1D5E1D665C769C86DDBB
:1059D0009F3EB77FBF5FBF3EB6FD9E9C967C969D67
:1059E0009EBDAEFEC7BFCF9FB6FDA6BC9EBD9EBDF1
:1059F0009EBD9EBD9EBDA6BEA6BEA6BD9E9D9E9DF5
:105A0000A6BDA6BDA6DCA6BCA6BC9EDD9EDD9EDD19
:105A10009EDD9EBDA6BDA6BDA6BDAEBDAEBDAEBD46
:105A2000AEBDAEBDAEBDAEBDAEBDAEBDAEBDAEBD1E
:105A3000AEBDAEBDAEBDAEBDAEBDAEDDAEDDAEDDAE
:105A4000AEDDAEDDAEDDAEDDAEDDB6DDB6DDB6DCE7
:105A5000B6DCC77ED7FFD7DFC75EB6DDB6DDB6DD05
:105A6000B6DEB6DEB6BEB6BFB6DEB6DEAEFDAEFDA7
:105A7000AEFDAEFDAEFDB6FDB6FDB6DDB6DDB6DD06
:105A8000B6DDB6DDB6DDB6DDB6DDB6DEB6FEB6DF5A
:105A9000B6DEB6DEB6DEB6FEB6FEB6DEB6FDB6FDE8
:105AA000B6FDBEDDBEDDBEFDBEFDB6DCBEFDBEFD8F
:105AB000BEDCC73ED7BFD7BFCF7FBEFDBEFDBEFE9B
:105AC000BEFEBEFEBEFEB71EB71EB6FDB6FDB6FDDF
:105AD000B6FDBEFDBF1DBF1DBF1DBF1DBF1DBF1D30
