:020000040800F2
:1000000068E40120590300083954000889480008B1
:100010008D5200085B1800081D7C000800000000DD
:10002000000000000000000000000000990200082D
:10003000FD1F000800000000F50200081D5900081F
:1000400073030008730300087303000873030008B8
:100050007303000873030008FF1F00087303000800
:100060007303000873030008730300087303000898
:100070007303000873030008730300087303000888
:10008000411F00087303000873030008000000000C
:1000900000000000000000000000000073030008E2
:1000A00073030008E959000873030008730300088C
:1000B0007303000873030008730300087303000848
:1000C0007303000873030008730300087303000838
:1000D00073030008730300087303000800000000A6
:1000E00005200008730300087303000800000000E7
:1000F0000000000000000000000000004D1F00088C
:100100000000000073030008730300087303000875
:1001100000000000000000000000000000000000DF
:1001200073030008730300087303000873030008D7
:100130007303000800000000000000000000000041
:100140000000000000000000000000003D54000816
:1001500073030008730300087303000873030008A7
:100160007303000873030008000000000000000093
:10017000000000000000000000000000000000007F
:1001800000000000730300080000000000000000F1
:10019000730300087303000800F002F800F06CF825
:1001A0000AA090E8000C82448344AAF10107DA45D2
:1001B00001D100F061F8AFF2090EBAE80F0013F0B8
:1001C000010F18BFFB1A43F00103184774A703007F
:1001D00094A703000A444FF0000C10F8013B13F001
:1001E000070408BF10F8014B1D1108BF10F8015B90
:1001F000641E05D010F8016B641E01F8016BF9D183
:1002000013F0080F1EBF10F8014BAD1C0C1B09D1D9
:100210006D1E58BF01F801CBFAD505E014F8016B4B
:1002200001F8016B6D1EF9D59142D6D370470000DD
:100230000023002400250026103A28BF78C1FBD8EF
:10024000520728BF30C148BF0B60704766292DF0A8
:100250007180642900F02E81002070471FB52DF0B9
:1002600064F800F0FDFD0400002000212CF0EAFD00
:10027000E0601FBD10B510BD00F0F2FE1146FFF7A3
:10028000EDFF23F0E9FF00F010FF03B4FFF7F2FFEA
:1002900003BC00F013FF00002C4B19680868B0E89D
:1002A000F04F80F30988BFF36F8F4FF0000080F3A9
:1002B000118870470000000008480068006880F35B
:1002C00008884FF0000080F3148862B661B6BFF36F
:1002D0004F8FBFF36F8F00DF00BF00BF08ED00E05E
:1002E000DFF80C00016841F470010160704700BF45
:1002F00088ED00E0EFF30980BFF36F8F134B1A68AE
:100300001EF0100F08BF20ED108A20E9F04F10609A
:1003100009B44FF0500080F31188BFF34F8FBFF343
:100320006F8F2BF03BFF4FF0000080F3118809BC6A
:1003300019680868B0E8F04F1EF0100F08BFB0EC65
:10034000108A80F30988BFF36F8F7047BC030020C9
:10035000EFF30580704700000948804709480047CF
:10036000FEE7FEE7FEE7FEE7FEE7FEE7FEE7FEE765
:10037000FEE7FEE704480549054A064B70470000C2
:10038000D95900089901000868DE012068E40120BD
:1003900068E0012068E0012053EA020C00F0698067
:1003A0002DE9F04B4FF00006002B1FBFB3FA83F589
:1003B00003FA05F424FA05F65E4012BF1643B2FABA
:1003C00082F502FA05F4C5F120051EBF22FA05FCEC
:1003D00044EA0C04203556EA044C4FEA144418BF92
:1003E000641C4FF000084FF00009904271EB030CC1
:1003F00039D3002919BFB1FA81F701FA07F6B0FA2B
:1004000080F700FA07F6C7F120071EBF20FA07FCA5
:1004100046EA0C062037B6FBF4FCA7EB0507103FB5
:1004200007F01F0BCBF120060CFA0BFB2CFA06F69B
:1004300044BFB3460026202FA4BF5E464FF0000BFA
:100440005BEA060C08BF4FF0010B19EB0B09ABFB85
:10045000027C48EB0608C01B06FB02CC0BFB03CC5E
:1004600071EB0C01C1E70B46024641464846BDE828
:10047000F08B13B54FF000004FF00001AFF3008098
:10048000BDE81C40704700000FB41CB5084B06AA1D
:100490007B4469460090059800F0A7FC04460020C4
:1004A000694600F0B5FC20461CBC5DF814FB00005A
:1004B0007D0900002DE9F0410646002410687529E9
:1004C000314616A510D0AFF30080002802DA404272
:1004D00013A507E031688A0701D512A502E0490794
:1004E00004D511A5012401E0AFF3008000210A2208
:1004F00006F1240709E0B0FBF2FCB0FBF2F302FBCB
:100500001C00303078541846491C0028F3D123468B
:100510002A463046BDE8F04100F0F9B9000000007D
:100520002D0000002B000000200000002DE9F05FEE
:10053000894604464FF0000ADFF874B1FB44C0F866
:1005400020A02046E1688847002874D0252806D0DE
:10055000D4E901219047206A401C2062F1E700267F
:100560005F462046E16888472028054607DB312D95
:1005700005D2781910F8200C08B10643F1E7B0074E
:1005800001D526F00406C4F81CA00027C4F818A062
:100590002A2D09D0284607F0B8FD38B304EB8708A8
:1005A000303DC8F8185019E059F8041B204604EBF8
:1005B00087029161E1688847012F054618D1E069FB
:1005C000002820DA26F020061DE0D8F8180000EBFD
:1005D000800005EB40003038C8F818002046E1687C
:1005E0008847054607F091FD0028EED1012F0AD07B
:1005F0002E2D08D12046E16888477F1C0546022F32
:1006000046F02006C4DBA069002803DA404246F029
:100610000106A061F00701D026F010066C2D0BD06A
:10062000682D09D04C2D39D06A2D35D0742D35D098
:100630007A2D33D016E038E0E1682F46204688470F
:10064000B842054609D16C2F26D04FF48060E1688E
:10065000064320468847054604E06C2F1AD04FF425
:10066000807006430DB3A5F14100192802D820354A
:1006700046F400664A462946204626604E46FFF765
:10068000E5FD80B101280BD0F61D26F0070000F132
:10069000080956E74020E4E78020D8E70020D6E7A5
:1006A00006F104094DE7284652E7206ABDE8F09FAD
:1006B000789E030040EA0103024630B59B0710D143
:1006C0004FF0013400E008C208C91D1B9D4315EA24
:1006D000C41FF8D013F0FF0102F8011B0DD01B0A54
:1006E000F8E711F8013B002B02F8013B05D011F8A7
:1006F000013B002B02F8013BF3D130BD10B5431C88
:1007000002E010F8011B71B18107FAD14FF00132FC
:1007100002C88C1A8C4314EAC211F9D0C01A0A0616
:1007200003D0C01E10BDC01A10BD0A0401D0801E27
:1007300010BD0902FCD0401E10BD032A40F23080DB
:1007400010F0030C00F0158011F8013BBCF1020F12
:10075000624498BF11F801CB00F8013B38BF11F893
:10076000013BA2F1040298BF00F801CB38BF00F8AA
:10077000013B11F0030300F02580083AC0F0088027
:1007800051F8043B083A51F804CBA0E80810F5E70B
:10079000121D5CBF51F8043B40F8043BAFF30080EE
:1007A000D20724BF11F8013B11F801CB48BF11F863
:1007B000012B24BF00F8013B00F801CB48BF00F833
:1007C000012B704710B5203AC0F00B80B1E81850EB
:1007D000203AA0E81850B1E81850A0E81850BFF42B
:1007E000F5AF5FEA027C24BFB1E81850A0E81850CA
:1007F00044BF18C918C0BDE810405FEA827C24BF1E
:1008000051F8043B40F8043B08BF7047D20728BFAB
:1008100031F8023B48BF11F8012B28BF20F8023BFA
:1008200048BF00F8012B704702F0FF0343EA0322A0
:1008300042EA024200F0F3BA4FF0000200B513465C
:1008400094469646203922BFA0E80C50A0E80C50F0
:10085000B1F12001BFF4F7AF090728BFA0E80C50A1
:1008600048BF0CC05DF804EB890028BF40F8042B9A
:1008700008BF704748BF20F8022B11F0804F18BF07
:1008800000F8012B704700004FF0013C50F8042B9A
:1008900051F8043B9A4221D1A2EB0C03934313EA93
:1008A000CC1317D150F8042B51F8043B9A4215D1C0
:1008B000A2EB0C03934313EACC130BD150F8042B97
:1008C00051F8043B9A4209D1A2EB0C03934313EA7B
:1008D000CC13DBD04FF00000704700BFD01A01BA34
:1008E000B1FA81F101F0180122FA01F0CB40C1F117
:1008F0002001DBB2C0B2C01A2CFA01F3D11A914325
:1009000011EAC311E6D170477047704770472DE96F
:10091000F0470D4699469246044600F124080168C6
:10092000880604D5E06921F01001216000E0012073
:10093000A84201DD471B00E00027A1697A1902EBFC
:100940000900081AA0612078C00602D42046AFF33F
:100950000080002608E0D4E901211AF8060090473B
:10096000206A401C761C20624E45F4DB2078C006CD
:100970000AD52046AFF3008006E0D4E901213020FB
:100980009047206A401C2062381EA7F10107F4DC62
:1009900007E0D4E9012118F805009047206A401CBF
:1009A0002062281EA5F10105F3DC2046AFF300808C
:1009B0002078000602D50220BDE8F0870120FBE781
:1009C00070472DE9FF4F0C461E464FF0FF378BB0A6
:1009D000D2E90001DDF860800A908A46C1F30A5529
:1009E00005B93D46002108464FF00000BAF1000F5E
:1009F00000F4400005DA00EB80004FF4400101EA0A
:100A000050004FEA9059B9F1010F00DDB9460A983C
:100A100050EA4A000ED044F61050A5F2FF35454387
:100A20002F14B8F1000F1ED07542291E1EDDC9F12A
:100A300000021CE0B8F1010F4FF0000001D030219E
:100A400003E0F24305E02154401CB042FBDB30469A
:100A50000022002121540B99C1F80880C1E900202F
:100A60000FB0BDE8F08FBD1B6D1CDEE74A4600DA13
:100A7000694206A800F07EFA06AB93E8070003ABD4
:100A800083E8070050460A9900F01FFB8DE8070035
:100A9000A0F500501F3800900398002D0ADD42F2A7
:100AA0001F014A460844002303A90390684600F04A
:100AB00088FD09E0A0F500504A461F38002303A92D
:100AC0000390684600F092FD8DE807000004000CDA
:100AD00003D04FF0FF30410800E01046B8F1000F9E
:100AE00003D00022009215461EE0751E05D400F0CA
:100AF000BBF9303262556D1EF9D5B3460122084369
:100B000002D000227F1C04E02078302801D100228E
:100B10007F1E002A099784D01DE0112D07DA00F00E
:100B2000A3F9303262556D1C50EA0102F5D1084339
:100B300002D00098C8B10EE00021681E05E0235CD9
:100B4000625C63542254401E491C8142F7DBAB4671
:100B5000A81B401E0990002004F80B000B98099A6E
:100B6000C0F80880C0E9002B7AE711264FF0000892
:100B700057E72DE9F04F88460446D21D22F00701C1
:100B800091B0D1E90001CDE90A0107F078FA0246F7
:100B90000B98C00F01D02D2007E02068810701D5F8
:100BA0002B2002E0202101EAC000032A099001D095
:100BB000072A05DB03464146204600F09BF90BE17E
:100BC0002078800601D5E06900E00620B8F1650FC5
:100BD000814606D0B8F1660F18D0B8F1670F70D112
:100BE00031E00020B9F1110F009001DB112301E089
:100BF00009F101030AAA01A90CA8FFF7E2FEDDE949
:100C00000C70002609F10105834647E001204B46A0
:100C100000904FF000470AAA01A90CA8FFF7D1FEE7
:100C2000DDE90DB00C995D46002610B909F101000F
:100C30000D18B9EB050003D4C0F1FF3609F1010529
:100C4000A5EB09002BE0B9F1010F01DA4FF0010922
:100C50000020B9F1110F0090484601DD112300E09A
:100C600003460AAA01A90CA8FFF7ABFEDDE90C7048
:100C70004D4600268346207800070AD4AB4500DAAB
:100C80005D4601A8012D04DD411911F8011C302930
:100C900007D04F4502DA17F1040F04DA012082462B
:100CA0000FE06D1EEEE7002F02DCED1B3E4403E07B
:100CB000781CA84200DD7D1CB81B00F1010A4FF032
:100CC00000472078000703D4AA4501DB4FF0FF3A24
:100CD0000021B7F1004F0DF143088DF8431024D0E7
:100CE00002202B23002F01DA7F422D230A21021E2E
:100CF000A0F1010000DC5FB197FBF1FC97FBF1F282
:100D000001FB1C7C17460CF1300C08F801CDEEE716
:100D1000A8F1010003702188090501D5452100E0F3
:100D20006521A0F1010800F8011C09980FA9A1EBA9
:100D30000807FF1D00B10120411901EBEA70A1690C
:100D40003844081A401EA0612078C00602D420460C
:100D5000AFF30080099828B1D4E901219047206AB7
:100D6000401C20622078C00622D52046AFF30080C8
:100D70001EE0002E04DBB34502DD01A8805D00E02B
:100D80003020D4E901219047206A401C2062761C63
:100D9000AAF101005FEA000A0AD100F061F8C06818
:100DA0000168405CD4E901219047206A401C206220
:100DB000281EA5F10105DCDC07E0D4E9012118F8C3
:100DC000010B9047206A401C2062381EA7F10107E2
:100DD000F3DC2046AFF30080032011B041E60000B1
:100DE00001694A1C02610878704700B58FB0CDE9EF
:100DF00001310021059105497944CDE903101146DF
:100E00006846FFF793FB0FB000BD0000E5FFFFFF52
:100E10000A6802F8010B0A6070474FF000020429CB
:100E2000C0F0128010F0030C3FF408ADCCF1040CBC
:100E3000BCF1020F18BF00F8012BA8BF20F8022B4D
:100E4000A1EB0C01FFF7FABC5FEAC17C24BF00F8FC
:100E5000012B00F8012B48BF00F8012B7047000060
:100E60000048704724DE012030B5B0F10A024FEA95
:100E7000900E71F100034EEA817EB0EB0E0061EB43
:100E800091014FEA101E4EEA017E10EB0E0041EB7D
:100E900011114FEA102E4EEA016E10EB0E0041EBDD
:100EA00011214FEA104E4EEA014E10EB0E0041EBBD
:100EB0001141401841F100014FEAD00040EA417071
:100EC0004FEAD10110EB80054FEA810444EA9074A7
:100ED00044EB01046D1944EB0404521BA3414FF091
:100EE000000348BF0A3200D530BD401C41F100016B
:100EF00030BD00002DE9F0411F460446032601687D
:100F0000072A01F4006004DB08B116A505E016A568
:100F100003E008B115A500E015A521F01000206040
:100F2000A069C01EA0610FB1401EA0612046AFF3B2
:100F300000804FB1D4E9012138469047206A401C17
:100F40002062C01C206206E0206AFAE7D4E9012191
:100F500015F8010B9047761EF8D22046AFF30080BB
:100F6000BDE8F0814E414E006E616E00494E460074
:100F7000696E66002DE9F047814616468AB035480D
:100F800078440DC88DE80D0032487844801C03ACCD
:100F90000DC884E80D0041F69B300844372190FBD2
:100FA000F1F290FBF1F5A5F1800501FB12041B3C69
:100FB00002D56442012000E00020DFF898A08046BE
:100FC0000027FA44AAF1BE0A0EE0E0070AD0324632
:100FD000684607EB470101230AEB810100F006FB9D
:100FE0008DE8070064107F1C002CEED1194F7F4460
:100FF000AE3F19E0E80715D007EB04100DF1180A11
:1010000090E80E008AE80E00C068F04201D19819FD
:1010100008903246012306A903A800F0E7FA03ABC3
:1010200083E807006D10641C002DE3D14FF001032D
:1010300032466946B8F1000F03A802D000F0C1FAA9
:1010400001E000F0D3FAC9E90001C9F808200AB0AC
:10105000BDE8F087C49403000048704704DE012017
:101060007546FFF7F9FFAE4605006946534620F086
:101070000700854618B020B5FFF77CF9BDE8204091
:101080004FF000064FF000074FF000084FF0000B44
:1010900021F00701AC46ACE8C009ACE8C009ACE8F7
:1010A000C009ACE8C0098D46704710B50446AFF3DF
:1010B00000802046BDE81040FFF7E7B8014918203E
:1010C000ABBEFEE72600020070475FEA400C08BF97
:1010D00091F0000F4FEA8C234FEAC12243EA5151AD
:1010E0004FEA1C5018BF00F5F0404FEA300018BF1F
:1010F00041F000415FEA6C5C00F02980BCF1FF3FE9
:1011000008BF40F080407047130C06BF12044FF038
:10111000100C4FF0000C130E04BF12020CF1080C5F
:10112000130F04BF12010CF1040C930F04BF9200C3
:101130000CF1020CD30F04BF52000CF1010C11464C
:101140004FF00002A0F11F00A0EB0C00704711F05F
:10115000004F08BF704731F000413FF4D5AF0B0C92
:1011600006BF09044FF0100C4FF0000C0B0E04BF2B
:1011700009020CF1080C0B0F04BF09010CF1040C5F
:101180008B0F04BF89000CF1020CCB0F04BF490088
:101190000CF1010CCCF12003A0EB0C0022FA03F3BC
:1011A00002FA0CF241EA030100F10100704720F05D
:1011B0007F4C80EA030023F07F47ACEB070303F585
:1011C0007C5300F0004003F1FF032DE980494FEA12
:1011D000154B09B44FEA144325EA0B4E24EA0348A1
:1011E0000FF2042606EB132749083E785FEA320225
:1011F00003FB0667C7F5000707FB06F64FEA5437FF
:101200004FEAD64606F1020607FB066CCCF1005CFD
:101210004FEA1C472CEA074C07FB06F40CFB06F5CB
:1012200004EB15464FEA961634BF00204FF00040FD
:101230004FEAD13706FB07FC4FEA1C4C0CFB0BF7BF
:10124000D21B03FB0CF761EB07010CFB0EF7B0EBB5
:10125000074072EB17420CFB08F734BFA2EB0742C2
:10126000B2EB074261EB17414FEA0C444FEA91079A
:1012700006FB07FC4FEA1C4C0CFB0BF7B0EBC7401E
:1012800072EB573203FB0CF734BFA2EBC742B2EB51
:10129000C74261EB57310CFB0EF7B0EBC70072EBA6
:1012A00057720CFB08F734BFA2EBC702B2EBC702C0
:1012B00061EB5771039F4FEA816141EA921104EBA0
:1012C000CC044FEAD1374FEA826206FB07FC42EAC0
:1012D00090124FEA80604FEA1C4C0CFB0BF7D21BBC
:1012E00003FB0CF761EB07010CFB0EF7B0EB0740BB
:1012F00072EB17420CFB08F734BFA2EB0742B2EBCC
:10130000074261EB17414FEA8C554FEA910704EB16
:101310009C2406FB07FC4FEA1C4C0CFB0BF7B0EBC4
:10132000C74072EB573203FB0CF734BFA2EBC74246
:10133000B2EBC74261EB57310CFB0EF7B0EBC700C5
:1013400072EB57720CFB08F734BFA2EBC702B2EB8B
:10135000C70261EB577115EB4C254FEA816141EAF9
:1013600092114FEA82624FEAD13742EA901206FBAD
:1013700007FC44F100044FEA80604FEA1C4C0CFB70
:101380000BF7D21B03FB0CF761EB07010CFB0EF70D
:10139000B0EB074072EB17420CFB08F734BFA2EB2F
:1013A0000742B2EB074261EB174115EB1C154FEA00
:1013B000813141EA92414FEA823242EA90424FEA59
:1013C00080304FEA0C7644F1000448EA03434EEAC9
:1013D0000B484FF0000EB2EB080C71EB030724BF73
:1013E000624639464EEB0E0E4FF0000B001852418C
:1013F00049414BEB0B0BB2EB080C71EB03077BF194
:10140000000B24BF624639464EEB0E0E4FF0000B28
:101410000018524149414BEB0B0BB2EB080C71EB3E
:1014200003077BF1000B24BF624639464EEB0E0EDC
:1014300051EA020718BF46F0010616EB0E7655F189
:10144000000254F1000103D5BDE88901BDE8008820
:10145000BDE88901BDE80048B619524141EB0101E0
:10146000A3F10103704780807F7E7D7C7B7A797851
:10147000777676757473727171706F6E6E6D6C6C59
:101480006B6A6A69686867666665646463636261FB
:101490006160605F5F5E5E5D5D5C5C5B5B5A5A597C
:1014A00059585857575656555555545453535252E8
:1014B0005251515050504F4F4F4E4E4D4D4D4C4C40
:1014C0004C4B4B4B4A4A4A49494948484847474789
:1014D00047464646454545444444444343434342C6
:1014E000424242414141002B9C4630D477002BD0F0
:1014F0001CB54FEA370703B44FF010004FF010014E
:10150000BAF1000F06D0BCF1000FDCBF40F00800BC
:1015100040F008014FF000000FBCBDE810400BF197
:10152000010BBBF1010F08BF5FEA170722BF12F1E1
:10153000010211F101014FF0004143F1000300F0FD
:10154000004043EA00007047F9D35708D0E746EA65
:10155000064613F1400F4FEA16461FDD13F1200F28
:10156000DFBF16430A46002120335B42BED0C3F1E1
:10157000200746EA064602FA07F74FEA164646EA09
:101580000706C3F1200722FA03F201FA07F721FA4E
:1015900003F14FF0000342EA0702A7E746EA02061A
:1015A00046EA06464FEA164646EA0106BCBF46EA48
:1015B0000646360C4FF000034FF000024FF00001DA
:1015C00094E72DE9804C9A46934670B491E8380030
:1015D00007C831EA400C48BF34EA430C03D5FFF793
:1015E000E6FDFFF780FFF0BCBDE8008C2DE9804CE4
:1015F0009A46934670B491E8380007C810F0804FBF
:1016000008BF13F0804F03D100F005F8FFF76BFF20
:10161000F0BCBDE8008C20F07F4780EA030023F097
:101620007F4C07EB0C03A3F57C5300F00040A3F1C3
:10163000FE0392F0000F00F0B38095F0000F00F071
:1016400077802DE901494FEA11404FEA144621EA1B
:10165000004800FB06FC24EA064708FB06F607FBE9
:1016600008F800FB07F718EB06484CEB164C4FEA5E
:10167000124B18EB07484FEA15464CEB174022EA8D
:101680000B4E0BFB06FC25EA06470EFB06F607FB96
:101690000EFE0BFB07F71EEB064E4CEB164C4FF005
:1016A00000061EEB074E4CEB174B18EB0B0840F1F6
:1016B000000018EB0E0B58EB000840F100008F1AE9
:1016C0004FF000013CBFC943661B14BFB5EB040CCF
:1016D00000213CBFC943F61B4FEA17444EEA8E0E69
:1016E00027EA04454FEA1C4704FB07622CEA074C33
:1016F00005FB07F70CFB05F604FB0CFC16EB074695
:1017000042EB174216EB0C4642EB1C421BEB060663
:1017100058EB0202414146EA9E0601D5BDE8018927
:10172000B619524141EB0101A3F10103BDE8018962
:101730004FEA14454FEA114724EA054621EA074CCF
:1017400005FB07F406FB07F70CFB06F105FB0CFC99
:1017500011EB074144EB17444FEA124711EB0C41E0
:1017600044EB1C4422EA074C05FB07F206FB07F793
:101770000CFB06F605FB0CFC16EB074642EB17428A
:1017800016EB0C4642EB1C456A1854F1000148BFA9
:101790007047B619524141EB0101A3F101037047B3
:1017A00095F0000F37D04FEA11424FEA144721EA73
:1017B000024624EA074C02FB07F106FB07F70CFB85
:1017C00006F402FB0CFC14EB074441EB17414FEA13
:1017D000154714EB0C4441EB1C4125EA074C02FB76
:1017E00007F506FB07F70CFB06F602FB0CFC16EBF5
:1017F000074645EB174516EB0C4645EB1C42121904
:1018000051F1000148BF7047B619524141EB010147
:10181000A3F1010370474FEA14454FEA114724EA48
:10182000054621EA074C05FB07F106FB07F70CFB11
:1018300006F24FF0000605FB0CFC12EB074241EBF1
:10184000174112EB0C4251EB1C4148BF70479218F4
:1018500041EB0101A3F101037047FEE738B518F031
:1018600000FF01281ED1104C606A1EF077FA10B9F3
:10187000204626F077FD20F0C3F81CF089FE416970
:1018800049B9806938B90120002300901A461946E9
:10189000606A20F0CBF8BDE83840282203490448AC
:1018A00000F0FEBC38BD0000B405002000000020A0
:1018B0000000060810B518F0D4FE012815D10B4819
:1018C0000B49827A42B100228272D1F80401BDE84C
:1018D000104001211CF072BA01228272D1F8040179
:1018E000BDE8104011461BF0DBBE10BD000000201B
:1018F000B405002070B5054618F0B3FE044628462E
:1019000018F0D8FE1C2C04D101211DF027FF01493D
:10191000887270BD000000200020704700207047D2
:1019200010B500220449054804F07AFD0449034833
:1019300004F069FD002010BD84CB0120A8C4012063
:1019400084C9012010B50446088881B2204600F001
:101950000DF82146034804F056FD024804F02CFD22
:10196000002010BDA8C4012000207047094A10B50E
:10197000D2F8BC22D2F814220AB1012010BD0A46C6
:101980000146044804F04CFDBDE81040014804F055
:10199000C1BD0000A8C401202DE9F843C568014677
:1019A000002D5ED04868AA6F904202D14FF0010826
:1019B0001DE0D5F88020904202D14FF0020816E0D9
:1019C000D5F88820904202D14FF003080FE0D5F8F7
:1019D0009020904202D14FF0040808E0D5F89820FA
:1019E000904202D14FF0050801E04FF00008084690
:1019F00018F037FE064619F01DFF3F4F3968884240
:101A000001D1012000E000203C4C4FF00109B8F169
:101A1000060F43D2DFE808F04203272D343B012EA6
:101A20003CD1686A1EF09AF910B9284626F09AFC53
:101A30001FF0E6FF1CF0ACFD416949B9806938B977
:101A40000023CDF800901A461946686A1FF0EEFF91
:101A50000025257228222949294800F021FCE5614A
:101A60002562BDE8F883C8B1D5F88400C4E907044D
:101A700014E098B1D5F88C00E0612048401C0CE0DF
:101A800060B1D5F89400E0611C48801C05E028B1E5
:101A9000D5F89C00E0611948C01C2062206A00282B
:101AA000DFD0E0690028DCD019F0C4FE79688842F4
:101AB000D7D1012ED5D0052ED3D00D2ED1D119F0EE
:101AC000B9FEC068132802D014280BD105E0216AA2
:101AD0000878642806D2401C03E0216A087808B11F
:101AE000401E087084F80890206A06A10278E06918
:101AF000BDE8F8431BF039B8000A002000000020C0
:101B0000000006082564000038B518F0AAFD012879
:101B100019D10D4C606A1EF021F910B9204626F04B
:101B200021FC1FF06DFF1CF033FD416900290AD133
:101B30008069002807D10120002300901A46194629
:101B4000606A1FF073FF38BDB4050020F8B5044685
:101B500018F0B0FD0746204618F0AAFD0446406B79
:101B6000B0F5A02F7ED1A06B4E4E0125072803D2E1
:101B7000FF221146104621E081B22022384614F09F
:101B8000F5FC20B3B122A221012015F07CFC0090CD
:101B9000A068BDF80010B1228180A221012015F0BB
:101BA00072FC0090A068BDF80010A222C180A0685D
:101BB000C572A1685E2088721146A92015F063FCE9
:101BC0000090E068BDF800108181E0680660208F19
:101BD0004FF4804281B2384614F0C8FC80B33F22F3
:101BE000F921012015F04FFC0090A068BDF800100D
:101BF0009B228180C521BE2015F045FC0090A06885
:101C0000BDF80010FF22C180A068C572A1689F20A6
:101C100088721146104615F036FC0090A068BDF899
:101C20000010FF224183A06811468583104615F0FD
:101C30002AFC0090E068BDF800108181E068066031
:101C4000208F4FF4004281B2384614F08FFC0028F8
:101C500026D0FF221146104615F015FC0090BDF865
:101C6000001000E01CE0A068F4228180972125206C
:101C700015F009FC0090A068BDF80010FF22C1809B
:101C8000A068C572A168002088721146104615F040
:101C9000FAFB0090E068BDF800108181E068066002
:101CA000F8BD0000A85403083548DFF8D890364C3A
:101CB000364F374D4FF47A762DED028BB7EE008A12
:101CC000D0F800A028680028FCD004E0286832463C
:101CD0002168436C9847207A0028F7D1607AA046A3
:101CE000012838D198ED010A30EE480AB5EEC00A55
:101CF000F1EE10FA2FDB10EE100A88ED010AB0F1B8
:101D00007E5F03DA9FED230A88ED010A1FF086FE4D
:101D1000D7F8A010884206D108F104021C21D7F898
:101D2000AC0018F0CBFC28684FF44872D8F80010CB
:101D3000436C984798F80A0038B1012202214846BE
:101D400000F06EFEC82023F01EF800220221484653
:101D500000F066FEB6E7002060721FF05FFED7F865
:101D6000A010884205D100221C21D7F8B40018F039
:101D7000A5FC286832465146436C9847A2E700000C
:101D800020A303080000024000000020B40500204A
:101D900084050020000000007047000070B5044674
:101DA00015460E46542023F0A1FD2060002840D0A7
:101DB000002E3ED0002D3CD02049016321682048F0
:101DC000486321681F48886321681F48C8632168E9
:101DD0001E48086421681E48486421681D488864BC
:101DE00021681D48C86421681C4808652068297955
:101DF00080F82E102068C1B1698841852888216843
:101E000088852168306808602168706848602168AA
:101E1000B0688860D6E903122068C0E90312D6E9E9
:101E200005122068C0E9051270BD298841856888BF
:101E3000E5E7BDE870402AF059B8000023490008E2
:101E4000734A0008494A000859490008DD4900085A
:101E5000A34A0008C5480008E74800081D490008D3
:101E600070B5044615460E46502023F03FFD206015
:101E7000002846D0002E44D00582216805EBC5001D
:101E800000EB051088616420684323F02FFD10B13A
:101E90002168486101E02AF029F82168306808606B
:101EA0002168706848602168B06888602168F068BF
:101EB000C86021681548C86421681548C861216850
:101EC00014480862216814484862216813488862EF
:101ED00021681348C86221681248086321681248C3
:101EE000486321681148886321681148C8632168E4
:101EF0001048086421681048486421680F488864C5
:101F000070BDBDE8704029F0F1BF000035C0020887
:101F1000317C000829800008157F0008157D000825
:101F200037800008477D00088D7D0008617F00082C
:101F3000BB7F0008D57D0008557C0008217C000887
:101F4000014800F033BA0000F8DC0120014800F03D
:101F50002DBA000008DC012001681823CAB2103A2B
:101F6000B2FBF3F2054B6FF30901032A9B5CC365D7
:101F700000D9091D816508467047000098A3030831
:101F800010B5014600208B698A6A4FF0C07453B1C6
:101F9000B3F5005F15D072B1012A0CD0022A0AD025
:101FA000032A09D104E01AB1012A06D0022A03D17A
:101FB000C96AC90100D5012010BDC96AA142FAD081
:101FC00010BD002AF7D0012AF2D0022AF3D0032A4A
:101FD000F3D010BD30B50468256825F48025256050
:101FE000046863608368402B036803D099600068CD
:101FF000C26030BD9A600068C16030BD704701208A
:1020000000F00ABC10B54FF4806000F005FCBDE89C
:1020100010404FF4004000F0FFBB000008B503F093
:10202000B5F80C490120087002F096FF03F0D8F8CB
:1020300019F058FD1FF00AF81FF034F8064827F091
:10204000EBFB00BF03F0B8FA009068460FF00AF906
:10205000F8E7000088050020B405002072B6FEE70E
:10206000002229B101291AD002291BD04FF4407255
:102070000E490B6823F440730B600B6813430B602D
:102080000A6822F0F8020A600A68022303EBC00023
:1020900002430A60086840F48030086070474FF4DB
:1020A0008072E5E74FF40072E2E70000103C024066
:1020B0001348016889050FD5016821F4007101609A
:1020C000016841F400610160016821F40061016070
:1020D000016841F400710160016849050FD501688C
:1020E00021F480610160016841F480510160016860
:1020F00021F480510160016841F480610160704702
:10210000003C024008490A6822F440720A600A68EA
:1021100042F004020A600A684FF4803343EA002068
:1021200002430A6070470000103C0240064A1368F0
:1021300023F44073136013681360136843F00103C2
:102140001360017070470000103C0240094910B54F
:102150000C6824F440740C600C6844F440740C6007
:102160000C6844F001040C600260BFF36F8F4360A1
:1021700010BD0000103C0240074A136823F440736E
:102180001360136843F480731360136843F0010312
:102190001360018070470000103C0240074A13683A
:1021A00023F440731360136843F4007313601368DF
:1021B00043F001031360016070470000103C0240CF
:1021C0000A4403E050F8013B01F8013B8A42F9D888
:1021D000012070471C490868C2061C4805D5C26921
:1021E00042F01002C26110220A600A68920605D508
:1021F000C26942F00802C26120220A600A685206DF
:1022000005D5C26942F00402C26140220A600A6830
:10221000120605D5C26942F00202C26180220A603C
:102220000A68D20506D5C26942F00102C2614FF4C4
:1022300080720A600A68920705D5C26942F02002DE
:10224000C2610220086070470C3C0240E4DD0120BE
:1022500070B5114904460020C86100F0E7FB06464E
:102260000E4D09E0601C07D024B100F0DFFB801B9D
:10227000A04201D9032070BD2868C003F2D42868A9
:10228000C00701D001202860286810F4F970F2D04E
:10229000FFF7A0FF012070BDE4DD01200C3C0240EF
:1022A0002DE9F0410E4604460025A0F100604FF4F0
:1022B000804186B01746884227D3334BE2188A42C2
:1022C00001D2012521E0314BE2188A4201D20225D8
:1022D0001BE02F4BE2188A4201D2032515E02D4A5C
:1022E000A118B1F5803F01D204250EE02A4AA118B9
:1022F0004FF40032914201D2052506E0274BE11848
:10230000914201D2062500E007254FF00008CDF8E4
:102310000080B0F5002F03D217B10EB1A00703D093
:10232000002006B0BDE8F08172B600F057FA012037
:10233000CDF80480CDE90350022019490590F3201F
:102340000860694601A800F0B5F9B8B9E51913E0CD
:10235000002321460220326800F002FA10B14AF24E
:102360005A5005E020683168884203D045F6A52020
:10237000009003E0241D361DA542E9D800F0E6F9DF
:1023800062B60098CDE7000000C0FFF70080FFF7BD
:102390000040FFF70000FFF70000FEF70000FCF729
:1023A0000C3C024090F83500704700002DE9F843DE
:1023B00004464FF00009CDF8009063484FF41651E1
:1023C000A56D0068B0FBF1F72E6894F85C1008204A
:1023D00000FA01F131420FD021680A6852070BD58B
:1023E0000A6822F004020A6094F85C108840A86031
:1023F000606D40F00100606594F85C104FF00108DA
:1024000008FA01F0304208D021684969090604D56C
:10241000A860606D40F00200606594F85C100420D4
:102420008840304208D021680968890704D5A8602F
:10243000606D40F00400606594F85C1010208840E6
:10244000304218D021680968090714D5A8602068AF
:102450000168490304D50068000308D5A16C07E0B2
:102460000168C90503D4016821F008010160216CED
:1024700009B12046884794F85C10202088403042FB
:1024800031D021680968C9062DD5A86094F83500B7
:1024900005282068016806D0490347D50068000375
:1024A0001DD4616C1CE021F01601016020684169B7
:1024B00021F080014161206C08B9A06C20B1206836
:1024C000016821F00801016094F85C103F20884009
:1024D000A86084F8358084F83490216D1FE0E16BAA
:1024E00009B120468847606D00282BD0606DC00779
:1024F00014D0052084F835002068016821F001011E
:1025000001600098401C0090B84203D82068006821
:10251000C007F6D184F8358084F83490E16C002946
:1025200010D001B02046BDE8F04308470168C90556
:10253000D5D4016821F01001016084F8358084F859
:102540003490CCE7BDE8F883B00500202DE9F041D8
:10255000044600F06BFA06465CB1022084F83500B0
:10256000002584F834502068016821F001010160E1
:102570000DE00120BDE8F08100F058FA801B05282D
:1025800005D920206065032084F83500F2E7206833
:102590000068C007F0D12268116820480140D4E9E2
:1025A00001031843D4E903363343184363691843DE
:1025B000A3691843E3691843236A18430843616A0F
:1025C000042903D1D4E90B13194308431060206890
:1025D0004069666A20F0070130460E43012704284F
:1025E0000CD1A06A0643E06A40B12046FFF7C8FC60
:1025F00020B14020606584F83570BAE720684661F4
:102600002046FFF7A9FC94F85C203F2191408160AF
:10261000656584F835700020ACE700003F8010F05D
:102620002DE9F0410446866D90F83400002501281C
:102630000DD0012084F8340094F835700020012F6B
:1026400007D084F8340002252846BDE8F081022036
:10265000FBE7022784F8357060652046FFF7BAFC77
:1026600094F85C103F208840B0602068016841F019
:1026700016010160206C20B12068016841F008015A
:1026800001602068016841F001010160DCE70000A1
:1026900070B5044600F0CAF90546601C02D0044833
:1026A0000078044400F0C2F9401BA042FAD370BD88
:1026B000A40500202DE9F047044622480F46017E7C
:1026C00001290AD00121804601764CF25039484652
:1026D000FFF7BEFD020003D02FE00220BDE8F08727
:1026E0004FF0FF3038602068174D012801D0A668F0
:1026F0001CE0207C6168FFF705FD4846FFF7A8FD58
:102700000246286820F00400286014E0217C30464E
:10271000FFF7A6FC4846FFF79BFD0200286820F063
:10272000FA00286001D03E6005E0761CD4E9021072
:102730000844B042EAD8FFF7BBFC002188F8181023
:102740001046CBE7E4DD0120103C0240034801685D
:1027500041F000410160002070470000103C024041
:102760002DE9F0471B4E05461446307E1F4689462C
:10277000012808D0012030764CF250384046FFF74F
:1027800067FD18B114E00220BDE8F0879DB1012D6E
:1027900016D0022D19D022463B464846FFF7D6FCFC
:1027A0004046FFF755FD0C490A6822F001020A6015
:1027B00000213176E8E7E1B24846FFF7B7FCEFE7E2
:1027C000A1B24846FFF7D8FCEAE721464846FFF7A2
:1027D000E5FCE5E7E4DD0120103C0240074900206C
:1027E0000A68002A09DA054A054B0C3A1360054BC2
:1027F00013600968002900DA01207047103C02408C
:1028000023016745AB89EFCD0146024800220068ED
:1028100022F022BB98050020044910B50A68024244
:1028200002D00860FFF7F0FF10BD0000143C01402B
:102830002DE9F84FDFF8B8A10022012403254FF05D
:102840000F090AF1040BAAF1040E00BF0B6804FA89
:1028500002F63340B34273D10F7907F00307012F1B
:1028600001D0022F16D187684FEA420805FA08FC0A
:1028700027EA0C07D1F80CC00CFA08FC4CEA070C4C
:10288000C0F808C04768B7430E79C6F300169640F3
:102890003E4346600E79F643B6070DD0C768560032
:1028A00005FA06FC27EA0C07D1F808C00CFA06FC6A
:1028B0004CEA070CC0F80CC00E7906F00306022E95
:1028C00010D1D60800EB8608D8F8206057074FEAE9
:1028D000D76C09FA0CF7BE430F6907FA0CF73743B8
:1028E000C8F8207006684FEA420C05FA0CF7BE43A0
:1028F0000F7907F0030707FA0CF7374307604E68B4
:1029000016F4403F6DD03B4E376847F48047376040
:10291000366822F0030706F480460096364E07EB31
:10292000060CDCF8086897073F0F09FA07F826EA53
:102930000806DFF8C880404503D14FF000081EE0CC
:102940004FE0DFF8BC80404502D14FF0010816E0AF
:10295000DFF8B080404502D14FF002080FE0DFF809
:10296000A880404502D14FF0030808E0DFF89C80C2
:10297000404502D14FF0040801E04FF0070808FA83
:1029800007F848EA0608CCF80888DAF800605746E5
:10299000D1F804C09E435FEACC2C00D51E433E60B4
:1029A000DBF800605F46D1F804C09E435FEA8C2CE0
:1029B00000D51E433E60DEF800607746D1F804C0C3
:1029C0009E435FEA8C3C00D51E433E60084F083FA3
:1029D0003E68D1F804C09E435FEACC3C00D51E435C
:1029E0003E60521C102AFFF431AFBDE8F88F0000A2
:1029F000083C0140443802400030014000000240E1
:102A00000004024000080240000C02400010024096
:102A1000426921EA02030A4043EA024181617047A8
:102A20000AB1816170470904FBE700000148806832
:102A300070470000A4050020024881680278114414
:102A400081607047A40500200B4810B5016841F46F
:102A500000710160016841F480610160016841F426
:102A600080710160032000F08DF80F2000F006F85F
:102A700000F03EF8002010BD003C024010B50146B9
:102A800088B00022192000F05DF8192000F04CF801
:102A900013480024016841F001010160006805A9A4
:102AA00000F001000690684600F050FE00F084FE41
:102AB0000C490D4AB0FBF1F10C48491E026040F28E
:102AC000E732C0E90324C0E9011401F0A5FA10B10E
:102AD000012008B010BD054801F00CFBF9E700002B
:102AE0004438024040420F00000001409CDD0120BC
:102AF0000C4882B0016841F480410160006800F434
:102B0000804000900748001F016841F0805101603B
:102B10000068002200F0805000900F21901E02B04B
:102B200000F010B844380240002809DB00F01F0212
:102B3000012191404009800000F1E020C0F800111F
:102B400070470000F0B40E4B1B680C46C3F3022321
:102B5000C3F10705042D00D90425191D072901D249
:102B6000002300E0DB1E012606FA05F1491E214084
:102B700099409E40761E16403143F0BC05F097BA4E
:102B80000CED00E0064900F0070208684FF6FF036D
:102B9000184040EA0220034A1043086070470000D2
:102BA0000CED00E00000FA0570470068416200206B
:102BB0007047F0B50368586A39B19C6A4FF4827661
:102BC00000EB144400204D1E0AE040EA02409862E7
:102BD0000FE006EB8007DF59401C04EB1744C0B23E
:102BE000A842F6D344EA02404FF4807202EB81011E
:102BF00058500020F0BDD0F8080503F011BF01EBDC
:102C0000C10200EB8202D0F80805D26C03F066BE68
:102C100001EBC10200EB8202D0F80805D2F88C2249
:102C200003F0B7BED0F8080503F0FCBE0A0601F0B9
:102C30000F0101EBC10100EB810101D53C3101E045
:102C400001F51F71006804F031BE70B504460B0633
:102C500001F00F0000EBC00104EB81014FF0010215
:102C60004FF0000503D581F83D203C3103E081F8A9
:102C70007D5201F51F71087094F8BC04012808D03A
:102C800084F8BC24206804F0CBFA84F8BC540020FB
:102C900070BD022070BD70B5044601F00F0062687F
:102CA000904201D9012070BD0B0601F00F0101EB2C
:102CB000C10104EB81014FF001024FF0000503D583
:102CC00081F83D203C3103E081F87D5201F51F7110
:102CD0008D70087094F8BC04012808D084F8BC24D6
:102CE000206804F099FC84F8BC54002070BD0220D8
:102CF00070BD01F00F0101EBC10100EB8100D0F8C4
:102D00009C0270472DE9F04104460F0601F00F00C8
:102D100000EBC00104EB81014FF001064FF000050C
:102D200003D581F83D603C3103E081F87D5201F527
:102D30001F710870CA600B714A7802B10881022BBA
:102D400000D14D7194F8BC04012809D084F8BC640A
:102D5000206804F0BDF9284684F8BC54BDE8F08131
:102D60000220FBE770B50C4601F00F0505EBC5012D
:102D700000EB8101C1F89432C1F88C220023C1F824
:102D80009C3281F87D3281F87C52036901F51F7114
:102D9000012B00D14A612207027C006803D004F0B5
:102DA00093FC002070BD04F07DFBFAE770B504468B
:102DB0000D4601F00F006168884201D9012070BD05
:102DC00029064FF000064FF0010207D500EBC001C5
:102DD00004EB810181F83D203C3107E005EBC501A2
:102DE00004EB810181F87D6201F51F718A70087022
:102DF00094F8BC04012807D084F8BC24206804F0AF
:102E000037FC280702D007E0022070BD217C04F2C5
:102E1000C442206804F0D4FB84F8BC64002070BD78
:102E200070B50C4601F00F0505EBC50100EB810103
:102E30004B65CA640023CB65012381F83D3001F85E
:102E40003C5F0369012B00D14A612207027C0068C4
:102E500003D004F039FC002070BD04F023FBFAE736
:102E60002DE9FC5F05680446284604F0C0FD0028F3
:102E70007DD1206804F0E7FD002878D0D5F8080857
:102E8000C0F30D20C4F8FC04206804F0DCFD8007CA
:102E900004D52068416901F002014161206804F015
:102EA000D2FDC10604F2C440009034D52068816987
:102EB00021F0100181612F6A07F00F0000EBC000C4
:102EC00004EB8006C7F3434006F51F76022802D0C4
:102ED000062811D01AE047F6F070074216D0C7F363
:102EE0000A1217462846316904F0B1FD30693844AA
:102EF0003061306A384408E008222846009904F01E
:102F0000A6FD306AC7F30A1108443062206881695F
:102F100041F010018161206804F095FD00034FF03D
:102F2000080B4FF0000A4FF001097CD500262068FD
:102F300004F068FD074674E0F80770D0F1B220682D
:102F400004F079FD8046C00707D005EB4611C1F8B3
:102F5000089B3146204602F077FA5FEA087024D5D4
:102F600005EB4611C1F808BB2068016C00E025E2C2
:102F700000EB46100191D0F8082BFC4B994205D983
:102F8000110403D54FF40041C0F8081B204600F09F
:102F900002FBF6490198884207D92069012804D12B
:102FA00020680121009A04F00BFB5FEAC86004D599
:102FB00005EB46111020C1F8080B5FEA88701DD59B
:102FC0006869000605D5D5F8040840F48061C5F8A5
:102FD000041806EBC60004EB800090F87F1200F5A1
:102FE0001F70012905D180F803A0F1B2204600F03E
:102FF000EBF905EB46110220C1F8080B5FEA886087
:1030000004D505EB46102021C0F8081B5FEA884074
:1030100005D505EB46104FF40051C0F8081B7F089A
:10302000761C002F88D1206804F00DFD40036FD579
:10303000206804F0E0FC0746002667E0F80763D04C
:10304000F1B2206804F0E5FC8046C00723D006F00A
:103050000F0209FA02F0D5F834288243C5F8342863
:1030600005EB4610C0F80899206901280FD106EB3E
:10307000C60004EB8000D0E912211144C16436B9C6
:10308000606D20B920680121009A04F099FAF1B22C
:103090002046FFF7B4FD5FEA087003D505EB461143
:1030A000C1F808B95FEAC86004D505EB46111020E5
:1030B000C1F808095FEA486004D505EB46104021D5
:1030C000C0F808195FEA887017D53146284604F021
:1030D00061FC06EBC60004EB800090F83F103C302A
:1030E000012905D180F803A0F1B2204600F068F96B
:1030F00005EB46110220C1F808095FEA086003D514
:103100003146204602F006FA7F08761C002F95D142
:10311000206804F098FC002811DAD5F8040820F0A3
:103120000101C5F8041894F8F40401282BD02046B6
:1031300000F015FA2068416901F000414161206802
:1031400004F081FC00050BD5D5F80808C00702D0B3
:10315000204600F049FA2068416901F400614161AC
:10316000206804F070FCC00466D5D5F8040820F08F
:103170000100C5F804081021206804F00BFC0021B0
:103180004FF67F321FE084F8F4A400212046FFF7B9
:103190000BFDCFE705EB4110C0F80829D0F8003946
:1031A00023F40013C0F80039C0F8082BD0F8003B16
:1031B00023F40013C0F8003BD0F8003B43F0006359
:1031C000C0F8003B491C60688842E3D8D5F81C0869
:1031D00040F00111C5F81C18206B002828460DD0BE
:1031E000D0F8840840F00B01C5F88418D5F84408DD
:1031F00040F00B012846C5F844180DE0D0F814083B
:1032000042F22B010843C5F81408D5F8100840F025
:103210000B012846C5F81018D0F8000820F4FE610C
:10322000C5F80018217C2068009A04F0C9F92068CC
:10323000416901F480514161206804F004FC80047C
:1032400015D5206803F084FF206804F0C3FBE0601C
:1032500000F09CFA0146227B206804F057FC2046CF
:1032600000F06AF92068416901F400514161206869
:1032700004F0E9FB000707D5204600F074F9206848
:10328000416901F008014161206804F0DCFB00069F
:1032900016D5A86920F08000A86101260DE000BFC6
:1032A00006EBC60004EB800090F87F02012803D1F2
:1032B000F1B22046FFF7BAFC761C6068B042EFD846
:1032C000206804F0C0FBC00221D501264F4616E05D
:1032D00005EB4610D0F8001906EBC60004EB8000A1
:1032E00090F84020012A09D1002907DA80F83F70C0
:1032F000F0B240F080012046FFF798FC761C606831
:10330000B042E5D82068416901F48011416120682C
:1033100004F099FB800234D501204B4629E000BF20
:1033200005EB4011D1F8001B00EBC00204EB820654
:1033300096F88022012A1BD1002919DA94F8FC247E
:1033400001F4803102F00102914211D186F87F32FE
:10335000A96941F08002AA616969090608D4D5F813
:10336000040840F40070C5F8040805E00A30544F22
:10337000401C61688142D3D82068416901F4001182
:103380004161206804F05FFB400007D52046FFF74D
:1033900032FC2068416901F080414161206804F0FD
:1033A00052FB40070AD520684568680702D52046C9
:1033B000FFF738FC2068416829434160BDE8FC9F65
:1033C000D0F8080503F082BBD0F8080503F092BBE3
:1033D0002DE9F0418AB0040005D094F8BD042668B8
:1033E000002520B108E001200AB0BDE8F08184F892
:1033F000BC54204600F05EF8032084F8BD04F06B56
:10340000C00500D42561206804F046F804F11001DD
:10341000282288466846FDF7D5F994E80F0003F0A6
:10342000A5FE0226C8BB0021206804F02FFB002067
:1034300001270EE000EBC00104EB810181F83D7033
:1034400001F83C0F08810D71CD600D61401CC0B2C8
:103450008D6161688142EDD8002011E000EBC00170
:1034600004EB810181F87D5281F87C0281F8805261
:10347000C1F88852C1F88C52401CC0B2C1F89452B5
:1034800061688142EAD8282241466846FDF79AF9E8
:1034900094E80F0003F046FF10B184F8BD64A2E782
:1034A00084F8385084F8BD74206803F02DFF0020A4
:1034B0009AE7000010B586B0044614216846FDF76F
:1034C000BBF92068B0F1A04F2FD119480021026844
:1034D00042F001020260006800F0010005904FF424
:1034E000C05000900220CDE90101032003900A2082
:1034F000049069460F48FFF79BF90D48001D0168CD
:1035000041F0800101600A481430016841F48041B3
:1035100001600068002200F48040059005214320EE
:10352000FFF710FB4320FFF7FFFA06B010BD0000C5
:10353000303802400000024070B50446C0680125E2
:10354000022801D0FEF78AFD2946D4F8080503F0C9
:103550003FFBD4F80805BDE8704003F0F4BAD0F89A
:10356000080503F01EBBD0F8080503F024BB10B516
:10357000044690F8BC0401280BD0012084F8BC0458
:1035800084F83810206804F0AFFA002084F8BC04F6
:1035900010BD022010BDD0F8082500F2C44110462D
:1035A00003F022BB10B50446006894F8BC1401294E
:1035B00006D0012184F8BC14A16A012902D008E0D8
:1035C000022010BDA169012903D0816B41F4803133
:1035D0008163206804F0B9F9206803F087FE0020B9
:1035E00084F8BC0410BD000010B50446D0F80805EE
:1035F00003F03CFB2068D0F8001E41F00101C0F848
:10360000001E206A002804D00248016841F006012B
:10361000016010BD10ED00E02DE9F0470E460500F9
:1036200065D0DFF81481D8F80000F7B200F0070089
:10363000B04207D288F80070D8F8000000F0070008
:10364000B04254D128683D4C810712D5400703D5BC
:10365000206840F4E05020602878000703D52068F7
:1036600040F4604020602068A96820F0F000084322
:1036700020602878C0072DD03049686808390128B3
:1036800012D0022813D0032811D009688907002915
:103690002DDA216821F0030101432160FFF7C6F90B
:1036A000814641F2883A0EE009688903EFE709682C
:1036B0008901ECE7FFF7BAF9A0EB0901514502D9FE
:1036C0000320BDE8F0872068696800F00C00B0EBCB
:1036D000810FEFD1D8F80010404601F00701B14248
:1036E00007D90770006800F00700B04201D0012040
:1036F000E7E72878400705D52068E96820F4E0501E
:10370000084320602878000706D52068296920F43E
:10371000604040EAC100206000F05EF82168084A7D
:10372000C1F30311515CC8400649086006480068AF
:10373000FFF7A4F90020C4E7003C0240083802402B
:10374000A0A30308B0050020A80500200F220260F6
:103750000C4A136803F003034360136803F0F0039B
:103760008360136803F4E053C36012684FF4E053BE
:1037700003EAD20202610448006800F00700086012
:103780007047000008380240003C024001480068D1
:1037900070470000B005002004480549006809682A
:1037A000044AC1F38221515CC8407047B005002033
:1037B00008380240B0A303080448054900680968B6
:1037C000044AC1F34231515CC8407047B005002043
:1037D00008380240B0A30308154810B5006810F07F
:1037E0000C02144813D01449042A0FD0082A0ED111
:1037F0000F4C241F2268236802F03F025B0207D5AA
:103800002068C0F38810A0FB010106E0084610BD47
:103810002168C1F38811A1FB00010023FCF7BCFD66
:103820002168C1F30141491C4900B0FBF1F010BD12
:10383000083802400024F40040787D012DE9F84F5B
:1038400004006ED02078DFF84C93C007A9F104057E
:103850004AD009F104000168C1F38101012908D0AF
:103860000068C0F3810002280AD1D9F800004002A4
:1038700006D52868800337D560680028E1D033E09A
:103880006068B0F5803F10D0B0F5A02F286810D048
:1038900020F480302860286820F480202860606848
:1038A000A8B1FFF7C3F806460DE0286840F4803061
:1038B000F4E740F480202860F7E700BFFFF7B6F890
:1038C000801B642873D828688003F7D50CE0FFF7C5
:1038D000ADF8064605E000BFFFF7A8F8801B642896
:1038E000F0D828688003F7D42078DFF8AC8280070E
:1038F0004FF0000A3ED5A748001D016811F00C0FDB
:1039000008D00068C0F3810002280BD1D9F800006C
:10391000400207D42868800716D5E068012800D146
:1039200012E033E1E068B8B10120C8F80000FFF709
:103930007DF8064605E000BFFFF778F8801B0228F7
:10394000C0D828688007F7D52868216920F0F800DA
:1039500040EAC10028600DE0C8F800A0FFF766F853
:10396000064604E0FFF762F8801B02281FD828688B
:103970008007F7D42078000722D5864F87486169F1
:10398000703771B101210160FFF750F8064604E07D
:10399000FFF74CF8801B022809D838688007F7D554
:1039A0000EE0C0F800A0FFF741F8064605E082E00F
:1039B000FFF73CF8801B02287DD838688007F7D4D1
:1039C0002078400768D5DFF8CCB100270BF13C0B1D
:1039D000DBF80000C0000BD4DBF8001041F0805190
:1039E000CBF80010DBF80000012700F080500090B9
:1039F0006B4E3068C00510D4306840F48070306081
:103A0000FFF714F8009005E0FFF710F80099401A4E
:103A1000022850D83068C005F6D55E4EA0686C36D6
:103A200001280FD00528306810D020F00100306048
:103A3000306820F004003060A068B8B1FEF7F6FFEF
:103A400000900FE0306840F00100F4E740F004001F
:103A50003060F7E7FEF7EAFF0099411A41F288303B
:103A6000814266D830688007F4D50EE0FEF7DEFFAD
:103A7000009007E0FEF7DAFF0099411A41F2883022
:103A8000814256D830688007F4D42FB1DBF800109B
:103A900021F08051CBF80010A069C8B33D49091D41
:103AA0000968C1F3810102294AD00228504607D093
:103AB000C8F8600000E03CE0FEF7B8FF04463BE0D9
:103AC0004746C8F86000FEF7B1FF064605E000BFB4
:103AD000FEF7ACFF801B02282BD828688001F7D4A2
:103AE000D4E907010843A16A2E4A490802EB0141C3
:103AF000626A41EA8211084394F82C1040EA01619D
:103B0000C9F8001001203866FEF790FF044606E071
:103B10003EE000BFFEF78AFF001B022809D8286894
:103B20008001F7D534E000BFFEF780FF001B0228BC
:103B300002D90320BDE8F88F28688001F4D427E07B
:103B40000128F7D0D9F80000E26900F48001914221
:103B50001CD1226A00F03F01914217D147F6C07193
:103B6000626A0140B1EB821F10D1A26A4FF0FF33AD
:103B700000F4403103EB5202B1EB024F06D194F84E
:103B80002C1000F07060B0EB016F01D00120D1E784
:103B90000020CFE70438024000004742800E474231
:103BA000007000400000FFFF704770B5040009D0AE
:103BB000606A002540B125616561A56294F85100F5
:103BC00040B10CE0012070BD6068B0F5827FF4D098
:103BD000E561F2E784F85050204600F045F80220F5
:103BE00084F851002068016821F040010160A0883C
:103BF000218900F4827001F404410843A18901F491
:103C000000610843217C01F002010843217D01F09D
:103C100001010843218B01F400710843217F01F069
:103C20003801084394F8201001F080010843218DE9
:103C300001F40051084321680860A069042101EAE9
:103C4000104094F8241001F01001084321684860E6
:103C50002068C16921F40061C1616565012084F8B3
:103C60005100002070BD000070B586B006461421DA
:103C70006846FCF7E1FD304C306800252F490222F0
:103C80000323A0421DD12D481430046844F480540D
:103C90000460006800F480500590086840F001005E
:103CA00008600868694600F001000590F0208DE882
:103CB00025000520CDE903302148FEF7B9FD06B007
:103CC00070BD204CA042FAD11C481030046844F466
:103CD00000440460006800F400400590086840F06B
:103CE000020008600868694600F00200059028207C
:103CF000CDE900020120CDE902030620049012481C
:103D0000FEF796FD124C1148C4E900054020C4E9B5
:103D100002050001C4E904054FF44030A561C4E97F
:103D2000075020466562FEF711FC08B1FEF796F9D0
:103D3000B464A663C3E7000000300140303802409D
:103D400000000240003C004000040240B860024015
:103D500008DC01202DE9F84F044690F850000027B8
:103D60001D461646894601280DD04FF0010B84F8F8
:103D700050B0FEF75BFE804694F85100BA46012829
:103D800004D0022793E00220BDE8F88FB9F1000FBC
:103D900073D0002E71D0032084F85100C4F854A0D1
:103DA000C4F83090A686E686C4F838A0A4F83CA0F3
:103DB000A4F83EA0C4F844A0C4F840A0A068B0F5A0
:103DC000004F09D12068016821F04001016020689E
:103DD000016841F48041016020680168490603D40C
:103DE000016841F040010160E068B0F5006F606873
:103DF00003D030B3012E24D041E008B1012E1CD1F4
:103E0000206B21680088C86006E020688168890707
:103E100009D5216B0988C160206B801C2063E08E6E
:103E2000401EE08609E0FEF701FEA0EB0800A84274
:103E300002D3681C01D031E07DB3E08E0028E4D1CC
:103E400020E0206B21680078087306E02068816814
:103E5000890709D5216B09780173206B401C206309
:103E6000E08E401EE0860AE0FEF7E0FDA0EB0800D1
:103E7000A84203D3681C02D010E017E06DB1E08EB9
:103E80000028E3D142462946204601F063FC08B1F0
:103E900020206065A06818B106E0FFE7032706E070
:103EA0002068C16880680090606D00B1012784F8C7
:103EB00051B084F850A0384666E700002DE9F04183
:103EC000044690F850000026012809D0012784F804
:103ED000507094F851000025012804D002264EE0CD
:103EE0000220BDE8F08189B182B1032084F851003D
:103EF00065652163A286E286A56365642564A5875E
:103F0000E587A068B0F5004F02D00BE0012636E04F
:103F10002068016821F0400101602068016841F4D7
:103F200080410160A16C18480864A16C1748C863FF
:103F3000A16C1748C864A06C0565E38E2268216BEC
:103F40000C32A06CFEF76CFB38B1606D40F01000D5
:103F50006065012684F8517011E020680168490607
:103F600003D4016841F0400101602068416841F0DC
:103F7000200141602068416841F00201416084F8FD
:103F800050503046ADE70000E7560008F1560008F3
:103F9000C5560008704770477047704770B590F875
:103FA0003C20012A2CD0012480F83C40022280F8D9
:103FB0003D2003685A689D6822F070060A68324303
:103FC0005A60104B02689A420ED0B2F1804F0BD06B
:103FD0000D4B9A4208D00D4B9A4205D00C4B9A4299
:103FE00002D00C4B9A4204D1496825F08003194352
:103FF000916080F83D40002180F83C10084670BD7B
:10400000022070BD00000140000400400008004094
:10401000000C00400040014010B5040003D094F8AB
:104020003D0010B107E0012010BD002084F83C00E5
:10403000204600F01FF8022084F83D00211D206872
:1040400001F0D8FC012084F8460084F83E0084F892
:104050003F0084F8400084F8410084F8420084F86E
:10406000430084F8440084F8450084F83D000020B3
:1040700010BD000038B50546006800221949B0F1AE
:10408000804F0BD0184A904207D1086840F00800D2
:104090000860086800F00800009038BD086840F02B
:1040A000010008600868124C00F0010000900F4801
:1040B00020604FF0C06060604020C4E9020200014F
:1040C0002061800060618000C4E90602226220460F
:1040D0006262FEF73BFA08B1FDF7C0FF6C62A563B0
:1040E00038BD000040380240000C004088600240AB
:1040F000F8DC012090F83D10012901D00120704723
:10410000022180F83D100168CA6842F00102CA60CD
:1041100000680E4988420ED0B0F1804F0BD00C4998
:10412000884208D00B49884205D00B49884202D00A
:104130000A49884204D1816801F00701062903D0A9
:10414000016841F00101016000207047000001405A
:104150000004004000080040000C00400040014006
:1041600070B5044690F83C000025012817D00126C0
:1041700084F83C60022084F83D002068826822F0C8
:10418000770222F47F4282600868502838D00DDC24
:1041900020284FD005DC90B3102811D14AE002202E
:1041A00070BD302846D040280AD13BE060282FD08F
:1041B00070280DD0B0F5805F03D0B0F5005F12D04D
:1041C000012584F83D60002084F83C00284670BD3D
:1041D000CB68D1E90121206801F0DAFC2068816810
:1041E00041F0770109E0CB68D1E90121206801F0B5
:1041F000CFFC2068816841F480418160E1E719E0EB
:10420000CA684968206801F077FD5021206806E0FF
:10421000CA684968206801F080FD6021206801F0CB
:10422000C1FCCEE7CA684968206801F065FD4021FD
:104230002068F4E7226801461046F0E770477047AF
:1042400070B50446006801694FF00005C94389074D
:1042500015D4C168C943890711D4E91E0161012041
:104260002077206880698007204602D0FFF7E7FFAB
:1042700004E000F0D5F8204600F067F925772068C3
:104280000169C943490717D4C168C943490713D411
:104290006FF004010161022020772068806910F42A
:1042A000407F204602D0FFF7CAFF04E000F0B8F8D4
:1042B000204600F04AF9257720680169C9430907BB
:1042C00016D4C168C943090712D46FF0080101610F
:1042D000042020772068C0698007204602D0FFF7BD
:1042E000AEFF04E000F09CF8204600F02EF92577A0
:1042F00020680169C943C90617D4C168C943C90602
:1043000013D46FF010010161082020772068C06984
:1043100010F4407F204602D0FFF791FF04E000F048
:104320007FF8204600F011F9257720680169C9431C
:10433000C90708D1C168C943C90704D1891E0161F1
:10434000204600F02FFA20680169C943090609D404
:10435000C168C943090605D46FF080010161204698
:10436000FFF71AFE20680169C943490609D4C168EC
:10437000C943490605D46FF040010161204600F0B1
:104380001BFA20680169C94389060BD4C168C94377
:10439000890607D46FF0200101612046BDE8704016
:1043A000FFF7FBBD70BD000030B587B00446142197
:1043B0006846FCF741FA2468002216490223164891
:1043C000B4F1804F16D0154DAC4211D10C6844F0B9
:1043D00001040C60096801F00101059104210091BC
:1043E000CDE901326946CDE9032300BFFEF720FA8B
:1043F00007B030BD0C6844F001040C60096801F09E
:104400000101059101210091CDE90132CDE903219E
:104410006946EBE73038024000000240000C0040E3
:10442000704770B5044690F83C0000260D46012800
:104430000FD0012084F83C006AB1042A1DD0082A5C
:104440002FD00C2A3FD00126002084F83C003046B3
:1044500070BD022070BD206801F0ACFB206881694E
:1044600041F0080181612068816921F004018161C6
:10447000206881692A69114311E0206801F0C2FBBC
:104480002068816941F4006181612068816921F4BB
:1044900080618161206881692A6941EA0221816124
:1044A000D2E7206801F0DAFB2068C16941F0080119
:1044B000C1612068C16921F00401C1612068C1693E
:1044C0002A69114311E0206801F0F4FB2068C169FA
:1044D00041F40061C1612068C16921F48061C1615A
:1044E0002068C1692A6941EA0221C161ACE710B5BF
:1044F000040003D094F83D0010B107E0012010BD86
:10450000002084F83C00204600F01EF8022084F8C9
:104510003D00211D206801F06DFA012084F846005D
:1045200084F83E0084F83F0084F8400084F841009D
:1045300084F8420084F8430084F8440084F845007D
:1045400084F83D00002010BD7047704770470000A0
:1045500010B50446022249B104290ED0082913D00F
:1045600094F84100012816D0012010BD94F83E00B7
:104570000128F9D184F83E200FE094F83F0001288B
:10458000F2D184F83F2008E094F840000128EBD1F4
:1045900084F8402001E084F841200122206801F0E5
:1045A00075FA12492068884203D1426C42F40042F5
:1045B0004264206888420ED0B0F1804F0BD00C4985
:1045C000884208D00B49884205D00B49884202D066
:1045D0000A49884204D1816801F00701062903D005
:1045E000016841F001010160002010BD00000140A0
:1045F0000004004000080040000C00400040014062
:104600002DE9F04117460D0004464FF000060CD08E
:10461000042D11D0082D16D094F84100022819D08D
:1046200094F84100012818D07BE094F83E0002285D
:1046300010D094F83E00F5E794F83F00022809D026
:1046400094F83F00EEE794F84000022802D094F876
:104650004000E7E70220BDE8F0810FB9002B60D1F0
:104660004849494ADFF824C102204DB1042D18D031
:10467000082D27D084F841000C2D44D001267FE07E
:1046800084F83E00606AC163606A39460264606A09
:10469000C0F84CC02268606A3432FDF7C1FF88BBA5
:1046A00021E084F83F00A06AC163A06A3946026431
:1046B000A06AC0F84CC02268A06A3832FDF7B0FF8B
:1046C00000BB15E084F84000E06AC163E06A394647
:1046D0000264E06AC0F84CC02268E06A3C32FDF730
:1046E0009FFF78B909E02068C16841F400711EE0BD
:1046F0002068C16841F4806119E02068C16841F414
:10470000006114E00DE0206BC163206B3946026448
:10471000206BC0F84CC02268206B4032FDF780FF50
:1047200008B1012097E72068C16841F48051C16059
:1047300001222946206801F0A9F91549206888421C
:1047400003D1426C42F400424264206888420ED099
:10475000B0F1804F0BD00F49884208D00E498842F3
:1047600005D00E49884202D00D49884204D18168A3
:1047700001F00701062903D0016841F00101016041
:10478000304668E7A75A0008055B00083D5B000853
:10479000000001400004004000080040000C004000
:1047A0000040014000680349884201D1FEF744B946
:1047B0007047000000000140704770B5040004D04D
:1047C00094F83D00002510B106E0012070BD84F88A
:1047D0003C50204600F022F8242084F83D00206858
:1047E000C16821F40051C160204601F0B3FB20688C
:1047F000016921F4904101612068416921F02A0199
:1048000041612068C16841F40051C16025642020E5
:1048100084F83D0084F83E00002070BD10B586B0DD
:10482000044614216846FCF707F8144920688842BA
:1048300021D113480021026842F010020260006892
:1048400000F0100005900E481438026842F0010292
:104850000260006800F0010005904FF4C060009015
:104860000220CDE90101032003900720049069464E
:104870000448FDF7DDFF06B010BD00000010014048
:104880004438024000000240FEE70000F0B500237B
:104890000A24302537261F4611E000BFB4EB107FF5
:1048A00002D905EB107C01E006EB107C01F813C087
:1048B00001EB430C00015B1C8CF80170DBB29342EE
:1048C000ECD3F0BD0185002181834184418D4A1ED6
:1048D000C283828D531E83840184C284036C0022B0
:1048E00000F12801184770B504460E00008CE18CD9
:1048F00000FB01F04FEA400509D0E16B20468847F4
:104900002A4631462046636BBDE87040184770BDAB
:104910001FF05CF90A2020F036FAF9E7826C018D6D
:10492000104737B5044609B1012200E00022218A70
:10493000E068FEF775F8208B616900048861012248
:1049400002A9A3682068FFF705FA6169208B8861D6
:10495000E168208A88613EBD1FB504461BA0D0E9EE
:104960000010CDE90010A08B6946000A8DF8010007
:10497000207F8DF80200E08B000A8DF80300A07FF5
:104980008DF80400A36B05222046984711A1D1E9B8
:104990000001CDE90201608C02A9000A8DF809002E
:1049A00094F822008DF80A00A08C000A8DF80B0004
:1049B00094F824008DF80C00A36B0522204698473C
:1049C0002C22236B0021204698471FBD2A0000009F
:1049D000000000002B000000000000002DE9F0475F
:1049E00007460E46008CF98C914648434500F96B0A
:1049F000384688474FF4205A22E05046854200D876
:104A00002846804620F072FF040014D000EB080115
:104A10000AE03288120A00F8012B327800F8012BE4
:104A2000B9F1010F00D1B61C8142F2D87B6B42462E
:104A3000214638469847204627F058FAA5EB080546
:104A4000002DDAD1BDE8F0872DE9F0410D4606468C
:104A50000C468F1809E0AC4201D0012100E0002192
:104A6000336B227830469847641CA742F3D8BDE8E0
:104A7000F08110B50446002912D0208B6369000430
:104A80009861E368208A986192B22068FFF716FA6D
:104A90006068FDF787FC0128FAD16169208B886185
:104AA00010BD10B5C16B04468847208D236B020AE8
:104AB00001212046984794F828202046236BBDE822
:104AC000104001211847000070B50D46044603222E
:104AD00048A1FFF7B9FF032247A12046FFF7B4FF23
:104AE000142246A12046FFF7AFFF0F2249A120461E
:104AF000FFF7AAFF0D224BA12046FFF7A5FF0922D1
:104B00004CA12046FFF7A0FF06224DA12046FFF74B
:104B10009BFF03224CA12046FFF796FF02224BA1E8
:104B20002046FFF791FF112249A12046FFF78CFF95
:104B300011224CA12046FFF787FF02224EA12046FA
:104B4000FFF782FF11224DA12046FFF77DFF1122C2
:104B50004FA12046FFF778FF022252A12046FFF71F
:104B600073FF112250A12046FFF76EFF112253A1BF
:104B70002046FFF769FF032255A12046FFF764FF97
:104B8000052254A12046FFF75FFF052253A12046CE
:104B9000FFF75AFF022253A12046FFF755FF0222DA
:104BA00051A12046FFF750FF012250A12046FFF7F8
:104BB0004BFF7820FDF76CFD01224DA12046FFF749
:104BC00043FF01224BA12046FFF73EFF94F82E0041
:104BD0004FF0020260B148A12046FFF735FF0A20DE
:104BE000FDF756FD29462046A26CBDE870401047EF
:104BF00042A1F1E7F05A5A00F15A5A00F23B33034E
:104C00000C08080800080800000000330C080C0815
:104C100000000000F4070000000000000004700322
:104C200004700300F500467000000200000000461A
:104C300070000000F60300080303000300000000FA
:104C4000F748801002000000F8110000F91400007D
:104C5000FA3307041A181C241D26282F2E000000E2
:104C600000000000FB3303002E2F28261D241C18F3
:104C70001A04000000000000F9120000FA360704D0
:104C80001C1C23281C25262E2B00000000000000E1
:104C9000FB3306002B2E26251C28231C1C04000099
:104CA00000000000F9110000FA33070430323435F7
:104CB000111D20282000000000000000FB3303002D
:104CC0002028201D1135343230040000000000007F
:104CD000440001002A0000013F0000002B000001F9
:104CE000DF000000360000003A550000110000000F
:104CF000290000002C00000036C0000036600000D3
:104D00000D4808B5016841F40011016000680022F7
:104D100000F40010009005211020FDF713FF102073
:104D2000FDF702FF002205212F20FDF70BFFBDE854
:104D300008402F20FDF7F8BE3038024030B5344D22
:104D40009DB00022D5E90101CDE91901012119A881
:104D500020F0DAF82F4C00226061D5E90301CDE99B
:104D60001B0101211BA820F0CFF8A061C8216069B8
:104D700020F0EAF84FF47A71A06920F0E5F81435D4
:104D800095E80F0015AD85E80F00002115A820F06B
:104D900006F81F4920611C2224316846FBF712FDEA
:104DA0000021684620F086F8194960601C224031D5
:104DB00007A8FBF707FD002107A820F07BF814499E
:104DC000A0601C225C310EA8FBF7FCFC00210EA8A1
:104DD00020F070F8E060104C1048A18CA1F5B442AE
:104DE000A53A0DD0A1F57F42FF3A09D028222146ED
:104DF000FDF7E6F90A49E0680968C8631DB030BDEF
:104E00004AF25A51A18428220349FDF749FAF1E7F1
:104E100020A30308880500200000002000000608E9
:104E2000B0DC01202DE9F04186B014216846FBF783
:104E300003FD45480025016841F004010160016857
:104E400001F004010591016841F0800101600168F1
:104E500001F080010591016841F0010101600168E4
:104E600001F001010591016841F002010160006853
:104E7000012200F00200354F5403059021463846C8
:104E8000FDF7CEFDDFF8C880002202214046FDF785
:104E9000C7FD48F20806012231464046FDF7C0FD35
:104EA00000940124694638460194CDE90245FDF796
:104EB000BFFC0220CDE9000469464046CDE9024529
:104EC000FDF7B6FC0320CDE90240CDE90064694658
:104ED0004046FDF7ADFC48F2014000904FF444100D
:104EE000CDE901041B4E69463046FDF7A1FC45F2B1
:104EF0000200CDE90005694602943046FDF798FCB2
:104F000042F20400CDE90005694630460295FDF7FE
:104F10008FFC2002CDE90005694640460295FDF769
:104F200087FC002205210620FDF70CFE0620FDF778
:104F3000FBFD002205212820FDF704FE2820FDF7B7
:104F4000F3FD06B0BDE8F0813038024000080240B1
:104F5000000002400004024000B589B01C220B4949
:104F60006846FBF72FFC094907AA0839D1E9000177
:104F7000CDE9070169460648FCF710FF044840F2F6
:104F8000FF710068FFF7A0FD09B000BDF0A20308A3
:104F900080050020104810B50E4901604FF4827161
:104FA000416000214FF40062C0E90212D2010161A8
:104FB000C0E90512C1610162416281620A21C162D8
:104FC000FEF7F3FD002803D0BDE81040FDF746B81A
:104FD00010BD00000030014058DB0120104810B522
:104FE0000E4901604FF4827141600021022281600C
:104FF000C0E90312012242615202C0E906210162A6
:10500000416281620A21C162FEF7CFFD002803D010
:10501000BDE81040FDF722B810BD0000003C004084
:10502000B0DB012010B58EB00024079408940994D9
:105030000A940B941C2168460C94FBF7FDFB1D4859
:105040004FF08041C0E900147721C0E902410461BA
:105050008461FEF7E1FF08B1FDF700F84FF48050DE
:10506000079007A91348FFF77BF808B1FCF7F6FF94
:105070001048FFF73CFA08B1FCF7F0FF0B940BA9BE
:105080000C480C94FEF78AFF08B1FCF7E7FF60209C
:10509000CDE9000402940022694606480494FFF713
:1050A000C0F908B1FCF7DAFF0248FFF77DF90EB04E
:1050B00010BD000068DC012010B58EB000240794FC
:1050C000089409940A940B941C2168460C94FBF7ED
:1050D000B3FB1F481D49016040F2BF31C0E9011414
:1050E0006421C0E903148461FEF796FF08B1FCF760
:1050F000B5FF4FF48050079007A91548FFF730F827
:1051000008B1FCF7ABFF1248FFF7F1F908B1FCF763
:10511000A5FF0B940BA90E480C94FEF73FFF08B1B6
:10512000FCF79CFF602000903220CDE901040822AA
:10513000694607480494FFF774F908B1FCF78EFF3D
:105140000348FFF731F90EB010BD0000000C00401D
:10515000B0DC01200C4810B50A4901604FF4E13180
:105160004160002181600C22C160C0E904128161AC
:10517000C161FFF722FB002803D0BDE81040FCF717
:105180006DBF10BD0010014058DD012010B5002298
:105190000F49104801F07DFB08B1FCF75FFF0E4995
:1051A0000C4801F08BFD08B1FCF758FF0B4909488A
:1051B00001F01EF908B1FCF751FF064801F002FEAC
:1051C000002803D0BDE81040FCF748BF10BD000028
:1051D00038040020A8C40120F40400208804002022
:1051E0001FB5054B0FCB8DE80F00402269460348E1
:1051F000FCF736FE1FBD000010A303088405002045
:1052000070B50F4A111F081F05F0DCFC0D4C6069DA
:105210001AF0A4FD002812D0094DD4E905010C3D77
:105220006A6818F08BF9E1696069AA6818F086F974
:10523000216A6069EA68BDE8704018F07FB970BD06
:1052400014010020B405002038B515F00AFA012831
:1052500019D10D4C606A1AF081FD10B9204623F077
:1052600081F81CF0CDFB19F093F9416900290AD1AE
:105270008069002807D10120002300901A461946B2
:10528000606A1CF0D3FB38BDB4050020FEE70000C7
:1052900038B515F0E6F9012819D10D4CE06D1AF07A
:1052A0005DFD10B9204621F0ABFC1CF0A9FB19F004
:1052B0006FF9416900290AD18069002807D10120CE
:1052C000002300901A461946E06D1CF0AFFB38BD74
:1052D000B405002038B515F0C4F901281BD10E4CD7
:1052E000D4F8A0001AF03AFD10B9204623F090FF40
:1052F0001CF086FB19F04CF9416900290BD180693B
:10530000002808D10120002300901A461946D4F83D
:10531000A0001CF08BFB38BDB405002038B515F09B
:10532000A0F901281BD10E4CD4F8C4001AF016FDC8
:1053300010B9204622F064FA1CF062FB19F028F93B
:10534000416900290BD18069002808D10120002380
:1053500000901A461946D4F8C4001CF067FB38BD0B
:10536000B405002038B515F07CF901281BD10E4C8E
:10537000D4F8DC001AF0F2FC10B9204623F0FAFB56
:105380001CF03EFB19F004F9416900290BD180693A
:10539000002808D10120002300901A461946D4F8AD
:1053A000DC001CF043FB38BDB405002038B515F017
:1053B00058F901281BD10E4CD4F8F8001AF0CEFC95
:1053C00010B9204621F0F4F81CF01AFB19F0E0F8AF
:1053D000416900290BD18069002808D101200023F0
:1053E00000901A461946D4F8F8001CF01FFB38BD8F
:1053F000B405002038B515F034F9012819D10D4C49
:1054000020681AF0ABFC10B9204622F0E3FC1CF037
:10541000F7FA19F0BDF8416900290AD1806900281E
:1054200007D10120002300901A46194620681CF07D
:10543000FDFA38BDB4050020FEE700000148FDF785
:105440000FBD0000A4CF01202DE9F04103680D46F7
:1054500004461E6C03EB4511D1F8080BD4F810E09C
:105460004FF400474FF0200C04F2C442BEF1010F8C
:1054700009D0DFF898E0764539D1020432D500BF73
:10548000C1F8087B3FE0224B5FEA007E04D59E42D4
:1054900039D90004F4D436E05FEA806E02D5C1F851
:1054A00008CB30E010F0280F2DD19E4201D9000426
:1054B000E6D405EBC50004EB8000D1F8101BD0F852
:1054C0009832C1F31201591AC0F89C1200F51F70EE
:1054D000ADB983691BB10269114401610FE001217B
:1054E00020680AE080060AD5C1F808CB07E035B984
:1054F000D4F8940218B90021184602F061F8E9B214
:105500002046FDF785FB0020BDE8F0810A31544FAD
:105510000A30544F2DE9F84F0E4601EBC60100EB5F
:10552000810481460568616DE06D3C34884202D992
:105530000120BDE8F88F081AE168814200D20846D0
:10554000C01C870805EB46181BE000BFA0EB010A52
:10555000E068504500D282460AF10300870899F8B6
:10556000100000901FFA8AF3F2B22846216902F077
:1055700041FB216901EB0A002061216A01EB0A006D
:105580002062D8F8180980B2B84205D3216AA06910
:10559000814201D20028D9D1216AA069884208D865
:1055A00006F00F0101208840D5F834188143C5F872
:1055B00034180020BDE700002DE9FF413A480A22D7
:1055C000006800903948016801A81FF0FBFB0198B2
:1055D0000024374A0123102817D00020C0EBC00157
:1055E00002EB81010C692469898A0C4203D18DF890
:1055F00000008DF80130401C80B20328EED300BFBC
:10560000BDF8000004B0BDE8F0810021C1EBC10588
:1056100002EB85050298AD88A84240D1C1EBC100DC
:1056200052F820502E6902EB800082881642467E96
:1056300001D1C6B101E0002EE2D02D691542DFD0C4
:10564000447602691269848A224201D18DF80130C0
:1056500083681C69828914420ED1847E64B19DF8EE
:105660000100C04310E043768476866836698789F6
:105670003E42E2D08376E0E71B69134206D0807E8B
:1056800020B99DF80100801C8DF801009DF90100F2
:105690000028B5D00128B3D08DF80010B0E7491C20
:1056A00089B20329B2D3ABE7E0A203089805002032
:1056B0002C0500204FF400510148FDF7A9B9000066
:1056C0000008024010B5806B01684A6822F00302AE
:1056D0004A60416D41F010014165012180F851108F
:1056E000FEF762FA10BD10B5806BFEF754FC10BDDA
:1056F00038B50546846BFDF799F9024628680068BD
:10570000C00523D42068416821F020014160206851
:10571000416821F0020141606421204600F01AF83E
:1057200018B1606D40F020006065A068002118B9D4
:105730002068C26880680090E186012084F85100EA
:10574000606D18B12046FEF72FFA38BD2046FEF7EF
:1057500021FC38BD38B504461248134B0068B0FB35
:10576000F3F04FF47A73584300906068B0F5827F8D
:105770000DD10B46009200228021204600F016F841
:1057800070B1606D40F020006065032038BD009866
:1057900030B1401E009020688068C0430006F6D5F6
:1057A000002038BDB005002000366E012DE9F84319
:1057B0001E46914688460446089DFDF737F9401B72
:1057C000351AFDF733F9074625480068C0F3CB309A
:1057D000684338E0701C37D0FDF728F9C01BA84299
:1057E00003D215B1009860B32CE02068416821F025
:1057F000E00141606068B0F5827F0BD1A068B0F530
:10580000004F02D0B0F5806F04D12068016821F00C
:1058100040010160A06AB0F5005F09D1206801680D
:1058200021F4005101602068016841F400510160D9
:10583000012084F85100002084F850000320BDE8C6
:10584000F8830025401E00902068816838EA010036
:1058500004D000214945BDD10020F0E70121F9E73E
:10586000B00500200178407841EA00207047000030
:1058700038B514F0F6FE01281ED1104C606A1AF0FB
:105880006DFA10B9204622F06DFD1CF0B9F818F041
:105890007FFE416949B9806938B901200023009031
:1058A0001A461946606A1CF0C1F8BDE83840282243
:1058B00003490448FCF7F4BC38BD0000B4050020DF
:1058C000000000200000060870B514F0CAFE1C2875
:1058D00016D10C4C54F8E80F10F096FA0A4D024617
:1058E0000AA1E86005F110000646FAF7CDFD324640
:1058F00007A1E06817F039F90749E8680968C86343
:1059000070BD0000B40500200000002025640000E8
:105910002573252500000000B0DC012010B55020C3
:1059200080F31188BFF34F8FBFF36F8F27F088F894
:1059300018B104494FF080500860002080F31188AE
:1059400010BD000004ED00E030B593B03021684692
:10595000FAF772FF14210CA8FAF76EFF1C48002515
:10596000016841F080510160006800F080501190A2
:105970001848016841F4404101600068022400F4C5
:105980004040119001200090000401908001CDE979
:10599000064019200890C020CDE9090404200B908E
:1059A0006846FDF74BFF08B172B6FEE70CA90F2061
:1059B00081E831004FF48050CDE90F0503210CA898
:1059C000FDF72AFE002801D072B6FEE713B030BD05
:1059D00040380240007000400248016841F4700104
:1059E0000160704788ED00E00148FEF729BC000027
:1059F0009CDD0120F0B502681D4B1E4C9F031E4D1F
:105A00001E4E984207D0B84205D0A04203D0A8420B
:105A100001D0B04204D122F0700C4A6842EA0C0274
:105A2000984210D0B8420ED0A0420CD0A8420AD062
:105A3000B04208D0124CA04205D0124CA04202D075
:105A4000114CA04203D122F44074CA6822434C692D
:105A500022F08002224302608A68C2620A6882627F
:105A6000984201D10969016301214161F0BD000043
:105A7000000001400004004000080040000C00400D
:105A800000400140004401400048014010B501F0D1
:105A90001F030121046A99408C430462016A9A4001
:105AA0001143016210BD10B5846B0121626A82420C
:105AB00005D12177C069F8B984F83E101CE0A26ACC
:105AC000824206D102222277C069A8B984F83F1029
:105AD00012E0E26A824206D104222277C06958B9F4
