:020000040800F2
:100000006026002001010008050100080701000822
:10001000090100080B0100080D01000800000000A4
:100020000000000000000000000000000F010008B8
:1000300011010008000000001301000865FA000823
:1000400029FF000851F7000865FB0008A1F9000826
:1000500065DD000839F90008DDDB000815DC000863
:100060001DDC000831DD000833DD00081701000841
:100070001701000817010008170100081701000800
:1000800017010008170100081701000817010008F0
:1000900017010008170100081701000835DD0008E6
:1000A00067FB00086DFB00086BFB000869FB00089C
:1000B000BDFB0008E1FB0008E3FB00083BE2000891
:1000C00039E200083FE200083DE20008A3F9000819
:1000D000A5F90008D1FC0008D3FC0008D5FC0008F5
:1000E000E1DB000899F90008D7FC0008DFF80CD024
:1000F0000DF084FB004800477514010860260020BD
:1001000005480047FEE7FEE7FEE7FEE7FEE7FEE7FD
:10011000FEE7FEE7FEE7FEE7ED00000810B500226F
:10012000C0F30B00B0F5006F02DDA0F50060012206
:10013000B0F5806F01DDC0F500608311FC4C00F06C
:100140003F00C0F1400134F813004843402906D075
:1001500004EB4303C1F140015B8803FB0100203045
:100160008009002A00D0404210BD00F58060D5E72C
:10017000F04B1A7D012A05D0521E02EBD2725210AA
:1001800001F084B89A6C526810472DE9F84F054683
:100190008846541BA3EB08079B4691464FF0000A84
:1001A00054EA07002CD0204600F0F3F90646384602
:1001B00000F0EFF986420ADA20463C460746284618
:1001C000454680464846D94683464FF0010A2046B8
:1001D00000F0DFF9A04203D064427F424D46D8468A
:1001E00004EBD4704FEA6009002F01DAC9F100096D
:1001F000DFF840B34FF000069BF8160098B132E0EC
:100200002846BDE8F84FB3E707FB069090FBF4F1F2
:1002100001EB0800BAF1000F09D0DBF84820A9195A
:1002200052689047761CA642EEDDBDE8F88FDBF8F9
:100230004810AB194A6801461846F2E707FB0690DA
:1002400090FBF4F101EB08000090304600F0E7F974
:1002500040B9BAF1000F09D0DBF84800A91942688B
:1002600000989047761CA642E8DDDEE7DBF84810F0
:10027000A8194A680099F4E72DE9FF470746AD48F9
:1002800015461C46027D0E46012A1CD0781B311BE8
:1002900050EA010371D0A2F1010800F07EF900F5E7
:1002A00080608146FFF761FF00FB08FC4846FFF7CE
:1002B00035FF00FB08F0BCF1000F0ADACCF5007145
:1002C0008912494209E004B02A463846BDE8F047A1
:1002D0005BE70CF5007C4FEAAC21002804DAC0F59E
:1002E00000708012404202E000F500708012002988
:1002F00004DD4A1C02EBD272521003E001EBD17212
:100300005210491E01EBD1714910002804DD431C35
:1003100003EBD3735B1003E000EBD0735B10401E64
:1003200007EB020CADF800C006EB030CADF802C001
:10033000A7EB010C00EBD0704010ADF804C0A6EBA9
:10034000000C691AADF80810201AADF80A00A818B8
:10035000ADF80C00E018ADF80E000023ADF806C0B3
:100360001A46042168460AF0A0FA3146384600F0E1
:100370008FF92146284600F08BF9BDE8FF872DE96B
:10038000F0416C4D2C6C2718686CA5184618C418E1
:10039000002009F043FA07E023462A463146384652
:1003A000FFF76AFF09F013FA0028F5D1BDE8F081E4
:1003B00070B5604C0D460646B4F92810B4F9260015
:1003C0002B463246FFF758FFE684258570BD594A13
:1003D000D084118570472DE9F04105460446B0F9F7
:1003E00002001E4688468119B4F9000017463844B9
:1003F000FFF7EDFF08E0241DB4F902008119B4F9FC
:1004000000003844FFF7D4FFA8F10108B8F1000F4D
:10041000F1DCB4F90010B5F90000814205D1B4F95E
:100420000210B5F902209142C0D0B5F9021038444B
:100430003144BDE8F041BBE7B8E72DE9F04107469C
:100440003C480E46016C406C8D18C418002009F021
:10045000E5F907E023462A4631463846FFF7BBFF59
:1004600009F0B5F90028F5D1A0E7324AD38C184439
:10047000D084108D08441085704770B505460C4631
:10048000002009F0CBF960B12A4EB6F92810B6F970
:1004900026000B194219FFF7EFFE09F098F9002822
:1004A000F3D121462846BDE87040DEE770B5214D06
:1004B0002A6C1618686C4418002009F0AFF909E09E
:1004C00032462346B5F92810B5F92600FFF7D4FEC9
:1004D00009F07DF90028F3D121463046BDE870408F
:1004E00075E7144A136C526C184411446FE72DE9F8
:1004F000FC41104C256C94F814C02F18606CAE1899
:10050000ACF1010C4418C518A7EB0C00ADF80000C5
:1005100006EB0C00ADF80400A4EB0C00ADF80200F3
:1005200005EB0C00ADF80600684609F077F919E014
:10053000B8DC0508A41B00203246214638460AF0E4
:10054000E9FE3246294638460AF0E4FE6A1E611C7E
:1005500038460BF04BF86A1E611C30460BF046F82B
:1005600009F035F90028E7D1BDE8FC8170B54B4AA8
:10057000136C1D18506C4418002009F04FF905E069
:1005800021462846FFF7F4FD09F021F90028F7D1AC
:1005900070BD002800DC4042704710B500220028E2
:1005A00001DA01224042002902DA42F00202494205
:1005B000814204DD0B460146184642F004028902DE
:1005C00000EBD07301EB630191FBF0F0801003119D
:1005D000334C00F00F00C0F1100134F91300484310
:1005E000102907D004EB4303C1F11001B3F9023025
:1005F00003FB010000F108004FEAE07100EB11700D
:100600004FEA2010510701D5C0F58060D10701D015
:10061000C0F50060910701D5C0F5805010BD1F499D
:10062000897D012906D002290ED0032918D004297A
:1006300014D11EE0801DC11700EB117121F00F01D4
:10064000401A0C2808DB09E0C11700EB917121F07A
:100650000301401A022801DA012070470020704788
:10066000142190FBF1F201FB12000C28F4DB10388E
:100670000BE0182190FBF1F201FB12000C28EBDBE0
:10068000A0F110010229E7D314380228E6D2E3E7EB
:10069000024A527D002A00D16AE57047A41B00205F
:1006A000DADC05087CB5204C0546608CB4F84010B7
:1006B00008446084A08CB4F844100844A084284600
:1006C00000F043FD0146608CADF800000844401E78
:1006D000ADF804000AF040FA0146A08CADF8020023
:1006E0000844401EADF80600684609F097F804E09B
:1006F000284600F0FFFC09F06AF80028F8D10A2D1E
:1007000003D0BDF80400401C608434F8220FE18B54
:10071000401A20806088618C401A60807CBDC1E7EF
:10072000014B59849A84BDE7A41B0020024B5984D5
:100730009A8409F077BF0000A41B00202DE9F04146
:1007400006460A4814460D46B0F92C0040F0020057
:100750000AF01EFB0746224629463046FFF7E6FF11
:100760003846BDE8F0410AF013BB0000A41B00208E
:100770002DE9FF4F85B000249A4691460E46254646
:10078000DDF814B00AF0E8F9804626B13068009030
:100790007068019002E068460AF0CBF919F00C0F7E
:1007A00002D05646012713E0BDF902402DE0314644
:1007B00005980AF09AFB0146761A05980AF039FB6B
:1007C00005990844059005A809F07CFD10B97F1C27
:1007D000002EECD109F00C00042804D0082802D027
:1007E0000C2812D105E0BDF9061007FB1814641C93
:1007F0000BE0BDF90600BDF90210421A07FB1820F4
:10080000401C00EBD07001EB60045646CDF814B0EC
:1008100046E0314605980AF068FB07460146F61B9C
:1008200005980AF07AFB19F003010ED001290FD0C8
:10083000022911D1BDF90420BDF90010521A121A73
:1008400002EBD27201EB620506E0BDF9005003E055
:10085000BDF904100D1A6D1C2649401E28444D8414
:10086000ADF80C00ADF808508C8404EB0800401E75
:10087000ADF80E00ADF80A4002AA394605980AF014
:1008800063FB394605980AF0D4FA059908440590A7
:1008900000F022FC044405A809F014FD002801D151
:1008A000002EB6D109B0BDE8F08F2DE9FC411F46FE
:1008B000904606000D4617D0002465B108460CF09E
:1008C000A9FB040007D002462946684609F023FD2B
:1008D00068460CF09FFB3B46424629463046FFF7F0
:1008E00047FF20460CF096FBBDE8FC8147F6FF73FE
:1008F000DBE70000A41B00202DE9FF471F460C9EEC
:1009000090460D46814666B30024009401949DB143
:10091000286800901C4A696801911060516028465F
:100920000CF078FB040007D00246294602A809F023
:10093000F2FC02A80CF06EFB304600F017F80546FA
:100940007168684688473B46424669464846FFF715
:100950000FFF20460CF05EFB284600F007F8BDE8CC
:10096000FF8704B0BDE8F047FFF79FBF074B10B506
:10097000074A196808B1002401E0054C241D1461E0
:100980001860084610BD0000EC0000206001002047
:10099000A41B00202DE9FC410F4F0346386C45187D
:1009A000796C8418CE18ADF80050ADF80440ADF85D
:1009B0000260ADF80660684608F030FF07E0B86CEA
:1009C0002246314603682846984708F000FF002871
:1009D000F5D1BDE8FC810000A41B00207CB50E4BC6
:1009E0001C6C0444586CADF8004046188518ADF8EE
:1009F0000440ADF80260ADF80650684608F00EFFFE
:100A000006E02A46314620460AF0F0FD08F0DFFEF7
:100A10000028F6D17CBD0000A41B00200B4810B5B7
:100A20000068002410B1804700B1012409F03FF8AC
:100A300000B10124204610BD10B5002400E00124BF
:100A4000FFF7ECFF0028FAD1204610BD540100202A
:100A50002DE9FC410F4D2C6C2718686CA518461821
:100A6000C418ADF80070ADF80450ADF80260ADF8F0
:100A70000640684608F0D2FE07E023462A46314683
:100A800038460AF062FC08F0A2FE0028F5D1BDE865
:100A9000FC810000A41B0020B0F90630B0F904204E
:100AA000B0F90210B0F90000FFF7D2BF0348B0F967
:100AB000220070470148B0F924007047A41B0020B1
:100AC00000F00CB800F00EB870B50D4600F00AF852
:100AD0000446284600F002F8204370BD034988848C
:100AE000002070470149488400207047A41B002063
:100AF000FEB52E4D681E2A78014602F003040470EC
:100B00006B784968D60605D5C3F10003DBB2A1EBCB
:100B1000030100E019449306244A4160A2F1010256
:100B2000A978926803D54942C9B2114400E0511A2C
:100B3000816041680022002901DA426005E0B1F5D8
:100B4000A07F02DB40F23F1141608168002901DA99
:100B5000826005E0B1F5F07F02DB40F2DF118160D9
:100B600041680091806801908DF8084068460AF05D
:100B7000A3F8FEBD10B50D4C641E621CE16849B1BE
:100B80005054491CE160032903DBFFF7B1FF00204B
:100B9000E06010BDC0F381010229FAD1107001207C
:100BA000F6E702490020491EC8607047F5000020A2
:100BB0001E49002248684A6070471C494A68002A5A
:100BC00000D14860704700B5FFF7F2FF0028FBD165
:100BD00000BD164A0832C2E900011449012008602C
:100BE000704770B5114A0020116800290FD0491EC6
:100BF00002F108041160D4E9005128460CF0CAF84B
:100C00006068012802D12846FFF7D7FF012070BD98
:100C100070B50C4605460CF0BDF8002804D12146FD
:100C20002846BDE87040D4E770BD000004010020F4
:100C30000748007D70470648407D7047044A0146DA
:100C4000107D11757047024A0146507D51757047FD
:100C5000A41B00200AF0A8BC0AF0B2BC024A9169A9
:100C600000B1906108467047A41B002030B40346D1
:100C7000604C0A46401C07D0501C05D06068411CDF
:100C800002D0A1684D1C02D14FF0FF300146C4E9EB
:100C9000013230BC0AF08CB85648C06870475548DD
:100CA0000069704753484FF47A61243001609621FF
:100CB0004160C821816040F6D861C16070472DE96C
:100CC000F84F1F460A9D9046894604004FF0000CDD
:100CD0000FD040F2DF16781B00D54042142805DB08
:100CE000B9EB080000D54042142805DA0120BDE820
:100CF000F88F40F23F16EEE74246494660460095BF
:100D000000F06EF8DFF8ECA03B460AF1240A4246F8
:100D10004AF8340049463046009500F061F80AEB85
:100D2000C40148600020E2E7324B10B5243353F889
:100D3000304003EBC0000C604068106010BD70B51F
:100D40002C4D2C4C2435D5E90010814202DAC4E93F
:100D5000051001E0C4E90501D5E90210814202DA7B
:100D6000C4E9071001E0C4E907012078B0B10DF033
:100D7000E1F8E0600DF0DCF804F10C0007C89042E7
:100D800008DBA269904205DCE269914202DB226A3B
:100D900091420BDD4FF0FF3001461CE00DF05EF993
:100DA00020610DF0C6F82078401C17E02A68801AF0
:100DB000C0EB801303EB00206B689A1A90FBF2F3F0
:100DC000AA68881A00EB4011C1EB4020E968891A33
:100DD00090FBF1F11846FFF749FF0020207070BD2D
:100DE00010B5401A029CE41A4443501A94FBF0F0E8
:100DF000184410BD140100202DE9F04781464FF042
:100E0000FF380020B04F1BE037F81100518806EB87
:100E10004605014437F91500411A0CB24C450EDA6B
:100E20006CB1AA49014407EB4500B0F90220081B48
:100E30000CF088FC37F81500001B27F81500304629
:100E400000EB400107EB41021679002EDCD100EBEC
:100E5000400207EB410137F91220B1F902101144A9
:100E6000C1F5A0524A4500DB80460FFA88F0BDE884
:100E7000F0879748A1210422416081604FF4A0517E
:100E8000C18101820021016081818F4842800180FF
:100E9000017190490120087070472DE9F041044626
:100EA00000F00CF9E41CDFF8288224F0030004B2FF
:100EB000B8F90E00A04254DB834E012000EB400144
:100EC00006EB4101498851B1401CA228F6DB002500
:100ED000EDB3204600F0C8F8411C02D006E005B290
:100EE000F6E72046FFF788FF411C3AD000EB4001AF
:100EF00006EB410336F81120598805EB450C5718CD
:100F000006EB4C021979548026F81C70117121B13E
:100F100001EB410106EB41014D7150711D71D8F893
:100F200000004146401CC8F80000D8F80400401EEC
:100F3000C8F80400D8F80820824200DD886088895B
:100F400020448881C889001B00B2C88100E008E005
:100F5000B1F91020824201DDA8F810002846BDE852
:100F6000F0810020FBE7002800D096E770470028BA
:100F700006D0554900EB400031F9100053490844B0
:100F8000704710B500F09AF85148B0F90E0010BD46
:100F900070B5002400F092F800204B4D0DE035F8BC
:100FA00012005A88104401EB410235F81220101A41
:100FB00000B2A04200DD0446084600EB400205EB0B
:100FC000420319790029EAD100EB400005EB420108
:100FD00035F91000B1F902100844C0F5A05000B274
:100FE000A04200DD0446204670BD002806D03649E8
:100FF00000EB400001EB4000B0F902007047002810
:1010000001D000F00AB8704710B50446B0F90000EE
:10101000FFF7F5FF0020208010BD2B4B00EB4000B8
:1010200010B503EB4001B1F9020000281BD0284A9B
:10103000D4890444D4819489201A90810020488066
:101040000879497901EB410403EB4404207120B194
:1010500000EB400003EB400041715068401C5060C1
:101060001068401E106010BD30B50021164D0CE018
:1010700035F91330B4F90240234402EB420435F948
:101080001440E31A834214DA114601EB410305EBE5
:1010900043042279002AEBD101EB410205EB430323
:1010A00035F91220B3F902301A44C2F5A052824237
:1010B00001DB08B230BD4FF0FF3030BD054800788D
:1010C000002800D1D5E67047C4170020C4030020D3
:1010D000901B0020480100201E488069407D704719
:1010E00000B5FFF7F9FF1B498A8C10448884088CEF
:1010F000488400BD10B504460A280ED00D2C0FD030
:10110000144880690168204688471348016800290F
:1011100006D02046BDE810400847BDE81040DFE794
:1011200010BD0C49002091F82C1001F00C02094967
:10113000042A896906D0082A01D00C2A01D1087D29
:1011400040087047087D401E704702498969496818
:1011500008470000A41B00205C0100202DE9FC5F73
:1011600015460746DFF8A08328440190D8F84820A8
:101170001C460E462144526889469047781B0090D1
:10118000D8F84820494652689047D8F84820711945
:10119000381952688A4681469047D8F84820711B12
:1011A0008B46526848469047002C1AD0D8F8482001
:1011B000311B0E465268454601989047AA6C31464D
:1011C000009852689047AA6C381B514652680446F2
:1011D0009047AA6C59462046526802B0BDE8F05FBD
:1011E0001047BDE8FC9F2DE9F0478146884640F254
:1011F000C32050434FF47A7190FBF1F602FB02F0EA
:1012000002EBD27100EB6107761C144600234146C5
:101210004846FFF7A3FF012513E005FB05F004FB9B
:101220000400B84206DD23462A4641464846FFF7F9
:1012300095FF641E23462A4641464846FFF78EFF27
:101240006D1CB542E9DDBDE8F0877CB51446AE4AB9
:10125000136C1E18506C4518301BADF80000301987
:10126000ADF80400281BADF802002819ADF80600FF
:10127000684608F0D3FA06E0224629463046FFF7D2
:10128000B2FF08F0A4FA0028F6D17CBD2DE9F84F92
:1012900006460F4640F2C32050434FF47A7190FB4C
:1012A000F1F000F1010802FB02F002EBD271DFF86D
:1012B00058B200EB61000090DBF84810144632444D
:1012C0000B68301B39469847012530E005FB05F0D7
:1012D00004FB04010098814218DD444515DDDBF86C
:1012E000483006EB0509A6EB050A1B68A9F10102C7
:1012F00039190AF101009847DBF84830A9F10102D9
:10130000391B1B680AF101009847641EDBF848305E
:1013100032197919301B1B68924681469847DBF8D1
:1013200048305246791B1B68484698476D1C454516
:10133000CCDDBDE8F88F70B5734B15461A6C1418E8
:10134000586C4618002008F069FA06E02A46314633
:101350002046FFF79BFF08F03AFA0028F6D170BD4F
:101360002DE9F84F824602FB02F01E4600907043C2
:10137000894600FB06F101EB500B1446002525E0E1
:10138000009A05FB05F0424306FB06F100E0641EEF
:1013900004FB04F001FB0020002C01DD5845F6DCC5
:1013A000594B0AEB0402AAEB04009B6C904609EB34
:1013B00005011B68074698473DB1534B4246A9EBD0
:1013C00005019B6C38461B6898476D1CB542D7DDFC
:1013D000AFE72DE9FC4117464B4A1E46136C1D181A
:1013E000506C4418E81BADF80000E819ADF8040093
:1013F000A01BADF80200A019ADF80600684608F081
:101400000DFA07E033463A4621462846FFF7A8FF83
:1014100008F0DDF90028F5D1BDE8FC812DE9FF4F8A
:10142000144683B002FB04F1019159439A46804669
:1014300001FB0AF000EB5100A146002502903AE0C2
:1014400001D1002410E0019A05FB05F042430AFB9C
:101450000AF100E0641E04FB04F001FB0020002CF4
:1014600002DD029B9842F5DC1DB30498A8EB040250
:10147000471BA8EB0900791C83463B460092FEF708
:1014800084FE0498009A4619711E58463346FEF7AA
:101490007CFE3B46791C08EB040208EB09079346E7
:1014A0003846FEF772FE33465A46711E3846FEF73E
:1014B0006CFEA1466D1C5545C2DD07B0BDE8F08F3E
:1014C0002DE9FC411746104A1E46136C1D18506C3E
:1014D0004418E81BADF80000E819ADF80400A01BA3
:1014E000ADF80200A019ADF80600684608F096F9BC
:1014F00007E033463A4621462846FFF78FFF08F0BB
:1015000066F90028F5D187E7A41B00202DE9FC41EE
:1015100007461C4615460E46042009F0D3FE8046B9
:101520003548016C406C0F4406440D440444ADF84A
:101530000070ADF80450ADF80260ADF806406846A2
:1015400008F06CF907E023462A463146384609F090
:10155000FCFE08F03CF90028F5D1404609F0B2FE47
:10156000BDE8FC8110B500210846FFF7ADFA40F652
:10157000FF725042BDE8104013460146C6E770B501
:101580001E4D2E2028700CF027FE1B4C261D201D02
:1015900026610AF04FF81A48A0641A482661A06133
:1015A0000120207508F0D2FBA087032084F84C00AE
:1015B0006FF0704020636063002009F0F5FF6FF06A
:1015C0007F4009F0FDFF1048E06109F0D0FF0446BC
:1015D00008F0CEFA0AE00A48083009F023F80021A2
:1015E0000846FFF771FA6968491C696068680A284B
:1015F000F1DB204670BD0000A41B00204C01002040
:10160000FCDC050874E90508A81F0608F94B30B48E
:10161000B3F902408C4210DCB3F906408C420CDB7B
:10162000B3F90040844208DCB3F90430834204DBA0
:10163000F14B1B685B6A30BC184730BC7047ED4A01
:10164000B2F902308B420DDCB2F906308B4209DB75
:10165000B2F90030834205DCB2F90420824201DB9A
:101660000DF010B900207047E24A10B5203A90689A
:10167000002813D08188138A591A02F1180319809F
:101680000489928A121B5A80046824882144491EC6
:101690009980006840881044401ED88010BDD5490C
:1016A00010B52039097851B128B1D249083909F06B
:1016B00026FB002802D000F085F9012010BD002093
:1016C00010BD00F08AB9CB4920398878401E10F04F
:1016D000FF00887001D100F080B97047C5492039FA
:1016E0008878421C8A70002801D100F06BB97047DD
:1016F0002DE9F047BF4F0646203FB8688146864235
:101700002ED03568E8680468042C00DD0424DFF876
:10171000E48208F1080807E0E868806850F82400CF
:1017200009F03EFF28F81400641EF5D200F04AF9D3
:101730002888698848434400F868844205D0B7F98E
:101740000400FFF75CFC0020B88020B208F048FFDE
:10175000B88001207870BE60FFF786FF00F03DF989
:101760004846BDE8F08710B500F02CF9A1490020EB
:1017700020394870A1490860A149086010BD10B522
:101780009C4809F057FF00F01DF99A4801212038C4
:101790009A4A41709B491160994A9B49116080683F
:1017A00018B1BDE8104000F018B9BDE810409748E6
:1017B0009EE72DE9F34F8F4B8FB0203BB3F9040028
:1017C00000286FD01A690F998A4201D0012100E0E8
:1017D00000215C69109A944201D0012200E00022AD
:1017E00011435FD0834920394978002974D0814C56
:1017F000203CA16809680A91FFF7B9FB0B90A0682B
:101800000F9A0068018806912369A2EB03084FF044
:10181000FF32B8F1000F09DD012303930023CDE966
:101820000031491ECDF80880099108E0491ECDE934
:1018300000120021029100990392414409911099EC
:101840006369A1EB0309B9F1000F09DD01210591DD
:10185000408800250890401ECDF8109007908FE03A
:10186000059245886D1E0020049005EB0900CDE926
:10187000070285E0049805EB0907854204DB079819
:10188000854201DC012000E000200E900498874290
:1018900004DB0798874201DC012000E000200D9066
:1018A000009C68E07AE00B9804EB080600EB44012A
:1018B00006982A46684301EB400B21460A9809F036
:1018C000F1F882460298844207DB0998844204DCDE
:1018D0000E9810B1012001E056E0002002998E42DE
:1018E00006DB09998E4203DC0D9909B1012100E064
:1018F00000210C91BAF1000F14D038B1A5EB090208
:10190000A4EB08010A9809F0CDF858B93948BBF89A
:1019100000200838B0F90210B0F900002944204432
:10192000FFF774FE0C9838B10B9800EB460106984F
:10193000784331F810000AE02E480838B0F9021058
:10194000B0F9000039443044FFF779FE80B2ABF8BB
:1019500000005FEA0A000CD000F023F882B22548AC
:101960000838B0F90210B0F9000039443044FFF7EC
:101970004DFE039804440198844294D1059805448F
:10198000089885427FF476AF1A480F992038016194
:101990001099416111B0BDE8F04F65E611B0BDE8A6
:1019A000F08F042804DA1349083131F81000704729
:1019B0001049203989680968C968896851F8200088
:1019C00009F0EEBD10B50B4C203C2078002803D068
:1019D00000F01EF80020207010BD06482038417825
:1019E000002906D08178002903D10121017000F07F
:1019F00045B870478C0100200C03002064010020D2
:101A0000680100209F160008C31600089C1F0608E6
:101A10002DE9F0473D4CB4F9040000282DD0FFF724
:101A2000A6FA064604F118008046B0F90410B0F991
:101A30000020A2468F1AB0F90610B0F902207F1CD0
:101A4000891A01F10109002515E000240AE0B8F91E
:101A50000210B8F9000036F8142029442044FFF79A
:101A6000D5FD641CBC42F2DBDAF808006D1C00688E
:101A7000008806EB40064D45E7DB72E62DE9F047AE
:101A80002249B1F9040000283ED08968D1F80090BD
:101A9000FFF76DFA1D4F06461837B7F90400B7F97E
:101AA0000010401A00F10108B7F90600B7F902105A
:101AB000401A00F1010A002524E000241BE0B7F9D8
:101AC00002004119B7F900002044FFF7B8FD26F8DD
:101AD00014002A462146484608F0E4FF50B1FFF7BB
:101AE00060FF0246B7F902004119B7F9000020442F
:101AF000FFF78CFD641C4445E1DBB9F800006D1C68
:101B000006EB40065545D8DB2BE600006C010020B3
:101B10000CF05CBB70B504460CF058FB051907E0EF
:101B2000FEF78AFF052C00DD052420460CF02AFB79
:101B30000CF04CFB2C1A002CF2DC70BD1FB503AB73
:101B4000CDF80CD008F0F8FC684608F06BFD1FBD1E
:101B50007FB50C461546CDF80CD003A908F0DDFC86
:101B6000641EE1B203AB2A4608F0E6FC684608F0C2
:101B700059FD7FBD1FB503A9CDF80CD008F0AAFC14
:101B8000684608F04FFD1FBD7FB5051E01A80C4635
:101B9000009006DA6946284608F0BFFC641E054638
:101BA000E4B2284608F0A4FCC2B2202003E0009B67
:101BB00003F8010B00931146521CD2B2A142F6D396
:101BC0006946284608F086FC01A808F02BFD7FBD79
:101BD0000022BDE70022B1E77FB51E4614460D4640
:101BE000CDF80CD003AB0022314608F0A5FC22460C
:101BF00029466846FEF79AFD7FBD000010B5C488EF
:101C000042880188A41A83880C44591A848011449C
:101C1000C18010BD7CB505460020009001900C46A7
:101C2000684608F00DF909F01DFD461E09F01DFD7E
:101C3000BDF90410401EB14201DDADF80460BDF9EC
:101C40000610814201DDADF80600BDF900202068D4
:101C50002968101A2860BDF9020008442060A048D5
:101C60002968B0F904201144B0F902201144296018
:101C7000B0F902202168B0F900001144081A206070
:101C80007CBD2DE9FF4F89B09B460A99924601EB36
:101C90000B00401E0999039001EB0A00401E0290C0
:101CA00000251A9E0AA909A8FFF7B4FF03A902A8F4
:101CB000FFF7B0FF1698012802D11798012808D025
:101CC0001898C0F108000790099800900020019032
:101CD000A4E0844B03990020B3F90A208A4202DA77
:101CE000891AAAEB010AB3F906400A998C420DDD64
:101CF000501A189AAAEB000A012A07D120F007020D
:101D000006EBE006891A00F007000A91BBF1000F0C
:101D100032DDB3F90810099A914207DA511A521AC2
:101D20000992199AABEB010B01FB0266B3F904208F
:101D300002998A4204DD521A1144ABEB020B029164
:101D4000BAF1000F18DDDDE909910591DDE918858B
:101D5000049000241B9F0DE0B8F1010F08D1CDE9DC
:101D600000A7DDE90431A9EB0400324600F059F880
:101D70002E44641C5C45EFDB0DB0BDE8F08F179975
:101D80000098401A06905749401C0490B1F904206D
:101D900082423BDC0846B0F908100098814235DBEE
:101DA00000243746A146DDF828802DE014B917F845
:101DB000015B0824079935FA01F0189905FA01F535
:101DC000EDB2A4EB010403D14649097B890717D47E
:101DD0004449498805911B9921B131F810104148B7
:101DE000418001E03F4948801699009A08EB0103C1
:101DF0005B1E4146049809F0A8FA3A4905984880C4
:101E0000169909F101098844D145CFDB0198401C9E
:101E10000190069800901998064401985845AEDB49
:101E2000AAE72DE9F05F8346DDE90A701C46B0F8A9
:101E30000090B0F802802B480E1B1546007B4FF037
:101E4000800110F0030013D001282DD0022824D1E6
:101E50008946297829FA04F0014204D042463146E5
:101E600058460CF017FD761C641C082C17D018E09F
:101E70008A4629782AFA04F0014201D0424600E05D
:101E80004A46314658460CF005FD761C641C082C69
:101E900001D100246D1C7F1EEBD1BDE8F09F002412
:101EA0006D1C7F1ED5D1F8E788464FF6FF7929785B
:101EB00028FA04F0014209D0314658460CF0E2FC01
:101EC000A9EB0002314658460CF0E4FC761C641C79
:101ED000082C01D100246D1C7F1EE8D1DDE7000035
:101EE000EC000020A41B00202DE9F043C78C044621
:101EF00087B04FF00009C7F3002508460AF03AFD05
:101F000008B12E4600E00226206CFEF7A7FEB4F9C9
:101F1000480010B1FFF72BF88146684608F009FE2B
:101F2000DDE90001CDE9020145B3002009F048FBDD
:101F3000BDF90630BDF90420BDF90010BDF902005D
:101F4000FEF7D5FA012202A9084608F00DFA04EBC3
:101F50008608D8F8280009F027FBD8F8340009F0E3
:101F60002FFB02A80BF056F8FFF7FCFA022E0DDA51
:101F7000B4F84C0040B13DB101200BE0206A00688C
:101F80008047206A4269DEE7002003E0B4F84E0093
:101F900000B1022004EB40000022B0F94A001146D3
:101FA00009F0EBFEDDE90201CDE9040125B10122D2
:101FB000114604A808F094FE022008F0F1FEB4F9DE
:101FC000442004A94846FEF791FCF80706D00020FB
:101FD00009F0F6FA0221684608F004FC00200BF034
:101FE00019F807B0BDE8F08370B5B0F90460054694
:101FF0003046FEF7BCFF04462946304606F036FD63
:10200000002840D028680B282CD00C2802D00F289C
:1020100034D122E0A9683046C9B1097A0029E18C9F
:102020004FEAC1510FD000292DDB35464FF48071A6
:1020300006F0F2FC217F880725D52846BDE87040D0
:1020400001210AF09EBE00291DDA022200E00322CF
:102050002146BDE8704000F092B831462046BDE808
:10206000704041E704F14800FEF7CEFF04F14A005A
:10207000FEF7CAFF04F14C00FEF7C6FF2846BDE894
:10208000704007F01EBD70BD2DE9FF410C46DDE933
:102090000AC13026AFF2AF070D9D89B2CDF800C05E
:1020A0000396CDE90117214607F055FA04000CD03C
:1020B000FEF75DFF06461022294606F0D1FC2022DD
:1020C0003B4906F128000BF03DFB04B02046BDE87B
:1020D000F08170B50D4604000CD0FEF748FF29468C
:1020E000483008F04EF9002804D02046BDE8704082
:1020F00007F02FBA70BD70B50D46040007D0FEF78B
:1021000036FF05642046BDE8704007F022BA70BD76
:1021100070B516460C4605000BD0022C09D8FEF708
:1021200026FF00EB840086622846BDE8704007F079
:1021300010BA70BD70B516460C4605000BD0022CC7
:1021400009D8FEF714FF00EB840046632846BDE87B
:10215000704007F0FEB970BD06F045BC4FF48072C8
:102160000029114601D006F057BC06F067BC0029D3
:102170004FF0100101D006F04FBC06F05FBC70B507
:102180000C46154606464FF4807106F057FC207F3A
:10219000800703D5294630460AF0F3FD022D05D10C
:1021A000B4F92400BDE87040FEF707BD70BD000023
:1021B000A401002070B516460C4605461946304667
:1021C000049A09F00EFE024621462846BDE87040FA
:1021D00009F060BA08B500230093FFF7EBFF08BDD4
:1021E0007FB516460446B0F90820408A1D460023F4
:1021F000CDE90013CDE90202B4F90C00B4F91030B6
:102200004119B4F90A00B4F90E203044FFF73CFF3D
:1022100005466168FFF75DFF04B0284670BD10B544
:102220000C4601004FF0000007D0022C05D20846F2
:10223000FEF79DFE00EB8400806A10BD10B5010022
:102240004FF0000003D00846FEF791FE006C10BD71
:102250002DE9F04115460E46002815D0FEF787FE01
:10226000B0F94800002788B1FEF781FE80460BF0E8
:10227000A7FA0446681E844200DD04462246414611
:1022800030460BF05FFA3755BDE8F0813770FBE759
:1022900010B50C4601004FF0000007D0022C05D20B
:1022A0000846FEF764FE00EB8400406B10BD10B5DD
:1022B00001004FF0000005D00846FEF758FEC08C24
:1022C000C0F3002010BD7FB51C461546B0F90820AC
:1022D000438A0026CDE90232CDE90016B0F90C1090
:1022E000B0F91030B0F90E20B0F90A0021442844AA
:1022F00009F016FB04B070BD10B509F05BFB0128B6
:1023000000D0002010BD70B50C4605000CD0FEF7C3
:102310002EFE90F85010A14206D380F85140284676
:10232000BDE8704007F015B970BD00003D48006879
:1023300070473C4A01461068116070470EB5002294
:1023400001922A2202910092694606F07CFF0EBD9E
:102350000EB50021019102912A210091694606F0F3
:1023600072FF02980EBD2DE9F8431F460446DDE9D1
:10237000080300920D460246266839462046B047BB
:10238000074607F0D7FC8046618A384606F044FBD2
:1023900038460AF05FFE40460AF05CFE002609E07F
:1023A000009654F818CF00231A4641462046E047CD
:1023B0000AF050FE6D1E002DF2DC38460AF0CCFD0E
:1023C0001E2140460AF04CFD3846BDE8F88370B542
:1023D0000C460546FFF7BCFF10B10121C0E900140F
:1023E0002846BDE8704006F057BF1CB5002100919B
:1023F00001916946FFF7A2FF04E0FEF71DFB08B953
:102400000BF0D2FE00980028F7D001981CBD7CB5D7
:10241000DDE90645CDE90045FFF7A5FFBDE87C40B5
:10242000E3E70000C401002070B50C46050015D09C
:10243000FEF79DFDC18D01B1491E8C4200DD0C46A9
:10244000B0F92810A14209D00485284607F081F888
:102450002846BDE8704004210AF093BC70BD2DE908
:10246000FC47FEF784FD0546006AB5F95C70D0F8BC
:102470001490286CFEF7F2FB95F82600C00701D0F7
:10248000022600E00126B5F92810284600F0C5FA1A
:102490008046684607F040FC69464A46084607F011
:1024A00063FFBDF80600BDF80210441A641C2846FC
:1024B00006F0B9FBBDF8040005EB8606001BADF87D
:1024C0000400706C09F07CF8706C09F06DF86846D7
:1024D000FEF7E2FABDF800003844ADF80000BDF8A0
:1024E0000400C01BADF80400306D09F069F8B5F9BF
:1024F0005E2069464046FEF7F9F9684607F00CFC95
:1025000069464A46084607F02FFFBDF80400001B45
:10251000401CADF80000F94809F052F86846FEF793
:10252000BBFA002009F04CF8BDF90400BDF9001019
:10253000084400EBD0704710BDF90200BDF9061049
:10254000461D081A083800EBD070441006E03A190E
:10255000391B3046FEF71EFA641E761C002CF6DA94
:102560006946284606F061FBBDE8FC8770B5054664
:10257000B1F92C000C4610B9206C08F035FB216A2B
:10258000B4F95C20496900EB42000E18204607F0C0
:102590007BFC014632462846BDE870400AF01EBD6D
:1025A00010B501004FF0000004D00846FEF7DFFC34
:1025B000B0F9280010BD10B50446FFF7F1FF010087
:1025C00000D0411E2046BDE810402DE710B504465E
:1025D000FFF7E6FF411C2046BDE8104024E72DE947
:1025E000F041002827D011290FD013290AD007461F
:1025F0000C46FEF7BCFC0646204600F019FA0546DC
:10260000002415E0BDE8F041E0E7BDE8F041D2E785
:102610002146304600F001FA007800F009FAC0B215
:10262000A84204D121463846BDE8F041FCE6641CCE
:10263000F08DA042ECDCBDE8F0812DE9F04385B0DF
:102640005FEA00087DD0FEF792FC0446B0F8600017
:10265000002876D1404607F0DDFBFEF788FC0646F1
:10266000204607F011FC8146B4F92A50E78DD4E9E1
:102670000001CDE90301B6F902004242B6F90000BB
:10268000414203A808F02CFB94F86200800703D5B0
:10269000BDF80E00401B01E0BDF81200ADF80E00C1
:1026A000404607F0B7FB0222CDF80090CDE9015279
:1026B0000146BDF90E30BDF90C20002009F030FFB5
:1026C000064694F86200C00708D094F866103046B9
:1026D00009F08CFF0121304602F0A4F9002508E042
:1026E0002946204600F099F90146304602F091F85B
:1026F0006D1CBD42F4DB002504EB85002946426CCD
:10270000304609F053FF6D1C032DF5D3002504EB73
:1027100085002946026D304609F07EFF6D1C032DB1
:10272000F5D328343046A18F09F025FF3046A16942
:1027300009F008FF304607F08DFC268741463046F9
:1027400000E00AE009F044FFB4F90010304601F05F
:10275000E9FD012140460AF014FB05B0BDE8F08315
:1027600010B500280BD0FEF702FC0446B0F960005B
:10277000002804D006F090FD0020A4F8600010BDF1
:102780002DE9F041B0F9046004463046FEF7EFFB56
:102790000546B0F8600008B1012700E00027214697
:1027A000304606F063F900285ED020680F283ED03E
:1027B00006DC0B283FD00C282BD00E284FD143E04D
:1027C00011281ED026284AD1A068012809D00A283D
:1027D00002D00B2843D110E00A2130460AF0D1FA8A
:1027E0003DE0B5F9600001F074FE01463046FFF7A8
:1027F0001BFE304607F02EFC31E03046FFF7B0FFFD
:102800002DE007BBA068007AE8B13046FFF715FF5E
:1028100025E0A168304629B1097A09B1012102E019
:10282000022100E00321BDE8F0410AF0AABA3046D7
:10283000FFF715FE13E005F12E0009F0E0F9B5F9F8
:10284000600006F029FD0AE0A0684168002906DD65
:102850000168092903D03046BDE8F041BFE62046B3
:10286000BDE8F04107F02DB9E5E62DE9FF410BACDD
:102870001E46B4E888014824214DDDF828C09BB2EB
:10288000CDF800C00394CDE901354FF0FF3306F0D9
:1028900062FE050016D0FEF76AFB04461022414690
:1028A00006F0DEF884F862702022164904F1400038
:1028B0000AF048FF002084F8660066852146284615
:1028C000FFF754FE284604B0B5E670B50C46050087
:1028D00012D0002C10D0FEF74AFB064620460AF024
:1028E0006FFF421C214606F12E0009F05FF92846D1
:1028F000BDE8704006F02DBE70BD0000C0C0C00035
:1029000081270008C801002010B501004FF0000029
:1029100003D00846FEF72BFBC08D10BD2DE9F0411A
:102920000E46070024D0FEF722FB0446006C08F098
:102930005BF90546214638462664FFF717FE384600
:1029400006F007FEB4F86000002811D0206C08F0F3
:102950004BF9A84205D03846FFF702FF3846FFF78B
:102960006CFEB4F960003146BDE8F04109F0EABD03
:1029700061E62DE9F04116460D46070014D0032DFF
:1029800012D2FEF7F4FA044600EB8500466438469E
:1029900006F0DFFDB4F96000002805D03246294674
:1029A000BDE8F04109F002BE45E62DE9F0411646CA
:1029B0000D46070014D0032D12D2FEF7D8FA0446B4
:1029C00000EB85000665384606F0C3FDB4F96000EB
:1029D000002805D032462946BDE8F04109F01CBE6A
:1029E00029E610B50C46002810D0FEF7C0FA90F882
:1029F0006610A1420AD060308471B0F9000000284E
:102A000004D02146BDE8104009F0F0BD10BD0B49CF
:102A10000860704709480068704710B500242E30E0
:102A200009F049F910B1FEF7A2FA0446204610BD9C
:102A3000A0F14101192900D820307047C8010020B9
:102A40007FB51C461546B0F90820438A0026CDE91B
:102A50000232CDE90016B0F90C10B0F91030B0F91F
:102A60000E20B0F90A0021442844FFF7FEFE04B00E
:102A700070BD00002DE9F043044689B04FF0000816
:102A8000084609F077FF04EB8000806E08F08CFDAB
:102A9000206E08F095FDE06DFEF7E0F807A92046EE
:102AA00006F01EFD02A9204605F05FFFB4F92800DC
:102AB00010B1FEF75CFA8046DDE90201CDE90001C4
:102AC000BDF80010B4F8580004AA0144491CADF840
:102AD0000010BDF80410081A401EADF80400694645
:102AE0004046636D07F088FB94F82600C00745D088
:102AF000CDF8188094F8495005B90125B8F1000FB8
:102B00003CD094F8480008B9606C30B3404607F0F8
:102B1000CCFB216C814220DA606CA8B100250E4606
:102B20000AE03146404608F084F9404408F062F972
:102B3000FEF70BFB0544761CD4E910010844B042B3
:102B4000EFDC55B9012508E0404608F072F9404431
:102B500008F050F9FEF7F9FA0546DDE90460814610
:102B6000002708E006A808F051F9FEF7EEFA304415
:102B700060F30F067F1C206CB842F3D1002006F0F2
:102B80004DFE002822D06D1E37B24FEA29493D4440
:102B9000361402A80AF03EFA04AB6A4602A940467F
:102BA00009F056FE94F82600C00705D04B462A4689
:102BB0003146384608F01CF800200AF02BFA20466F
:102BC00006F031F806F003FE0028E2D109B0BDE8B6
:102BD000F08370B50546B0F928000C46002819D0DE
:102BE000FEF7C5F907F061FB95F8481001B1012126
:102BF000002C00DA0024844200DD0446B5F92A00E6
:102C0000401AA04200DA0446286CA04200D02C648E
:102C10000020686470BD2DE9F84F0C465FEA00099A
:102C200056D0FEF7A4F90546B0F9280000284FD089
:102C3000FEF79DF90090E86DFEF710F882464846D1
:102C400007F030F90746009807F088FF064695F828
:102C5000540000F00300012816D002280DD0296A84
:102C6000A86D49690844241A641E009807F01DFBEA
:102C70008046002C0EDA002121E0B81B401C00EB3E
:102C8000D070A4EB6004F0E7A96DB81B401A241AB9
:102C9000641CEAE7B44201DD014610E000273E462D
:102CA00008E0684608F0B2F8FEF74FFA0644A6427C
:102CB00004DC7F1C474501DAA642F2DB3946284690
:102CC000FFF787FF5046FDF7C9FF484606F041FC75
:102CD000BDE8F88F70B50446808D4618B4F9280019
:102CE000314608F0BBFA050009D0208D20B92846EE
:102CF000FEF73DF900210170A6852585012070BDF4
:102D000070B504460D46B4F92820002022B11046C3
:102D1000FEF72DF90AF054FDA18D2844411A491CF3
:102D2000002905DD10312046FFF7D4FF002800D030
:102D3000012070BD70B50546B1F928000C46002889
:102D400019D0FEF714F90646216C08F072F8044613
:102D500030460AF035FDA0420DD93444204608F033
:102D600045F8211820460AF03FFD2846BDE870408E
:102D700005210AF006B870BD70B504460020B4F90C
:102D8000281000290BD00846FEF7F1F80546216C03
:102D900008F04FF82844BDE8704008F02BB870BD2B
:102DA00070B50D4606007CD0FEF7E1F8040078D03F
:102DB000E26C1AB12946304690476DE0122D4BD097
:102DC00008DC082D50D00D2D66D0102D47D0112DC8
:102DD00008D11AE0132D29D01B2D5DD01D2D4ED00A
:102DE0001E2D47D0202D57DB94F8480018B12146FE
:102DF0003046FFF79FFFAAB22146304600F0D6F9D1
:102E000048B3216C491C20462BE0B4F9280010B3CC
:102E1000FEF7ADF80546216C08F00BF84419204682
:102E200007F0E8FF7F2837D2401C0FE0B4F92800F4
:102E300088B1FEF79CF80546216C07F0FAFF4419AB
:102E4000204607F0D7FF202826D9401E20700521F4
:102E5000304609F096FF1FE0216C491C01E0216C0F
:102E6000491EFFF7B6FE17E0216C491EFFF7B1FEC1
:102E7000214600E001463046FFF75CFF0CE094F885
:102E80004800012805D0012084F84800216CBAE7E9
:102E900007E0002084F848003046BDE8704006F0A6
:102EA00058BB70BD2DE9F041B0F9045004462846E6
:102EB000FEF75DF80646284609F05CFD0746214608
:102EC000284605F0D3FD00282DD020680B2814D00B
:102ED0000C2804D00E2815D00F281FD108E0A068B8
:102EE000E0B1017AD1B101682846FFF794FE15E000
:102EF00029463046BDE8F041BCE506F12800FEF762
:102F000083F80BE057B1A0684168002906DD01682D
:102F1000092903D02846BDE8F04141E72046BDE835
:102F2000F04106F0CEBDBDE8F0812DE9FF410C4631
:102F3000DDE90AE1DDE90D7689B25025DFF8E8C266
:102F400041F4805141F00201CDF800E00395CDE954
:102F5000011C214606F0FFFA05001FD0FEF707F816
:102F600004461022394605F07BFD1C22AF4904F1CE
:102F700054000AF0E7FB012084F8490006B908264E
:102F800031B261850020A0852085491C2046FFF7CD
:102F9000A1FE18B9284606F07FF90025284604B09E
:102FA000C1E770B50C46050009D0FDF7E0FF002829
:102FB00005D0C4652846BDE8704006F0CABA70BDA9
:102FC00070B515460C4606000DD0FDF7D0FF002861
:102FD00009D0022C07D200EB840085663046BDE89C
:102FE000704006F0B6BA70BD70B515460C460600C6
:102FF0000DD0FDF7BCFF002809D0022C07D200EB52
:10300000840005663046BDE8704006F0A2BA70BD87
:103010002DE9F0410E465FEA000884D0FDF7A7FFD6
:1030200004467EB3B4F92800002520B1FDF79FFFC8
:103030000AF0C6FB451C304607F037F90146B4F9E3
:103040002A00884200DA0146304607F0F2FE471CAB
:10305000791B2046FFF754FEE0B1B4F92800FDF7D4
:1030600086FF3A4631460AF06DFB7F1E2764B4F9AD
:103070002A0087420ED194F8480001280AD17F1E09
:10308000276407E0FFE704F12800FDF7BDFF0020FB
:10309000A08520644046BDE8F04106F05ABA42E7F8
:1030A0002DE9F04115460C001CD0002626700028A2
:1030B00018D0FDF75CFFB0F92800002812D0FDF70A
:1030C00056FF074607F0F1F80146A84200DD294601
:1030D000384607F0AEFE05460246394620460AF05D
:1030E00031FB66551FE710B501004FF0000003D01B
:1030F0000846FDF73CFFC06B10BD70B50C460500DF
:103100001AD0FDF734FF016BA14200DD0C46416B84
:10311000A14200DA0C46C16BA1420DD0C463016D1F
:1031200009B128468847284606F013FA2846BDE824
:103130007040052109F025BE70BD2DE9F0410D4616
:10314000060023D0FDF713FF0446B0F92A00A84279
:103150001CD00FDDB4F9280060B1FDF708FF074669
:1031600007F0A3F8A84205DD2946384607F061FEBE
:1031700000213954A08D291A491C2046FFF7AAFDC9
:1031800065853046BDE8F04106F0E3B9CBE670B5A1
:103190000C46050009D0FDF7EAFE002805D044657D
:1031A0002846BDE8704006F0D4B970BD2DE9F04165
:1031B0008046B1F92A0015460C4600280DDDB4F909
:1031C0002810002021B10846FDF7D1FE07F06DF868
:1031D000B4F92A10401C884223DC284607F012FE6E
:1031E000064601462046FFF78BFDD0B1B4F9280012
:1031F000FDF7BDFE0746216C07F01BFE3C1820467C
:103200000AF0DEFA421CA01921460AF09BFA294670
:10321000204607F0F3FD0521404609F0B2FD0120EC
:1032200081E600207FE60000A52E0008E8010020CE
:10323000F0B5044685B01D4616464069B4F908202D
:10324000638A0027CDE90232CDE900170490B4F972
:103250000C00B4F910304119B4F90A00B4F90E2089
:103260003044FFF762FE050002D0618AFFF78FFF4E
:1032700005B02846F0BD000070B50D460646FDF7C6
:1032800076FE040035D0102D30D0112D19D0122D1E
:1032900029D0132D21D0303D012D01D94FF0FF351C
:1032A000002D09DBE8B23246214600F067F8216CB8
:1032B0002046491CFFF78DFC3046BDE8704000F009
:1032C0004DB800F06DF8401C012800DD0020C0B2B0
:1032D0003246214600F052F8EEE700F061F8401E59
:1032E000F5D50120F3E7216C491CE3E7216C491E69
:1032F000E0E770BD2DE9F0411D4616460F465FEA36
:10330000000829D0FDF733FE2C49C1642C4904463E
:1033100001650021C4E90F71B0F92A100A1E06DC0C
:103320002846002101E04008491C0028FBD1202943
:1033300000DD20218A4202D04046FFF7FEFEC4E9AC
:103340000C65012084F84800404600F007F840462C
:10335000BDE8F04106F0FDB8BDE8F08138B5FDF7F5
:1033600006FE0446B0F92800FDF701FE009094F82F
:103370002A106A46E06B07F09BF838BD30B403466C
:1033800091F82A0091F84040C96B001B401E0124AF
:103390008440A143834030BC19431046FFF7ADBEC3
:1033A00090F82A1090F84020C06B891A491E01221B
:1033B0008A401040C840C0B270470000793200080F
:1033C0005D33000838B5FDF7D2FD0446B0F928009A
:1033D000FDF7CDFD009094F84A00012808D094F83C
:1033E000382094F82A10E06B6B4607F0A5F838BD3A
:1033F0006946E06B07F091F894F82A1094F83820A9
:10340000491EC9B2F0E710B5016C0446491CFFF72C
:10341000E0FB2046FFF7B0FC2E280DD1B4F92A00BE
:10342000216C401E814201DA491C00E0491E204601
:10343000BDE81040FFF7CDBB10BD30B403460C46CD
:10344000B0F92A00196C401A93F83810401E31B1B7
:10345000814204DA401E02E002EB82014A00401E73
:10346000FAD2D86B8118204630BCFFF746BE2DE952
:10347000F34F81B00C460198FDF779FD060066D048
:10348000132C44D006DC102C4FD0112C31D0122C30
:1034900004D12BE02B2C1BD02D2C20D0FFF76CFC63
:1034A000C0B22D2853D02B2851D0204600F0A9F8C7
:1034B00000284CDB81460198002400902546B6F98F
:1034C0002800FDF754FD82460027DFF870B15EE06A
:1034D000306C48BB3046019900F099F805E0306C3B
:1034E00010BB3046019900F09BF83046FFF78BFF88
:1034F0002DE0FFF741FCC0B22D2803D02B2801D0CE
:1035000001220DE03046019900F093F81FE0FFF72B
:1035100033FCC0B22D28F5D02B28F3D04FF0FF326A
:1035200030460199FFF789FF11E0316C491EFFF722
:1035300050FB3046FFF720FC2E2808D1316C0029C3
:1035400001DD491E00E0491C3046FFF742FB0198AF
:10355000BDE8FE4F36E7C01B316C401E814205D1ED
:103560005BF825106D1C01FB09440FE01AF8000000
:10357000804600F046F8002804DB5BF825106D1C3F
:1035800001FB0044B8F12D0F00D164427F1CB6F955
:103590002A00B842DFDC21460098FFF7AEFDA4E721
:1035A0002DE9F0471E46DDE9085A174688465FEACE
:1035B000000924D0FDF7DBFC04462148E0642148E3
:1035C00020650020C4E90F80C4E90C7684F83850E7
:1035D00084F84AA0012084F848004846FFF7F2FE2C
:1035E0002046FFF7C9FB2E2804D1216C2046491C38
:1035F000FFF7EFFA4846BDE8F04705F0AABFBDE87F
:10360000F0873038092801D94FF0FF307047C06B80
:103610000A46002803DA41421046FFF76EBD7047A4
:10362000C06B0A46002803DD41421046FFF765BD26
:103630007047C26B002A00DDF2E7E8E7501F06087A
:103640006F340008C5330008F0B40E46B0F92A10F4
:10365000046C01230C1B641E00E01B01641EFCD2E1
:10366000002A01DADB435B1CC06BC1183046F0BC9A
:10367000FFF743BD2DE9F0410D460646FDF777FC07
:10368000040039D0102D1CD0112D12D0122D15D0C0
:103690004FF0FF32132D0DD0A5F130073946092F19
:1036A00013D925F02001A1F1410005280CD83739A4
:1036B0000BE001223146FFF7C7FF1DE0216C491CDA
:1036C00018E0216C491E15E01146002914DB94F81E
:1036D0002A0094F84020801A401E80000F22824069
:1036E0008140E06B904301433046FFF706FD216CBB
:1036F0002046491CFFF76DFA3046BDE8F04100F066
:1037000034B82DE9F0411D4616460F465FEA000821
:1037100029D0FDF72CFC1D49C1641D4904460165F3
:103720000021C4E90F71B0F92A100A1E06DC2846F0
:10373000002101E00009491C0028FBD1082900DD17
:1037400008218A4202D04046FFF7F7FCC4E90C6525
:10375000012084F84800404600F007F84046BDE8E4
:10376000F04105F0F6BEBDE8F08138B5FDF7FFFB8E
:103770000446B0F92800FDF7FAFB009094F82A10EF
:103780006A46E06B06F014FF38BD0000753600088D
:103790006B37000870B50D460446FDF7E8FBB0F83E
:1037A0005C104FEA017225B1002A0DDB41F00801DF
:1037B00003E0002A08DA21F00801A0F85C10204696
:1037C000BDE8704005F0C5BE70BD10B501460020D3
:1037D00091F82620920607D5B1F94000002803D1C0
:1037E000886A07F0FDF9801C10BD2DE9F05F4FF0ED
:1037F00000080C460546C146B0F9426006F044FB9D
:103800008346284606F047FB824695F82600800648
:1038100001D5B5F944902846FFF7D7FF0746B5F91B
:103820004E0010B106F04AFB80462780A4F80280C3
:10383000ABEB060006EB0901A680401ECA192081E9
:1038400002EB0801E180AAEB0601491E6181A68115
:103850002082F019E681401E6082B5F9180022E04E
:10386000FDF785FBB0F90010B5F90020B0F9043080
:10387000891A9A1AB0F90230B5F90270DB1BB3420B
:103880000FD1037F1B0606D5B4F910208A4208DB4E
:10389000491E218205E0B4F90C10914201DC521C52
:1038A000A281B0F91A000028DAD1BDE8F09F2DE915
:1038B000F04F8BB0044605F0EBFE06464FF0000BD0
:1038C00006F0F0FA0546304606F0F8FA0646B4F976
:1038D000428069462046FFF788FF94F85C00C0F3F9
:1038E000C007B4F9500010B1FDF741FB8346BDF8A5
:1038F0000400ADF81400BDF80800ADF81800BDF8DC
:103900000E00ADF81600401CADF80E00BDF80C001E
:10391000BDF81210401CADF80C00BDF81000ADF859
:103920001A10401EADF81000A06AFDF797F9B4F91F
:103930005A3003A907AA5846099106F05DFCBDF963
:103940000010002001EB080A05F068FF002844D0B1
:10395000AAF1010904EB8707F86A07F025FE786BE6
:1039600007F02EFE07AB05A95846099A08F070FF2C
:10397000FE4807F025FE0021A8F101036A1E084653
:10398000FDF766F8BDF904200021521E731E08469B
:10399000FDF75EF8BDF90800731E401C6A1E002189
:1039A000FDF756F8BDF90A10731E491C6A1E002067
:1039B000FDF74EF8B4F944106A1E01EB09035146B5
:1039C0000020FDF745F8B4F94200022801DB05F0BC
:1039D000D2F905F0FCFE0028BED10BB0BDE8F08F97
:1039E000002800D0D6E670472DE9F041B0F9046018
:1039F000044688B03046FDF7BAFA0546D4F8088088
:103A0000476E05E079682046884700281ED13F6848
:103A1000002FF7D12068172848D00CDC0D2878D06B
:103A200004DC0B2873D00C2818D118E00F2812D012
:103A3000142813D12FE01F284AD0212876D0262819
:103A400037D02A280AD1A06818B1286608B0BDE886
:103A5000F081286E58E02846FFF729FF85E0A4682A
:103A6000002CF3D0207A0028F0D095F85C000007F5
:103A700002D4304606F0EEFA304606F0FBF895F830
:103A80005C00C006E2D5BA482146B0F900203046B5
:103A900009F01AFADAE769462846FFF7A6FE019907
:103AA000C8F800100299C8F80410CFE7B5F94C0027
:103AB0002AE0A0680228C9D1ADF81A60A068079072
:103AC00027200590B4F9060005A905F0BCFBBDE769
:103AD000A068012804D000213046FFF781FFB5E738
:103AE000B5F95E0009F028F920B1B5F95E0006F0DD
:103AF000B1FA04E035F94C0F09F02EFA6882012181
:103B00003046FFF76DFF0020A0609FE701E028E04E
:103B10000CE095F85C00000727D4A0688068F8B135
:103B2000007AE8B1304606F095FA1EE0A768BFB10A
:103B3000B7F90200314608F018FF20B101213046E4
:103B4000FFF728FE11E000213046FFF723FEB7F90A
:103B50000000314608F0F8FE10B13888A5F85E0084
:103B600003E005F15000FDF74FFA2146304604F01E
:103B70007DFF00288ED0204605F0A3FF66E72DE9E3
:103B8000FE43B0F904700446384606F043F9804617
:103B9000FDF7EDF90546866C2068172856D008DC3D
:103BA0000E283BD00F280BD014284FD015283CD11D
:103BB0004CE01F2818D0202829D0222835D143E0F6
:103BC000E86B6FF07041884203D007F0EDFCFDF721
:103BD000C9FC002E06D007CC8DE80700ADF80470B4
:103BE0006846B047BDE8FE83A0680028FAD0B5F962
:103BF0005E0020B1B84202D006F02CFA04E038464C
:103C000009F0AAF9A5F85E000020A060EAE703B079
:103C100021464046BDE8F04304F028BFA068416853
:103C2000002902DD0068092808D07EB1A4F80480CC
:103C300003B02046B446BDE8F0436047384609F07B
:103C40008BF9A5F85E00CDE7E86BDEE72046BDE81E
:103C5000FE4305F036BF10B50446B0F84C0086B000
:103C600018B9B4F84E00002829D069462046FFF75D
:103C7000BCFDB4F94C00A8B1BDF90620BDF9041093
:103C800009F05CF8BDF90A00BDF90610421ABDF949
:103C90000800BDF90410521C411A491CB4F94C002B
:103CA00009F09CF9B4F94E00002808D0BDF90610BF
:103CB000BDF902208A1ABDF9041009F03FF806B0D8
:103CC00010BD70B50D4604000CD0FDF750F9294623
:103CD000503006F056FB002804D02046BDE8704066
:103CE00005F037BC70BD2DE9F04F89B013AD129EC1
:103CF000B5E8100D44F480574825DFF878C0DDF8AA
:103D00005C90BCB200960395CDE9014C05F023FC14
:103D1000060048D0FDF72BF904463022514604F046
:103D20009FFE13492022091D04F1280009F00AFD15
:103D3000483400256582C4F80090A4F81480E58218
:103D4000E580E561483C04A92046FFF74EFD0A489E
:103D500041F2827100960395CDE90110BDF91A0078
:103D6000BDF91610431A5B1C08E00000AAAAAA00BD
:103D700004020020E93900087F3B0008BDF9182043
:103D8000BDF91400121A521C05F0E5FBA4F84C0012
:103D900042F20400074202D1304606F02CFA59469E
:103DA0003046FFF78EFF304609B017E670B50C4677
:103DB00005000CD0FDF7DBF8B0F95A10A14206D08F
:103DC000A0F85A402846BDE8704005F0C2BB70BD5F
:103DD00010B50C4600280AD0FDF7C9F830F85C1F72
:103DE00014B141F0100101E021F01001018010BD7B
:103DF000F0B587B01D46DDE90D7304460C9E00202A
:103E000005910290CDE90304CDE900023A4631461E
:103E10002846FFF768FF07B0F0BDF0B587B00CACDF
:103E20000DF10C0EB4E8E0100024CDE9005C029422
:103E3000AEE8D000FFF757FFEDE7F0B587B01546C5
:103E40001C46428A0DF1080C0C9FB0F908304668F8
:103E5000ACE8CC000022CDE90012B0F90C10B0F9AA
:103E60001030B0F90E20B0F90A0021442844FFF7C1
:103E70003AFF07B0F0BD2DE9F0410F46050012D022
:103E8000FDF775F80446FFF7A0FC06462046A7623A
:103E9000FFF7E1FE3146204607F097FD2846BDE8D2
:103EA000F04105F056BBBDE8F0812DE9F0410E462A
:103EB0005FEA00084FF0000515D0FDF758F8B0F99B
:103EC00040500446AE420ED0FFF77FFC0746A4F8F0
:103ED00040602046FFF7BFFE3946204607F075FDDB
:103EE000404605F036FB2846BDE8F08110B50024B9
:103EF000283007F0EFFE00B1441D204610BD2DE92B
:103F0000FF470446406838B3012802D002287DD11B
:103F100016E0B4F90000FDF72AF80546806CFCF7BE
:103F20009DFE06462846A168FFF7E0FF06F016FE54
:103F300004463046FCF792FE204604B0BDE8F08708
:103F4000B4F90000FDF713F80446806C06F04CFE4F
:103F5000B4F876100844F0E7B4F90000A668FDF75D
:103F600006F805463146283007F0A5FEFCF7FFFFAE
:103F7000074602A808F042FEFDF7AEF83979804600
:103F800095F87420C1F3400001F00101520703D5F8
:103F900018B961B900200DE008B103200AE0B5F9B5
:103FA0007200B042F6D195F82600C00701D0022079
:103FB00000E0012005EB8007386D07F0F5FA386E58
:103FC00007F0FEFA31462846FFF790FF81460220AF
:103FD00006F0E6FEFDF7C6FAD4E90312491C48468E
:103FE000FCF7A4FB95F8740040071FD5B5F97200E3
:103FF000B0421BD1A089ADF80000208AADF80200C4
:10400000BDF80C00ADF80400218A00E00EE0A8F134
:1040100001000844ADF80600386D6FF07F41081AC2
:1040200007F0CEFA0021684606F0DCFB002084E7AA
:10403000283007F0B9BD2DE9F0470E46814690467D
:10404000114606F1280007F045FE040001D06588FE
:104050006DB9B06CFCF702FE0746434602223146BA
:10406000484600F04CFC05463846FCF7F7FD04B125
:104070006580284662E72DE9F05F82464FF0000830
:10408000FCF775FF0746FFF7D3FF814600251CE0CC
:10409000294607F1280007F01DFE040001D02688FC
:1040A0006EB9B86CFCF7DAFD83462B46012239461F
:1040B000504600F024FC06465846FCF7CFFD04B1FC
:1040C0002680B04500DAB0466D1C4D45E0DB404629
:1040D000BDE8F09F2DE9F041804616460F460846A0
:1040E000FFF7A6FFB04210D97C6BB4420DDC00256F
:1040F00006E0224639464046FFF79DFF0544641C12
:10410000B442F6D32846BDE8F0814FF0FF30FAE71D
:104110002DE9F047884681460124FFF789FF0646CE
:10412000012816DD0025404600F0F8FB0746741E06
:1041300009D4224649464046FFF77DFF0544BD426B
:1041400001DC641EF5D5341B641E012C01DA01204C
:10415000F4E62046F2E63EB50546002000900190C8
:1041600002900C462846FCF702FFB0F9700010B927
:10417000284605F04FFE262100910294ADF8065026
:10418000694605F060F83EBD2DE9F041B1F9725085
:104190004E6B07460C46002D25DB0846FFF748FF0F
:1041A000A8421ADD606BA84217DC2A462146384631
:1041B000FFF790FF80462A4621463846FFF73BFF2F
:1041C00000EB0805384600F0A9FBA84205DAB4F96F
:1041D0007200A16B401A401C6063B4F97200616BFD
:1041E000884200DA606304F13000804608F0A6FCE3
:1041F00004F13C00054608F0A1FC2A464146384639
:1042000004F09EFC606B801B7DE710B5283007F042
:1042100061FD002802D000210180418010BD1CB545
:104220000446694608F0F2FC6946204605F064F948
:104230001CBD2DE9FC41151E0F4606461ADBFFF793
:1042400049FF041E16DB2A4639463046FFF7F3FEC7
:1042500005466946304608F0D9FCBDF802006D1EDF
:104260002044ADF802002844ADF806006946304607
:1042700005F042F9BDE8FC817CB50546002A10DB5B
:10428000FFF728FF041E0CDB6946284608F0BEFC39
:10429000BDF8020069462044ADF80200284605F04A
:1042A0002BF97CBD70B591F87540054614B908F03E
:1042B000FDF90446FF21284605F06CFD0646FE2167
:1042C000284605F067FD05462146304608F028FAE5
:1042D00021462846BDE8704008F022BA7CB5054664
:1042E00000F027FB2846FCF742FE0446FFF7A0FE3D
:1042F000206329462046FFF70BFFA0636946284646
:1043000008F084FC2846FFF7B6FEE063BDF9040020
:10431000BDF90010401A401C606421462846FFF792
:1043200033FF7CBD2DE9F0410C46060037D0FCF789
:104330001EFE0546FFF77CFE00B1401E844200DDF4
:1043400004464FF0FF37002C0ADB214605F1280018
:1043500007F0B1FC28B1FCF70AFE0079800700D510
:104360003C46B5F97270A74219D0A5F872402946AB
:104370003046FFF709FF18B13046FFF750FF09E05C
:104380003A4629463046FFF754FF22462946304632
:10439000FFF74FFF3046BDE8F0410421DBE6B2E60F
:1043A0002DE9F04180468CB014460D460846FFF7D3
:1043B0003FFE0746A86CFCF751FCA0680168079116
:1043C00040680890B5F902004242B5F90000414248
:1043D00007A806F085FC09A9404608F017FC09A9C2
:1043E00007A805F07BFFBDF81C00ADF81400BDF870
:1043F0002000ADF8180000200190ADF80080BDF954
:104400002400296C401A0390BDF9260004906C6BBF
:1044100026E000B2BDF92210ADF81600884221DC7A
:10442000224629464046FFF706FE0646BDF816100E
:10443000401E084400B2BDF91E10ADF81A008842B3
:104440000ADB05A808F0E6FD0294E96A684609B1AE
:10445000884701E0FFF753FD0498641C3044049042
:10446000BC42D6DB002008F0D5FD0498ADF816005C
:10447000BDF82A00ADF81A00286D07F095F805A8D8
:1044800006F0BCF8284604F0CEFB0CB03BE670B555
:10449000064691F874000C461546400718D511469B
:1044A00004F1280007F007FC002811D0FCF75FFD9D
:1044B00001798A070CD481F0010101710421304691
:1044C000FFF749FE2A4621463046BDE87040B0E677
:1044D00070BD10B501004FF0FF3004D00846FCF766
:1044E00046FDB0F9720010BD2DE9F0470F46814638
:1044F0004FF0FF35FCF73BFD80464846FFF7E9FFEC
:1045000004464046FFF794FD064608F12808E419E2
:104510000FD4B4420DDA2146404607F0CCFB28B157
:10452000FCF725FD0079800700D42546002DEEDB41
:1045300001E0002D04DB29464846BDE8F047F1E6DE
:10454000FCE4002802D04FF0FF31CDE7704700288F
:1045500001D00121C8E770472DE9F0410C4606461D
:10456000FCF705FD122C1CD004DC102C25D0112CDE
:1045700004D130E0132C2AD0202C0BD0204600F0A0
:1045800015FAA0F16101192929D93038092826D94D
:104590000020B8E5B0F9722001463046FFF777FFFA
:1045A0003BE0B0F84C20016C11440AE03046FFF7C4
:1045B00095FE3046FFF733FE2FE0B0F84C20016C3B
:1045C000891A3C3008F0E0FA0028EFD125E03046A7
:1045D000FFF7BDFF21E03046FFF7B3FF1DE0304697
:1045E000FCF7C5FC0746204600F0E0F9054600242C
:1045F0000EE021463846FFF779FC007800F0D6F946
:10460000A84204D121463046FFF78CFE05E0641C29
:104610003846FFF70DFDA042EBD8012073E50200FC
:104620004FF0000001D0104696E770472DE9F047A3
:104630000446B0F9040086B08146FCF798FC0546B4
:104640002146484604F012FA0028206809D00E28B6
:104650007DD00DDC05287BD00B287AD00C2835D1F5
:1046600083E01F2876D1A068002873D10B217AE05F
:104670000F2830D0112834D0262827D1A06805284B
:1046800002D0062822D122E0484605F0CEFB0146A2
:10469000B4F90600814205D102A905F0C9FB0398CF
:1046A00068630CE0484605F0BDFB0146B4F906001E
:1046B00081427DD102A905F0BBFB039828644846DE
:1046C000FFF7ADFD0A214846FFF745FD70E048467B
:1046D000FFF704FE6CE0224629464846FFF760FEDD
:1046E00066E0A068017AB1B3D0E900474FF0FF3827
:1046F0006946484608F08AFABDF90000A0421FDC6E
:10470000BDF90200B8421BDCBDF90400A04217DB72
:10471000BDF90600B84213DB2846FFF789FC824644
:10472000BDF902606C6B09E0B74200DBA04622468F
:1047300029464846FFF77FFC0644641C5445F3DBDA
:10474000B8F100040EDB42462946484604E01EE06C
:1047500028E017E014E024E0FFF799FE21464846E0
:10476000FFF7E0FD0121484608E0A168484621B175
:10477000097A002904D1022100E00321FFF7EBFCB4
:1047800006B077E405F1280007F039FA10E0A068D8
:10479000416800290CDD01684846FFF740FF00280A
:1047A000EED105E04846FFF799FD484604F0D1FEFA
:1047B000204605F086F9E3E72DE9F0410C460600B6
:1047C00026D0FCF7D4FB0746FFF732FC0546AC4287
:1047D0001EDA002C0FDA002404E021463846FFF7E9
:1047E00014FD641CAC42F8DB3046FFF777FD304621
:1047F000BDE8F04113E521463846FFF706FD304697
:10480000FFF76CFD224639463046BDE8F04133E5FE
:1048100079E42DE9FC410D4606002CD0002D2AD06C
:104820000020009001903046FCF7A1FB0746284687
:1048300008F0C6FF821D07F128006946804607F090
:10484000B5F9002817D1404607F0AEF9441E2146BD
:10485000404607F03FFA2946401D08F0C5FF2146B3
:104860003846FFF7D2FC3046FFF738FD224639467E
:104870003046FFF7DEFCFDE470B50D46060010D0B3
:104880004DB1002403E03046FFF7C3FF641C55F828
:1048900024100029F7D13046BDE870404FF0FF31B9
:1048A0008AE770BD2DE9FF410C46DDE90AE1DDE94B
:1048B0000D655827DFF800C189B2CDF800E00397F5
:1048C000CDE9011C214604F046FE040014D0FCF79B
:1048D0004EFB07461022314604F0C2F82822374921
:1048E00007F1480008F02EFF1DB129462046FFF7CA
:1048F000C3FF2046FFF7F2FC204604B003E400B5F6
:1049000085B00192ADF800000293C96A684611B102
:10491000884705B000BDFFF7F2FAFAE71CB5694613
:1049200008F074F9BDF90600BDF90210401A401CE8
:104930001CBD7CB50546FCF71AFB044690F87400D4
:1049400080070FD529462046FFF7E2FB06462046A2
:10495000FFF76EFB864201D2012100E000212846CC
:1049600005F0E2FB94F87400C00715D02846FFF765
:1049700082FB06466946284608F048F9BDF904005E
:10498000BDF90010401A401C864201DD012100E003
:104990000021284605F0C7FB94F87500002804D0D4
:1049A00021462846BDE87C407CE47CBDA0F1410165
:1049B000192900D8203070472D4600082802002011
:1049C00070B586B01C461546468A0022B0F90830FC
:1049D000CDE901260091CDE90332B0F90C10B0F910
:1049E0001030B0F90E20B0F90A0021442844FFF736
:1049F00059FF06B070BD70B50C46050011D0FCF72C
:104A0000B6FA90F8741021F001020CB142F00102E4
:104A1000914206D080F874202846BDE87040FFF728
:104A20005DBC70BD70B50C46050011D0FCF79FFA57
:104A300090F8741021F002020CB142F0020291428F
:104A400006D080F874202846BDE87040FFF746BCC9
:104A500070BD000010B50446C06D002806D1206D61
:104A600006F0C2F8A16D002900D0401C10BD7CB535
:104A70000E460124694608F0C9F8B6F9280007F087
:104A800008FDBDF90610BDF90220891A0D1A6D1C2A
:104A90003046FFF7DFFF18B1B5FBF0F404B901248D
:104AA00020467CBD2DE9F04F80468FB017460C465E
:104AB000B1F9280007F006FD089004F12A000C90D7
:104AC00007F072F8064621464046FFF7D0FF0090F7
:104AD0002046FFF7BFFF0290206E0390606E0190AA
:104AE000206AD0F814A0B4F9280007F0D2FC00EB3B
:104AF0000A050098E16E401CB04201DC009E761C65
:104B000088190D90B8680168049140680590B4F95F
:104B100002004242B4F90000414204A806F0E0F865
:104B200006A9404608F072F806A904A805F0D6FBCD
:104B3000206C06F045FD206DFCF790F8022006F091
:104B40002FF9E06EA1E001460C9807F0C3F8099038
:104B500000287CD028B2BDF91610ADF81A008842A2
:104B600076DC0298BDF9121028440B90401E00B26A
:104B7000ADF81E0088426CDB616D414507D194F8A9
:104B80002600C00701D0022602E0012600E0002630
:104B900004EB8609D9F8340006F006FDA06D20B1BB
:104BA000BDF81E00401EADF81E00A16F0027AAEB45
:104BB000010559E0B4F92800394607F002FA014628
:104BC00028B2BDF91420ADF8180090424FDC6818E7
:104BD0000A90401E00B2BDF91010ADF81C008842CA
:104BE00040DB3946099807F075F80546B0F9000032
:104BF00050B1FCF7BCF9834650F8260006F0D4FC0F
:104C00000BEB8600C06801E0D9F8400006F0D8FC44
:104C1000BDF91E30BDF91C20BDF91A10BDF91800F0
:104C2000FCF774FCBDF8181003980844ADF81800A0
:104C3000BDF81C100198081AADF81C00394604F1A3
:104C40002E0007F047F8026806A9A81C02E01AE047
:104C500020E017E0FBF74AFE288818B1D9F83400A5
:104C600006F0A2FC0A9D7F1C08988742A2DBBDF9D2
:104C70001420AA4206DBBDF91E30BDF91A102846E1
:104C8000FCF744FC0B9D08F101000D998046884219
:104C9000FFF659AFBDF91600A8420BDB606B06F0BA
:104CA00083FCBDF91630BDF91420BDF9100029466A
:104CB000FCF72CFCA06DE8B3E06C06F081FCB4F9C5
:104CC000280007F0E6FB00EB0A056D1E002611E048
:104CD00002980544BDF91600A8420EDBBDF912008A
:104CE000A84206DCBDF91420BDF910102846FBF7D8
:104CF00051FE761C00988642EADBA16F0026AAEBE3
:104D0000010515E0B4F92800314607F05AF90544C9
:104D1000BDF91400A84210DBBDF91000A84206DC62
:104D2000BDF91620BDF912102846FBF757FE761C78
:104D3000089800E001E08642E4DB204603F073FFC0
:104D40000FB0BDE8F08F7CB50546B1F9280007F03B
:104D5000A0FB04466946284607F058FFBDF802004C
:104D600069462044ADF80200284604F0C5FB7CBD2E
:104D70002DE9FC41161E0D4680461DDBB5F92800C5
:104D800007F087FB07462846FFF764FE044669469E
:104D9000404607F03BFFE96EBDF90200711A01FBC6
:104DA00004003844ADF80200641E2044ADF806004B
:104DB0006946404604F0A0FBBDE8FC813EB50546CF
:104DC00000200090019002900C462846FCF7CFF896
:104DD000B0F9800010B9284605F01CF82621009192
:104DE0000294ADF80450694604F02DFA3EBD2DE959
:104DF000F0410C46CD6E496D804604F168060029ED
:104E000005DB00231A46304607F0A6FE02E03046D6
:104E100007F094FE04F17400074607F08FFE3A464F
:104E20003146404603F08CFEE06E401BBDE8F08149
:104E30002DE9FC4780460D4601F12A0006F0B4FE3C
:104E4000044629464046FFF712FE286704B90124AC
:104E500040466946AC6607F0D9FEBDF9040001245E
:104E6000401CE867B5F92800814607F02BFB0700D6
:104E70000AD00026344605E03146484607F0A1F83E
:104E80000444761CBE42F7DBD5E91E01621A90424B
:104E900002DD201A081A0444294640466C67BDE822
:104EA000FC47A4E710B5044600F01DFA002805D021
:104EB000411E2046BDE8104007F0C5BB10BD10B52F
:104EC000044600F010FA411C2046BDE8104007F0EF
:104ED000BABB2DE9FE4FB0F90460054601463046E5
:104EE00003F0C4FD002823D03046FCF740F8044608
:104EF00028680E2868D006DC052848D00B2875D015
:104F00000C286FD14EE00F2846D025283FD0262808
:104F100068D1A86805280DD0062838D0072807D101
:104F2000B5F90600B4F92810884201D10020208587
:104F3000BDE8FE8F304604F078FF0146B5F9060063
:104F4000814209D1694604F073FF0198E066214669
:104F50003046FFF7F8FE15E0304604F063FF0146E7
:104F6000B5F906008142E3D1694604F061FF01987A
:104F7000A06721463046FFF75BFFB4F92800A16F18
:104F800007F0EDF90A213046FFF718FFD0E7214678
:104F90003046FFF74DFFCBE72A4621463046FFF764
:104FA00081FDC5E7AA6821465AB1107A38B130466A
:104FB00000F01FF90124304605F04CF802E002240D
:104FC00000E003242146DEE7A868416800293ADDB5
:104FD00001683046112906D0132934D1FFF76FFF3D
:104FE000A6E703E02FE0FFF75DFFA1E704F12A0049
:104FF000834606F0D9FD814604F12E00824606F074
:10500000D3FD0746002616E03146584606F062FEFC
:105010008046002409E02146404606F05BFEB0F9D8
:10502000000008B1FBF7EBFF641CBC42F3DB404619
:1050300006F0E5FD761C4E45E6DB504606F0DFFD4A
:10504000584606F0DCFD284604F03BFD70E72DE9EC
:10505000FF410646DDE90A4742EA03000D463043B8
:10506000DDF8348028430FD16946204604F046FE1F
:10507000BDF90400BDF90010421ABDF90600BDF9E2
:105080000210521C431A5B1C6421DFF8E8C1B8B25D
:10509000CDE902C1CDE900402946304604F05BFA73
:1050A000050023D0FBF763FF04461022414603F0BE
:1050B000D7FC2022704904F1340008F043FB0020A3
:1050C000411EC4E915100121C4E9170161660221DE
:1050D0000095CDE90110034602460146039007F012
:1050E0004EF8208521462846FFF7A2FE284604B048
:1050F0009CE62DE9FF4114460D465FEA00082BD0DF
:10510000FBF735FF0646B0F9280022462946039BE7
:1051100007F03CF9042203A906F12E0006F046FD33
:10512000404600F0D2F805000ED0002406F12A0710
:1051300008E02146384606F0CDFD0522002106F0A4
:1051400035FD641CAC42F4D331464046FFF770FE97
:1051500031464046FFF7F7FDBDE8FF812DE9FC5FD2
:105160000C465FEA000B42D0FBF701FF82462A3073
:105170000546019006F018FD009004220021284603
:1051800006F014FD002832D1BAF9280007F09AF988
:10519000814600251EE0DDE9001006F09BFD8046FB
:1051A0000CB180CC00E0002707B90024384605F098
:1051B00008F9461C421D0021404606F0F7FC29462E
:1051C000404606F087FD012E03DD3946801C08F0BD
:1051D0000BFB6D1C4D45DEDB51465846FFF728FEA4
:1051E000009A02B051465846BDE8F05FC0E5BDE800
:1051F000FC9F2DE9FC41074614460D46B1F92800F5
:1052000007F047F906466946384607F0FFFCBDF946
:10521000022063682068A3EB0203BDF90010A3EB32
:105220000604BDF80430401AA3EB010109B2ADF841
:105230000410BDF80630A3EB020212B2ADF806204E
:1052400017D4814215DB002C13DB901BA04210DB2E
:105250002846FFF7FFFBB4FBF0F0E96E441805F1B8
:105260002A0006F0A1FCA04203D92146384607F0E7
:10527000EAF9A1E5D34E0008500200207FB51C4694
:105280001546B0F90820438A0026CDE90232CDE95F
:105290000016B0F90C10B0F91030B0F90E20B0F9CA
:1052A0000A0021442844FFF7D2FE04B070BD10B5B7
:1052B00001004FF0000007D00846FBF758FEBDE89C
:1052C00010402E3006F070BC10BD10B501004FF03C
:1052D000000007D00846FBF74AFEBDE810402A3020
:1052E00006F062BC10BD10B501004FF0FF3003D0D6
:1052F0000846FBF73CFE406D10BD2DE9F0410E461F
:1053000007004FF000050ED0FBF731FE856D044617
:10531000AE4208D001463846A665FFF789FD214612
:105320003846FFF710FD2846BDE8F0812DE9F0472B
:10533000994616460F465FEA000826D0FFF7B7FFEA
:10534000B84222D94046FFF7C0FFB0421DD94046BF
:10535000FBF70DFE0546484605F033F8441C314680
:1053600005F12A0006F0B6FC221D394606F0DCFCE9
:10537000012C03DD4946801C08F036FA32462946E6
:105380004046BDE8F047FFF7F3BCBDE8F08770B5D5
:105390000C4605000BD0FBF7EAFD0146006EA0426B
:1053A00005D028460C66BDE87040FFF7CCBC70BD48
:1053B00070B50C4605000BD0FBF7D9FD0146406ED9
:1053C000A04205D028464C66BDE87040FFF7BBBC44
:1053D00070BD000070B50168B0F904400E290ED010
:1053E0001E2905D0262915D0BDE8704004F069BB00
:1053F0002046BDE870406FF07F4106F0C4BB806876
:10540000D0E90010002814D00D290CD01B2910D190
:10541000012109E08568B0F9060004F0CAFC022DFC
:1054200007D1012805D100212046BDE87040FCF7D6
:10543000CEBF70BD2DE9F74F96B08B4606F056FBF8
:1054400080463A2101EB4804482102A808F0A1F95E
:1054500007F0F6F9FBF702FC0090FF2214A816995A
:1054600005F086FBBDF95400BDF95010451ABDF991
:105470005610BDF9520008350E1A761C05F10C00C5
:10548000844200DA044606F00EFB05F0A9FB311851
:1054900001EB48072137584605F060FB00EB480058
:1054A000A04200DD044606F0DDF8A04202DA06F074
:1054B000D9F8044606F0D9F8B84202DA06F0D5F871
:1054C000074606F0CFF8001B00EBD0704FEA600AE9
:1054D00006F0CBF8C01B00EBD0704FEA60090098D3
:1054E000FBF7BCFB2948CDE9020BADF812A01898D8
:1054F000ADF81490ADF81640ADF81870C00602D59E
:105500001020ADF81A002248089016980990611BE7
:10551000C8F1000001EB400101EBD1714910ADF879
:105520002A100421ADF82C1002210D9119490E9179
:1055300019A10F9104EB4000ADF82E500121323833
:10554000ADF8401000EBD070ADF830604010ADF811
:1055500042000836ADF844603220ADF84600142011
:10556000ADF8480000200090034601900B4A03214B
:1055700002A8FCF7F8FE19B0BDE8F08F10B5FFF7F0
:1055800059FFBDE81040FCF730BF00003B3E00086B
:105590006B880008E12100084F4B0000D55300083C
:1055A0002DE9F04105460C460026B0F93800FBF71E
:1055B000DEFC0746E98F05F03CFCC219944204D298
:1055C000111B204605F046FC06463046BDE8F0813A
:1055D000F7B50D4601F0E9F8064695F87400800627
:1055E00032D528460299FFF7DBFF074695F8782069
:1055F0003146029804F0EFFE0446B84222DB95F8EB
:10560000780068B13C462146029801F0E3F805466F
:105610003946029805F00DFC0299084402900CE00E
:10562000029804F042FE04460CE02A20FBF78DFDB0
:1056300005440CB1B54205DC641C02A805F0E6FB8C
:105640000028F2D12046FEBD95F878203146029818
:1056500004F0C1FEE7E72DE9F04115460C46074688
:1056600001F0A3F8014694F87400800615D5294688
:105670002046FFF795FF06462A4621463846FFF7A3
:10568000A7FF04460146284605F0D3FBB4429DDA45
:10569000295C0A299AD1401C98E794F8782028467A
:1056A000BDE8F04104F0FABE10B50C4690F8741055
:1056B000890603D52146FFF773FF30B1204605F078
:1056C00099FBBDE81040FBF740BD2A20F9E72DE922
:1056D000F041804614460D46B1F93800FBF747FC0F
:1056E000B5F852100746A0B2A14218D008D2B5F8BA
:1056F0005020A5F8520002EB0706A4EB010409E0D4
:105700003E46A5F8520005E0324629464046FFF7DE
:10571000A2FF0644641EF7D2F01BA5F85000B5F8AE
:105720005000384452E72DE9F04788468146144638
:1057300000251946104605F07CFBB8F850102718D4
:1057400081421EDA0C44B8F852501AE02246414613
:105750004846FFF73DFF0146204605F06AFB061963
:10576000224641464846FFF776FF0444B74207D831
:10577000B7420AD1A64208D1207830B16D1C04E0AE
:105780006D1C207808B1A742E0D82846BDE8F08714
:105790002DE9F047054691F87500994692460C466A
:1057A00000072ED500273E46206FFBF757FAB4F9C5
:1057B0003800C8B1FBF7DBFBB4F84A10B4F8467008
:1057C00001EB00083A4621462846FFF780FF0546D0
:1057D00008E029462046FFF767FF0644284605F003
:1057E00005FB05444545F4D3A4F84C60FBF774FC75
:1057F0007843A4F84E0094F8750020F0080084F86F
:10580000750034F84C1FCAF800106188C9F8001000
:10581000BCE77CB50C4605466B4601AAFFF7B8FF0E
:10582000206F05F0E1F90099002391FBF0F11A4691
:1058300004F15800009107F08FF91E231A4604F175
:105840006400019907F088F9284601F013F87CBD3F
:105850002DE9F047814691F875000C46400736D592
:105860000020A4F84200208F58B3206FFBF7F6F910
:10587000B4F93800FBF77BFB064632462146484622
:10588000FFF7A6FE80460025374608E03946204649
:10589000FFF70AFF0544384605F0A8FA0744B8F1B7
:1058A0000108F3D2B4F84200A84201DAA4F8425049
:1058B000324621464846FFF7CEFE0644307800289F
:1058C000DBD194F8750020F0040084F87500B4F87A
:1058D00042005BE72DE9F041804691F875000C46E7
:1058E000800729D5B4F938000026E0B1FBF73FFB6B
:1058F0000546206FFBF7B2F92A4621464046FFF7DE
:1059000067FE0146284605F094FA284405F072FA2D
:10591000070000D0761C2A4621464046FFF79BFE32
:105920000544002FE8D1761CA4F8406094F8750077
:1059300020F0020084F87500B4F8400046E670B527
:105940000546FBF714FB044601462846FFF7C2FF55
:10595000A0652146284600F09AFF20662146284689
:10596000FFF776FF60662146284600F01EFFE066DE
:1059700021462846BDE870404BE770B5064691F8D1
:1059800074000C4600071DD5304600F080FF054628
:1059900021463046FFF79EFF854201DA012500E0EF
:1059A00000252946304604F0BFFBA8420AD094F8EF
:1059B000750040F00E0084F875002046BDE8704088
:1059C00000F051BF70BD70B50546FBF7D0FA064632
:1059D00001462846FFF7D1FF96F87400C00617D598
:1059E0003146284600F0E1FE044631462846FFF7DE
:1059F0002FFF844201DA012400E0002421462846DA
:105A000004F091FBA04203D031462846FFF7B5FFD2
:105A10002846BDE8704092E72DE9FF5FB1F93800F4
:105A2000DDF838B0994614460D46002852D0FBF7F1
:105A30009EFA8046284600F0A3FEE98FA14200DDD1
:105A40000C46844200DD04462146404605F0F1F94B
:105A500007462346424629460098FFF764FE06465D
:105A600008EB070A324629460098FFF730FE5045FA
:105A700025D9B5F84810A1420FDB721E29460098BF
:105A8000FFF725FE0446024629460098FFF7A0FDD1
:105A90000146204605F0CDF92044A0EB0801404620
:105AA00005F0D8F904460146404605F0C2F907461C
:105AB0002346424629460098FFF735FE0646B9F1CF
:105AC000000F01D0C9F80070BBF1000F01D0CBF876
:105AD0000060204604B0BDE8F09F3EB5054602A830
