S31508000000E01201206D020008FD1A00089B1700087F
S31508000010F91A00089D0300089F1E0008000000004A
S31508000020000000000000000000000000AD0100080C
S31508000030AD0300080000000009020008011B0008C3
S31508000040870200088702000887020008870200085E
S31508000050870200088702000887020008870200084E
S31508000060870200088702000887020008870200083E
S31508000070870200088702000887020008870200082E
S3150800008087020008870200088702000800000000AF
S3150800009000000000000000000000000087020008C1
S315080000A087020008FD1B000887020008870200086F
S315080000B087020008870200088702000887020008EE
S315080000C087020008870200088702000887020008DE
S315080000D0870200088702000887020008000000005F
S315080000E0870200088702000887020008000000004F
S315080000F00000000000000000000000008702000861
S31508000100000000008702000887020008870200082E
S3150800011000000000000000000000000000000000D1
S31508000120870200088702000887020008870200087D
S315080001308702000800000000000000000000000020
S315080001400000000000000000000000008702000810
S31508000150870200088702000887020008870200084D
S31508000160870200088702000800000000000000005F
S315080001700000000000000000000000000000000071
S3150800018000000000870200080000000000000000D0
S315080001908702000887020008DFF80CD000F0ECF8A8
S315080001A000480047FB1E0008E01201202C4B196886
S315080001B00868B0E8F04F80F30988BFF36F8F4FF0F7
S315080001C0000080F3118870470000000008480068A6
S315080001D0006880F308884FF0000080F3148862B640
S315080001E061B6BFF34F8FBFF36F8F00DF00BF00BF4D
S315080001F008ED00E0DFF80C00016841F470010160C9
S31508000200704700BF88ED00E0EFF30980BFF36F8FFA
S31508000210134B1A681EF0100F08BF20ED108A20E94C
S31508000220F04F106009B44FF0500080F31188BFF307
S315080002304F8FBFF36F8F02F03FFF4FF0000080F340
S31508000240118809BC19680868B0E8F04F1EF0100F4D
S3150800025008BFB0EC108A80F30988BFF36F8F704728
S3150800026048000020EFF305807047000006488047E5
S3150800027006480047FEE7FEE7FEE7FEE7FEE7FEE77D
S31508000280FEE7FEE7FEE7FEE7E91B0008990100081E
S315080002902DE9F05F0546002092469B4688460646AD
S315080002A0814640241BE0284641464746224600F040
S315080002B053F853465A46C01A914110D31146184668
S315080002C0224600F03AF82D1A67EB01084F462246F7
S315080002D00120002100F031F817EB00094E41201EDD
S315080002E0A4F10104DFDC484631462A464346BDE808
S315080002F0F09F40EA01039B0703D009E008C9121FD3
S3150800030008C0042AFAD203E011F8013B00F8013BC1
S31508000310521EF9D27047D2B201E000F8012B491EED
S31508000320FBD270470022F6E710B513460A46044684
S315080003301946FFF7F0FF204610BD202A04DB203AB5
S3150800034000FA02F1002070479140C2F1200320FA1A
S3150800035003F3194390407047202A04DB203A21FA18
S3150800036002F00021704721FA02F3D040C2F12002C0
S315080003709140084319467047064C074D06E0E06869
S3150800038040F0010394E8070098471034AC42F6D3CE
S31508000390FFF706FFF43F00081440000800BFFEE719
S315080003A000BF012001F0C4FDFBE77047704772B635
S315080003B000BFFEE7F8B502460B46002500240020DC
S315080003C00021C7E0012606FA01F51E6806EA0504BB
S315080003D0AC4274D11E7906F00306012E04D01E79AC
S315080003E006F00306022E13D190684F000326BE407E
S315080003F0B0434F00DE68BE40304390605068012627
S315080004008E40B0431E79C6F300168E4030435060C6
S315080004101E7906F00306032E09D0D0684F0003267E
S31508000420BE40B0434F009E68BE403043D0601E7940
S3150800043006F00306022E13D1CF0802F1200656F85D
S3150800044027004E07F70E0F26BE40B0434F07FF0E94
S315080004501E69BE403043CF0802F1200646F8270041
S3150800046010684F000326BE40B0431E7906F0030607
S315080004704F00BE40304310605E6806F44036002EDA
S3150800048067D000BF00260096344E366846F480468C
S31508000490324F3E603E46366806F48046009600BFF8
S315080004A000BF2F4E8F0856F827008E07370F0F26E6
S315080004B0BE40B0432B4EB24202D1002615E048E0BA
S315080004C0294EB24201D101260FE0284EB24201D18F
S315080004D002260AE0264EB24201D1032605E0254E41
S315080004E0B24201D1042600E007268F073F0FBE401F
S315080004F030431B4E8F0846F827001F4E3068A0432E
S315080005005E6806F4801606B120431B4E3060361D21
S315080005103068A0435E6806F4001606B12043164EFE
S31508000520361D3060144E361F3068A0435E6806F4E8
S31508000530003606B12043104E361F3060361F30682D
S31508000540A0435E6806F4803606B120430A4E083E8C
S315080005503060491C1029FFF435AFF8BD4438024015
S31508000560083801400000024000040240000802402A
S31508000570000C024000100240083C01400AB18161AB
S3150800058001E00B048361704701480068704700006A
S315080005901000002003480068034909780844014907
S315080005A008607047100000201800002010B50D489C
S315080005B0006840F400700B4908600846006840F47B
S315080005C0806008600846006840F480700860032070
S315080005D000F0C8F80F2000F007F800F04BF80020EC
S315080005E010BD0000003C024070B588B004460025E6
S315080005F0002600222146192000F076F8192000F07E
S3150800060063F800BF002001901648006840F001001A
S31508000610144908600846006800F00100019000BF10
S3150800062000BF02A903A800F073F900F099F905467E
S315080006300D48B5FBF0F0461E0C480D49086040F21F
S31508000640E7310B48C160466000210161816000F016
S315080006508DFD20B9064800F0D7FD08B070BD012011
S31508000660FBE700004438024040420F00000001400A
S31508000670F007002008B500BF002000901148006868
S3150800068040F480400F4908600846006800F480403E
S31508000690009000BF00BF00BF00200090081F006840
S315080006A040F08050091F08600846006800F0805036
S315080006B0009000BF00BF00220F21901E00F014F822
S315080006C008BD00004438024001460846002809DBF8
S315080006D000F01F0301229A4043099B0003F1E0231F
S315080006E0C3F8002100BF70472DE9F05F80460D462C
S315080006F01646002701F0D6FB074639462A463346F2
S3150800070001F00700C0F1070ABAF1040F02D94FF049
S31508000710040A01E0C0F1070AD14600F1040ABAF159
S31508000720070F02D24FF0000A01E0A0F1030AD446EF
S315080007304FF0010A0AFA09FAAAF1010A0AEA020AB4
S315080007400AFA0CFA4FF0010B0BFA0CFBABF1010B92
S315080007500BEA030B4AEA0B042146404601F0AAFBC2
S31508000760BDE8F09F00BF00F00702064B19684FF678
S31508000770FF031940044B0B4343EA0221014B19605E
S3150800078000BF70470CED00E00000FA0570B504469E
S315080007900D460CB9012070BD5848006800F00700E6
S315080007A0A84209D255490D700846006800F00700AE
S315080007B0A84201D00120EEE7207800F002000228C6
S315080007C01DD1207800F00400042805D14C480068A3
S315080007D040F4E0504A490860207800F008000828EC
S315080007E005D14748006840F46040454908604448D8
S315080007F0006820F0F000A1680843414908602078A5
S3150800080000F00100A8B36068012807D13C48083801
S315080008100068C0F34040B8B90120BCE76068022808
S3150800082002D06068032807D1354808380068C0F345
S31508000830406048B90120AEE7314808380068C0F37F
S31508000840400008B90120A6E72D48006820F00300FB
S31508000850616808432A490860FFF796FE064609E0DC
S31508000860FFF792FE801B41F28831884202D90320A5
S3150800087091E707E02248006800F00C006168B0EBD9
S31508000880810FEDD11D48006800F00700A84209D97C
S315080008901A490D700846006800F00700A84201D002
S315080008A0012078E7207800F00400042807D11448CE
S315080008B0006820F4E050E168084311490860207890
S315080008C000F00800082808D10D48006820F46040A8
S315080008D0216940EAC1000A49086000F051F8084950
S315080008E00968C1F30311074A515CC8400649086004
S315080008F006480068FFF778FE00204CE7003C0240F7
S3150800090008380240D03F00080C00002014000020E0
S315080009100F2202600D4A126802F0030242600B4A77
S31508000920126802F0F0028260084A126802F4E05285
S31508000930C260064A126802F46042D2080261044A9A
S31508000940126802F007020A60704700000838024081
S31508000950003C024001480068704700000C00002077
S3150800096000B5FFF7F7FF04490968C1F34231034AA6
S31508000970515CC84000BD000008380240E03F00084E
S315080009802DE9F047002400250026A14625480068E1
S3150800099000F00C0020B1042805D008283AD105E05B
S315080009A0DFF8849039E0DFF8849036E01D48001FB0
S315080009B0006800F03F041B48001F006800F4800030
S315080009C078B11A481749091F0968C1F38811A0FBAD
S315080009D001700146224600233846FFF759FC0546B2
S315080009E00EE011480F49091F0968C1F38811A0FBD9
S315080009F001700146224600233846FFF749FC0546A2
S31508000A000848001F0068C0F30140401C4600B5FBBB
S31508000A10F6F902E0DFF8109000BF00BF4846BDE8CF
S31508000A20F0870000083802400024F40040787D0171
S31508000A30F8B504460CB90120F8BD207800F001008D
S31508000A40002874D0F948006800F00C0004280DD07E
S31508000A50F648006800F00C00082813D1F348001F78
S31508000A60006800F48000B0F5800F0BD1EF48083815
S31508000A700068C0F34040002859D06068002856D165
S31508000A800120D9E700BF6068B0F5803F08D1E74884
S31508000A900838006840F48030E449083908601EE0E8
S31508000AA06068B0F5A02F0DD1E0480838006840F41A
S31508000AB08020DE49083908600846006840F480301E
S31508000AC008600CE0D9480838006820F48030D74917
S31508000AD0083908600846006820F48020086000BFCE
S31508000AE0606890B1FFF750FD054606E0FFF74CFD3C
S31508000AF0401B642801D903209EE7CC4808380068C3
S31508000B00C0F340400028F1D011E0FFF73DFD05464F
S31508000B1006E0FFF739FD401B642801D903208BE75F
S31508000B20C24808380068C0F340400028F1D1207850
S31508000B3000F0020002285FD1BC48006800F00C00F3
S31508000B4058B1BA48006800F00C0008281CD1B7480C
S31508000B50001F006800F48000B0B9B448083800687F
S31508000B60C0F3400020B1E068012801D0012063E706
S31508000B70AE480838006820F0F800216940EAC1004C
S31508000B80AA490839086037E0E06800B30120A84997
S31508000B900860FFF7F9FC054606E0FFF7F5FC401B81
S31508000BA0022801D9032047E7A04808380068C0F39F
S31508000BB040000028F1D09D480838006820F0F80069
S31508000BC0216940EAC10099490839086014E0002003
S31508000BD097490860FFF7D8FC054606E0FFF7D4FCFE
S31508000BE0401B022801D9032026E7904808380068E8
S31508000BF0C0F340000028F1D1207800F0080008284A
S31508000C002CD16069A8B101208A490860FFF7BCFCAD
S31508000C10054606E0FFF7B8FC401B022801D9032069
S31508000C200AE782486C300068C0F340000028F1D01B
S31508000C3014E000207F490860FFF7A6FC054606E099
S31508000C40FFF7A2FC401B022801D90320F4E67748E7
S31508000C506C300068C0F340000028F1D1207800F01D
S31508000C600400042870D1002770483830006800F066
S31508000C70805090B900BF002000906C48383000685A
S31508000C8040F080506949383108600846006800F02D
S31508000C908050009000BF00BF01276748006800F435
S31508000CA08070B0B96448006840F480706249086092
S31508000CB0FFF76AFC054606E0FFF766FC401B0228BC
S31508000CC001D90320B8E65C48006800F48070002863
S31508000CD0F2D000BFA068012808D1544868300068DF
S31508000CE040F001005149683108601DE0A0680528F8
S31508000CF00DD14E486830006840F004004B49683111
S31508000D0008600846006840F0010008600CE04748A3
S31508000D106830006820F001004449683108600846D8
S31508000D20006820F00400086000BFA068A8B1FFF7BB
S31508000D302BFC054609E0FFF727FC401B41F28831EA
S31508000D40884202D9032077E626E0384868300068EA
S31508000D50C0F340000028EED013E0FFF715FC054667
S31508000D6008E0FFF711FC401B41F28831884201D99F
S31508000D70032061E62D4868300068C0F3400000286B
S31508000D80EFD1012F07D129483830006820F080506C
S31508000D9026493831086000BFA069002845D0234895
S31508000DA0006800F00C0008285DD0A069022845D12B
S31508000DB000201F490866FFF7E7FB054606E0FFF730
S31508000DC0E3FB401B022801D9032035E617480838FB
S31508000DD00068C0F340600028F1D1D4E90701084350
S31508000DE0616A40EA81110122A06AC2EB500041EA19
S31508000DF000412C20005D41EA00600C49091F08608B
S31508000E0001200B490866FFF7BFFB054606E0FFF71A
S31508000E10BBFB401B022801D903200DE6034808380E
S31508000E200068C0F340600028F1D049E00838024065
S31508000E3000004742800E47420070004000202149CA
S31508000E400866FFF7A1FB054606E0FFF79DFB401B7A
S31508000E50022801D90320EFE51B480068C0F340606B
S31508000E600028F2D12CE0A069012800D1E4E5164853
S31508000E70001D0668A069012820D006F48001E069F3
S31508000E8081421BD106F03F01206A814216D147F6FE
S31508000E90C0703040616AB0EB811F0FD106F4403153
S31508000EA00122A06AC2EB5000B1EB004F06D106F052
S31508000EB070612C20005DB1EB006F01D00120BBE50D
S31508000EC00020B9E5000047420038024010B5044644
S31508000ED00CB9012010BD606A38B96068B0F5827F28
S31508000EE000D105E00021E16102E000212161616194
S31508000EF00021A16294F8510028B9002084F8500016
S31508000F00204600F047F8022084F85100206800685F
S31508000F1020F0400021680860A08800F482702189CA
S31508000F2001F404410843A18901F400610843217CC6
S31508000F3001F002010843217D01F001010843218BDC
S31508000F4001F400710843217F01F03801084320218C
S31508000F50095D01F080010843218D01F40051084321
S31508000F60216808600421A06901EA104094F8241059
S31508000F7001F010010843216848602068C06920F420
S31508000F8000602168C86100206065012084F851006E
S31508000F9000209FE710B586B00446142101A8FFF784
S31508000FA0C1F945492068884230D100BF0020009029
S31508000FB04248006840F48050404908600846006886
S31508000FC000F48050009000BF00BF00BF00200090D2
S31508000FD03A481438006840F0010038491439086066
S31508000FE00846006800F00100009000BF00BFF0202E
S31508000FF0019002200290002003900320049005200F
S31508001000059001A92E48FFF7D5F953E02D49206828
S3150800101088424FD100BF002000902848001F006872
S3150800102040F400402549091F08600846006800F496
S315080010300040009000BF00BF00BF002000901F487E
S315080010401438006840F001001C4914390860084645
S31508001050006800F00100009000BF00BF00BF00203C
S3150800106000900846006840F00200086008460068DC
S3150800107000F00200009000BF00BF4FF4004001904E
S315080010800220029000200390032004900620059079
S3150800109001A90B48FFF78EF938200190022002902B
S315080010A000200390032004900620059001A9064815
S315080010B0FFF780F906B010BD003001404438024001
S315080010C000000240003C00400004024070477047A0
S315080010D030B502460B4600BF92F83C00012801D104
S315080010E0022030BD012082F83C0000BF022082F8B1
S315080010F03D00106844681068816824F07004186818
S31508001100044310684460144D1068A84213D0106850
S31508001110B0F1804F0FD0114D1068A8420BD0104D7A
S315080011201068A84207D00F4D1068A84203D00E4D8C
S315080011301068A84205D121F080015868014310685B
S315080011408160012082F83D0000BF002082F83C0043
S3150800115000BF00BFC5E700000000014000040040D2
S3150800116000080040000C00400040014010B504464D
S315080011700CB9012010BD94F83D0028B9002084F868
S315080011803C00204600F026F8022084F83D00211D88
S31508001190206800F03BFD012084F8460000BF84F873
S315080011A03E0001213F2001554020015541200155AF
S315080011B000BF00BF012084F84200432001554420A7
S315080011C001554520015500BF012084F83D00002047
S315080011D0D0E7000008B50A4A016891420FD100BF5E
S315080011E0002100910749096841F00801054A116084
S315080011F01146096801F00801009100BF00BF08BD4B
S31508001200000C004040380240014691F83D00012894
S3150800121001D001207047022081F83D000868C068A7
S3150800122040F001000B68D860164B0868984213D046
S315080012300868B0F1804F0FD0134B086898420BD05E
S31508001240124B0868984207D0114B0868984203D099
S31508001250104B086898420CD10868806800F00702AD
S31508001260062A0CD00868006840F001000B68186070
S3150800127005E00868006840F001000B681860002067
S31508001280C8E70000000001400004004000080040D4
S31508001290000C0040004001402DE9F04104460D468F
S315080012A0002700BF94F83C00012802D10220BDE8BF
S315080012B0F081012084F83C0000BF022084F83D003C
S315080012C02068866826F0770626F47F4620688660BA
S315080012D02868502833D00CDC202850D004DC00289D
S315080012E04BD0102851D149E0302849D040284CD15C
S315080012F039E060282DD0702807D0B0F5805F03D07C
S31508001300B0F5005F41D10DE041E0D5E902136A6806
S31508001310206800F0CDFC2068866846F077062068CD
S31508001320866034E0D5E902136A68206800F0C0FCDC
S315080013302068806840F480402168886027E0EA6871
S315080013406968206800F084FD5021206800F0BBFC25
S315080013501DE0EA686968206800F08DFD6021206854
S3150800136000F0B1FC13E0EA686968206800F070FDD7
S315080013704021206800F0A7FC09E000BF00BF00BFBD
S315080013802968206800F09FFC01E0012700BF00BF24
S31508001390012084F83D0000BF002084F83C0000BF0F
S315080013A0384684E7704710B5044620680069C0F3DC
S315080013B04000D8B12068C068C0F34000B0B16FF0F3
S315080013C0020021680861012020772068806900F002
S315080013D0030018B12046FFF7E5FF05E0204600F0B8
S315080013E0FFF8204600F0CAF9002020772068006937
S315080013F0C0F38000D8B12068C068C0F38000B0B1DF
S315080014006FF004002168086102202077206880694F
S3150800141000F4407018B12046FFF7C4FF05E02046E7
S3150800142000F0DEF8204600F0A9F9002020772068B1
S315080014300069C0F3C000D8B12068C068C0F3C00016
S31508001440B0B16FF008002168086104202077206891
S31508001450C06900F0030018B12046FFF7A3FF05E0B6
S31508001460204600F0BDF8204600F088F900202077D5
S3150800147020680069C0F30010D8B12068C068C0F3BE
S315080014800010B0B16FF010002168086108202077BD
S315080014902068C06900F4407018B12046FFF782FF43
S315080014A005E0204600F09CF8204600F067F9002089
S315080014B020772068006900F0010058B12068C068EC
S315080014C000F0010030B16FF0010021680861204684
S315080014D000F056F920680069C0F3C01058B12068BA
S315080014E0C068C0F3C01030B16FF080002168086191
S315080014F02046FFF7EBFD20680069C0F3801058B15D
S315080015002068C068C0F3801030B16FF040002168D1
S315080015100861204600F040F920680069C0F34010D1
S3150800152058B12068C068C0F3401030B16FF0200091
S31508001530216808612046FFF7CAFD10BD10B586B0C0
S315080015400446142101A8FEF7EDFE2068B0F1804F8D
S315080015501DD100BF002000901E48006840F0010021
S315080015601C4908600846006800F00100009000BFAA
S3150800157000BF0620019002200290002003900490EC
S315080015800120059001A91448FEF714FF20E013492D
S31508001590206888421CD100BF002000900D480068D2
S315080015A040F001000B4908600846006800F0010099
S315080015B0009000BF00BF0120019002200290002089
S315080015C0039004900220059001A90348FEF7F2FE55
S315080015D006B010BD3038024000000240000C004042
S315080015E070472DE9F04104460D461646002700BF10
S315080015F094F83C00012802D10220BDE8F0810120C0
S3150800160084F83C0000BF36B1042E1BD0082E31D01A
S315080016100C2E5ED145E02946206800F05DFB206867
S31508001620806940F00800216888612068806920F098
S31508001630040021688861206880692969084321684F
S31508001640886148E02946206800F076FB20688069B2
S3150800165040F40060216888612068806920F4806011
S315080016602168886120688069296940EA0120216823
S31508001670886130E02946206800F092FB2068C0693E
S3150800168040F008002168C8612068C06920F004009D
S315080016902168C8612068C069296908432168C8614A
S315080016A019E02946206800F0AFFB2068C06940F4BD
S315080016B000602168C8612068C06920F480602168DC
S315080016C0C8612068C069296940EA01202168C861A3
S315080016D001E0012700BF00BF00BF002084F83C00DE
S315080016E000BF384689E710B504460CB9012010BD7D
S315080016F094F83D0028B9002084F83C00204600F004
S3150800170025F8022084F83D00211D206800F07EFAA5
S31508001710012084F8460000BF84F83E0001213F20DE
S315080017200155402001554120015500BF00BF012049
S3150800173084F84200432001554420015545200155AF
S3150800174000BF012084F83D000020D0E708B50168F5
S31508001750B1F1804F0FD100BF0021009106490968F9
S3150800176041F00101044A11601146096801F00101BE
S31508001770009100BF00BF08BD403802407047000016
S3150800178010B5044603492068884201D1FEF702FFD6
S3150800179010BD000000000140704700BFFEE700BF13
S315080017A0012000F0C5FBFBE700B591B0124903C95B
S315080017B0CDE90F01002201210FA800F0F9FB0F491E
S315080017C008601C220C49083108A8FEF792FD002182
S315080017D008A800F0BEFB0A4908601C220649243105
S315080017E001A8FEF786FD002101A800F0B2FB054915
S315080017F0086011B000BD0000903F000808000020F6
S31508001800000000200400002000B587B0142102A8BB
S31508001810FEF788FD00BF002001904748006840F0A9
S315080018200400454908600846006800F00400019075
S3150800183000BF00BF00BF002001900846006840F0C6
S31508001840800008600846006800F08000019000BF2C
S3150800185000BF00BF002001900846006840F0010064
S3150800186008600846006800F00100019000BF00BF4C
S3150800187000BF002001900846006840F0020008609A
S315080018800846006800F00200019000BF00BF002271
S3150800189008212A48FEF772FE0820029001200390CC
S315080018A000200490059002A92448FEF783FD012034
S315080018B002904FF4041003900020049002A92048D7
S315080018C0FEF778FD48F206000290002003900120FA
S315080018D0049002A91A48FEF76DFD4FF48060029045
S315080018E04FF4041003900120049002A91448FEF74F
S315080018F061FD4FF44050029000200390049002A925
S315080019000F48FEF757FD4FF4804002904FF48810B9
S3150800191003900020049002A90948FEF74BFD4FF4F6
S3150800192080700290002003900120049002A90348C9
S31508001930FEF740FD07B000BD303802400000024007
S315080019400004024010B50F480F4908604FF4827032
S31508001950486000210C4881604FF40061C160002195
S31508001960016141614FF4802181610021C1610162F9
S31508001970416281620A21C162FFF7A8FA08B1FEF73F
S3150800198016FD10BD003001404007002010B50E4876
S315080019900E4908604FF48270486000210B48816048
S315080019A0C16002210161012141618904816100212F
S315080019B0C1610162416281620A21C162FFF786FA4A
S315080019C008B1FEF7F4FC10BD003C00409807002063
S315080019D000B589B00020079008901C216846FEF7DC
S315080019E0A1FC4FF080401B49086000204860002198
S315080019F018488160491EC160002101618161FFF7B5
S31508001A0072FE08B1FEF7D3FC00200790089007A9DC
S31508001A101048FFF75DFB08B1FEF7C9FC602000908F
S31508001A200020019002900490042269460948FFF7B5
S31508001A30D8FD08B1FEF7BBFC082269460548FFF742
S31508001A40D0FD08B1FEF7B3FC0248FFF777FD09B0F1
S31508001A5000BD00003808002000B58DB000200990B0
S31508001A600A900B900C90079008901C216846FEF788
S31508001A7059FC1F481F4908600020486000211D487E
S31508001A808160491EC160002101618161FFF76EFB1B
S31508001A9008B1FEF78CFC4FF48050099009A9154847
S31508001AA0FFF7FAFB08B1FEF782FC1248FFF71BFEA8
S31508001AB008B1FEF77CFC00200790089007A90D489E
S31508001AC0FFF706FB08B1FEF772FC602000900020C5
S31508001AD0019002900490002269460648FFF781FDAE
S31508001AE008B1FEF764FC0348FFF728FD0DB000BDFA
S31508001AF0000C00408008002000BFFEE700BFFEE79C
S31508001B0010B500BF502080F31188BFF34F8FBFF385
S31508001B106F8F00BF01F094FF18B14FF08050044951
S31508001B20086000BF002080F3118800BF10BD0000C8
S31508001B3004ED00E000B593B0302107A8FEF7F2FBEC
S31508001B40142102A8FEF7EEFB00BF002001902448EE
S31508001B50006840F08050224908600846006800F096
S31508001B608050019000BF00BF00BF002001901D48B3
S31508001B70006840F440401B4908600846006800F4C5
S31508001B804040019000BF00BF0220079001200A9044
S31508001B9010200B9002200D9000210E9108210F9124
S31508001BA064211091022111910421129107A8FEF7D0
S31508001BB03FFF08B1FEF7FBFB0F20029002200390BF
S31508001BC0002004904FF480500590002006900321D1
S31508001BD002A8FEF7DBFD08B1FEF7E9FB13B000BD6E
S31508001BE040380240007000400348006840F4700026
S31508001BF0014908607047000088ED00E010B502480A
S31508001C00FFF7D1FB10BD0000F007002010B50268F1
S31508001C10204B98420BD0B0F1804F08D01E4B98420B
S31508001C2005D01E4B984202D01D4B984203D122F094
S31508001C3070024B681A43174B984214D0B0F1804F84
S31508001C4011D0154B98420ED0144B98420BD0144B1A
S31508001C50984208D0134B984205D0134B984202D0AD
S31508001C60124B984203D122F44072CB681A4322F0F1
S31508001C7080034C6943EA040202608B68C3620B68FE
S31508001C808362044B984201D10B69036301234361C4
S31508001C9010BD00000000014000040040000800409C
S31508001CA0000C00400040014000440140004801404B
S31508001CB030B50C46816821F47F4142EA0325254365
S31508001CC02943816030BD0A46816821F0700142F0DF
S31508001CD0070319438160704730B5056A25F0010589
S31508001CE00562026A4368846924F0700424F00304D8
S31508001CF00D682C4322F002028D682A430D4DA84236
S31508001D0006D100BF22F00802CD682A4322F0040259
S31508001D10084DA84207D123F4807323F400734D6954
S31508001D202B438D692B43436084614D68456302628A
S31508001D3030BD00000000014030B5056A25F01005E9
S31508001D400562026A4368846924F4E04424F4407412
S31508001D500D6844EA052422F020028D6842EA05123D
S31508001D600E4DA84207D100BF22F08002CD6842EA94
S31508001D70051222F04002094DA84209D123F48063D6
S31508001D8023F400634D6943EA85038D6943EA8503B5
S31508001D90436084614D688563026230BD000001407E
S31508001DA030B5056A25F480750562026A4368C46918
S31508001DB024F0700424F003040D682C4322F4007206
S31508001DC08D6842EA05220F4DA84207D100BF22F4CA
S31508001DD00062CD6842EA052222F48062094DA842D3
S31508001DE009D123F4805323F400534D6943EA0513BC
S31508001DF08D6943EA05134360C4614D68C563026291
S31508001E0030BD00000000014030B5056A25F4805554
S31508001E100562036A4468C26922F4E04222F4407209
S31508001E200D6842EA052223F400538D6843EA053318
S31508001E30064DA84204D124F480444D6944EA851429
S31508001E404460C2614D680564036230BD000001400C
S31508001E5030B50B461446026A056A25F00105056287
S31508001E60816921F0F00141EA041122F00A021A43BD
S31508001E708161026230BD30B50B461446056A25F00D
S31508001E80100505628169026A21F4704141EA04314C
S31508001E9022F0A00242EA03128161026230BD00BF4D
S31508001EA0FEE7000002480068C0F302207047000001
S31508001EB00CED00E010B5002804DB0A07130E054AEE
S31508001EC0135406E00A07140E034A00F00F031B1FFB
S31508001ED0D45410BD00E400E018ED00E002E008C8A4
S31508001EE0121F08C1002AFAD170477047002001E086
S31508001EF001C1121F002AFBD17047FEF757FBFFF7F7
S31508001F0019FEFFF781FCFFF71DFDFFF761FDFFF7DF
S31508001F103DFDFFF7A1FDFFF747FC00F015F800BFF0
S31508001F20FEE701460020842901D0CA1C10447047E8
S31508001F3070B5044625460DB1294600E0012108463C
S31508001F4000F0DAFF002070BD10B501F051F800204E
S31508001F5010BD7FB504460D46606998B1A06988B181
S31508001F60B4F90800FFF7DDFF0646D4E90510CDE908
S31508001F70006102902B462269D4E9001001F0ECFCBE
S31508001F80039013E0B4F90800FFF7CBFF064603A851
S31508001F90CDE90060238A9AB22B46D4E9001001F0F5
S31508001FA0A9FC012802D0002004B070BD0398FBE705
S31508001FB07CB504460D461646606878B1D4E900013A
S31508001FC0CDE90001012D01D1012000E000200246E3
S31508001FD03346012108A001F024FF7CBD206800904B
S31508001FE0012D01D1012000E00020024633460121DF
S31508001FF001A001F0FBFEF0E7000000002DE9F0412A
S3150800200005460E461C4807681C480068001D00F077
S31508002010E9FD50B91948006890F82C10012088404D
S3150800202017490968814316480160681C38B936B1F2
S3150800203012480168091D134800F02CFE1AE07C19A5
S315080020400E4800684460BC4207D20C480168091D66
S315080020500D48006800F004FE0CE008480168091DF8
S315080020600A48006800F0FCFD09480068844201D26D
S3150800207007480460BDE8F0815C00002048000020A5
S3150800208060000020E4090120500000204C000020D8
S315080020907800002010B5044600F008FE23480068C2
S315080020A0401C224908602248006840B9204804605C
S315080020B00846006801280DD100F026FA0AE01D48F6
S315080020C0006838B91A480068C06AE16A884201D8C7
S315080020D01748046018480068401C1749086094F8B7
S315080020E02C100120884015490968084313490860DF
S315080020F0E16A01EB8101124A02EB8100211D00F021
S31508002100C9FD00F0FDFD0B48006868B10848006885
S31508002110C06AE16A884207D24FF0805009490860D0
S31508002120BFF34F8FBFF36F8F10BD0000580000201C
S315080021304800002064000020740000206000002091
S315080021400809012004ED00E008B500F0AFFD1248CB
S315080021500068E8B9114800F073FD114800F070FDF9
S315080021600E48104908600E480F49086000200F4BBA
S315080021700F4A0C2100900A2001F0B4F806490860BD
S315080021800846006820B10BA10348006800F078FEF5
S3150800219000F0B6FD08BD00008C000020F8090120FB
S315080021A00C0A01208400002088000020200A012053
S315080021B0680A0120546D72510000000010B516E03F
S315080021C000F074FD0C48C068C468201D00F00AFDC4
S315080021D00A480068401E0949086009480068401E08
S315080021E00749086000F08CFD204600F05FF80448B7
S315080021F000680028E4D110BDD0090120580000204D
S315080022005400002070B504460D46206C70B1216C50
S31508002210E0680144E160D4E90210884201D32168EC
S31508002220E1602846226CE168FEF763F870BD2DE987
S31508002230F04104460F4615464FF00008A66B206C81
S3150800224048B9206800282CD1A06801F09DFC80467A
S315080022500020A06025E07DB93946226C6068FEF74B
S3150800226048F8216C606808446060D4E90101884236
S3150800227017D32068606014E03946226CE068FEF7E0
S3150800228038F8216CE068411AE1602168E068884204
S3150800229003D2216CA068411AE160022D01D106B172
S315080022A0761E701CA0634046BDE8F08110B5044652
S315080022B094F8510030B9206B00F040FD204600F03C
S315080022C03DFD1AE094F85100012803D1204600F09C
S315080022D035FD12E094F85100022801D1012000E0F2
S315080022E0002050B900BF502080F31188BFF34F8FEC
S315080022F0BFF36F8F00BF00BFFEE710BD0146084A57
S31508002300126812680AB9012200E000220A600A6807
S3150800231022B9034A1268D268106800E000207047A4
S315080023208400002030B54FF48033174800F00704C6
S315080023302CB1C01D20F00700134C041B1B1B0246C2
S31508002340124C22600024114D6C60D018083820F019
S3150800235007000F4C206000240D4D2D686C600C4D55
S315080023602D682C601146441A4C60094C24680C6090
S31508002370084D4C682C60084D4C682C604FF00044A2
S31508002380064D2C6030BD0000C80800201C00002047
S31508002390240000202C0000202800002038000020FF
S315080023A000BFFFF70BFF064800680128F9D94FF070
S315080023B0805004490860BFF34F8FBFF36F8FF0E773
S315080023C00809012004ED00E02DE9F04106460D4616
S315080023D017469846069C0DB9246000E02760E66318
S315080023E025640121204600F0EDFFBDE8F0812DE9C6
S315080023F0F05F82460E4690469B460A9F0C9C4FEA23
S315080024008801A522206BFDF786FFA8F10100216B44
S3150800241001EB800929F0070909F0070008B901202E
S3150800242000E0002050B900BF502080F31188BFF3A8
S315080024304F8FBFF36F8F00BF00BFFEE786B1002541
S3150800244007E0715D04F134004155705D00B902E0A2
S315080024506D1C102DF5D300BF00214320015502E065
S31508002460002084F83400072F00D30627E762676444
S315080024700020A064201D00F0F0FB04F1180000F015
S31508002480ECFB2461C7F10700A06164620020E064E8
S3150800249084F850005A465146484600F08DFB2060A5
S315080024A00B9808B10B980460BDE8F09F2DE9F0473A
S315080024B006460D4617469846DDE908940DB10120F3
S315080024C000E0002050B900BF502080F31188BFF308
S315080024D04F8FBFF36F8F00BF00BFFEE78CB1FFF7CA
S315080024E033FE2660A561C4F81C80C4F82090201D20
S315080024F000F0B3FB2FB194F8240040F0040084F8F0
S315080025002400BDE8F087000010B5002407E004EBBE
S3150800251084010F4A02EB810000F092FB641C072C31
S31508002520F5D30C4800F08CFB0B4800F089FB0B48F0
S3150800253000F086FB0A4800F083FB0A4800F080FB9F
S3150800254004480949086004480849086010BD0000A5
S315080025500809012094090120A8090120BC090120C5
S31508002560D0090120E40901204C0000205000002079
S3150800257010B50146164800E0006803688B42FBD395
S315080025800246436813448B4204D143684C6823448B
S31508002590436001460A464B6813440468A34211D1B6
S315080025A00C4C03682468A34208D04B680468646826
S315080025B023444B6003681B680B6005E0054B1B68EA
S315080025C00B6001E003680B60884200D0016010BD13
S315080025D01C000020240000202DE9F04104460D4689
S315080025E016461F464FF0000865602461B5420CD8B0
S315080025F0F01BA169884202D34FF0010811E0211DA2
S315080026000948006800F02CFB0BE0BE4204D2BD422C
S3150800261002D34FF0010804E0211D0448006800F0C9
S315080026201FFB4046BDE8F08188000020840000209A
S3150800263070B5054600F03AFBA86B08B9012400E01E
S31508002640002400F05DFB204670BD70B5054600F01D
S315080026502DFBA86BE96B884201D1012400E0002418
S3150800266000F04EFB204670BDF8B505460F461A48E1
S315080026700068C068C468201D00F0B4FA94F8240005
S3150800268000F00400E8B1A06941192B463A462046F5
S31508002690FFF7A2FFD8B1002003462A46014600905C
S315080026A0204601F033FC064656B900BF502080F399
S315080026B01188BFF34F8FBFF36F8F00BF00BFFEE7D0
S315080026C005E094F8240020F0010084F82400204650
S315080026D0216A8847F8BD00008400002070B586B0DE
S315080026E08BE003980028FBDB059C606908B901208C
S315080026F000E0002010B9201D00F074FA02A800F0CE
S31508002700DDF8054603980A2875D2DFE800F00905C2
S315080027100739416306083A4200BF00BF00BF00BF41
S3150800272094F8240040F0010084F824000498A26973
S31508002730811803462A462046FFF74EFFF8B1204681
S31508002740216A884794F8240000F00400B8B10020F4
S3150800275000900498A169421800231946204601F002
S31508002760D5FB064656B900BF502080F31188BFF343
S315080027704F8FBFF36F8F00BF00BFFEE700BF3BE080
S3150800278000BF94F8240020F0010084F8240033E008
S3150800279000BF94F8240040F0010084F8240004984F
S315080027A0A061A06908B1012000E0002050B900BF6F
S315080027B0502080F31188BFF34F8FBFF36F8F00BF90
S315080027C000BFFEE7A06941192B462A462046FFF7B7
S315080027D003FF11E094F8240000F0020018B920461F
S315080027E000F0ACFA05E094F8240020F0010084F823
S315080027F0240001E0FFE700BF00BF002203A9044848
S31508002800006800F07DFF00287FF46BAF06B070BD4E
S315080028108C000020F8B505460C4600F045FC6846D5
S3150800282000F04CF80646009820BB44B9B54206D8D5
S3150800283001F05AFA31462846FFF716FF1CE03CB16C
S315080028400E480068006808B9012000E00020044628
S31508002850A91B22460A48006800F028FB01F044FA42
S3150800286050B94FF0805007490860BFF34F8FBFF348
S315080028706F8F01E001F038FAF8BD000088000020EB
S315080028808C00002004ED00E00A490968096809B9C6
S31508002890012100E0002121B14FF0FF31064A116005
S315080028A006E004490968C968C868034A41681160AE
S315080028B0704700004C0000207800002070B50446E0
S315080028C001F0B8F8054607480068854204D200F0CA
S315080028D00BF80120206001E0002020600148056017
S315080028E0284670BD940000202DE9F84334E02548B9
S315080028F00068C068056823480068C068C468201D69
S3150800290000F070F92046216A884794F8240000F000
S31508002910040008B3A0694619AE4207D96660246167
S31508002920211D1848006800F09BF915E000200346B1
S315080029302A4601460090204601F0E8FA074657B9AC
S3150800294000BF502080F31188BFF34F8FBFF36F8FFE
S3150800295000BF00BFFEE700BF0A480068006808B964
S31508002960012000E000200028C1D00648D0F80080E9
S3150800297005480068034908600348C0F80080BDE8B8
S31508002980F883000084000020880000200E480068B4
S31508002990401C08B9012000E0002050B900BF5020B3
S315080029A080F31188BFF34F8FBFF36F8F00BF00BF4F
S315080029B0FEE700BF502080F31188BFF34F8FBFF3A7
S315080029C06F8F00BF00BFFEE73C00002008B500BFC0
S315080029D06846FFF793FC044620460099FFF71AFF5E
S315080029E0FFF77CFEF4E770B5044600F05FF994F94A
S315080029F0455010E0606A08B9012000E0002038B9A7
S31508002A0004F1240001F024F918B100F0AFFA00E04F
S31508002A1003E0681E45B2002DECDC00BFFF2084F8F9
S31508002A20450000F06DF900F041F994F9445010E0C2
S31508002A30206908B9012000E0002048B904F1100017
S31508002A4001F006F908B100F091FA681E45B200E0F7
S31508002A5001E0002DECDC00BFFF2084F8440000F004
S31508002A604FF970BD2DE9F04104464FF0000800F01B
S31508002A701BFB4B48006808B9FFF754FC4948006837
S31508002A802040002870D1D4B1083404F00700B0B152
S31508002A9004F00700C0F10800044404F0070008B970
S31508002AA0012000E0002050B900BF502080F31188B3
S31508002AB0BFF34F8FBFF36F8F00BF00BFFEE7002C39
S31508002AC052D03948006884424ED8384E3046056898
S31508002AD001E02E462D686868A04202D228680028C0
S31508002AE0F7D12F48006885423ED0306800F10808C3
S31508002AF0286830606868001B102819D92F1907F054
S31508002B00070008B9012000E0002050B900BF502096
S31508002B1080F31188BFF34F8FBFF36F8F00BF00BFDD
S31508002B20FEE76868001B78606C603846FFF720FD92
S31508002B301D4968680968081A1B490860084600683C
S31508002B401B490968884203D2174800681849086073
S31508002B5014496868096808436860002028601548B1
S31508002B600068401C1349086001F0BEF8B8F1000F70
S31508002B7001D100F063F808F0070008B9012000E069
S31508002B80002050B900BF502080F31188BFF34F8F43
S31508002B90BFF36F8F00BF00BFFEE74046BDE8F08178
S31508002BA02400002038000020280000201C000020F7
S31508002BB02C00002030000020001F4FF080730360B7
S31508002BC0001F21F001030360001F054B0360143842
S31508002BD00260001F6FF00203036020387047000090
S31508002BE08D29000801460A69D1E901309860D1E9C2
S31508002BF0010358605068884201D1886850600020F7
S31508002C0008611068401E106010687047034B036027
S31508002C10034B0B6080231360704700009800002068
S31508002C20EC000020034B0360034B0B604FF48073EA
S31508002C3013607047EC02002040030020704770477D
S31508002C4000F1080141604FF0FF31816000F1080191
S31508002C50C160016100210160704700210161704770
S31508002C6010B502460B685C1C0CB9106907E002F146
S31508002C70080000E04068446824689C42FAD9446821
S31508002C804C604C68A160886041600A611468641CE5
S31508002C90146010BD42684A6093688B6093685960F7
S31508002CA09160086103685B1C0360704700BF502091
S31508002CB080F31188BFF34F8FBFF36F8F00BF0E48A5
S31508002CC00068401C0C49086008460068012812D1B3
S31508002CD00A480068C0B208B9012000E0002050B9CF
S31508002CE000BF502080F31188BFF34F8FBFF36F8F5B
S31508002CF000BF00BFFEE770473C00002004ED00E07F
S31508002D000D48006850B900BF502080F31188BFF302
S31508002D104F8FBFF36F8F00BF00BFFEE706480068FE
S31508002D20401E054908600846006820B9002080F35F
S31508002D30118800BF00BF70473C00002070B50646EA
S31508002D403546002E44D0083D2C462249606809685D
S31508002D50084008B1012000E0002050B900BF50200B
S31508002D6080F31188BFF34F8FBFF36F8F00BF00BF8B
S31508002D70FEE7206808B9012000E0002050B900BF2E
S31508002D80502080F31188BFF34F8FBFF36F8F00BFBA
S31508002D9000BFFEE70F49606809680840C0B12068AF
S31508002DA0B0B90C49606809688843606000F07CF92E
S31508002DB00949606809680844074908602046FFF71A
S31508002DC0D7FB06480068401C0449086000F08CFFE1
S31508002DD070BD0000380000202800002034000020C4
S31508002DE000204FF0E02108618861064800684FF42A
S31508002DF07A71B0FBF1F0401E4FF0E02148610720E0
S31508002E00086170470C00002070B5FDF72BFA0446E0
S31508002E10102C16D304F1E02090F8F05315480078EA
S31508002E20854201DB012000E0002050B900BF502098
S31508002E3080F31188BFF34F8FBFF36F8F00BF00BFBA
S31508002E40FEE70D48006800F4E0600C49096888420E
S31508002E5001D8012000E0002050B900BF502080F3BF
S31508002E601188BFF34F8FBFF36F8F00BF00BFFEE718
S31508002E7070BD0000400000200CED00E0440000207A
S31508002E80024600200BE0084B53F8303033B9064BA6
S31508002E9043F8301003EBC0035A6002E0401C0828D0
S31508002EA0F1D300BF70470000C80801202DE9F041A2
S31508002EB005460E4617462C46FFF7F8FE94F94400D9
S31508002EC0401C10B9002084F8440094F94500401CC1
S31508002ED010B9002084F84500FFF712FFA06B28B947
S31508002EE03A46314604F1240000F062F82046FFF71E
S31508002EF07AFDBDE8F081000070B504460025D4B11E
S31508002F001248006808B9012000E0002050B900BF47
S31508002F10502080F31188BFF34F8FBFF36F8F00BF28
S31508002F2000BFFEE700F0C0F800212046FFF766F86C
S31508002F3000F0DAFE05463DB94FF0805004490860B6
S31508002F40BFF34F8FBFF36F8F70BD00008000002066
S31508002F5004ED00E003490968016003490968416016
S31508002F6070470000700000205C0000200120014925
S31508002F70086070476C00002070B504460D4654B9C9
S31508002F8000BF502080F31188BFF34F8FBFF36F8FB8
S31508002F9000BF00BFFEE70548016818312046FFF765
S31508002FA05FFE01212846FFF729F870BD480000207A
S31508002FB070B505460E46144655B900BF502080F335
S31508002FC01188BFF34F8FBFF36F8F00BF00BFFEE7B7
S31508002FD00648016818312846FFF75CFE0CB14FF029
S31508002FE0FF3621463046FFF709F870BD4800002035
S31508002FF010B586B000200590049003AA04A905A878
S31508003000FFF704FE0022DDE904101346CDE900218E
S3150800301002901EA11F48039A00F09EFC1E490860F4
S315080030200846006808B1012400E00024012C02D1FA
S3150800303000F030FF0446012C15D100BF502080F364
S315080030401188BFF34F8FBFF36F8F00BF4FF0FF306C
S3150800305012490860012012490860002011490860D9
S3150800306000F08CF810E0601C08B1012000E0002098
S3150800307050B900BF502080F31188BFF34F8FBFF3BC
S315080030806F8F00BF00BFFEE706B010BD49444C4530
S3150800309000000000A12300087C0000207800002022
S315080030A0640000205C00002002480068401C0149BA
S315080030B0086070478000002070B52B48006818B17A
S315080030C001202A4908604DE0002028490860284860
S315080030D00068046B4FF0A5352068B0F1A53F0BD109
S315080030E06068B0F1A53F07D1A068B0F1A53F03D14C
S315080030F0E068B0F1A53F05D01D4801683431006885
S31508003100FFF79DFD1B480068B0FA80F0C0F11F016B
S3150800311001EB8100184A52F8200008B1012000E0AE
S31508003120002050B900BF502080F31188BFF34F8F9D
S31508003130BFF36F8F00BF00BFFEE701EB81020E4BA6
S3150800314003EB820042685268426000F10802436855
S31508003150934202D14268526842604268D268044B80
S315080031601A6000BF70BD0000800000206C000020BF
S315080031704800002060000020080901201CB55248BC
S3150800318000685249884201D0012000E0002050B969
S3150800319000BF502080F31188BFF34F8FBFF36F8FA6
S315080031A000BF00BFFEE7484800684849491E8842F4
S315080031B001D0012000E0002050B900BF502080F364
S315080031C01188BFF34F8FBFF36F8F00BF00BFFEE7B5
S315080031D03F49084600780190FF200A4610700846C5
S315080031E0007800909DF8000000F0F0009DF800209F
S315080031F0904201D1012000E0002050B900BF5020C4
S3150800320080F31188BFF34F8FBFF36F8F00BF00BFE6
S31508003210FEE79DF8000000F050002E4A10700720C7
S315080032202D4A106009E02C480068401E2A4A1060A2
S315080032309DF800004006000E00909DF8000000F082
S3150800324080008028EFD024480068C0F107000428D1
S3150800325001D1012000E0002050B900BF502080F3C2
S315080032601188BFF34F8FBFF36F8F00BF00BFFEE714
S31508003270194800680002184A10601046008800F4D1
S31508003280E0601060124A019810700F4820300068FC
S3150800329040F470000C49203108600846006840F088
S315080032A070400860FFF79CFD00200C490860FCF799
S315080032B0A1FF0B48006840F0404009490860FCF748
S315080032C085FF00201CBD000000ED00E071C20F4123
S315080032D000E400E040000020440000203C000020FC
S315080032E034EF00E02DE9F84380460E4617461D46A2
S315080032F0DDF82090B8F1000F01D0012000E0002091
S3150800330050B900BF502080F31188BFF34F8FBFF329
S315080033106F8F00BF00BFFEE70DB1012000E000205F
S3150800332050B900BF502080F31188BFF34F8FBFF309
S315080033306F8F00BF00BFFEE707B10EB1012000E0A6
S31508003340002050B900BF502080F31188BFF34F8F7B
S31508003350BFF36F8F00BF00BFFEE707B90EB90120A4
S3150800336000E0002050B900BF502080F31188BFF359
S315080033704F8FBFF36F8F00BF00BFFEE74820009056
S315080033800098482801D1012000E0002050B900BF6C
S31508003390502080F31188BFF34F8FBFF36F8F00BFA4
S315080033A000BFFEE700BF2C464CB1012084F846005A
S315080033B04B463A46314640460094FFF705F8204604
S315080033C0BDE8F88370B505460E462C4654B900BFCD
S315080033D0502080F31188BFF34F8FBFF36F8F00BF64
S315080033E000BFFEE7FFF762FCD4E90F12206801FB75
S315080033F00200A0600020A06320686060E06B401EA9
S31508003400226C216800FB0211E160FF2084F8440069
S3150800341084F845009EB9206908B9012000E000201B
S31508003420A8B904F1100000F013FC80B14FF08050E9
S3150800343009490860BFF34F8FBFF36F8F07E004F1A8
S315080034401000FFF7FDFB04F12400FFF7F9FBFFF777
S3150800345057FC012070BD000004ED00E02DE9FF4394
S3150800346083B0064688461D464FF00009344654B9CF
S3150800347000BF502080F31188BFF34F8FBFF36F8FC3
S3150800348000BF00BFFEE7B8F1000F01D1206C08B9F4
S31508003490012000E0002050B900BF502080F31188B9
S315080034A0BFF34F8FBFF36F8F00BF00BFFEE7022D3C
S315080034B002D1E06B012801D1012000E0002050B9BB
S315080034C000BF502080F31188BFF34F8FBFF36F8F73
S315080034D000BF00BFFEE700F09DFA08B9059808B9D5
S315080034E0012000E0002050B900BF502080F3118869
S315080034F0BFF34F8FBFF36F8F00BF00BFFEE700BF5C
S31508003500FFF7D4FBA06BE16B884201D3022D28D1CB
S315080035102A4641462046FEF78AFE0746606A08B9EB
S31508003520012000E0002068B904F1240000F090FBB7
S3150800353088B14FF0805032490860BFF34F8FBFF310
S315080035406F8F08E03FB14FF080502D490860BFF3F8
S315080035504F8FBFF36F8FFFF7D3FB012007B0BDE88E
S31508003560F083059818B9FFF7CBFB0020F6E7B9F109
S31508003570000F04D101A8FFF7EDFC4FF00109FFF792
S31508003580BFFBFFF791FDFFF791FB94F94400401C40
S3150800359010B9002084F8440094F94500401C10B97D
S315080035A0002084F84500FFF7ABFB05A901A800F049
S315080035B05BF9F0B92046FFF748F8A0B104F110000E
S315080035C00599FFF7D9FC2046FFF70DFA00F08CFBAA
S315080035D0002895D14FF0805009490860BFF34F8FF6
S315080035E0BFF36F8F8CE72046FFF7FDF900F07CFBF1
S315080035F086E72046FFF7F7F900F076FB0020ADE7EF
S3150800360004ED00E02DE9F84F07468A4690461E4627
S315080036103C4654B900BF502080F31188BFF34F8F42
S31508003620BFF36F8F00BF00BFFEE7BAF1000F01D1ED
S31508003630206C08B9012000E0002050B900BF5020D6
S3150800364080F31188BFF34F8FBFF36F8F00BF00BFA2
S31508003650FEE7022E02D1E06B012801D1012000E02D
S31508003660002050B900BF502080F31188BFF34F8F58
S31508003670BFF36F8F00BF00BFFEE7FFF7C5FB00BFB4
S315080036805021EFF3118081F31188BFF34F8FBFF3F9
S315080036906F8F00BF0546A06BE16B884201D3022EEF
S315080036A025D194F945B0A06B009032465146204684
S315080036B0FEF7BDFD0BF1010088B9606A08B9012063
S315080036C000E0002050B904F1240000F0C1FA28B146
S315080036D0B8F1000F02D00120C8F8000004E00BF191
S315080036E0010040B284F845004FF0010901E04FF0AF
S315080036F0000900BF85F3118800BF4846BDE8F88F6A
S315080037002DE9F74183B005460E464FF000082C46D2
S3150800371054B900BF502080F31188BFF34F8FBFF311
S315080037206F8F00BF00BFFEE70EB9206C08B90120F5
S3150800373000E0002050B900BF502080F31188BFF385
S315080037404F8FBFF36F8F00BF00BFFEE700F062F92F
S3150800375008B9059808B9012000E0002050B900BF53
S31508003760502080F31188BFF34F8FBFF36F8F00BFD0
S3150800377000BFFEE700BFFFF799FAA76BF7B131461E
S315080037802046FEF73FFD781EA063206908B9012090
S3150800379000E0002060B904F1100000F059FA38B1D1
S315080037A04FF080502F490860BFF34F8FBFF36F8FDC
S315080037B0FFF7A6FA012006B0BDE8F081059818B90A
S315080037C0FFF79EFA0020F6E7B8F1000F04D101A82A
S315080037D0FFF7C0FB4FF00108FFF792FAFFF764FC0A
S315080037E0FFF764FA94F94400401C10B9002084F8E5
S315080037F0440094F94500401C10B9002084F845009F
S31508003800FFF77EFA05A901A800F02EF8F0B92046C0
S31508003810FEF70EFFA0B104F124000599FFF7ACFBF3
S315080038202046FFF7E0F800F05FFA0028A3D14FF032
S3150800383080500C490860BFF34F8FBFF36F8F9AE72C
S315080038402046FFF7D0F800F04FFA94E72046FFF736
S31508003850CAF800F049FA2046FEF7EAFE00288AD0A0
S315080038600020A8E704ED00E070B505460C4655B9FA
S3150800387000BF502080F31188BFF34F8FBFF36F8FBF
S3150800388000BF00BFFEE754B900BF502080F311887F
S31508003890BFF34F8FBFF36F8F00BF00BFFEE7FFF781
S315080038A005FA124802686868131A2068401C08B9A5
S315080038B0002617E00E4928680968884204D0686817
S315080038C0904201D801260DE02068984207D9206861
S315080038D0C01A20602846FFF73DFB002602E00020BC
S315080038E020600126FFF70CFA304670BD5C00002008
S315080038F0700000202DE9FF4F85B08046894617469F
S31508003900DDE912ABB800FFF7ADF8064656B154200C
S31508003910FFF7A8F804460CB1266304E03046FFF723
S315080039200DFA00E000248CB1002084F85100CDE99E
S3150800393000ABCDE902403A4649464046089BFEF7A9
S3150800394056FD2046FEF7A6FB012501E04FF0FF35A0
S31508003950284609B0BDE8F08F2DE9F04F85B0074637
S31508003960884691469A46DDE90EB6109C0EB10120AE
S3150800397000E0002050B900BF502080F31188BFF343
S315080039804F8FBFF36F8F00BF00BFFEE70CB101205A
S3150800399000E0002050B900BF502080F31188BFF323
S315080039A04F8FBFF36F8F00BF00BFFEE75420039011
S315080039B00398542801D1012000E0002050B900BF27
S315080039C0502080F31188BFF34F8FBFF36F8F00BF6E
S315080039D000BFFEE700BFB4B1AEB125462C462E6344
S315080039E0022085F85100002004A953464A46CDE92D
S315080039F000B1CDE9025041463846FEF7F8FC2846A4
S31508003A00FEF748FB01E000200490049805B0BDE8E5
S31508003A10F08F00000549096809B9012005E0044945
S31508003A20096809B9022000E00020704764000020F8
S31508003A308000002001490868704700005C000020EB
S31508003A402DE9F0414FF000084448006800287CD171
S31508003A5043480068451C4248056015BB4148006854
S31508003A60006808B9012000E0002050B900BF5020C6
S31508003A7080F31188BFF34F8FBFF36F8F00BF00BF6E
S31508003A80FEE7384807683848006836490860364807
S31508003A90076036480068401C34490860FEF7F4FEA3
S31508003AA000BF3348006885423CD300BF2D480068F4
S31508003AB0006808B9012000E0002020B14FF0FF306F
S31508003AC02B4908602DE027480068C068C468666806
S31508003AD0B54202D22648066023E0201DFFF782F889
S31508003AE0A06A18B104F11800FFF77CF894F82C10B6
S31508003AF0012088401F49096808431E490860E16A91
S31508003B0001EB81011C4A02EB8100211DFFF7C2F877
S31508003B101A49E06A0968C96A8842C7D34FF001089A
S31508003B20C4E700BF15480068C06A00EB8000124968
S31508003B3051F82000012801D94FF001081048006803
S31508003B4008B14FF0010805E0FFE70E480068401C81
S31508003B500C4908604046BDE8F0810000800000205E
S31508003B605C0000204C00002050000020700000205F
S31508003B707800002060000020080901204800002085
S31508003B806C0000206800002070B505462C4600260B
S31508003B90002D55D02B480068844201D1012000E051
S31508003BA0002050B900BF502080F31188BFF34F8F13
S31508003BB0BFF36F8F00BF00BFFEE7A06C50B900BF10
S31508003BC0502080F31188BFF34F8FBFF36F8F00BF6C
S31508003BD000BFFEE7A06C401EA064616CE06A8842E4
S31508003BE02ED0A06C60BB201DFEF7FCFF78B9E06AFA
S31508003BF000EB8000144951F8200040B994F82C10C5
S31508003C000120884011490968814310480160606CA9
S31508003C10E062E06AC0F10700A06194F82C10012068
S31508003C2088400A490968084308490860E16A01EBBF
S31508003C308101054A02EB8100211DFFF72BF80126B9
S31508003C40304670BD480000200809012060000020A9
S31508003C5070B50646F068C46854B900BF502080F3B2
S31508003C601188BFF34F8FBFF36F8F00BF00BFFEE70A
S31508003C7004F11800FEF7B6FF15480068A8B9201D1C
S31508003C80FEF7B0FF94F82C10012088401149096806
S31508003C90084310490860E16A01EB81010E4A02EB0C
S31508003CA08100211DFEF7F6FF04E004F118010B4818
S31508003CB0FEF7F0FF0A49E06A0968C96A884204D92A
S31508003CC0012501200749086000E00025284670BD47
S31508003CD0800000206000002008090120BC0901209E
S31508003CE0480000206C00002070B5002400263648E5
S31508003CF0006850B900BF502080F31188BFF34F8F7A
S31508003D00BFF36F8F00BF00BFFEE7FEF7CFFF2E4859
S31508003D100068401E2C4908600846006800284FD1F4
S31508003D202A48006800284BD024E02948C068C4689F
S31508003D3004F11800FEF756FF201DFEF753FF94F80E
S31508003D402C10012088402349096808432149086046
S31508003D50E16A01EB8101204A02EB8100211DFEF791
S31508003D6099FF1E49E06A0968C96A884202D3012098
S31508003D701B4908601648006808B9012000E00020C1
S31508003D800028D2D00CB1FEF77FFD1648056865B14C
S31508003D9000BFFFF755FE10B10120114908606D1EDE
S31508003DA0002DF6D100200F4908600D48006838B18B
S31508003DB0012630070C490860BFF34F8FBFF36F8F9A
S31508003DC0FEF79EFF304670BD800000205800002098
S31508003DD0BC090120600000200809012048000020D5
S31508003DE06C0000206800002004ED00E02DE9FC4787
S31508003DF005460E4617469846DDF828902820FEF711
S31508003E0031FE044654B1002084F8240043463A465D
S31508003E1031462846CDE90094FEF748FB2046BDE822
S31508003E20FC872DE9FC4706460F4690469946DDE98C
S31508003E300AA5282001900198282801D1012000E030
S31508003E40002050B900BF502080F31188BFF34F8F70
S31508003E50BFF36F8F00BF00BFFEE700BF55B900BFB5
S31508003E60502080F31188BFF34F8FBFF36F8F00BFC9
S31508003E7000BFFEE72C4654B1022084F824004B46C6
S31508003E80424639463046CDE900A4FEF70FFB2046E8
S31508003E90BDE8FC8710B586B00024FEF755F916482C
S31508003EA00068D0B100200590049003AA04A905A8CB
S31508003EB0FEF7B8FE0222DDE904100023CDE9002151
S31508003EC002900EA10F48039AFFF746FD0E490860B7
S31508003ED00846006800B1012400BF54B900BF50204D
S31508003EE080F31188BFF34F8FBFF36F8F00BF00BFFA
S31508003EF0FEE7204606B010BD8C000020546D7220E7
S31508003F0053766300CD290008900000202DE9FE4372
S31508003F1004460D4616461F46DDF828804FF0000970
S31508003F2054B900BF502080F31188BFF34F8FBFF3F9
S31508003F306F8F00BF00BFFEE71448006810B30095F6
S31508003F4001960294062D15DAFFF764FD022808D1BA
S31508003F500023424669460D480068FFF77FFA814606
S31508003F6010E000231A46694608480068FFF776FA03
S31508003F70814607E000233A46694604480068FFF789
S31508003F8041FB81464846BDE8FE8300008C000020C0
S31508003F90AB03000800000000EC3F0008A10300087E
S31508003FA00000000000000000800000000000000083
S31508003FB000000000E83F00089F1700080200000004
S31508003FC000000000000200000000000000000000E1
S31508003FD000000000000000000102030406070809AB
S31508003FE000000000010203046C636400636D796BD2
S31508003FF0000000001440000800000020980000009F
S31508004000DC1E0008AC400008980000204812010099
S31508004010EC1E000800000000000000000000000080
S315080040200024F40000000000100000000100000059
S315080040300000000000000000000000000000000072
S315080040400000000000000000000000000000000062
S31508004050AAAAAAAA000000000000000000000000AA
S315080040600000000000000000000000000000000042
S315080040700000000000000000000000000000000032
S315080040800000000000000000000000000000000022
S315080040900000000000000000000000000000000012
S311080040A000000000000000000000000006
S7050800019958
