:020000040800F2
:10000000C0260020C9010008CD010008CF0100086A
:10001000D1010008D3010008D5010008000000004C
:10002000000000000000000000000000D7010008F0
:10003000D901000800000000DB010008E9FE00080B
:100040003104010871FC0008E9FF0008C1FE000846
:10005000EDE0000859FE0008D5DE00080DDF0008BD
:1000600015DF000829E000082BE00008DF01000888
:10007000DF010008DF010008DF010008DF010008E0
:10008000DF010008DF010008DF010008DF010008D0
:10009000DF010008DF010008DF0100082DE0000893
:1000A000EBFF0008F1FF0008EFFF0008EDFF00087C
:1000B0004100010865000108670001088DE500089E
:1000C0008BE5000891E500088FE50008C3FE0008F5
:1000D000C5FE0008D9010108DB010108DD010108A6
:1000E000D9DE0008B9FE0008DF01010800F002F8BF
:1000F00000F05AF80AA090E8000C82448344AAF168
:100100000107DA4501D100F04FF8AFF2090EBAE865
:100110000F0013F0010F18BFFB1A43F0010318473B
:100120007C3906009C3906000A444FF0000C10F898
:10013000013B13F0070408BF10F8014B1D1108BF65
:1001400010F8015B641E05D010F8016B641E01F805
:10015000016BF9D113F0080F1EBF10F8014BAD1C55
:100160000C1B09D16D1E58BF01F801CBFAD505E073
:1001700014F8016B01F8016B6D1EF9D59142D6D3CD
:10018000704700000023002400250026103A28BFF5
:1001900078C1FBD8520728BF30C148BF0B607047F9
:1001A0001FB51FBD10B510BD0DF099FC1146FFF72E
:1001B000F7FF11F027FB0DF0B7FC03B4FFF7F2FFD8
:1001C00003BC0DF0BDFC000008480047FEE7FEE759
:1001D000FEE7FEE7FEE7FEE7FEE7FEE7FEE7FEE7F7
:1001E00003480449024A044B70470000ED00000830
:1001F000C01E0020C0260020C01E002010B5002216
:10020000C0F30B00B0F5006F02DDA0F50060012225
:10021000B0F5806F01DDC0F500608311FA4C00F08D
:100220003F00C0F1400134F813004843402906D094
:1002300004EB4303C1F140015B8803FB0100203064
:100240008009002A00D0404210BD00F58060D5E74B
:10025000EE4B1A7D012A05D0521E02EBD2725210CB
:1002600001F084B89A6C526810472DE9F84F0546A2
:100270008846541BA3EB080791469B464FF0000AA3
:1002800054EA07002CD0204600F0EFF90646384625
:1002900000F0EBF986420ADA20463C46074628463B
:1002A000454680464846D94683464FF0010A2046D7
:1002B00000F0DBF9A04203D064427F424D46D846AD
:1002C00004EBD4704FEA6009002F01DAC9F100098C
:1002D000DFF838B34FF000069BF8160098B132E013
:1002E0002846BDE8F84FB3E707FB069090FBF4F112
:1002F00001EB0800BAF1000F09D0DBF84820A9197A
:1003000052689047761CA642EEDDBDE8F88FDBF818
:100310004810AB194A6801461846F2E707FB0690F9
:1003200090FBF4F101EB08000090304600F0E3F997
:1003300040B9BAF1000F09D0DBF84800A9194268AA
:1003400000989047761CA642E8DDDEE7DBF848100F
:10035000A8194A680099F4E72DE9FF470746AB481A
:1003600015468846027D1E46012A1CD0781BA8EB44
:10037000060150EA01036DD0A2F1010900F079F9FC
:1003800000F580608446FFF760FF00FB09F46046DB
:10039000FFF734FF00FB09F1002C0ADAC4F5007006
:1003A0008012404208E004B02A463846BDE8F047D3
:1003B0005BE704F50074A012002904DAC1F50071AE
:1003C0008912494202E001F500718912002804DD1A
:1003D000421C02EBD272521003E000EBD0725210BA
:1003E000401E00EBD0704310002904DD481C00EBD8
:1003F000D070401003E001EBD1704010491EBC18D2
:10040000ADF8004008EB0004ADF80240FC1A01EB27
:10041000D1714910ADF80440A8EB0104EB1AADF816
:100420000830711AADF80A10A918ADF80C10304454
:10043000ADF80E000023ADF806401A4604216846C8
:100440000AF069FA4146384600F08EF931462846EE
:1004500000F08AF9BDE8FF872DE9F0416B4D2E6C65
:100460003418686C16444518C718002009F010FAB3
:1004700007E03B46324629462046FFF76DFF09F06C
:10048000E0F90028F5D1BDE8F08170B55F4C054674
:100490000E46B4F92810B4F9260033462A46FFF771
:1004A0005BFFE584268570BD584AD084118570476E
:1004B0002DE9F04105460446B0F9020088461F4682
:1004C000C119B4F9000016463044FFF7EDFF07E00C
:1004D000B4F90600C11934F9040F3044FFF7D5FF11
:1004E000A8F10108B8F1000FF2DCB4F90010B5F979
:1004F0000000814205D1B4F90210B5F90220914201
:10050000C1D0B5F9021030443944BDE8F041BCE730
:10051000B9E72DE9F04106463C480F46016C406CB6
:100520008C18C518002009F0B3F907E02B462246C5
:1005300039463046FFF7BCFF09F083F90028F5D1B2
:10054000A1E7324AD38C1844D084108D084410851A
:10055000704770B504460D46002009F099F960B166
:100560002A4EB6F92810B6F926004B190219FFF7E2
:10057000F3FE09F066F90028F3D129462046BDE8CC
:100580007040DEE770B5214D2A6C1618686C44186F
:10059000002009F07DF909E032462346B5F928101C
:1005A000B5F92600FFF7D8FE09F04BF90028F3D182
:1005B00021463046BDE8704076E7144A136C526C11
:1005C0001844114470E72DE9FC41104D2C6C95F84E
:1005D00014C02718686CA618ACF1010C4518C41893
:1005E000A7EB0C00ADF8000006EB0C00ADF8040022
:1005F000A5EB0C00ADF8020004EB0C00ADF8060012
:10060000684609F045F919E098DE0508A41B0020AA
:100610003246294638460AF0B1FE3246214638466F
:100620000AF0ACFE621E691C38460BF011F8621E1F
:10063000691C30460BF00CF809F003F90028E7D1EB
:10064000BDE8FC8170B54B4A136C1D18506C441802
:10065000002009F01DF905E021462846FFF7F8FDC6
:1006600009F0EFF80028F7D170BD002800DC404207
:10067000704710B50022002801DA0122404200290B
:1006800002DA42F002024942814204DD0B46014691
:10069000184642F00402890200EBD07301EB6301BB
:1006A00091FBF0F080100311334C00F00F00C0F10B
:1006B000100134F913004843102907D004EB430319
:1006C000C1F11001B3F9023003FB010000F1080091
:1006D0004FEAE07100EB11704FEA2010510701D58D
:1006E000C0F58060D10701D0C0F50060910701D549
:1006F000C0F5805010BD1F49897D012906D002290F
:100700000ED0032918D0042914D11EE0801DC11772
:1007100000EB117121F00F01401A0C2808DB09E0F1
:10072000C11700EB917121F00301401A022801DA90
:100730000120704700207047142190FBF1F201FB6B
:1007400012000C28F4DB10380BE0182190FBF1F2BA
:1007500001FB12000C28EBDBA0F110010229E7D30A
:1007600014380228E6D2E3E7024A527D002A00D17B
:100770006EE57047A41B0020BADE05087CB51F4C4F
:100780000546608C216C08446084A08C616C084430
:10079000A084284600F044FD0146608CADF80000BE
:1007A0000844401EADF804000AF00CFA0146A08C83
:1007B000ADF802000844401EADF80600684609F096
:1007C00067F804E0284600F001FD09F03AF8002837
:1007D000F8D10A2D03D0BDF80400401C6084608C61
:1007E000216C401A6084A08C616C401AA0847CBD8E
:1007F000C4E7024B59849A84C0E70000A41B002080
:10080000024B59849A8409F045BF0000A41B0020C4
:100810002DE9F04104460A480D461646B0F92C0071
:1008200040F002000AF0EAFA07463246294620461E
:10083000FFF7E6FF3846BDE8F0410AF0DFBA0000F6
:10084000A41B00202DE9FF4F85B000240E469146E1
:100850009A462546DDF814B00AF0B4F9804626B170
:10086000306800907068019002E068460AF097F9DD
:1008700019F00C0F02D05646012713E0BDF90240D3
:100880002DE0314605980AF066FB0146761A059878
:100890000AF005FB05990844059005A809F04CFDF0
:1008A00010B97F1C002EECD109F00C00042804D0F4
:1008B000082802D00C2812D105E0BDF9061007FB6C
:1008C0001814641C0BE0BDF90600BDF90210421AB1
:1008D00007FB1820401C00EBD07001EB600456466B
:1008E000CDF814B046E0314605980AF034FB0746CF
:1008F0000146F61B05980AF046FB19F003010ED0DD
:1009000001290FD0022911D1BDF90410BDF9002031
:10091000891A091A01EBD17102EB610506E0BDF9F4
:10092000005003E0BDF904100D1A6D1C2649401E4D
:1009300028444D84ADF80C00ADF808508C8404EBCD
:100940000800401EADF80E00ADF80A4002AA394674
:1009500005980AF02FFB394605980AF0A0FA059988
:100960000844059000F024FC044405A809F0E4FCC8
:10097000002801D1002EB6D109B0BDE8F08F2DE9D5
:10098000FC410600174698460D4617D0002465B175
:1009900008460CF073FB040007D00246294668465F
:1009A00009F0F3FC68460CF069FB43463A462946D9
:1009B0003046FFF747FF20460CF060FBBDE8FC81A6
:1009C00047F6FF73DBE70000A41B00202DE9FF477B
:1009D00007460C9E0D469046994666B30024009447
:1009E00001949DB1286800901C4A696801911060CB
:1009F000516028460CF042FB040007D0024629460D
:100A000002A809F0C2FC02A80CF038FB304600F046
:100A100017F805467168684688474B46424669465E
:100A20003846FFF70FFF20460CF028FB284600F061
:100A300007F8BDE8FF8704B0BDE8F047FFF79FBFA8
:100A400010B5074C074A216808B1002301E0054BA7
:100A50001B1D13612060084610BD0000EC00002043
:100A600060010020A41B00202DE9FC410F4F03462C
:100A7000386C4518796C8618CC18ADF80050ADF874
:100A80000460ADF80240ADF80640684608F000FF8B
:100A900007E0B86C3246214603682846984708F0BC
:100AA000D0FE0028F5D1BDE8FC810000A41B002089
:100AB0007CB50E4B1C6C0444586CADF800404518D6
:100AC0008618ADF80440ADF80250ADF806606846EF
:100AD00008F0DEFE06E03246294620460AF0B8FD60
:100AE00008F0AFFE0028F6D17CBD0000A41B00205A
:100AF0000B4810B50068002410B1804700B10124F4
:100B000009F00FF800B10124204610BD10B50024F3
:100B100000E00124FFF7ECFF0028FAD1204610BDC9
:100B2000540100202DE9FC410F4E346C2518706CE7
:100B300014444618C718ADF80050ADF80440ADF89D
:100B40000260ADF80670684608F0A2FE07E03B467A
:100B50002246314628460AF02CFC08F072FE002896
:100B6000F5D1BDE8FC810000A41B0020B0F90630DF
:100B7000B0F90420B0F90210B0F90000FFF7D2BFBD
:100B80000348B0F9220070470148B0F924007047CB
:100B9000A41B002000F00CB800F00EB870B50D4694
:100BA00000F00AF80446284600F002F8204370BD21
:100BB0000349888400207047014948840020704719
:100BC000A41B0020FEB52E4D681E2978024601F0B8
:100BD000030404706B785268CE0605D5C3F1000398
:100BE000DBB2A2EB030200E01A448B062449426008
:100BF000A1F10101AA78896803D55242D2B2114409
:100C000000E0891A816041680022002901DA42600F
:100C100005E0B1F5F07F02DB40F2DF114160816851
:100C2000002901DA826005E0B1F5A07F02DB40F225
:100C30003F11816041680091806801908DF8084003
:100C400068460AF06FF8FEBD10B50D4C641E621CBC
:100C5000E16849B15054491CE160032903DBFFF707
:100C6000B1FF0020E06010BDC0F381010229FAD17C
:100C700010700120F6E702490020491EC860704745
:100C8000F50000201E49002248684A6070471C4950
:100C90004A68002A00D14860704700B5FFF7F2FFAC
:100CA0000028FBD100BD164A0832C2E900011449F0
:100CB00001200860704770B5114A002011680029B2
:100CC0000FD0491E02F108041160D4E900512846F2
:100CD0000CF094F86068012802D12846FFF7D7FF8E
:100CE000012070BD70B504460D460CF087F8002851
:100CF00004D129462046BDE87040D4E770BD00000D
:100D0000040100200748007D70470648407D704779
:100D1000044A0146107D11757047024A0146507D14
:100D200051757047A41B00200AF070BC0AF07ABC11
:100D3000024A916900B1906108467047A41B0020E7
:100D400030B402465F4C0B46401C07D0581C05D0FF
:100D50006068411C02D0A1684D1C02D14FF0FF30E9
:100D60000146C4E9012330BC0AF058B85548C068B0
:100D700070475448006970475248AA2124300160E6
:100D800040F60A7141608160C821C16070472DE959
:100D9000F84F04000A9D0E46174699464FF0000092
:100DA00010D040F23F118846B9EB050100D5494209
:100DB000142904DBF11B00D54942142905DA01206E
:100DC000BDE8F88F40F2DF11EDE74B463146009564
:100DD00000F06EF8DFF8ECA04B460AF1240A3A4620
:100DE0004AF8340031464046009500F061F80AEBBD
:100DF000C40148600020E3E7324B10B5243353F8B8
:100E0000304003EBC0000C604068106010BD70B54E
:100E10002C4D2C4C2435D5E90001884202DAC4E976
:100E2000050101E0C4E90510D5E90201884202DAB2
:100E3000C4E9070101E0C4E907102078B0B10DF062
:100E400051FAE0600DF04CFA04F10C0007C8904232
:100E500008DBA269904205DCE269914202DB226A6A
:100E600091420BDD4FF0FF3001461CE00DF0CEFA51
:100E700020610DF036FA2078401C17E02A68801AAD
:100E800000EB4013C3EB40206B689A1A90FBF2F31F
:100E9000AA68881AC0EB801101EB0020E968891A62
:100EA00090FBF1F11846FFF74BFF0020207070BD5A
:100EB00010B5401A029CE41A4443501A94FBF0F017
:100EC000184410BD140100202DE9F04782464FF070
:100ED000FF390025DFF8C88219E006EB460531F836
:100EE0001000528831F915701044381A04B2544574
:100EF0000CDA5CB1AB48391808EB4500B0F90220B8
:100F0000081B0CF011FD381B28F81500354605EBC1
:100F1000450008EB400241461679002EDDD105EB75
:100F2000450208EB400031F91220B0F902001044EC
:100F3000C0F5A051514500DBA9460FFA89F0BDE884
:100F4000F0879948A1210422416081604FF4A051AB
:100F5000C18101820021016081819148428001802C
:100F6000017192490120087070472DE9F041044653
:100F700000F00FF9E41CDFF8308224F0030004B223
:100F8000B8F90E00A04257DB854E012000EB40016E
:100F900006EB4101498851B1401CA228F6DB00252F
:100FA000F5B3204600F0CBF8411C02D006E005B2B4
:100FB000F6E72046FFF788FF411C3DD000EB4002DA
:100FC00006EB420C36F81210BCF8022005EB450780
:100FD0008B1806EB47029CF80410548026F8173053
:100FE000117121B101EB410106EB41014D715071CD
:100FF0008CF80450D8F800004146401CC8F80000A6
:10100000D8F80400401EC8F80400D8F8082082422E
:1010100000DD8860888920448881C889001B00E041
:101020000AE000B2C881B1F91020824201DDA8F8BF
:1010300010002846BDE8F0810020FBE7002800D022
:1010400093E77047002806D0554900EB400031F97E
:10105000100054490844704710B500F09AF85248FF
:10106000B0F90E0010BD70B5002400F092F8002019
:101070004B4D0DE035F812005A88104401EB410247
:1010800035F81220101A00B2A04200DD04460846CE
:1010900000EB400205EB420319790029EAD100EB8D
:1010A000400005EB420135F91000B1F90210084487
:1010B000C0F5A05000B2A04200DD0446204670BD3D
:1010C000002806D0364900EB400001EB4000B0F9A3
:1010D00002007047002801D000F00AB8704710B530
:1010E0000446B0F90000FFF7F5FF0020208010BD96
:1010F0002B4B00EB400010B503EB4001B1F90200AF
:1011000000281BD0284AD4890444D4819489201A09
:101110009081002048800879497901EB410403EB74
:101120004404207120B100EB400003EB400041710A
:101130005068401C50601068401E106010BD30B5F3
:101140000021174D0CE035F91330B4F90240234467
:1011500002EB420435F91440E31A834214DA1146D3
:1011600001EB410305EB43042279002AEBD101EBAB
:10117000410205EB430335F91220B3F902301A445A
:10118000C2F5A052824201DB08B230BD4FF0FF3001
:1011900030BD06480078002800D1D2E67047000034
:1011A000C4170020C4030020901B00204801002029
:1011B0001D488069407D704700B5FFF7F9FF1A4967
:1011C0008A8C10448884088C488400BD10B504467D
:1011D0000A280ED00D2C0FD01348806901682046D4
:1011E000884712480168002906D02046BDE8104013
:1011F0000847BDE81040DFE710BD0B490020898D8E
:1012000001F00C020849042A896906D0082A01D095
:101210000C2A01D1087D40087047087D401E7047A8
:101220000149896949680847A41B00205C01002026
:101230002DE9FC5F05461746DFF8B483384400907B
:10124000D8F848001C460E4601EB0409426849469E
:1012500000989047E81B0190D8F84800494642683A
:1012600001989047D8F8480006EB070B05EB0409F6
:101270004268594648469047D8F84800A6EB070A06
:101280005146426848469047002C1AD0D8F848008A
:10129000371B46464268394600989047B06C39463D
:1012A000426801989047B06C2C1B59464268204612
:1012B0009047B06C5146426802B02046BDE8F05FEE
:1012C0001047BDE8FC9F2DE9F0478046894640F273
:1012D000C32050434FF47A7190FBF1F602FB02F009
:1012E00002EBD27100EB6107761C144600234946DD
:1012F0004046FFF79DFF012513E005FB05F004FBC9
:101300000400B84206DD23462A4649464046FFF718
:101310008FFF641E23462A4649464046FFF788FF52
:101320006D1CB542E9DDBDE8F0877CB51446B04AD6
:10133000136C1D18506C4618281BADF800002819B6
:10134000ADF80400301BADF802003019ADF806000E
:10135000684608F09DFA06E0224631462846FFF727
:10136000B2FF08F06EFA0028F6D17CBD2DE9F84FE7
:1013700006460F4640F2C32050434FF47A7190FB6B
:10138000F1F000F1010802FB02F002EBD27100EB78
:101390006100DFF85CB21446B1180090DBF8482019
:1013A000301B13680A4639469847012532E005FB91
:1013B00005F004FB04010098814218DD444515DD69
:1013C000DBF8483006EB0509A6EB050A1B68A9F116
:1013D000010239190AF101009847DBF84830A9F1F8
:1013E0000102391B1B680AF101009847641EDBF8F3
:1013F000480006EB0409A6EB040A036879194A467B
:1014000050469847DBF84800791B4A460368504627
:1014100098476D1C4545CADDBDE8F88F70B5744B23
:1014200014461A6C1518586C4618002008F030FA4B
:1014300006E0224631462846FFF798FF08F001FAF9
:101440000028F6D170BD2DE9FC5F07461E4602FB61
:1014500002FB88460BFB06F000FB06F101EB50098E
:1014600014460025DFF888A123E005FB05F00BFBFF
:1014700000F206FB06F100E0641E04FB04F001FB31
:101480000020002C01DD4845F6DC3A19381BCDE977
:101490000020DAF8483008EB05011B6898473DB199
:1014A000DAF84800A8EB05010368DDE90020984759
:1014B0006D1CB542D9DD04E72DE9FC4116464C4AC6
:1014C0001F46136C1C18506C4518A01BADF800008B
:1014D000A019ADF80400E81BADF80200E819ADF85A
:1014E0000600684608F0D4F907E03B463246294634
:1014F0002046FFF7A8FF08F0A4F90028F5D1BDE8C1
:10150000FC812DE9FF5F8B4602FB02F103915943F9
:1015100080469A4601FB0AF000EB51001446A146B2
:10152000002502903CE001D1002410E0039905FB66
:1015300005F041430AFB0AF200E0641E04FB04F0DC
:1015400002FB0010002C02DD029B9842F5DC2DB35B
:10155000A8EB04000090ABEB0506A8EB0900711C9A
:1015600033460190009AFEF780FE0BEB0507DDE99C
:101570000020791E3B46FEF778FE08EB0400009041
:1015800008EB0900711C81463346009AFEF76DFE98
:10159000791E3B464846009AFEF767FEA1466D1C41
:1015A0005545C0DDBDE8FF9F2DE9FC411646104AB8
:1015B0001F46136C1C18506C4518A01BADF800009A
:1015C000A019ADF80400E81BADF80200E819ADF869
:1015D0000600684608F05CF907E03B4632462946BB
:1015E0002046FFF78EFF08F02CF90028F5D186E79A
:1015F000A41B00202DE9FC4104460D4616461F465B
:10160000042009F093FE36498046086C496C044476
:1016100006440D440F44ADF80040ADF80460ADF849
:101620000250ADF80670684608F032F907E03B4614
:1016300032462946204609F0BCFE08F002F900288F
:10164000F5D1404609F072FEBDE8FC8110B50021DD
:101650000846FFF7A3FA40F6FF725042BDE810407B
:1016600013460146C6E770B51E4D2E2028700CF0BB
:101670008BFF1B4C261D201D26610AF00DF81A4811
:10168000A0641A482661A0610120207508F098FB2B
:10169000A087032084F84C006FF0704020636063E3
:1016A000002009F0B3FF6FF07F4009F0BBFF104846
:1016B000E06109F08EFF044608F094FA0AE00A4857
:1016C000083008F0E7FF00210846FFF767FA69686D
:1016D000491C696068686428F1DB204670BD000021
:1016E000A41B00204C010020DCDE050854EB05089B
:1016F00088210608F94B30B4B3F902408C4210DC63
:10170000B3F906408C420CDBB3F90040844208DC9C
:10171000B3F90430834204DBF14B1B685B6A30BCD5
:10172000184730BC7047ED4AB2F902308B420DDCED
:10173000B2F906308B4209DBB2F90030834205DC96
:10174000B2F90420824201DB0DF01ABB0020704781
:10175000E24A10B5203A9068002813D04168136916
:10176000591A02F11803198084685269121B5A80B1
:10177000046824882144491E9980006840881044E8
:10178000401ED88010BDD54910B52039097851B117
:1017900028B1D249083909F0E8FA002802D000F04F
:1017A00085F9012010BD002010BD00F08AB9CB4999
:1017B00020398878401E10F0FF00887001D100F0B9
:1017C00080B97047C54920398878421C8A70002842
:1017D00001D100F06BB970472DE9F047BF4F0646C5
:1017E000203FB868814686422ED03568E868046894
:1017F000042C00DD0424DFF8E48208F1080807E087
:10180000E868806850F8240009F0FCFE28F814000D
:10181000641EF5D200F04AF92888698848434400DC
:10182000F868844205D0B7F90400FFF753FC0020A4
:10183000B88020B208F00CFFB88001207870BE603C
:10184000FFF786FF00F03DF94846BDE8F08710B588
:1018500000F02CF9A149002020394870A149086006
:10186000A149086010BD10B59C4809F015FF00F0B3
:101870001DF99A48012120389A4A41709B4911600C
:10188000994A9B491160806818B1BDE8104000F08A
:1018900018B9BDE8104097489EE72DE9F34F8F4BEC
:1018A0008FB0203BB3F9040000286FD01A690F995C
:1018B0008A4201D0012100E000215C69109A944223
:1018C00001D0012200E0002211435FD0834920397A
:1018D0004978002974D0814C203CA16809680B919B
:1018E000FFF7B0FB0A90A0680F9A00680188099181
:1018F0002369A2EB03084FF0FF32B8F1000F09DDB6
:10190000012305930023CDE90031491ECDF8108055
:10191000069108E0491E0592CDE9001200210491CC
:1019200000994144069110996369A1EB0309B9F14B
:10193000000F09DD01210391408807900025401E1A
:10194000CDF8089008908FE0039245886D1E002026
:10195000029005EB0900CDE9072085E0029805EB30
:101960000907854204DB0898854201DC012000E07C
:1019700000200C900298874204DB0898874201DC23
:10198000012000E000200D90009C68E07AE00A98B9
:1019900004EB080600EB440109982A46684301EB72
:1019A000400B21460B9809F0B3F882460498844214
:1019B00007DB0698844204DC0C9810B1012001E09A
:1019C00056E0002004998E4206DB06998E4203DC25
:1019D0000D9909B1012100E000210E91BAF1000F2B
:1019E00014D038B1A5EB0902A4EB08010B9809F05B
:1019F0008FF858B93948BBF800200838B0F9021000
:101A0000B0F9000029442044FFF774FE0E9838B165
:101A10000A9800EB46010998784331F810000AE073
:101A20002E480838B0F90210B0F9000039443044AB
:101A3000FFF779FE80B2ABF800005FEA0A000CD035
:101A400000F023F882B225480838B0F90210B0F946
:101A5000000039443044FFF74DFE059804440198D6
:101A6000844294D103980544079885427FF476AF69
:101A70001A480F99203801611099416111B0BDE8F1
:101A8000F04F65E611B0BDE8F08F042804DA134981
:101A9000083131F810007047104920398968096809
:101AA000C968896851F8200009F0ACBD10B50B4C2D
:101AB000203C2078002803D000F01EF80020207081
:101AC00010BD064820384178002906D081780029C9
:101AD00003D10121017000F045B870478C0100204E
:101AE0000C03002064010020680100208717000813
:101AF000AB1700087C2106082DE9F0473D4CB4F9EE
:101B0000040000282DD0FFF79DFA064604F11800C6
:101B10008046B0F90410B0F90020A2468F1AB0F93F
:101B20000610B0F902207F1C891A01F10109002575
:101B300015E000240AE0B8F90210B8F9000036F800
:101B4000142029442044FFF7D5FD641CBC42F2DB7D
:101B5000DAF808006D1C0068008806EB40064D4569
:101B6000E7DB72E62DE9F0472249B1F904000028CD
:101B70003ED08968D1F800A0FFF764FA1D4F0646F1
:101B80001837B7F90400B7F90010401A00F101083E
:101B9000B7F90600B7F90210401A00F10109002553
:101BA00024E000241BE0B7F902004119B7F9000056
:101BB0002044FFF7B8FD26F814002A462146504677
:101BC00008F0A6FF50B1FFF760FF0246B7F9020028
:101BD0004119B7F900002044FFF78CFD641C44450F
:101BE000E1DBBAF800006D1C06EB40064D45D8DB82
:101BF0002BE600006C0100200CF0C0BC70B5044660
:101C00000CF0BCFC051907E0FEF780FF052C00DD99
:101C1000052420460CF08EFC0CF0B0FC2C1A002C95
:101C2000F2DC70BD1FB503ABCDF80CD008F0BEFCE4
:101C3000684608F02FFD1FBD7FB50C461546CDF850
:101C40000CD003A908F0A3FC641EE1B203AB2A4642
:101C500008F0ACFC684608F01DFD7FBD1FB503A968
:101C6000CDF80CD008F070FC684608F013FD1FBDDD
:101C70007FB5051E01A80C46009006DA6946284685
:101C800008F085FC641E0546E4B2284608F06AFCAC
:101C9000C2B2202003E0009B03F8010B0093114621
:101CA000521CD2B2A142F6D36946284608F04CFC39
:101CB00001A808F0EFFC7FBD0022BDE70022B1E7DC
:101CC0007FB50D4616461946CDF80CD003AB002261
:101CD00008F06CFC324629466846FEF791FD7FBD50
:101CE00010B5C48842880188A41A83880C44591A04
:101CF00084801144C18010BD7CB504460020009052
:101D000001900D46684608F0D5F809F0DDFC461E46
:101D100009F0DDFCBDF90410401EB14201DDADF853
:101D20000460BDF90610814201DDADF80600BDF981
:101D3000002029682068511A2160BDF9021008446A
:101D400028609F482168B0F904201144B0F90220AE
:101D500011442160B0F902202968B0F90000114453
:101D6000081A28607CBD2DE9FF4F89B09B460A996F
:101D7000924601EB0B00401E0999039001EB0A000B
:101D8000401E029000251A9E0AA909A8FFF7B4FF79
:101D900003A902A8FFF7B0FF1698012802D11798EF
:101DA000012808D01898C0F1080005900998009003
:101DB00000200190A1E0834B039A0020B3F90A10A0
:101DC000914202DA521AAAEB020AB3F906400A9AC1
:101DD00094420DDD881A1899AAEB000A012907D14F
:101DE00020F0070106EBE006511A00F007000A9107
:101DF000BBF1000F32DDB3F90810099A914207DAFE
:101E0000511A521A0992199AABEB010B01FB0266A7
:101E1000B3F9042002998A4204DD521A1144ABEB53
:101E2000020B0291BAF1000F18DDDDE9099104916E
:101E3000DDE91885059000241B9F0DE0B8F1010F26
:101E400008D1CDE900A7DDE90413A9EB040032466F
:101E500000F057F82E44641C5C45EFDB0DB0BDE884
:101E6000F08F17990098401A07905649401C04902B
:101E7000B1F90420824239DC0846B0F90810009814
:101E8000814233DB0024B046A1460A9F2CE014B9FE
:101E900018F8015B0824059935FA01F0189905FA3C
:101EA00001F5EDB2A4EB010403D14649097B890792
:101EB00016D44449498806911B9921B131F8101074
:101EC0004048418001E03F494880169839463B1818
:101ED0005B1E009A049809F06CFA3A49069848800B
:101EE000169809F101090744D145D0DB0198401C3F
:101EF0000190079800901998064401995945B0DB64
:101F0000ACE72DE9F05F8346DDE90A701C46B0F8C6
:101F10000090B0F802802B480E1B1546007B4FF056
:101F2000800110F0030013D001282DD0022824D105
:101F30008946297829FA04F0014204D04246314604
:101F400058460CF04DFF761C641C082C17D018E086
:101F50008A4629782AFA04F0014201D0424600E07C
:101F60004A46314658460CF03BFF761C641C082C50
:101F700001D100246D1C7F1EEBD1BDE8F09F002431
:101F80006D1C7F1ED5D1F8E788464FF6FF7929787A
:101F900028FA04F0014209D0314658460CF0F0FE10
:101FA000A9EB0002314658460CF01AFF761C641C5F
:101FB000082C01D100246D1C7F1EE8D1DDE7000054
:101FC000EC000020A41B00202DE9F043C68C044641
:101FD00087B04FF00009C6F3002508460AF0FCFC64
:101FE00008B12F4600E00227206CFEF7A1FEB4F9ED
:101FF000480010B1FFF726F88146684608F0CFFD8B
:10200000DDE90001CDE9020145B3002009F00AFB3A
:10201000BDF90630BDF90420BDF90010BDF902007C
:10202000FEF7D1FA012202A9084608F0D7F904EB1D
:102030008708D8F8280009F0E9FAD8F8340009F040
:10204000F1FA02A80BF01AF8FFF700FB022F0DDAE5
:10205000B4F84C0040B13DB101200BE0206A0068AB
:102060008047206A4269DEE7002003E0B4F84E00B2
:1020700000B1022004EB40000022B0F94A001146F2
:1020800009F0B0FEDDE90201CDE9040125B101222C
:10209000114604A808F05AFE022008F0B7FEB4F971
:1020A000442004A94846FEF78BFCF00706D0002028
:1020B00009F0B8FA0221684608F0CAFB00200AF0CD
:1020C000DDFF07B0BDE8F08370B5B0F904600546E8
:1020D0003046FEF7B7FF04462946304606F002FDBB
:1020E000002840D028680B282CD00C2802D00F28BC
:1020F00034D122E0A9683046C9B1097A0029E18CBF
:102100004FEAC1510FD000292DDB35464FF48071C5
:1021100006F0BEFCA18B880725D52846BDE8704097
:1021200001210AF062BE00291DDA022200E003222A
:102130002146BDE8704000F090B831462046BDE829
:10214000704041E704F14800FEF7C9FF04F14A007E
:10215000FEF7C5FF04F14C00FEF7C1FF2846BDE8BD
:10216000704007F0E8BC70BD2DE9FF413025DDE986
:102170000A74AFF2AB06DDF83480A4B20097039581
:10218000CDE9014607F021FA04000CD0FEF75AFF12
:1021900005461022414606F09FFC20223B4905F1EE
:1021A00028000BF003FC04B02046BDE8F08170B5B8
:1021B0000D4604000CD0FEF745FF2946483008F0D4
:1021C0001AF9002804D02046BDE8704007F0FBB99A
:1021D00070BD70B50D46040007D0FEF733FF0564EF
:1021E0002046BDE8704007F0EEB970BD70B50C46F2
:1021F000164605000BD0022C09D8FEF723FF00EB92
:10220000840086622846BDE8704007F0DCB970BDE6
:1022100070B50C46164605000BD0022C09D8FEF707
:1022200011FF00EB840046632846BDE8704007F0CC
:10223000CAB970BD06F013BC4FF480720029114674
:1022400001D006F025BC06F035BC00294FF0100186
:1022500001D006F01DBC06F02DBC70B50C4615462D
:1022600006464FF4807106F025FCA08B800703D54D
:10227000294630460AF0B9FD022D05D1B4F92400F3
:10228000BDE87040FEF703BD70BD0000A401002052
:1022900070B504460D4610461946049A09F0D7FD5C
:1022A000024629462046BDE8704009F025BA08B527
:1022B00000230093FFF7ECFF08BD7FB515460446E9
:1022C000B0F90820408A1E460023CDE90013CDE96D
:1022D0000202B4F90C00B4F910308119B4F90A0003
:1022E000B4F90E202844FFF73FFF05466168FFF769
:1022F0005EFF04B0284670BD10B502000C464FF0DA
:10230000000007D0022C05D21046FEF79BFE00EB22
:102310008400806A10BD10B501004FF0000003D0AA
:102320000846FEF78FFE006C10BD2DE9F0410E4609
:102330001546002815D0FEF785FEB0F948000027A5
:1023400088B1FEF77FFE80460BF07EFA0446681ED9
:10235000844200DD04462246414630460BF09FFA97
:102360003755BDE8F0813770FBE710B502000C4629
:102370004FF0000007D0022C05D21046FEF762FE97
:1023800000EB8400406B10BD10B501004FF0000061
:1023900005D00846FEF756FEC08CC0F3002010BDE5
:1023A0007FB514461D46B0F90820438A0026CDE9C2
:1023B0000232CDE90016B0F90C10B0F91030B0F9C6
:1023C0000E20B0F90A002944204409F0DFFA04B0D5
:1023D00070BD10B509F024FB012800D0002010BD0D
:1023E00070B50C4605000CD0FEF72CFE90F850108E
:1023F000A14206D380F851402846BDE8704007F05E
:10240000E2B870BD3C48006870473B4A014610681E
:10241000116070470EB5002201922A2202910092AB
:10242000694606F04AFF0EBD0EB5002101910291EA
:102430002A210091694606F040FF02980EBD2DE961
:10244000F84304460D461946DDE9080300920246AA
:1024500026682046B047804607F0A6FC8146618A80
:10246000404606F015FB40460AF028FE48460AF0B2
:1024700025FE002609E0009654F8187F00231A462E
:1024800049462046B8470AF019FE6D1E002DF2DCC1
:1024900040460AF095FD1E2148460AF015FD4046CB
:1024A000BDE8F88370B50C460546FFF7BDFF10B1D7
:1024B0000121C0E900142846BDE8704006F026BF9F
:1024C0001CB50021009101916946FFF7A3FF04E0CC
:1024D000FEF71CFB08B90CF03FF800980028F7D075
:1024E00001981CBD7CB5DDE90645CDE90045FFF747
:1024F000A6FFBDE87C40E3E7C401002070B50C46B0
:10250000050015D0FEF79EFDC18D01B1491E8C421C
:1025100000DD0C46B0F92810A14209D004852846F8
:1025200007F051F82846BDE8704004210AF05DBC70
:1025300070BD2DE9FC47FEF785FD0546006AB5F93B
:102540005C60D0F81490286CFEF7F2FBE88CC007B2
:1025500001D0022700E00127B5F92810284600F035
:10256000C6FA8046684607F011FC69464A460846A6
:1025700007F034FFBDF80600BDF80210441A641CD1
:10258000284606F08AFBBDF8040005EB8707001B10
:10259000ADF80400786C09F045F8786C09F036F86D
:1025A0006846FEF7E3FABDF800003044ADF80000DD
:1025B000BDF80400801BADF80400386D09F032F856
:1025C000B5F95E2069464046FEF7FAF9684607F01D
:1025D000DDFB69464A46084607F000FFBDF80400E7
:1025E000001B401CADF80000F94809F01BF86846D4
:1025F000FEF7BCFA002009F015F8BDF90400BDF99A
:102600000010084400EBD0704710BDF90200BDF97E
:102610000610461D081A083800EBD070441006E07A
:102620003A19391B3046FEF71FFA641E761C002C3F
:10263000F6DA6946284606F032FBBDE8FC8770B53D
:102640000546B1F92C000C4610B9206C08F002FBCD
:10265000216AB4F95C20496900EB42000E1820465B
:1026600007F04CFC014632462846BDE870400AF0AF
:10267000E9BC10B501004FF0000004D00846FEF799
:10268000E1FCB0F9280010BD10B50446FFF7F1FFDA
:10269000010000D0411E2046BDE810402EE710B5D5
:1026A0000446FFF7E6FF411C2046BDE8104025E741
:1026B0002DE9F041002827D011290FD013290AD085
:1026C00007460C46FEF7BEFC0646204600F01AFA06
:1026D0000546002415E0BDE8F041E0E7BDE8F04123
:1026E000D2E72146304600F002FA007800F00AFAFC
:1026F000C0B2A84204D121463846BDE8F041FDE60B
:10270000641CF08DA042ECDCBDE8F0812DE9F043C3
:1027100085B05FEA00087DD0FEF794FC0446B0F86F
:102720006000002876D1404607F0AEFBFEF78AFC39
:102730000646204607F0E2FB8146B4F92A50E78DB1
:10274000D4E90001CDE90301B6F902004242B6F92D
:102750000000414203A808F0F9FA94F862008007EB
:1027600003D5BDF80E00401B01E0BDF81200ADF826
:102770000E00404607F088FB0222CDF80090CDE91C
:1027800001520146BDF90E30BDF90C20002009F0C0
:10279000FAFE064694F86200C00708D094F8661066
:1027A000304609F059FF0121304602F091F9002529
:1027B00008E02946204600F09AF90146304602F02A
:1027C00081F86D1CBD42F4DB002504EB8500294631
:1027D000426C304609F020FF6D1C032DF5D3002517
:1027E00004EB85002946026D304609F04BFF6D1C55
:1027F000032DF5D304F128043046A18F09F0F1FE32
:102800003046A16909F0D4FE304607F05DFC26870A
:10281000414600E00BE0304609F010FFB4F900102B
:10282000304601F0D8FD012140460AF0DEFA05B03D
:10283000BDE8F08310B500280BD0FEF703FC04467A
:10284000B0F96000002804D006F060FD0020A4F874
:10285000600010BD2DE9F041B0F904600446304637
:10286000FEF7F0FB0546B0F8600008B1012700E074
:1028700000272146304606F035F900285ED0206852
:102880000F283ED006DC0B283FD00C282BD00E287A
:102890004FD143E011281ED026284AD1A068012834
:1028A00009D00A2802D00B2843D110E00A21304673
:1028B0000AF09BFA3DE0B5F9600001F063FE0146C5
:1028C0003046FFF71BFE304607F0FEFB31E0304696
:1028D000FFF7B0FF2DE007BBA068007AE8B13046F3
:1028E000FFF714FF25E0A168304629B1097A09B144
:1028F000012102E0022100E00321BDE8F0410AF0DD
:1029000074BA3046FFF715FE13E005F12E0009F00A
:10291000ABF9B5F9600006F0F9FC0AE0A06841687F
:10292000002906DD0168092903D03046BDE8F041E1
:10293000BEE62046BDE8F04107F0FDB8E4E62DE92B
:10294000FF411D460BAB8446B3E841010A9F0DF1E0
:10295000040E48241F4B80B20097AEE819004FF0D8
:10296000FF33604606F031FE070016D0FEF76AFB23
:1029700004461022414606F0AFF884F86260202237
:10298000154904F140000BF011F8002084F86600AE
:10299000658521463846FFF752FE384604B0B3E657
:1029A00070B50C46050012D0002C10D0FEF74AFB83
:1029B000064620460AF048FF421C214606F12E003A
:1029C00009F02AF92846BDE8704006F0FCBD70BD4C
:1029D000C0C0C00055280008C801002010B5010083
:1029E0004FF0000003D00846FEF72CFBC08D10BD51
:1029F0002DE9F0410F46060024D0FEF723FB0446E4
:102A0000006C08F027F90546214630462764FFF799
:102A100016FE304606F0D7FDB4F86000002811D04D
:102A2000206C08F017F9A84205D03046FFF702FFE6
:102A30003046FFF76BFEB4F960003946BDE8F0415F
:102A400009F0B6BD60E62DE9F0410D4616460700D7
:102A500014D0032D12D2FEF7F5FA044600EB8500E0
:102A60004664384606F0AFFDB4F96000002805D092
:102A700032462946BDE8F04109F0CEBD44E62DE9D5
:102A8000F0410D461646070014D0032D12D2FEF772
:102A9000D9FA044600EB85000665384606F093FD3A
:102AA000B4F96000002805D032462946BDE8F0415F
:102AB00009F0E8BD28E610B50C46002810D0FEF756
:102AC000C1FA90F86610A1420AD080F86640B0F9C9
:102AD0006000002804D02146BDE8104009F0BCBDCC
:102AE00010BD0B490860704709480068704710B571
:102AF00000242E3009F012F910B1FEF7A3FA0446B3
:102B0000204610BDA0F14101192900D8203070479E
:102B1000C80100207FB514461D46B0F90820438A3D
:102B20000026CDE90232CDE90016B0F90C10B0F95B
:102B30001030B0F90E20B0F90A0029442044FFF704
:102B4000FEFE04B070BD00002DE9F04704468AB0D7
:102B50004FF00008084609F03FFF04EB8000806E4C
:102B600008F054FD206E08F05DFDE06DFEF7E0F822
:102B700007A9204606F0EEFC02A9204605F034FF26
:102B8000B4F9280010B1FEF75DFA8046DDE90201D4
:102B9000CDE90001BDF80010A06D04AA0144491C54
:102BA000ADF80010BDF80410081A401EADF804007E
:102BB00069464046636D07F059FBE08CC00745D07D
:102BC000CDF8188094F8495005B90125B8F1000FE7
:102BD0003CD094F8480008B9606C30B3404607F028
:102BE0009EFB216C814220DA606CA8B100250E4664
:102BF0000AE03146404608F052F9404408F030F906
:102C0000FEF70EFB0544761CD4E910010844B042DF
:102C1000EFDC55B9012508E0404608F040F9404492
:102C200008F01EF9FEF7FCFA0546DDE9046081466E
:102C3000002708E006A808F01FF9FEF7F1FA304473
:102C400060F30F067F1C206CB842F3D1002006F021
:102C50001FFE002822D04FEA264A6D1E36B23544A8
:102C60004FEA294702A80AF009FA04AB6A4602A90A
:102C7000404609F01FFEE08CC00705D03B462A46BF
:102C80005146304607F0EAFF00200AF0F7F92046E7
:102C900006F003F806F0D5FD0028E3D10AB0BDE840
:102CA000F08770B50546B0F928000C46002819D009
:102CB000FEF7C8F907F033FB95F8481001B1012180
:102CC000002C00DA0024844200DD0446B5F92A0015
:102CD000401AA04200DA0446286CA04200D02C64BE
:102CE0000020686470BD2DE9F84F0C465FEA0009CA
:102CF00055D0FEF7A7F90546B0F9280000284ED0B8
:102D0000FEF7A0F90090E86DFEF712F882464846FB
:102D100007F002F90746009807F056FF0646686D6F
:102D200000F00300012816D002280DD0296AA86DF2
:102D300049690844241A641E009807F0F0FA804696
:102D4000002C0EDA002121E0B81B401C00EBD070F3
:102D5000A4EB6004F0E7A96DB81B401A241A641CA8
:102D6000EAE7B44201DD014610E000273E4608E0F4
:102D7000684608F081F8FEF753FA0644A64204DCE0
:102D80007F1C474501DAA642F2DB39462846FFF7A9
:102D900088FF5046FDF7CCFF484606F014FCBDE81E
:102DA000F88F70B50446808D4618B4F92800314676
:102DB00008F088FA050009D0208D20B92846FEF7D2
:102DC00041F900210170A6852585012070BD70B5EF
:102DD00004460D46B4F92820002022B11046FEF723
:102DE00031F90AF031FDA18D2844411A491C00290E
:102DF00005DD10312046FFF7D4FF002800D0012068
:102E000070BD70B50546B1F928000C46002819D0F0
:102E1000FEF718F90646216C08F041F804463046E2
:102E20000AF012FDA0420DD93444204608F014F8EF
:102E3000211820460AF0E4FC2846BDE87040052130
:102E400009F0D3BF70BD70B504460020B4F9281056
:102E500000290BD00846FEF7F5F80546216C08F06E
:102E60001EF82844BDE8704007F0FABF70BD70B589
:102E70000D4606007CD0FEF7E5F8040078D0E26C41
:102E80001AB12946304690476DE0122D4BD008DC30
:102E9000082D50D00D2D66D0102D47D0112D08D102
:102EA0001AE0132D29D01B2D5DD01D2D4ED01E2DC7
:102EB00047D0202D57DB94F8480018B12146304602
:102EC000FFF79FFFAAB22146304600F0D2F948B37F
:102ED000216C491C20462BE0B4F9280010B3FEF702
:102EE000B1F80546216C07F0DAFF4419204607F0D7
:102EF000B7FF7F2837D2401C0FE0B4F9280088B113
:102F0000FEF7A0F80546216C07F0C9FF44192046DA
:102F100007F0A6FF202826D9401E20700521304644
:102F200009F063FF1FE0216C491C01E0216C491E80
:102F3000FFF7B7FE17E0216C491EFFF7B2FE2146EE
:102F400000E001463046FFF75CFF0CE094F84800D3
:102F5000012805D0012084F84800216CBAE707E079
:102F6000002084F848003046BDE8704006F02BBBD6
:102F700070BD2DE9F041B0F9045004462846FEF733
:102F800061F80646284609F027FD074621462846EF
:102F900005F0A8FD00282DD020680B2814D00C289F
:102FA00004D00E2815D00F281FD108E0A068E0B18A
:102FB000017AD1B101682846FFF795FE15E0294650
:102FC0003046BDE8F041BFE506F12800FEF787F87E
:102FD0000BE057B1A0684168002906DD01680929A6
:102FE00003D02846BDE8F04141E72046BDE8F04166
:102FF00006F0A1BDBDE8F0812DE9FF415027DDE9D4
:103000000AC5DDE90D84ADB245F4805545F00205F1
:10301000CDE900C5B54ECDE9026706F0D6FA060047
:103020001FD0FEF70FF805461022414605F054FD6B
:103030001C22AF4905F154000AF0B8FC012085F8C4
:10304000490004B9082421B269850020A885288593
:10305000491C2846FFF7A5FE18B9304606F056F978
:103060000026304604B0C5E770B50D46040009D00F
:10307000FDF7E8FF002805D0C5652046BDE8704093
:1030800006F0A1BA70BD70B50C46164605000DD00D
:10309000FDF7D8FF002809D0022C07D200EB8400EE
:1030A00086662846BDE8704006F08DBA70BD70B5E2
:1030B0000C46164605000DD0FDF7C4FF002809D0C8
:1030C000022C07D200EB840006662846BDE870405B
:1030D00006F079BA70BD2DE9F0410E465FEA0008AE
:1030E00088D0FDF7AFFF04467EB3B4F92800002571
:1030F00020B1FDF7A7FF0AF0A7FB451C304607F0FB
:103100000EF90146B4F92A00884200DA0146304639
:1031100007F0C5FE471C791B2046FFF758FEE0B1BB
:10312000B4F92800FDF78EFF3A4631460AF0B7FBA6
:103130007F1E2764B4F92A0087420ED194F8480014
:1031400001280AD17F1E276407E0FFE704F1280069
:10315000FDF7C5FF0020A08520644046BDE8F04192
:1031600006F031BA46E72DE9F0410C0015461CD0B7
:1031700000262670002818D0FDF764FFB0F928005B
:10318000002812D0FDF75EFF074607F0C8F8014699
:10319000A84200DD2946384607F081FE0546024672
:1031A000394620460AF07BFB665523E710B501003F
:1031B0004FF0000003D00846FDF744FFC06B10BD80
:1031C00070B50C4605001AD0FDF73CFF016BA1421B
:1031D00000DD0C46416BA14200DA0C46C16BA142F6
:1031E0000DD0C463016D09B128468847284606F012
:1031F000EAF92846BDE87040052109F0F6BD70BD2A
:103200002DE9F0410D46060023D0FDF71BFF0446D3
:10321000B0F92A00A8421CD00FDDB4F9280060B133
:10322000FDF710FF074607F07AF8A84205DD2946AA
:10323000384607F034FE00213954A08D291A491C64
:103240002046FFF7AEFD65853046BDE8F04106F04B
:10325000BAB9CFE670B50D46040009D0FDF7F2FE0D
:10326000002805D045652046BDE8704006F0ABB9A2
:1032700070BD2DE9F0418046B1F92A000C46154693
:1032800000280DDDB4F92810002021B10846FDF713
:10329000D9FE07F044F8B4F92A10401C884223DC18
:1032A000284607F0E5FD064601462046FFF78FFD5C
:1032B000D0B1B4F92800FDF7C5FE0746216C07F030
:1032C000EEFD3C1820460AF0BFFA421CA019214628
:1032D0000AF02AFB2946204607F0C6FD0521404694
:1032E00009F083FD012085E6002083E6732F0008A6
:1032F000E8010020F0B5044685B015461E46406939
:10330000B4F90820638A0027CDE90232CDE900171D
:103310000490B4F90C00B4F910308119B4F90A0022
:10332000B4F90E202844FFF767FE050002D0618A39
:10333000FFF790FF05B02846F0BD000070B50D46C0
:103340000646FDF77FFE040035D0102D30D0112D3C
:1033500019D0122D29D0132D21D0303D012D01D9A6
:103360004FF0FF35002D09DB01463246E8B200F090
:1033700067F8216C2046491CFFF793FC3046BDE8F6
:10338000704000F04DB800F06BF8401C012800DDE3
:10339000002032462146C0B200F052F8EEE700F0BD
:1033A0005FF8401EF5D50120F3E7216C491CE3E7E7
:1033B000216C491EE0E770BD2DE9F0410F4616462D
:1033C0001D465FEA000829D0FDF73CFE2A49C1648A
:1033D0002A49044601650021C4E90F71B0F92A1099
:1033E0000A1E06DC2846002101E04008491C00288E
:1033F000FBD1202900DD20218A4202D04046FFF780
:10340000FFFEC4E90C65012084F84800404600F046
:1034100007F84046BDE8F04106F0D5B8BDE8F081B8
:1034200038B5FDF70FFE0446B0F92800FDF70AFE97
:103430000090608D6A46C1B2E06B07F073F838BD4A
:1034400030B40346488D0C6CC96B001B401E012430
:103450008440A143834030BC19431046FFF7B0BEFF
:10346000418D026CC06B891A491E01228A401040AE
:10347000C840C0B2704700003D3300082134000846
:1034800038B5FDF7DFFD0446B0F92800FDF7DAFD99
:10349000009094F84A00012808D0608D94F83820F4
:1034A000C1B2E06B6B4607F081F838BD6946E06B4E
:1034B00007F06DF8618D94F83820491EC9B2F1E724
:1034C00010B5016C0446491CFFF7EBFB2046FFF7E3
:1034D000BAFC2E280DD1B4F92A00216C401E81427D
:1034E00001DA491C00E0491E2046BDE81040FFF704
:1034F000D8BB10BD30B403460C46B0F92A00196C95
:10350000401A93F83810401E31B1814204DA401E4F
:1035100002E002EB82014A00401EFAD2D86B811809
:10352000204630BCFFF74CBE2DE9F34F81B00C466E
:103530000198FDF787FD060066D0132C44D006DC09
:10354000102C4FD0112C31D0122C04D12BE02B2C6D
:103550001BD02D2C20D0FFF776FCC0B22D2853D0E5
:103560002B2851D0204600F0A8F800284CDB8246DA
:103570000198002400902546B6F92800FDF762FD69
:1035800081460027DFF86CB15EE0306C48BB304606
:10359000019900F098F805E0306C10BB30460199B5
:1035A00000F09AF83046FFF78BFF2DE0FFF74BFC59
:1035B000C0B22D2803D02B2801D001220DE03046C7
:1035C000019900F092F81FE0FFF73DFCC0B22D28F2
:1035D000F5D02B28F3D04FF0FF3230460199FFF79A
:1035E00089FF11E0316C491EFFF75BFB3046FFF7A6
:1035F0002AFC2E2808D1316C002901DD491E00E08B
:10360000491C3046FFF74DFB0198BDE8FE4F37E7F8
:10361000C01B316C401E814205D15BF825106D1C2A
:1036200001FB0A440FE019F80000804600F045F85D
:10363000002804DB5BF825106D1C01FB0044B8F189
:103640002D0F00D164427F1CB6F92A00B842DFDC9E
:1036500021460098FFF7B4FDA4E72DE9F0470500E7
:10366000DDE9089A0E461746984624D0FDF7EAFC95
:1036700004462148E064214820650020C4E90F6029
:10368000C4E90C7884F8389084F84AA0012084F8C2
:1036900048002846FFF7F4FE2046FFF7D4FB2E280B
:1036A00004D1216C2046491CFFF7FBFA2846BDE8EF
:1036B000F04705F088BFBDE8F0873038092801D908
:1036C0004FF0FF307047C06B0A46002803DA4142D2
:1036D0001046FFF775BD7047C06B0A46002803DD32
:1036E00041421046FFF76CBD7047C26B002A00DDF7
:1036F000F2E7E8E7302106082935000881340008A0
:1037000030B404460D46B4F92A10236C0120CB1ABC
:103710005B1E00E000015B1EFCD2002A01DAC04300
:10372000401CE16B0144284630BCFFF749BD2DE940
:10373000F0410D460646FDF785FC040037D0102DFC
:103740001CD0112D12D0122D15D04FF0FF32132D99
:103750000DD0A5F130073946092F13D925F02001E6
:10376000A1F1410005280CD837390BE00122314680
:10377000FFF7C6FF1BE0216C491C16E0216C491EB7
:1037800013E01146002912DB608D226C801A401E66
:1037900080000F2282408140E06B9043014330461D
:1037A000FFF70EFD216C2046491CFFF77AFA3046E0
:1037B000BDE8F04100F034B82DE9F0410F4616465F
:1037C0001D465FEA000829D0FDF73CFC1C49C16496
:1037D0001C49044601650021C4E90F71B0F92A10A3
:1037E0000A1E06DC2846002101E00009491C0028C9
:1037F000FBD1082900DD08218A4202D04046FFF7AC
:10380000FFFCC4E90C65012084F84800404600F044
:1038100007F84046BDE8F04105F0D5BEBDE8F081AF
:1038200038B5FDF70FFC0446B0F92800FDF70AFC97
:103830000090608D6A46C1B2E06B06F0F1FE38BDC3
:103840002F3700082138000870B50D460446FDF7F3
:10385000F9FBB0F85C104FEA017225B1002A0DDBCC
:1038600041F0080103E0002A08DA21F00801A0F87D
:103870005C102046BDE8704005F0A5BE70BD10B5D7
:1038800001460020CA8C920607D5B1F940000028F5
:1038900003D1886A07F0DAF9801C10BD2DE9F05FCA
:1038A0004FF0000805460C46C146B0F9426006F0EC
:1038B00025FB8346284606F028FB8246E88C8006D6
:1038C00001D5B5F944902846FFF7D9FF0746B5F969
:1038D0004E0010B106F02CFB80462780A4F8028031
:1038E000ABEB060006EB0901A680401ECA19208139
:1038F00002EB0801E180AAEB0601491E6181A68165
:103900002082F019E681401E6082B5F9180022E09D
:10391000FDF798FBB0F90010B5F90020B0F90430BC
:10392000891A9A1AB0F90230B5F90270DB1BB3425A
:103930000FD1838B1B0606D5B4F910208A4208DB11
:10394000491E218205E0B4F90C10914201DC521CA1
:10395000A281B0F91A000028DAD1BDE8F09F2DE964
:10396000F04F8BB0044605F0CDFE06464FF0000B3D
:1039700006F0D2FA0546304606F0DAFA0646B4F901
:10398000428069462046FFF789FFB4F85C00C0F327
:10399000C007B4F9500010B1FDF754FB8346BDF8E1
:1039A0000400ADF81400BDF80800ADF81800BDF82B
:1039B0000E00ADF81600401CADF80E00BDF80C006E
:1039C000BDF81210401CADF80C00BDF81000ADF8A9
:1039D0001A10401EADF81000A06AFDF7A9F9B4F95D
:1039E0005A3003A907AA5846099106F03FFCBDF9D1
:1039F0000010002001EB080A05F04AFF002844D01F
:103A0000AAF1010904EB8707F86A07F0FFFD786B5C
:103A100007F008FE07AB05A95846099A08F04AFFC7
:103A2000FE4807F0FFFD0021A8F101036A1E0846C9
:103A3000FDF778F8BDF904200021521E731E0846D8
:103A4000FDF770F8BDF90800731E401C6A1E0021C6
:103A5000FDF768F8BDF90A10731E491C6A1E0020A4
:103A6000FDF760F8B4F944106A1E01EB09035146F2
:103A70000020FDF757F8B4F94200022801DB05F0F9
:103A8000B4F905F0DEFE0028BED10BB0BDE8F08F22
:103A9000002800D0D8E670472DE9F041B0F9046065
:103AA000044688B03046FDF7CDFA0546D4F80880C4
:103AB000476E05E079682046884700281ED13F6898
:103AC000002FF7D12068172848D00CDC0D2879D0BA
:103AD00004DC0B2874D00C2818D118E00F2812D061
:103AE000142813D12FE01F284AD0212877D0262868
:103AF00037D02A280AD1A06818B1286608B0BDE8D6
:103B0000F081286E59E02846FFF729FF86E0A46877
:103B1000002CF3D0207A0028F0D0B5F85C00000724
:103B200002D4304606F0D0FA304606F0DDF8B5F89B
:103B30005C00C006E2D5BA482146B0F90020304604
:103B400009F0F6F9DAE769462846FFF7A7FE01997A
:103B5000C8F800100299C8F80410CFE7B5F94C0076
:103B60002BE0A0680228C9D1ADF81A60A0680790C0
:103B700027200590B4F9060005A905F09EFBBDE7D6
:103B8000A068012804D000213046FFF781FFB5E787
:103B9000B5F95E0009F004F920B1B5F95E0006F050
:103BA00093FA05E0B5F94C0009F00AFAA5F85E00B1
:103BB00001213046FFF76CFF0020A0609EE701E086
:103BC00028E00CE0B5F85C00000727D4A068806806
:103BD000F8B1007AE8B1304606F076FA1EE0A76840
:103BE000BFB1B7F90200314608F0F1FE20B1012162
:103BF0003046FFF729FE11E000213046FFF724FE92
:103C0000B7F90000314608F0D1FE10B13888A5F8A8
:103C10005E0003E005F15000FDF761FA21463046F1
:103C200004F060FF00288DD0204605F084FF65E792
:103C30002DE9FE43B0F904700446384606F024F935
:103C40008046FDF7FFF90546866C2068172856D098
:103C500008DC0E283BD00F280BD014284FD0152895
:103C60003CD14CE01F2818D0202829D0222835D15B
:103C700043E0E86B6FF07041884203D007F0C6FC68
:103C8000FDF7E4FC002E06D007CC8DE80700ADF868
:103C900004706846B047BDE8FE83A0680028FAD0EB
:103CA000B5F95E0020B1B84202D006F00DFA04E08A
:103CB000384609F085F9A5F85E000020A060EAE723
:103CC00003B021464046BDE8F04304F00BBFA068B6
:103CD0004168002902DD0068092808D07EB1A4F8F7
:103CE000048003B02046B446BDE8F0436047384640
:103CF00009F066F9A5F85E00CDE7E86BDEE720463F
:103D0000BDE8FE4305F017BF10B50446B0F84C00FF
:103D100086B018B9B4F84E00002829D0694620466C
:103D2000FFF7BCFDB4F94C00A8B1BDF90620BDF900
:103D3000041009F037F8BDF90A00BDF90610421A5F
:103D4000BDF90800BDF90410521C411A491CB4F910
:103D50004C0009F077F9B4F94E00002808D0BDF9FD
:103D60000610BDF902208A1ABDF9041009F01AF8EC
:103D700006B010BD70B50D4604000CD0FDF762F919
:103D80002946503006F037FB002804D02046BDE815
:103D9000704005F018BC70BD2DE9F04F89B013AD2F
:103DA000DDF848C0B5E8100D44F48054A5B2CDE963
:103DB00000C548271B4EDDF85C90CDE9026705F091
:103DC00004FC070049D0FDF73DF905463022514675
:103DD00004F082FE12492022091D05F1280009F095
:103DE000E5FD05F1480500266E82C5F80090A5F8AE
:103DF0001480EE82EE80EE61A5F1480504A9284604
:103E0000FFF74CFD084841F2827100970396CDE917
:103E10000110BDF91A00BDF9161007E0AAAAAA0000
:103E200004020020993A0008313C0008431ABDF909
:103E30001820BDF914005B1C121A521C05F0C5FBBA
:103E4000A5F84C0042F20400044202D1384606F0C4
:103E50000CFA59463846FFF78DFF384609B015E68B
:103E600070B50C4605000CD0FDF7ECF8B0F95A100F
:103E7000A14206D0A0F85A402846BDE8704005F09F
:103E8000A2BB70BD10B50C4600280AD0FDF7DAF8C9
:103E900030F85C1F14B141F0100101E021F0100175
:103EA000018010BDF0B587B005461846DDE90D73F9
:103EB0000C9E002405910294CDE90345CDE9004212
:103EC0003A463146FFF768FF07B0F0BDF0B587B05E
:103ED0000CAC0DF10C0EB4E8E0100024CDE9005C50
:103EE0000294AEE8D000FFF757FFEDE7F0B587B0DA
:103EF00014461D46428A0DF1080C0C9FB0F908309B
:103F00004668ACE8CC000022CDE90012B0F90C10F4
:103F1000B0F91030B0F90E20B0F90A00294420445D
:103F2000FFF73AFF07B0F0BD2DE9F0410F4605005D
:103F300012D0FDF787F80446FFF7A1FC064620469D
:103F4000A762FFF7E1FE3146204607F074FD2846E0
:103F5000BDE8F04105F037BBBDE8F0812DE9F04147
:103F60000E465FEA00084FF0000515D0FDF76AF82D
:103F7000B0F940500446AE420ED0FFF780FC074631
:103F8000A4F840602046FFF7BFFE3946204607F000
:103F900052FD404605F017FB2846BDE8F0810000C1
:103FA00010B50024283007F0CAFE00B1441D204699
:103FB00010BD2DE9FF470446406838B3012802D000
:103FC00002287DD116E0B4F90000FDF73BF8054664
:103FD000806CFCF7ADFE06462846A168FFF7E0FFBF
:103FE00006F0F2FD04463046FCF7A2FE204604B07F
:103FF000BDE8F087B4F90000FDF724F80446806CB2
:1040000006F028FEB4F876100844F0E7B4F9000092
:10401000A668FDF717F805463146283007F07EFE02
:10402000FDF710F8074602A808F01CFEFDF7C0F8DF
:104030003979804695F87420C1F3400001F0010100
:10404000520703D518B959B900200CE008B1032074
:1040500009E0B5F97200B042F6D1E88CC00701D092
:10406000022000E0012005EB8007386D07F0CEFA52
:10407000386E07F0D7FA31462846FFF791FF8146A0
:10408000022006F0C3FEFDF7E1FAD4E90312491C51
:104090004846FCF7B5FB95F8740040071FD5B5F905
:1040A0007200B0421BD1E068ADF800002069ADF8A5
:1040B0000200BDF80C00ADF80400A8F1010000E01A
:1040C0000DE021690844ADF80600386D6FF07F41BE
:1040D000081A07F0A7FA0021684606F0B9FB00208D
:1040E00085E7283007F096BD2DE9F0470E4681465A
:1040F0009046114606F1280007F021FE040001D089
:1041000065886DB9B06CFCF713FE07464346022282
:104110003146484600F048FC05463846FCF708FEA4
:1041200004B16580284663E72DE9F05F82464FF0D1
:104130000008FCF787FF0746FFF7D3FF81460025FD
:104140001CE0294607F1280007F0F9FD040001D022
:1041500026886EB9B86CFCF7EBFD83462B4601222E
:104160003946504600F020FC06465846FCF7E0FD74
:1041700004B12680B04500DAB0466D1C4D45E0DB49
:104180004046BDE8F09F2DE9F041804616460F46B7
:104190000846FFF7A6FFB04210D97C6BB4420DDC95
:1041A000002506E0224639464046FFF79DFF0544BC
:1041B000641CB442F6D32846BDE8F0814FF0FF30CE
:1041C000FAE72DE9F047894680460124FFF789FF89
:1041D0000646012816DD0025484600F0F4FB074698
:1041E000741E09D4224641464846FFF77DFF054428
:1041F000BD4201DC641EF5D5341B641E012C01DABE
:104200000120F5E62046F3E63EB504460020009086
:10421000019002900D462046FCF714FFB0F97000A3
:1042200010B9204605F030FE262100910295ADF828
:104230000640694605F041F83EBD2DE9F041B1F96F
:1042400072504E6B07460C46002D25DB0846FFF7E3
:1042500048FFA8421ADD606BA84217DC2A462146B7
:104260003846FFF790FF80462A4621463846FFF73A
:104270003BFF00EB0805384600F0A5FBA84205DA35
:10428000B4F97200A16B401A401C6063B4F972006B
:10429000616B884200DA606304F13000804608F008
:1042A00081FC04F13C00054608F07CFC2A464146AE
:1042B000384604F07FFC606B801B7DE710B528302A
:1042C00007F03DFD002802D000210180418010BD93
:1042D0001CB50446694608F0CDFC6946204605F049
:1042E00045F91CBD2DE9FC4106460F46151E1ADB9B
:1042F000FFF749FF041E16DB2A4639463046FFF712
:10430000F3FE05466946304608F0B4FCBDF80200ED
:104310006D1E2044ADF802002844ADF80600694641
:10432000304605F023F9BDE8FC817CB50546002A3E
:1043300010DBFFF728FF041E0CDB6946284608F057
:1043400099FCBDF8020069462044ADF802002846F9
:1043500005F00CF97CBD70B591F87540054614B9AF
:1043600008F0DAF90446FF21284605F04DFD06461F
:10437000FE21284605F048FD05462146304608F056
:1043800005FA21462846BDE8704008F0FFB97CB523
:10439000054600F023FB2846FCF754FE0446FFF7D1
:1043A000A0FE206329462046FFF70BFFA063694665
:1043B000284608F05FFC2846FFF7B6FEE063BDF92B
:1043C0000400BDF90010401A401C606421462846D4
:1043D000FFF733FF7CBD2DE9F0410C46060037D0D6
:1043E000FCF730FE0546FFF77CFE00B1401E84421C
:1043F00000DD04464FF0FF37002C0ADB214605F1B3
:10440000280007F08BFC28B1FCF71CFE0079800720
:1044100000D53C46B5F97270A74219D0A5F8724094
:1044200029463046FFF709FF18B13046FFF750FF25
:1044300009E03A4629463046FFF754FF224629460E
:104440003046FFF74FFF3046BDE8F0410421DBE680
:10445000B2E62DE9F04180468CB014460D46084680
:10446000FFF73FFE0746A86CFCF762FCA0680168F6
:10447000079140680890B5F902004242B5F9000082
:10448000414207A806F062FC09A9404608F0F2FB89
:1044900009A907A805F05CFFBDF81C00ADF81400E1
:1044A000BDF82000ADF8180000200190ADF80080A4
:1044B000BDF92400296C401A0390BDF92600049030
:1044C0006C6B26E000B2BDF92210ADF816008842F0
:1044D00021DC224629464046FFF706FE0646BDF887
:1044E0001610401E084400B2BDF91E10ADF81A00A7
:1044F00088420ADB05A808F0C1FD0294E96A684613
:1045000009B1884701E0FFF754FD0498641C30446A
:104510000490BC42D6DB002008F0B0FD0498ADF852
:104520001600BDF82A00ADF81A00286D07F06EF8E5
:1045300005A806F09BF8284604F0AFFB0CB03BE65C
:1045400070B5064691F874000C461546400718D51C
:10455000114604F1280007F0E1FB002811D0FCF718
:1045600071FD01798A070CD481F0010101710421E8
:104570003046FFF749FE2A4621463046BDE87040E6
:10458000B0E670BD10B501004FF0FF3004D0084612
:10459000FCF758FDB0F9720010BD2DE9F0470F4649
:1045A00081464FF0FF35FCF74DFD80464846FFF74A
:1045B000E9FF04464046FFF794FD064608F1280847
:1045C000E4190FD4B4420DDA2146404607F0A6FBA9
:1045D00028B1FCF737FD0079800700D42546002D6F
:1045E000EEDB01E0002D04DB29464846BDE8F0473C
:1045F000F1E6FDE4002802D04FF0FF31CDE770472F
:10460000002801D00121C8E770472DE9F0410C4690
:104610000646FCF717FD122C1CD004DC102C25D00C
:10462000112C04D130E0132C2AD0202C0BD02046A2
:1046300000F011FAA0F16101192929D930380928AF
:1046400026D90020B8E5B0F9722001463046FFF7C0
:1046500077FF3BE0B0F84C20016C11440AE0304693
:10466000FFF795FE3046FFF733FE2FE0B0F84C2001
:10467000016C891A3C3008F0BBFA0028EFD125E024
:104680003046FFF7BDFF21E03046FFF7B3FF1DE0E6
:104690003046FCF7D7FC0746204600F0DCF905461B
:1046A00000240EE021463846FFF77AFC007800F03F
:1046B000D2F9A84204D121463046FFF78CFE05E02E
:1046C000641C3846FFF70DFDA042EBD8012073E5CE
:1046D00002004FF0000001D0104696E770472DE928
:1046E000F0470446B0F9040086B08146FCF7AAFC06
:1046F00005462146484604F0F5F90028206809D00F
:104700000E287DD00DDC05287BD00B287AD00C2814
:1047100035D183E01F2876D1A068002873D10B2102
:104720007AE00F2830D0112834D0262827D1A0686D
:10473000052802D0062822D122E0484605F0AFFB2A
:104740000146B4F90600814205D102A905F0AAFB91
:10475000039868630CE0484605F09EFB0146B4F9F7
:10476000060081427DD102A905F09CFB03982864D4
:104770004846FFF7ADFD0A214846FFF745FD70E0CA
:104780004846FFF704FE6CE0224629464846FFF7FC
:1047900060FE66E0A068017AB1B3D0E900474FF04F
:1047A000FF386946484608F065FABDF90000A042A6
:1047B0001FDCBDF90200B8421BDCBDF90400A042B9
:1047C00017DBBDF90600B84213DB2846FFF789FC6A
:1047D0008246BDF902606C6B09E0B74200DBA0467F
:1047E000224629464846FFF77FFC0644641C544590
:1047F000F3DBB8F100040EDB42462946484604E0EC
:104800001EE028E017E014E024E0FFF799FE2146BF
:104810004846FFF7E0FD0121484608E0A168484608
:1048200021B1097A002904D1022100E00321FFF718
:10483000EBFC06B077E405F1280007F015FA10E06C
:10484000A068416800290CDD01684846FFF740FF79
:104850000028EED105E04846FFF799FD484604F0F0
:10486000B2FE204605F067F9E3E72DE9F0410C467A
:10487000060026D0FCF7E6FB0746FFF732FC0546AC
:10488000AC421EDA002C0FDA002404E02146384640
:10489000FFF714FD641CAC42F8DB3046FFF777FDF0
:1048A0003046BDE8F04113E521463846FFF706FDE6
:1048B0003046FFF76CFD224639463046BDE8F041F0
:1048C00033E579E42DE9FC4106000D462CD0002D9E
:1048D0002AD00020009001903046FCF7B3FB074639
:1048E000284608F0B1FF821D07F12800694680467E
:1048F00007F092F9002817D1404607F08BF9441EC3
:104900002146404607F01BFA2946401D08F078FF73
:1049100021463846FFF7D2FC3046FFF738FD2246E5
:1049200039463046FFF7DEFCFDE470B506000D4663
:1049300010D04DB1002403E03046FFF7C3FF641CE4
:1049400055F824100029F7D13046BDE870404FF0EB
:10495000FF318AE770BD2DE9FF415826DDE90D875B
:10496000DDE90AC43F4DA4B2CDE900C4CDE9025649
:1049700004F02BFE040014D0FCF764FB0546102263
:10498000414604F0A9F82822374905F1480009F00A
:104990000DF81FB139462046FFF7C7FF2046FFF745
:1049A000F6FC204604B007E400B585B00192ADF8EE
:1049B00000000293C96A684611B1884705B000BD7E
:1049C000FFF7F7FAFAE71CB5694608F053F9BDF9A5
:1049D0000600BDF90210401A401C1CBD7CB50546FE
:1049E000FCF730FB044690F8740080070FD5294689
:1049F0002046FFF7E6FB06462046FFF772FB86429D
:104A000001D2012100E00021284605F0C7FB94F8FF
:104A10007400C00715D02846FFF786FB0646694696
:104A2000284608F027F9BDF90400BDF90010401A26
:104A3000401C864201DD012100E00021284605F0EE
:104A4000ACFB94F87500002804D021462846BDE848
:104A50007C4080E47CBDA0F14101192900D82030C0
:104A600070470000DF4600082802002070B586B0BD
:104A700014461D46468A0022B0F90830CDE90126C9
:104A80000091CDE90332B0F90C10B0F91030B0F953
:104A90000E20B0F90A0029442044FFF75CFF06B05D
:104AA00070BD70B50D46040011D0FCF7CBFA90F83C
:104AB000741021F001020DB142F00102914206D0C2
:104AC00080F874202046BDE87040FFF760BC70BDE0
:104AD00070B50D46040011D0FCF7B4FA90F87410CC
:104AE00021F002020DB142F00202914206D080F89C
:104AF00074202046BDE87040FFF749BC70BD00003F
:104B000010B50446C06D002806D1206D06F0A2F84D
:104B1000A16D002900D0401C10BD7CB50D460124BC
:104B2000694608F0A7F8B5F9280007F0E5FCBDF9DB
:104B30000610BDF90220891A0E1A761C2846FFF7C6
:104B4000DFFF18B1B6FBF0F404B9012420467CBDA8
:104B50002DE9F04F80468FB00C461746B1F928007A
:104B600007F0E3FC089004F12A000C9007F052F8DB
:104B7000064621464046FFF7D0FF00902046FFF74B
:104B8000BFFF0990206E0390606E0190206AD0F8FC
:104B900014A0B4F9280007F0AFFC00EB0A05009858
:104BA000E16E401CB04201DC009E761C88190B901F
:104BB000B8680168049140680590B4F90200424267
:104BC000B4F90000414204A806F0C0F806A9404626
:104BD00008F050F806A904A805F0BAFB206C06F00E
:104BE00021FD206DFCF7A4F8022006F00FF9E06E1D
:104BF000A2E001460C9807F0A2F8029000287DD0B0
:104C000028B2BDF91610ADF81A00884277DC099871
:104C1000BDF9121028440D90401E00B2ADF81E00E0
:104C200088426DDB616D414506D1E08CC00701D043
:104C3000022602E0012600E0002604EB8609D9F8EE
:104C4000340006F0E3FCA06D20B1BDF81E00401E4C
:104C5000ADF81E00A16F0027AAEB01055BE0B4F9D7
:104C60002800394607F0E3F9014628B2BDF91420BF
:104C7000ADF81800904251DC05EB010BABF10100DF
:104C800000B2BDF91010ADF81C00884241DB394676
:104C9000029807F054F80546B0F9000058B1FCF747
:104CA000D1F90A9050F8260006F0B0FC0A9800EB03
:104CB0008600C06801E0D9F8400006F0B3FCBDF9F9
:104CC0001E30BDF91C20BDF91A10BDF91800FCF703
:104CD00091FCBDF8181003980844ADF81800BDF811
:104CE0001C100198081AADF81C00394604F12E007A
:104CF00007F025F8026806A9A81C02E01AE020E0E7
:104D000017E0FBF75DFE288818B1D9F8340006F0EB
:104D10007DFC5D467F1C08988742A0DBBDF914200E
:104D2000AA4206DBBDF91E30BDF91A102846FCF771
:104D300061FC0D9D08F101000B9980468842FFF649
:104D400058AFBDF91600A8420BDB606B06F05EFCA5
:104D5000BDF91630BDF91420BDF910002946FCF745
:104D600049FCA06DF0B3E06C06F05CFCB4F92800DF
:104D700007F0C2FB00EB0A056D1E002611E0099842
:104D80000544BDF91600A8420EDBBDF91200A84289
:104D900006DCBDF91420BDF910102846FBF764FEAF
:104DA000761C00988642EADBA16F0026AAEB01057B
:104DB00015E0B4F92800314607F039F90544BDF98A
:104DC0001400A84210DBBDF91000A84206DCBDF9B2
:104DD0001620BDF912102846FBF76AFE761C0898CB
:104DE000864200E000E0E4DB204603F056FF0FB00F
:104DF000BDE8F08F7CB50546B1F9280007F07CFBD3
:104E000004466946284607F035FFBDF802006946AA
:104E10002044ADF80200284604F0A8FB7CBD2DE933
:104E2000FC4180460D46161E1DDBB5F9280007F033
:104E300063FB07462846FFF763FE04466946404683
:104E400007F018FFE96EBDF90200711A01FB0400BA
:104E50003844ADF80200641E2044ADF806006946EF
:104E6000404604F083FBBDE8FC813EB504460020CB
:104E70000090019002900D462046FCF7E3F8B0F94F
:104E8000800010B9204604F0FFFF26210091029512
:104E9000ADF80440694604F010FA3EBD2DE9F0413A
:104EA0000C46CD6E496D804604F16806002905DB8D
:104EB00000231A46304607F083FE02E0304607F032
:104EC00071FE04F17400074607F06CFE3A46314665
:104ED000404603F06FFEE06E401BBDE8F0812DE917
:104EE000FC4780460D4601F12A0006F093FE044679
:104EF00029464046FFF711FE286704B901244046C1
:104F00006946AC6607F0B6FEBDF904000124401CFA
:104F1000E867B5F92800814607F007FB07000AD0CB
:104F20000026344605E03146484607F080F8044440
:104F3000761CBE42F7DBD5E91E01621A904202DD03
:104F4000201A081A0444294640466C67BDE8FC470D
:104F5000A4E710B5044600F01CFA002805D0411E55
:104F60002046BDE8104007F0A4BB10BD10B50446B4
:104F700000F00FFA411C2046BDE8104007F099BB35
:104F80002DE9FE4FB0F9046005460146304603F0B6
:104F9000A9FD002823D03046FCF754F804462868C1
:104FA0000E2868D006DC052848D00B2875D00C28C0
:104FB0006FD14EE00F2846D025283FD0262868D153
:104FC000A86805280DD0062838D0072807D1B5F9DC
:104FD0000600B4F92810884201D100202085BDE8E0
:104FE000FE8F304604F05BFF0146B5F906008142B2
:104FF00009D1694604F056FF0198E0662146304623
:10500000FFF7F8FE15E0304604F046FF0146B5F91B
:1050100006008142E3D1694604F044FF0198A0678D
:1050200021463046FFF75BFFB4F92800A16F07F077
:10503000CAF90A213046FFF718FFD0E7214630466B
:10504000FFF74DFFCBE72A4621463046FFF780FDAC
:10505000C5E7AA6821465AB1107A38B1304600F047
:105060001EF90124304605F02FF802E0022400E08A
:1050700003242146DEE7A868416800293ADD01687B
:105080003046112906D0132934D1FFF76FFFA6E768
:1050900003E02FE0FFF75DFFA1E704F12A0083465C
:1050A00006F0B8FD814604F12E00824606F0B2FDFE
:1050B0000746002616E03146584606F040FE804678
:1050C000002409E02146404606F039FEB0F9000010
:1050D00008B1FBF7FFFF641CBC42F3DB404606F05F
:1050E000C3FD761C4E45E6DB504606F0BDFD584636
:1050F00006F0BAFD284604F01EFD70E72DE9FF41D9
:105100000446DDE90A6742EA03000D462043DDF864
:10511000348028430FD16946304604F029FEBDF99A
:105120000400BDF90010421ABDF90600BDF90210D5
:10513000521C431A5B1C64207949CDE90210BFB2AE
:1051400029462046CDE9006704F03FFA050023D048
:10515000FBF778FF04461022414603F0BDFC2022F5
:10516000704904F1340008F021FC0020411EC4E91C
:1051700015100121C4E91701616602210095CDE9EE
:105180000110034602460146039007F02DF82085E2
:1051900021462846FFF7A3FE284604B09DE62DE9E8
:1051A000FF415FEA00080C4615462BD0FBF74AFF8B
:1051B0000646B0F928002A462146039B07F01AF953
:1051C000042203A906F12E0006F026FD404600F059
:1051D000D2F805000ED0002406F12A0708E0214687
:1051E000384606F0ACFD0522002106F015FD641CD2
:1051F000AC42F4D331464046FFF771FE314640469B
:10520000FFF7F8FDBDE8FF812DE9FC5F0C465FEA82
:10521000000B42D0FBF716FF82462A30054601906C
:1052200006F0F8FC009004220021284606F0F4FC69
:10523000002832D1BAF9280007F077F98146002515
:105240001EE0DDE9001006F07AFD80460CB180CC4E
:1052500000E0002707B90024384605F0ECF8461CAA
:10526000421D0021404606F0D7FC2946404606F084
:1052700066FD012E03DD3946801C08F0C1FA6D1C65
:105280004D45DEDB51465846FFF729FE009A02B035
:1052900051465846BDE8F05FC1E5BDE8FC9F2DE9E9
:1052A000FC4107460D461446B1F9280007F024F9E1
:1052B00006466946384607F0DDFCBDF90220636802
:1052C0002068A3EB0203BDF90010A3EB0604BDF8B0
:1052D0000430401AA3EB010109B2ADF80410BDF887
:1052E0000630A3EB020212B2ADF8062017D48142B9
:1052F00015DB002C13DB901BA04210DB2846FFF7C8
:10530000FFFBB4FBF0F0E96E441805F12A0006F04B
:1053100081FCA04203D92146384607F0CAF9A2E52C
:10532000814F0008500200207FB514461D46B0F999
:105330000820438A0026CDE90232CDE90016B0F9F3
:105340000C10B0F91030B0F90E20B0F90A00294461
:105350002044FFF7D3FE04B070BD10B501004FF03C
:10536000000007D00846FBF76DFEBDE810402E3068
:1053700006F050BC10BD10B501004FF0000007D082
:105380000846FBF75FFEBDE810402A3006F042BC3D
:1053900010BD10B501004FF0FF3003D00846FBF7F9
:1053A00051FE406D10BD2DE9F0410E4607004FF053
:1053B00000050ED0FBF746FE856D0446AE4208D0D0
:1053C00001463846A665FFF78AFD21463846FFF7B5
:1053D00011FD2846BDE8F0812DE9F0470F4616463D
:1053E00099465FEA000826D0FFF7B7FFB84222D9F6
:1053F0004046FFF7C0FFB0421DD94046FBF722FEF2
:105400000546484605F017F8441C314605F12A00C8
:1054100006F095FC221D394606F0BBFC012C03DD8D
:105420004946801C08F0ECF9324629464046BDE862
:10543000F047FFF7F4BCBDE8F08770B50C460500F7
:105440000BD0FBF7FFFD0146006EA04205D02846B9
:105450000C66BDE87040FFF7CDBC70BD70B50C4662
:1054600005000BD0FBF7EEFD0146406EA04205D0D3
:1054700028464C66BDE87040FFF7BCBC70BD00001C
:1054800070B50168B0F904400E290ED01E2905D070
:10549000262915D0BDE8704004F04DBB2046BDE87C
:1054A00070406FF07F4106F0A4BB8068D0E9001027
:1054B000002814D00D290CD01B2910D1012109E09E
:1054C0008568B0F9060004F0AEFC022D07D1012872
:1054D00005D100212046BDE87040FCF7E3BF70BD58
:1054E0002DE9F74F96B08B4606F036FB80463A2101
:1054F00001EB4804482102A808F08AFA07F0D3F922
:10550000FBF716FC0090FF2214A8169905F066FB25
:10551000BDF95400BDF95010451ABDF95600BDF94A
:1055200052100835471A7F1C05F10C00844200DA3E
:10553000044606F0EEFA05F089FB391801EB48063F
:105540002136584605F040FB00EB4800A04200DD44
:10555000044606F0B9F8A04202DA06F0B5F80446AF
:1055600006F0B5F8B04202DA06F0B1F8064606F0E9
:10557000ABF8001B00EBD0704FEA600906F0A7F80B
:10558000801B00EBD0704FEA600A0098FBF7D0FB5D
:105590002948CDE9020BADF812901898ADF814A087
:1055A000ADF81640ADF81860C00602D51020ADF871
:1055B0001A00224808901698621BC8F10001099051
:1055C00002EB410000EBD0704010ADF82A0004203F
:1055D000ADF82C0002200D9019480E9019A00F90E4
:1055E000ADF82E500120ADF8400004EB41003238F8
:1055F00000EBD070ADF830704010ADF842000837C5
:10560000ADF844703220ADF846001420ADF84800E3
:1056100000200090034601900B4A032102A8FCF7EA
:105620000EFF19B0BDE8F08F10B5FFF759FFBDE8C8
:105630001040FCF745BF0000ED3E0008EB88000875
:10564000BB2200084F4B0000815400082DE9F041B7
:1056500005460C460026B0F93800FBF7F3FC074678
:10566000E98F05F01CFCC219944204D2111B20469C
:1056700005F026FC06463046BDE8F081F7B50D463C
:1056800001F0ECF8064695F87400800632D52846FD
:105690000299FFF7DBFF074695F87820314602981C
:1056A00004F0D3FE0446B84222DB95F8780068B1D6
:1056B0003C462146029801F0E2F805463946029838
:1056C00005F0EDFB0299084402900CE0029804F00A
:1056D00026FE04460CE02A20FBF7A2FD05440CB18F
:1056E000B54205DC641C02A805F0C6FB0028F2D117
:1056F0002046FEBD95F878203146029804F0A5FEBC
:10570000E7E72DE9F041154607460C4601F0A6F8FB
:10571000014694F87400800615D529462046FFF707
:1057200095FF06462A4621463846FFF7A7FF04465E
:105730000146284605F0B3FBB4429DDA295C0A29EC
:105740009AD1401C98E794F878202846BDE8F041AB
:1057500004F0DEBE10B50C4690F87410890603D52F
:105760002146FFF773FF30B1204605F079FBBDE815
:105770001040FBF755BD2A20F9E72DE9F04180469E
:105780000D461446B1F93800FBF75CFCB5F8521031
:105790000746A0B2A14218D008D2B5F85020A5F80B
:1057A000520002EB0706A4EB010409E03E46A5F80F
:1057B000520005E0324629464046FFF7A2FF064464
:1057C000641EF7D2F01BA5F85000B5F8500038441D
:1057D00052E72DE9F04781468846194614460025D0
:1057E000104605F05CFBB8F85010261881421EDA0E
:1057F0000C44B8F852501AE0224641464846FFF79A
:105800003DFF0146204605F04AFB07192246414666
:105810004846FFF776FF0444BE4207D8BE420AD18D
:10582000A74208D1207830B16D1C04E06D1C2078AF
:1058300008B1A642E0D82846BDE8F0872DE9F04738
:10584000054691F875000C4691469A4600072ED5FC
:1058500000273E46206FFBF76BFAB4F93800C8B159
:10586000FBF7F0FBB4F84A10B4F8467001EB0008FF
:105870003A4621462846FFF780FF054608E02946BC
:105880002046FFF767FF0644284605F0E5FA054481
:105890004545F4D3A4F84C60FBF78AFC7843A4F8A0
:1058A0004E0094F8750020F0080084F8750034F874
:1058B0004C1FC9F800106188CAF80010BCE77CB51D
:1058C00005460C466B4601AAFFF7B8FF206F05F0AE
:1058D000C1F90099002391FBF0F11A4604F1580038
:1058E000009107F06DF91E231A4604F16400019936
:1058F00007F066F9284601F013F87CBD2DE9F04762
:10590000814691F875000C46400736D50020A4F872
:105910004200208F58B3206FFBF70AFAB4F9380021
:10592000FBF790FB0646324621464846FFF7A6FEA7
:1059300080460025374608E039462046FFF70AFF33
:105940000544384605F088FA0744B8F10108F3D257
:10595000B4F84200A84201DAA4F842503246214687
:105960004846FFF7CEFE064430780028DBD194F895
:10597000750020F0040084F87500B4F842005BE77D
:105980002DE9F041804691F875000C46800729D535
:10599000B4F938000025E0B1FBF754FB0646206F50
:1059A000FBF7C6F9324621464046FFF767FE01463F
:1059B000304605F074FA304405F052FA070000D082
:1059C0006D1C324621464046FFF79BFE0644002FE1
:1059D000E8D16D1CA4F8405094F8750020F0020046
:1059E00084F87500B4F8400046E670B50546FBF74C
:1059F00029FB044601462846FFF7C2FFA065214661
:105A0000284600F09AFF206621462846FFF776FFD9
:105A100060662146284600F021FFE06621462846C0
:105A2000BDE870404BE770B5064691F874000C462F
:105A300000071DD5304600F080FF05462146304660
:105A4000FFF79EFF854201DA012500E00025294687
:105A5000304604F0A3FBA8420AD094F8750040F049
:105A60000E0084F875002046BDE8704000F050BF7D
:105A700070BD70B50546FBF7E5FA064601462846B7
:105A8000FFF7D1FF96F87400C00617D531462846B7
:105A900000F0E4FE044631462846FFF72FFF84421B
:105AA00001DA012400E000242146284604F075FBB9
:105AB000A04203D031462846FFF7B5FF2846BDE88F
:105AC000704092E72DE9FF5FB1F93800DDF838B09A
:105AD0000D4614469946002851D0FBF7B3FA074605
